:100000000C94650D0C948D0D0C948D0D0C948D0D30
:100010000C948D0D0C948D0D0C948D0D0C948D0DF8
:100020000C948D0D0C948D0D0C94CF2A0C94412BB7
:100030000C948D0D0C948D0D0C948D0D0C948D0DD8
:100040000C948D0D0C94911D0C948D0D0C948D0DB4
:100050000C948D0D0C948D0D0C948D0D0C94471DEE
:100060000C948D0D0C948D0D0C948D0D0C948D0DA8
:100070000C948D0D0C948D0D0C948D0D0C948D0D98
:100080000C94BC1E0C948D0D0C948D0D0C948D0D48
:100090000C948D0D0C948D0D0C948D0D0C948D0D78
:1000A0000C948D0D0C948D0D0C948D0D060800266E
:1000B00040402600FFFFFFFFFFFF060800067070AC
:1000C0000600FFFFFFFFFFFF060800000000000022
:1000D0000F9AF1F11A0F03080000006E7A0E07085C
:1000E000000C1C381C0C000C1E3E7C3E1E0C07082D
:1000F000001800000000003C7E7EC3C3663C080878
:10010000000008000000000000387C7E7D390000FF
:100110000808007C7E0E060606007CFEFF7F0F0F9F
:100120000F0606100000FEFE0000000003030000A2
:1001300000FEFFFFFE0004477F7F47049009001484
:1001400091270028904500148180F0180E140007B4
:100150000E1300130805000C010709030011090D17
:1001600007FF180E1400070E130013080500020EF7
:100170000C0212FF180E1400070E130013080500DE
:10018000020E0E0C0511010D07FF90430096800032
:10019000329043914A01C88081F0901800C880F0E5
:1001A000101000F82442F181E1F1E1013519020457
:1001B000F8000000013E60D9999D86869A9CE01067
:1001C0000F0000F8FCFEFFFFFFFFFFFFFFFFFEFC3C
:1001D000F8000000013F7FFFFFFFFFFFFFFFFF1F51
:1001E0000F0000F04884E202C2E2C2026A32040850
:1001F000F00000011AE499839B9B9D9C9C8098D8F9
:10020000271800F0F8FCFEFEFEFEFEFEFEFEFCF8E7
:10021000F00000011BFFFFFFFFFFFFFFFFFFFFFFDD
:100220003F1800E01864020202020202020264188F
:10023000E0000007788890B0B0B0B0B09090C032C5
:100240000D0000E0F8FCFEFEFEFEFEFEFEFEFCF8E9
:10025000E00000077FFFFFFFFFFFFFFFFFFFFF3F03
:100260000D00F008046281810181810181816204B5
:10027000F8000F106C86919B9ABBBBA29B99EE1065
:100280000F00F0F8FCFEFFFFFFFFFFFFFFFFFEFC8B
:10029000F8000F1F7FFFFFFFFFFFFFFFFFFFFF1FA4
:1002A0000F00F04884E202C2E2C2026A320408F09F
:1002B0000000252644419B839B9D9C9C9880985BD5
:1002C0002418F0F8FCFEFEFEFEFEFEFEFEFCF8F03A
:1002D00000003D3F7F7FFFFFFFFFFFFFFFFFFF7F2E
:1002E0003C1800F00C320101010101010101320C46
:1002F000F000000718204090B0B0B0B09090C0322D
:100300000D0000F0FCFEFFFFFFFFFFFFFFFFFEFC04
:10031000F00000071F3F7FFFFFFFFFFFFFFFFF3FD2
:100320000D00E01008C40202020202020202C40828
:10033000F0000708182C535754B7B7B4978380F0D0
:100340000F00E0F0F8FCFEFEFEFEFEFEFEFEFCF8F6
:10035000F000070F1F3F7F7F7FFFFFFFFFFFFFFFC3
:100360000F00E01008040202020202020202040866
:10037000F000070818204346545454545643403064
:100380000F00E0F0F8FCFEFEFEFEFEFEFEFEFCF8B6
:10039000F000070F1F3F7F7F7F7F7F7F7F7F7F3F43
:1003A0000F00000400000401020500030600220102
:1003B0001001FE00EE00DE00D600C800BA00AC005E
:1003C000180E1400070E130013080500020E121277
:1003D000000A0518FF180E1400070E13000100088C
:1003E00005011113FF740162014B01180E1400077F
:1003F0000E13001308050012160E1104FF180E1438
:1004000000070E130001000A0518FF90270028912D
:100410001D00288000288190270028911D00288039
:1004200000288190270028911D00288000288190B5
:10043000270028911D00288081F0906D000F80F02A
:100440009045001E80F0901D006480F0EEFCFE00E0
:100450000BFC0200FBEC00FEFF06000200000001A6
:1004600000FF0100FF00010000001008007E424272
:10047000424242424242424242427E00081000FE54
:1004800002020202FE00007F404040407F00080858
:1004900000000000000000008142001818004281A6
:1004A000FF040210140913FF07010C05000E1505C7
:1004B00011FF1008FFD5ABD5FF001F1F1818FFFF55
:1004C0000003FFFF030800000007050707070704F4
:1004D000050B0513050012011505FF120617FF1283
:1004E000061719FF0D05160007010C05FF030E0D79
:1004F00013090D1405FF0918387CEEC783C7EE7C7D
:1005000038FC0000FF01FF0000FCD8F870FFACFFD2
:100510000000033710F80C0CFCFCF000FCFC0C0C89
:10052000FCFCF8F000FCFC0C0CFCFCF8F0003CFCC3
:100530008080FCFCFC3C00FCFCFCF8E080E0C30795
:100540000EFC18FC0E07C3000CFCFCF03F06063F37
:100550003F3F003F3F06063F3F3F3D003F3F3030BB
:100560003F3F1F0F0000013F3F3F3F0100003F3F63
:100570003F00030F1F8F0000FFC0FF00003F060673
:100580003F3F3F010201010103030202011010FF7E
:10059000FFFFFFFFFFFFFFFFFFFFFFFFFFFFFFFF6B
:1005A000FFFFFFFFFFFFFFFFFFFFFFFFFFFFFF005A
:1005B000FCA2428242C242423C003C72423C800069
:1005C000316AEB8A8A7380FFFFFFFFFFFFFFFF00A6
:1005D000FCA252A2C2FC01FFFFFFFFFFFFFFFF00D2
:1005E000315A6B59687086FFFFFFFFFFFFFFFFFF67
:1005F000FFFFFFFFFFFFFFFFFFFFFFFFFFFFFF0109
:100600007C6A526A526244447C017C6242643D8E40
:10061000B1B1293E80BFA834793E00FFD13E8003AE
:1006200079542A562990C8D39C003E52647803001E
:10063000EEAAEEEEEEEEEEEEEEEEEEEEAAEE00003E
:10064000775577777777777777777777557700402C
:1006500000100000010100000000040400004080C0
:100660000808404002020010100000040400800A44
:10067000EEEE0E06060606060606060EEEEE0A204C
:10068000BFBFE0C0C0C0C0C0C0C0C0E0BFBF20FF8F
:10069000FFFFFFFDFBFDFFFFFF7FBF7FFFFFFFFFB2
:1006A000FFF7EBF7FFFFFFFFFFFFFEFFFFDFFF009E
:1006B000000000240027002A002D00300000000068
:1006C00000250028002B002E003100040802011034
:1006D000408040102040804080080204018040207B
:1006E0001002011080102040402004040404040380
:1006F00004050202020204030202020206060606C2
:10070000060604040202020404060115012601374C
:10071000014A015D01720188019F01B801D201EE19
:10072000010B022A024B026E029302BA02E402108B
:10073000033F037003A403DC03170455049704DD8F
:100740000427057505C80520067D06E0064907B89B
:10075000072D08A9082D09B9094D0AEA0A900B408E
:100760000CFA0CC00D910E6F0F5A1053115B1272E0
:10077000139A14D41520178018F519801B231DDE39
:100780001EB420A622B524E4263429A72B402E002F
:1007900031EA330037453ABC3D68414C456B49C8A6
:1007A0004D68524F57805C006210111213151617D6
:1007B000181A1C1D1F21232527292C2E3134373AC6
:1007C0003E4145494E52575C62686E757B838B9300
:1007D0009CA5AFB9C4D0DCE9F7D5F08D14A1C881D0
:1007E000CFD9F1AF20000608002640402600FFFFC9
:1007F000FFFFFFFF0608000670700600FFFFFFFF07
:10080000FFFF06080000000000000F9AF1F11A0F28
:1008100003080000006E7A0E0708000C1C381C0C40
:10082000000C1E3E7C3E1E0C070800180000000055
:10083000003C7E7EC3C3663C080800000800000040
:10084000000000387C7E7D3900000808007C7E0EA8
:10085000060606007CFEFF7F0F0F0F060608002627
:1008600040402600FFFFFFFFFFFF060800067070F4
:100870000600FFFFFFFFFFFF0708000C1C381C0CE1
:10088000000C1E3E7C3E1E0C0708001800000000F5
:10089000003C7E7EC3C3663C0808007C7E0E0606D4
:1008A00006007CFEFF7F0F0F0F0606100000FEFE05
:1008B000000000000303000000FEFFFFFE000447ED
:1008C0007F7F47040808E38D121212128DE3E38D37
:1008D0001E1E1E1E8DE30808E3CD90969690CDE374
:1008E0000808E00E2E203D0101011010013EB22A41
:1008F0009C009E3C300206E09CC23C81807F536C91
:10090000300102050000003C566A7C810E10F1EDBA
:100910009D7BF7F7EFEFF7F77B9D6DF18FB7B9DEB2
:10092000EFAF37B7EFEFDEB9B68E0808C3BD66424A
:100930004266BDC31010FF0180C6E7F73B3D3D3B5B
:10094000F7E7C68001FFFFFCFBF7EFDFB67070BE74
:10095000DFEFF7FBFCFF1010FFFF07031303C3C318
:10096000C3C303130307FFFFFFFFE0C0C8C0C2C338
:10097000C3C0C0C8C0E0FFFF101000F82442F181DE
:10098000E1F1E10135190204F8000000013E60D9EF
:10099000999D86869A9CE0100F0000F8FCFEFFFFF0
:1009A000FFFFFFFFFFFFFEFCF8000000013F7FFF9D
:1009B000FFFFFFFFFFFFFF1F0F0000F04884E20270
:1009C000C2E2C2026A320408F00000011AE499830C
:1009D0009B9B9D9C9C8098D8271800F0F8FCFEFEFD
:1009E000FEFEFEFEFEFEFCF8F00000011BFFFFFF16
:1009F000FFFFFFFFFFFFFFFF3F1800E01864020248
:100A00000202020202026418E0000007788890B037
:100A1000B0B0B0B09090C0320D0000E0F8FCFEFE27
:100A2000FEFEFEFEFEFEFCF8E00000077FFFFFFF7B
:100A3000FFFFFFFFFFFFFF3F0D00F0080462818111
:100A40000181810181816204F8000F106C86919B05
:100A50009ABBBBA29B99EE100F00F0F8FCFEFFFFC3
:100A6000FFFFFFFFFFFFFEFCF8000F1F7FFFFFFFF0
:100A7000FFFFFFFFFFFFFF1F0F00F04884E202C2ED
:100A8000E2C2026A320408F00000252644419B833A
:100A90009B9D9C9C9880985B2418F0F8FCFEFEFEC1
:100AA000FEFEFEFEFEFCF8F000003D3F7F7FFFFFF4
:100AB000FFFFFFFFFFFFFF7F3C1800F00C3201013A
:100AC000010101010101320CF000000718204090E3
:100AD000B0B0B0B09090C0320D0000F0FCFEFFFF4F
:100AE000FFFFFFFFFFFFFEFCF00000071F3F7FFF3F
:100AF000FFFFFFFFFFFFFF3F0D00E01008C40202F1
:100B0000020202020202C408F0000708182C535720
:100B100054B7B7B4978380F00F00E0F0F8FCFEFE06
:100B2000FEFEFEFEFEFEFCF8F000070F1F3F7F7F7B
:100B30007FFFFFFFFFFFFFFF0F00E010080402022E
:100B40000202020202020408F000070818204346CD
:100B500054545454564340300F00E0F0F8FCFEFE6D
:100B6000FEFEFEFEFEFEFCF8F000070F1F3F7F7F3B
:100B70007F7F7F7F7F7F7F3F0F000F100000E0F0BF
:100B800038FCFC3CFCFCD8F0E00000001C372F3E99
:100B90003F3F3E3F3F3F3F2F3C0000E0F0F8FCFE70
:100BA000FEFEFEFEFCF8F0E0003C7F7F7F7F7F7F53
:100BB0007F7F7F7F7F7F7F3C10100000E0FCF0E0B4
:100BC000F890F098E0F0FCE0000000001F7F3F0F7D
:100BD0000F1F1F0F0F3F7F0F000000E0FCFEFCF80F
:100BE000FCF8F8FCF8FCFEFCE000001F7FFF7F3FF4
:100BF0001F3F3F1F3F7FFF7F0F0000F0E0C080E0FE
:100C0000F890F098E080C0E0F000000F0707070FB1
:100C10000F1F1F0F0F0707070F00F0F8F0E0E0F8B5
:100C2000FCF8F8FCF8E0E0F0F8F03F1F0F0F0F1FA2
:100C30001F3F3F1F1F0F0F0F1F3F0E080030706038
:100C40006060607078647C6438003078F8F0F0F0B0
:100C5000F0F8FCFEFEFE7C38000030786078607CA6
:100C6000727E723C00000030F8FCF8FCFCFEFFFFD6
:100C7000FF7E3C000808DB9924DBDB2499DB0D10A8
:100C8000008000003CE666FE5EE63C000000032BB0
:100C90000900101414006044060080C0E0FCFEFF50
:100CA000FFFFFFFFFEFC80077F7F7F3F3F3F3F7FCF
:100CB000FFFF4F0F08080000000000000000381C74
:100CC000163838161C3800000000000000000070C4
:100CD000BC3838BC70000808003C667E667E3C006C
:100CE0003C7EFFFFFFFF7E3C007848784878780024
:100CF00078FCFCFCFCFCFC7803080000006E7A0E1B
:100D00000708000C1C381C0C000C1E3E7C3E1E0C00
:100D10000C08E18E08083848483808088EE1C09E63
:100D200012127272727212129EC00808000008003D
:100D30000000000000387C7E7D3900000808007C3F
:100D40007E0E060606007CFEFF7F0F0F0F060F10BB
:100D50000000008080808080808080808080000013
:100D60000000010101010101010101010100000078
:100D700080C0C0C0C0C0C0C0C0C0C0C0E0000001D2
:100D8000030303030303030303030307000000003B
:100D90000000FEFE00000000000000000000000057
:100DA000000707000000000000000000000001FF35
:100DB000FFFFFF0100000000000000000000070F1F
:100DC0000F07000000000000030E0D0711011312B1
:100DD000FFEA0D4A0838082808180810080208F425
:100DE00007E6070508FFC1D5EBFF06100000FEFE71
:100DF000000000000303000000FEFFFFFE000447A8
:100E00007F7F4704051014090FFF03080000000747
:100E100005070707070C010FFF0308030603040477
:100E20000406080000000000000F9AF1F11A0F08F4
:100E300008000008000000000000387C7E7D3900BA
:100E40000003080000006E7A0E0508FFC1D5EBFF15
:100E5000AA0898082F0E88087808410E210E6A0803
:100E60005C084E0D331600003C0DC00DA30D2A0D7D
:100E70004E0E0000100DE5100000000D00000000F7
:100E8000F80C00000000D60CB010FE0FB40C441596
:100E900004117E0C2F19FE0F740C7416091A3A0CEB
:100EA000721AFE0FB80B441504117A0BCF14FE0F03
:100EB00078091114D50F0000000000005609000049
:100EC000630E34090000630E2A09231A00000C097E
:100ED0008F0D0000EA080000FE1A00004C1C1A16D4
:100EE000E0080000C61BD6080000B3160000000092
:100EF0000000C4082B16571B080B00020202010059
:100F0000090400000102020000052400100105246C
:100F100001010104240206052406000107058103DE
:100F200010004009040100020A0000000705020247
:100F30004000000705830240000004030904120179
:100F40000002EF020140412336800001010203014B
:100F500041726475696E6F204C4C43004172647538
:100F6000696E6F204C656F6E6172646F000305A53A
:100F7000096C0962010FC403165206690FC80415F3
:100F80008BB5841544156B042E6F130416B91639EE
:100F9000038A680A6B0A490306C906CBA3A6050E95
:100FA0006FA324152B1748169C0302440494CE6F9C
:100FB0000413080776073607B605B62516451685C5
:100FC0000829086C0503A703870327D7CB0347032A
:100FD0002346340815A4020FC80679030FC8066813
:100FE000068803B6270A6D0A42020665AE6F034AF9
:100FF000280AA50AC80615B415B91579A4CB0AABF9
:101000000A5B050F040F6C0FC40F2C0FAC033408E0
:1010100034D42C29078822882D8A63867D8A668AA3
:101020004A884D0516C5076207A547C9070F01166F
:1010300029028E2F83A6040F040778078A076B0501
:1010400043270952095C0972097C040A270AA70A86
:10105000C90A48010F60030FC80A230A5D054E6FD5
:1010600068226842688268A207146E146007B62777
:101070003607B9072907CB030F600AAB0A2C011307
:10108000C4053404183CF8ACB6A508CC050F6D16A1
:10109000251629072D07460388250A2806B50215B7
:1010A000C51729020FC4086904036503A50325D7E2
:1010B0001A031061563756A7021388A3A5040FC858
:1010C00008690859082A026E6063A7044729486521
:1010D000484D4657041060174917281542022DA5A0
:1010E00034040110C5032C653404146F01834502D8
:1010F0000A560A4901A363012B2504146F2B6417B8
:10110000A8172803832417641548061460146F2A4F
:10111000A92A252A492A8B021833A38802EE6F18C0
:10112000630318350A430A17033448F826186D0676
:10113000E942E94CE952E95CE972E97C04130806EA
:101140004506650685070F0816840733076D0747B0
:1011500007B2077303162A16340F6C020899087930
:101160000408280848086C088C052E8007CB0785E2
:10117000079C07A503063B067B065B0213A4CEA4CF
:10118000020AAB0A59020569A6230108290307963A
:1011900007B907D6020657067902A625A637010F1A
:1011A000040183470213808E800317891557AE20F0
:1011B000040367038703A7D72904A61615491569F1
:1011C000158901138C02087A084902034504C501F8
:1011D000A66504F85414646E60F884021364EE6427
:1011E000020AB50A49020FC80865030664067606B6
:1011F00067000217681583010EA4030649066906F5
:1012000089010639010F88018385020A540A850283
:1012100013244E249E0F970F900F870F7E0F770F8A
:10122000740F6D0FE20FDB0FD60FCF0FC40FB90F86
:10123000B00FA90F2E10231014100D100210F50F6F
:10124000EE0FE90F68105D10561053104A103F1052
:1012500036103110A810A3109E1097108C1081101A
:101260007E107710E210DD10D410CB10C610BD1028
:10127000B810B1100A110311FA10F710F410EF10A2
:10128000EC10E510541145113C112F1128112111BA
:101290001C111711851180117B11741169116011D6
:1012A0005B1199119411F111F111F1118D118A1144
:1012B000B911F111B011A911A411A1119E11D211EE
:1012C000F111CF11CA11F111C511C211F211F111B1
:1012D000EA11E511F111E011DB110F120A120712E8
:1012E00004120112FA11F711902700C8913106007B
:1012F00081006480F0010200070307060004050670
:1013000000000200000303020506010403841274B6
:1013100012641254124412341224121412240308B8
:101320000800000B0014001B00250033003F00489C
:101330000051005D006B0075007F008B009800A1DC
:1013400000AC00B700C100CC00D600E100EB00F714
:101350000003010E01170123012D01380142014A4A
:1013600001550161016C01760180018C019601A299
:1013700001AD01B701C001CA01D701E201EA01F6DE
:1013800001000209021302180224022E023802454B
:101390000250025D02690272027B0284028D029594
:1013A000021F1B92F10C2F20444044401F1B42F1AE
:1013B00004F308F134F54F104F20F3404F1B4F203A
:1013C0004F2044F03040444664440466404F004699
:1013D000404004004BB6BBB0006000F06F206000DE
:1013E000F3BF204F2043330334BBF142F1042F10ED
:1013F000F44044109444F10444F00F040A441BB632
:101400004442006000200600F04644401F1B9F201D
:10141000CF36833033A01F0B042F202F208F0304DF
:101420004040040004004000F0404F23000600C08C
:1014300000600C0006566F20404BBBF04F20400070
:10144000F6401F1B9F20C2F10C833033A044404460
:1014500042F202F10C8F13A01F1B9F20C2F10C8FD0
:1014600013A01BB0BB92F10CF36200060CF14044D8
:10147000F1044F1044F1341BB0BB92F10C2F10C893
:10148000F13A2F1042F1042F204F1040F046BF04D4
:101490000604F0050F1463404440F04F1042F10C75
:1014A000444044401F1B92F202F10C444044401F50
:1014B0001B9F302F10C8F13A200060CF0060CF167C
:1014C0000C8F0304F362F10C2F10C833033A1F1B77
:1014D00042F202F104833033401F104F20C2F10C5E
:1014E0008F13A0F840444F0044F1044440444F207F
:1014F000C4F10C4F13A01BB0BB92F10C2F10C833DA
:10150000033A1F1B92F10C2F10C833033A1F0B0430
:101510002F1042F208F13A4440F240444F20C8F103
:101520003A1BB0BB92F10C2F10C40444044F1B4271
:10153000F202F1044F13404F104006660C40666003
:10154000C4F10C44F1644F0064F10640F1401BB05B
:10155000BBB2F202F208F13AF2B9F20CF20C8F10BF
:10156000C01F1B92F10C2F208F13A01BB6BB420093
:101570005F20500C833633404044404F304F10447E
:10158000040404F34F20C8F10CF3404F10C204448C
:101590000C204040C8F10C444BF240F240F2404471
:1015A000401F1B92F202F208F13A1F10CF20CF30F9
:1015B00020006660FA4F30F3404BB6BB4200600437
:1015C000000600F44040404042F10C2F10CF341F81
:1015D0001B42F1042F2044F0344F10C440404C40D3
:1015E0000400C48F00401F1B92F10C2F10C833035E
:1015F0003A1B6F0B206F00206F0083603330F006C2
:1016000066F0060CF0050CF0353A44F0B44F204F6C
:1016100010F440F44F204F10F04044401F1B9F3007
:101620004F204F134044F0B4F20404F10F344BF058
:10163000044F8044F1344F1B4F2044F00444F034F5
:10164000400307000704020104060007040705071A
:1016500006DA12CC12BE12B012A2129412BE010708
:101660000600000A0013001C0025002B0030003D7E
:101670000045004F0053005A0064006C0074007D68
:101680000083008800920098009E00A800B000B47B
:1016900000BD00C600D400DC00E900F200F700FD48
:1016A00000070110011B0126012E01370141014AEB
:1016B0000153015C01444F06444F062F202F206642
:1016C000F1B66F206F206F10BB4F0B004F20F14F12
:1016D00030F2B4F20F14044F2040FB4F204F104063
:1016E000FA4F304F26446F14060474005000CF06A2
:1016F00044402F202F20F368F23006F206F1066FE7
:10170000103F1040FF000F34F204F204F30F344F87
:1017100010F14F10440004F2004F26F206F206F2D8
:1017200004F46F4400F14004444447F04F204F203C
:10173000F3404F104FA04F20F34FC0F1404BBB443C
:101740004F104F2040F3404FF0040F0400F204F913
:10175000040F244400444F20440040F540F341F27C
:1017600002F202F2004FF0F40000F14004F204F241
:101770000F1447F14F006F20600F3440F0400040DD
:101780000400040040444004400F2404F20400F626
:1017900040F0404400040444F0044400F0402F2092
:1017A0002F202F202F1040FF0004F20000F14FD017
:1017B000F040F34F1044F10444F00440444004442A
:1017C000F204F20F34F34F00666F006664000444C5
:1017D000400F1400F1400F1400F0402F104F362F2F
:1017E000104F364F2066F1046F10F360000F0400B5
:1017F0000F04F204F3604F00444F204F20F360F0D9
:101800004744F204F204F3604000F04F204F20F30D
:1018100060400F04000F04F1044F36010204081069
:101820002040800F0F0F0FF0F0F0F004080FAFAF63
:101830000F0064646100464669006A6A2E600B6BA3
:10184000F0007D7A7600DEBC0000A6A68000A6220D
:1018500080E404E2E28077778060979360D8B3DB1E
:10186000E8FF0114017700140177009601D70014F6
:10187000006700B401270000017721000177110003
:1018800001FF21000177010B00C7110B01FF810A45
:1018900001EF610A0177F01E01F3000000FF100064
:1018A00000FF10000077021400FF011400FF100079
:1018B00000F700140077000000770000000000002F
:1018C0000077100000101000F82442F181E1F1E1EE
:1018D0000135190204F8000000013E60D9999D8687
:1018E000869A9CE0100F0000F8FCFEFFFFFFFFFF50
:1018F000FFFFFFFEFCF8000000013F7FFFFFFFFF3E
:10190000FFFFFFFF1F0F0000F04884E202C2E2C2A7
:10191000026A320408F00000011AE499839B9B9D3F
:101920009C9C8098D8271800F0F8FCFEFEFEFEFE76
:10193000FEFEFEFCF8F00000011BFFFFFFFFFFFFB3
:10194000FFFFFFFFFF3F1800E018640202020202DF
:101950000202026418E0000007788890B0B0B0B0CE
:10196000B09090C0320D0000E0F8FCFEFEFEFEFEDE
:10197000FEFEFEFCF8E00000077FFFFFFFFFFFFF19
:10198000FFFFFFFF3F0D00F00804628181018181AC
:101990000181816204F8000F106C86919B9ABBBB99
:1019A000A29B99EE100F00F0F8FCFEFFFFFFFFFF77
:1019B000FFFFFFFEFCF8000F1F7FFFFFFFFFFFFF91
:1019C000FFFFFFFF1F0F00F04884E202C2E2C202E5
:1019D0006A320408F00000252644419B839B9D9CAD
:1019E0009C9880985B2418F0F8FCFEFEFEFEFEFE3C
:1019F000FEFEFCF8F000003D3F7F7FFFFFFFFFFF92
:101A0000FFFFFFFF7F3C1800F00C320101010101D4
:101A1000010101320CF000000718204090B0B0B076
:101A2000B09090C0320D0000F0FCFEFFFFFFFFFF02
:101A3000FFFFFFFEFCF00000071F3F7FFFFFFFFFDF
:101A4000FFFFFFFF3F0D00E01008C4020202020288
:101A5000020202C408F0000708182C535754B7B705
:101A6000B4978380F00F00E0F0F8FCFEFEFEFEFE6F
:101A7000FEFEFEFCF8F000070F1F3F7F7F7FFFFF99
:101A8000FFFFFFFFFF0F00E0100804020202020246
:101A90000202020408F00007081820434654545478
:101AA00054564340300F00E0F0F8FCFEFEFEFEFE10
:101AB000FEFEFEFCF8F000070F1F3F7F7F7F7F7F59
:101AC0007F7F7F7F3F0F0000613511241FBECFEF66
:101AD000DAE0DEBFCDBF11E0A0E0B1E0E8E3FFE671
:101AE00002C005900D92A834B107D9F727E0A8E409
:101AF000B1E001C01D92A73FB207E1F71DE0C5E6C6
:101B0000DDE004C02197FE010E948F37C436D10763
:101B1000C9F70E9421330C949A370C940000FC0101
:101B20008689843119F490899B5F908B418F178A45
:101B3000882329F08150868B4370408F02C08FEF3D
:101B400086838FEF0895CF93DF93FC01DA01EB01D9
:101B50009E818EEF890F843058F4933049F0ED91D7
:101B6000FC910480F581E02DCA01DF91CF910994A9
:101B70009650983008F4168A8FEFDF91CF91089530
:101B8000EF92FF920F931F93CF93DF93EC01FB0132
:101B9000042FE780F08411858E89843151F02F81E4
:101BA00038858985082E000C990B4E8941111CC07F
:101BB0002EC08189898BF886EF828AEF810F898711
:101BC0008BE094E00E94AC2480919F06853039F729
:101BD000E6EAF6E08081853109F4128A7D9687E095
:101BE000EE38F807B9F7DBCF41504E8B49894130C9
:101BF00059F02CF4411135C02350310932C0423024
:101C000051F1433069F12DC02D5F3F4F2AC0412F64
:101C1000110F550BB701621B730B6E5F7F4F653061
:101C2000710558F4BA01681B790B6E5F7F4F653000
:101C3000710518F44FEF4E8314C0E216F3061CF43E
:101C40002350310905C02E153F0514F42D5F3F4F79
:101C50004817590714F4039704C0841795070CF428
:101C6000039638872F838987023370F4083240F453
:101C70000E3140F4043140F481E00A3030F402C007
:101C800081E003C080E001C083E0888F8FEFDF91A7
:101C9000CF911F910F91FF90EF900895FC018489DF
:101CA000882349F09689992341F09150968B9B3374
:101CB00011F48CE3818F8FEF08958BE094E00E9404
:101CC000AC2482E10895CF93DF93FB0126812E3F60
:101CD00009F5EC018E818F3059F4E091C501F0E0F7
:101CE000E854FE4F83811816ACF4815083830AC0F8
:101CF000803181F4E091C501F0E0E854FE4F808529
:101D0000181644F40E946C248FEF8E8380E494E0D4
:101D10000E94AC248FEFDF91CF9108950F931F9312
:101D2000CF93DF93EC018B01FB018681833009F0B7
:101D3000A6C08A859B8598878F832C852987818576
:101D4000082E000C990B0796022E000C330B8217FD
:101D500093070CF024C18789811121C181E0878B11
:101D60008CE38AA387818E5F8D8F81858A508E8FC9
:101D70008F8D98A1FC01E457FF4F2081263009F593
:101D8000379685589E4F30E040E020E05081533038
:101D900081F4618951E0613021F050E0211107C0E8
:101DA00002C02111DAC021E0613009F420E04F5F68
:101DB000350F7D968E179F0749F74313C7C085E0FF
:101DC00002C0FB0184898BA38BA1823031F493E0A4
:101DD000FE01E15AFF4F908308C0811106C091E0D7
:101DE0009093B9010BEE13E002C000E010E09FEF0A
:101DF000980F933090F49091BA019F5F9093BA013D
:101E0000FE01E25AFF4F8083E82FF0E0EE0FFF1F44
:101E1000ED51FC4F0591149118C0843049F4809124
:101E2000B8018F5F8093B8018C8B05ED13E019C06A
:101E3000853059F4E091C501F0E0E854FE4F83810C
:101E40008F5F83830DEF13E00CC0863051F4E09177
:101E5000C501F0E0E854FE4F80858F5F808700EC7D
:101E600013E08AE891E00E94AC240E946C248F8DDC
:101E700098A1FC01E657FF4F1183008363C0FB016B
:101E80008589882389F0898D81110EC08C898150C4
:101E90008C8BAB01BE01CE010E94452E8AE991E0F8
:101EA0000E94AC248EE1898FF80186818430A9F4E8
:101EB0008FEF86838C89082E000C990B2091B80136
:101EC000022E000C330B0196281739070CF4C901B8
:101ED0008C8B80E494E00E94AC24F80186818230EF
:101EE00099F48FEF8683FE01E15AFF4F8081282FFE
:101EF00030E02430310514F48D5F01C086E080832A
:101F000080E494E00E94AC24F8018681853009F0D9
:101F100046C08FEF8683E091C501F0E0E854FE4FA4
:101F200083818F5F83830E946C248AE891E00E9402
:101F3000AC248F8D98A1FC01E657FF4F2DEF33E0C5
:101F400031832083319722E8208329C08AE891E0F9
:101F50000E94AC2488E08BA322C087E08BA38AE98F
:101F600091E00E94AC248C891816BCF481508C8BB3
:101F7000A801BE01CE010E94452E8F8D98A1FC01C3
:101F8000ED56FF4F85589E4F2081233009F4118A6A
:101F90007D968E179F07C1F702C080E0E8CF8FEFD4
:101FA000DF91CF911F910F910895CF93DF93EC01B3
:101FB000FB018681813131F484E68E8B84E080934D
:101FC000000118C0811116C080910001843091F485
:101FD000898D81110FC08C8981508C8B84E6898F0B
:101FE000CE010E94452E8C89811104C08FEF8E8313
:101FF0008093FA058FEFDF91CF910895CF93DF9310
:10200000EC01FB018681823131F09E819C30E1F050
:1020100095891916CCF4998D911116C08C89FB0104
:102020009589891B8C8B18164CF08E818C3011F49D
:102030000E946C248FEF8E838DEF0BC0CE010E9427
:10204000452E84E1898F04C0813011F484E68A8FA3
:102050008FEFDF91CF910895EF920F931F93CF935E
:10206000DF93EC01262F898D882331F063E00E94F5
:102070005B37913009F46EC0822F9AA1992339F110
:10208000EBA1F0E0EE0FFF1FE255FC4F459154919C
:10209000EE24E3948091C501811101C0E12C6E8D85
:1020A000062E000C770B96959695969526E030E0D7
:1020B000F901E91BF1096E1B7F0B8D8D00E020E01B
:1020C000082E000C990B0E94E52E22E035C09AA53F
:1020D00049A1992349F0FE01E95BFF4F90819F7E62
:1020E000913021F4942703C091E001C090E0398938
:1020F000E32F032E000CFF0B8F01000F111FE00FC9
:10210000F11FE90FF11DEE55FC4F2491911103C011
:1021100002E010E002C001E010E0E00FF11F0491C6
:10212000442351F066E00E945B3780FD05C03230E9
:1021300010F42F5F01C001E06985062E000C770BBB
:10214000685071098F819885E12C40EA51E004972D
:102150000E94E52EDF91CF911F910F91EF9008958E
:10216000CF92DF92EF92FF920F931F93CF93DF9363
:10217000EC018B01C42E0E948B36D12CE12CF12C6A
:102180002DE330E040E050E00E94F836C616D70656
:10219000E806F90641F4B801CE010E94B32E81E0B1
:1021A0008F8B8AE08E8B8E89882329F081508E8BCD
:1021B000811101C01F8A8FEFDF91CF911F910F9185
:1021C000FF90EF90DF90CF9008950F931F93CF93E0
:1021D000DF93FC012689243189F48B01EC01168AF6
:1021E0000E941A1C882351F0F801878190859887F6
:1021F0008F8381859889891B815089878FEFDF9133
:10220000CF911F910F910895CF93DF93EC01FB01C4
:102210008589968118161CF09130E9F402C091303E
:1022200009F4168ABF018C8981508C8B81110EC0F4
:102230008E818B3039F46FEF83E196E00E94201B92
:102240000E946C248FEF8E838DEF06C0CE010E941A
:10225000452E84E1898F8FEFDF91CF9108952F92E2
:102260003F924F925F926F927F928F929F92AF9226
:10227000BF92CF92DF92EF92FF920F931F93CF9373
:10228000DF93CDB7DEB72B970FB6F894DEBF0FBE46
:10229000CDBF1901A9864115510509F4D2C11FEF1F
:1022A000811611F0712C01C07E2CFA01F490319648
:1022B000E491AF2DB0E04D01880E991E1814190459
:1022C0000CF0BFC1803891050CF0BBC1A62E062EC4
:1022D000000CBB0895012E0F311D121613060CF0D1
:1022E000B0C160340CF0ADC14E5F5F4F01111A01F7
:1022F000DE2ED694D694D694E77071E009F470E09F
:10230000272F30E02D0D311D2A9FF0012B9FF00D5E
:102310003A9FF00D1124EE20C1F07E9E20017F9E99
:10232000500C11249101240D351D38872F83EE9E0A
:102330003001EF9E700C1124460D571D002381F0D3
:10234000240D351D460D571D03C0002339F09101A2
:1023500089010E0F1F1F18870F8302C038862F8236
:10236000F501B7FE03C0F195E195F1091E2F177035
:10237000712E062F67FF02C007E0060F0595059531
:10238000059567FF06C0772021F00150E8E0E719C6
:102390007E2E97FF05C0EE27FF27E81BF90B02C032
:1023A000E0E0F0E020E88216910424F010E8612ECD
:1023B000681A01C06F2C6E1AA02E002E000CBB08EC
:1023C0000F3F1CF4EA2CE09401C0E12CD70EAD0CB9
:1023D000B11C39E0A316B1041CF018E0D12ED01ABC
:1023E000DE18902E9E0C892C8C01792D20E872032A
:1023F000000D111D11240E0F1F1FFE9C70011124D2
:10240000EE0DFF1D4E0F5F1F2F8138852E0F3F1FD2
:102410007C2D71707D83C0FE14C0A62CB12CF501FB
:1024200031974E0F5F1F2E0F3F1FFD01EA19FB0969
:1024300097FF03C0F195E195F1094E0F5F1F2E0F35
:102440003F1F8C2D82708E83C1FE17C08D2D90E0B2
:1024500001978A9FF0018B9FF00D9A9FF00D112438
:102460004E0F5F1F2E0F3F1F67FF07C0F194E194CF
:10247000F1084E0D5F1D2E0D3F1D81E090E02C01F7
:10248000072C02C0440C551C0A94E2F7CD01880FBA
:10249000991F66277727681B790B78876F830C5005
:1024A0001E4F9D0C862D90E06D01C81AD90ABC0103
:1024B0006A0F7B1F7B876A87891409F4C2C05801A1
:1024C00070E8A70EB11C7501B0E06B1609F49FC04F
:1024D000FA01A4912114310421F0F901849190E0D2
:1024E00002C08FEF90E06985662311F0A095A823C4
:1024F0007E817723E9F1A295EA2FEC7CE695E695BB
:10250000A373F4E0AF9FB00111246E2BA62FAA7A1B
:102510007A2F76956575A62FAA0FA72BBC01E4E04C
:1025200076956795EA95E1F7F4E0880F991FFA959B
:10253000E1F79927682B792BCB018C7C9927FC013B
:10254000F695E795F695E795CB0183739927880F64
:10255000991F880F991F8E2B9F2BBC016A7A7727B2
:102560007695679585759927880F991F862B972BE8
:102570009C838B83A49DB001A59D700D11247A834B
:102580006983EB81FC814E9EC0014F9E900D5E9E43
:10259000900D1124809590959C838B83E985E23082
:1025A00081F487FC04C0F80180816827608377206C
:1025B000D9F0F6E0F815C4F0F70190818A818927F7
:1025C00012C087FC05C0F80190818923682B6083C5
:1025D000772051F0F6E0F8153CF0F70190818C81FE
:1025E00089239A81892B80836D81662329F041504C
:1025F00051092150310904C04F5F5F4F2F5F3F4F9A
:10260000BF5F7FEFE71AF70A0F5F1F4F5ECF83941C
:102610008D81882339F00A851B85400F511F200FBB
:10262000311F04C04C0D5D1D2C0D3D1D1E8111235D
:1026300031F06F817885460F571F260F371F8501B0
:102640003BCF2B960FB6F894DEBF0FBECDBFDF9108
:10265000CF911F910F91FF90EF90DF90CF90BF909F
:10266000AF909F908F907F906F905F904F903F9032
:102670002F900895FC01222321F0738762874487FD
:102680000EC027813085A285B3858185A217B30747
:1026900019F49485981719F03387228784877087F7
:1026A0006783418781892485A285B3856A177B0763
:1026B00071F4042E000C550B022E000C330B421744
:1026C000530761F04217530744F083E007C081E0ED
:1026D0006A177B071CF480E001C082E0818B0895BB
:1026E000CF92DF92EF92FF920F931F93CF93DF93DE
:1026F000EC01898D882311F08150898F8AA188236C
:1027000019F081508AA383C0EF80F8840985002ED8
:10271000000C110B0E94951F84FF02C00E5F1F4F1B
:102720000E94951F87FF02C0025011090E94951F49
:1027300085FF03C082E0E81AF1080E94951F86FF1A
:1027400003C0E2E0EE0EF11C88E00E94032F882314
:1027500081F08091B901882361F08AA58F3F49F407
:1027600060E0CE0184960E9494258CE391E00E9463
:10277000AC2484E00E94032F882389F1FE01E95BE9
:10278000FF4F80818F3F59F56E01FEE5CF0ED11CC2
:10279000F60160816F3F19F1623039F43196808122
:1027A0008823E9F08150808303C0633009F461E13C
:1027B000CE018F5B9F4F0E949425F601808182306D
:1027C00071F481E0FE01EB5AFF4F80838F81988581
:1027D0003D9791838083329689858450808319A2A6
:1027E0008AA58823A1F08F8198858E159F0539F4DD
:1027F0008985082E000C990B8017910741F081E024
:1028000089A320E0402FB701CE010E943A138FEF39
:10281000DF91CF911F910F91FF90EF90DF90CF90BC
:102820000895CF92DF92EF92FF920F931F93CF9371
:10283000DF93EC018B01F42EBC0184EF95E00E9444
:10284000011680910001823049F48091FA058F3F92
:1028500029F484E0809300018EE18E8B8091000149
:10286000813081F160F08330B1F1843009F05EC0D5
:102870008E8981508E8B811159C083E029C08F2DA4
:1028800063E00E945B37913021F4B801CE010E94D1
:10289000B32E8F819885F80127813085821B930B99
:1028A00047968F9708F042C08985082E000C990B37
:1028B0002185821B910927FD939547968F97B0F547
:1028C00081E006C060E084EF95E00E94942582E0FC
:1028D000809300012BC00E948B366B017C010E940B
:1028E0008B3623E330E040E050E00E94F836162FAC
:1028F000C701B60125E630E040E050E00E94F8361E
:1029000020E0412FCE010E943A130E948B3629E22B
:1029100030E040E050E00E94F836DC01CB01449604
:10292000A11DB11D8A8F898F109200012091FA0597
:10293000188E8A8D811104C090910001943011F499
:1029400087E022C09989913069F01CF4992331F015
:102950001CC0923071F0933091F017C0211114C057
:1029600084E012C0211101C084E08F8B81E0888F48
:102970000CC0222311F082E007C085E005C02223AD
:1029800011F083E001C086E08F8B8FEFDF91CF9154
:102990001F910F91FF90EF90DF90CF900895CF920D
:1029A000DF92EF92FF920F931F93CF93DF93EC018F
:1029B0006B01842F40FD5CC063E00E945B37923066
:1029C00009F456C08E898A3019F4198A82E08E8BF8
:1029D000EF80F8840985002E000C110B8989811184
:1029E00004C081E0E81AF10803C09FEFE91AF90A70
:1029F0008E89823019F40150110902C00F5F1F4FF8
:102A000020E0402FB701CE010E943A130233110596
:102A100030F09E8985E0891B8E8B81E001C080E0CB
:102A2000E2E6EE16F10428F0998981E0891B898B92
:102A300081E091E04F815885F6012781308542176A
:102A400053070CF090E0988F882331F08A859B859E
:102A500098878F838C8589870E948B3622E330E0AC
:102A600040E050E00E94F836672B682B692B11F08C
:102A70008FEF01C086E0DF91CF911F910F91FF9002
:102A8000EF90DF90CF9008958F929F92AF92BF9278
:102A9000CF92DF92EF92FF920F931F93CF93DF932A
:102AA000EC018B01E42EFE88FF2091F0B984CF80E9
:102AB000D88448E06B2DC6010E94A81F811108C070
:102AC0008E818B3009F04FC081E18B150CF04BC02B
:102AD0000E948B3623E0822E912CA12CB12CA501D3
:102AE00094010E94F836DC01CB010197A109B109DC
:102AF0008D870E948B36A50194010E94F836DC0177
:102B0000CB010197A109B109282F8E878D858111ED
:102B100004C0211102C081E08E879F858FE6891B4A
:102B20009F81292F19160CF021E028172CF49230E0
:102B300014F0892F01C081E090E098878F839889F5
:102B40008FE3891B9985292F19160CF021E028178E
:102B50002CF4923014F0892F01C081E089878EE136
:102B60008E0D8E8B18C08E2D65E00E945B37911103
:102B700012C0FA94FE8A4E854B0D8D85B601680F02
:102B8000711D87FD7A9520E0CE010E943A139F893E
:102B900081E0891B8F8B81E0F801478150852F816F
:102BA0003885421753070CF080E0888F8E818B3078
:102BB00029F4F1E0EF1202C087E001C08FEFDF914E
:102BC000CF911F910F91FF90EF90DF90CF90BF902A
:102BD000AF909F908F900895613091F4FC01EA5876
:102BE000FF4F27E537E1318320833296118210822F
:102BF0003A9621EE36E1318320833296118210829B
:102C00000895DC0116962C9116972F3F89F05A965D
:102C10002C915A97222321F021505A962C9308C0C8
:102C2000DC011296ED91FC911397309709F009940D
:102C30008FEF0895FB0126812E3F59F4DC01549655
:102C40008C91882331F08285938590878783848552
:102C500081878FEF0895FC012489211102C0417002
:102C6000478B8FEF0895FC01DB0117962D913C9166
:102C7000189719968C91199751969C919130C1F0A3
:102C800054F4911128C02251310930872783845090
:102C90008187178A1FC0923099F09330E1F4215058
:102CA0003109308727838A5F818781E0878B12C053
:102CB000255F3F4F3087278384508187178A08C05C
:102CC00025503109308727838651818781E0878BA2
:102CD000908F01C0108E86898150868B811102C031
:102CE0008FEF86838FEF0895FC0140FF3AC08689FD
:102CF0008B3019F4168A148A16868489918581305E
:102D0000D9F0823029F1811129C0DB0117964D914C
:102D10005C9118972781308542175307FCF0285F94
:102D20003F4F24173507D4F081E0848B903214F0A4
:102D30008EEF0CC082E00AC02FEF290F273370F00E
:102D400022E0248B268512160CF48FEF868706C0AE
:102D50008FEF890F873310F0148A16868685980FB7
:102D600091878FEF0895DC01FB0196819E3F41F42E
:102D70008285938590878783848581878FEF0895E7
:102D80008FEF992319F09151923040F416968C935D
:102D9000169754968C91181614F4089508958DEF93
:102DA0000895EF920F93E12C00E020E042EB54E015
:102DB0006CE170E088E390E00E940E2F0F91EF909D
:102DC0000895EF920F93CF93DF93EC01E12C00E095
:102DD00020E043E155E06BE070E083E290E00E9488
:102DE0000E2F20E046EF54E067E070E08CE490E0C6
:102DF0000E940E2F0E94E820811103C044EE54E08F
:102E000002C04DEE54E06AE28AE20E942C2F8091CB
:102E10004801811103C04BED54E002C04FED54E076
:102E200062E38AE20E942C2F0E94E820882331F07E
:102E30004FEC54E06AE38AE20E942C2F688188E01C
:102E4000689FB0011124665D7F4FE12C00E022E015
:102E500044EC54E082E290E00E940E2FDF91CF918B
:102E60000F91EF900895CF93DF93EC0180E80E94DB
:102E7000032F882311F0188217C080E10E94032FCE
:102E8000882319F081E088830FC088E00E94032F17
:102E9000882351F061E08881813009F460E0CE013F
:102EA000DF91CF910C94D931DF91CF910895FF92AA
:102EB0000F931F93CF93DF9300D0CDB7DEB78C0174
:102EC00088E00E94032F882309F449C0F80180811B
:102ED000811117C060E0C8010E94D9318BE096E2F1
:102EE000F801EA58FF4F9183808332961182108255
:102EF00084EF93E23A969183808332961182108216
:102F00002EC08230B9F4F801108280E490E09A83F8
:102F1000898360E0CE0101960E94932481E490E0D1
:102F20009A83898360E0CE0101960E9493240E94D7
:102F3000F22015C0813099F480914801882319F05E
:102F40000E949D1F02C00E94A21F6091480182E062
:102F500090E09A838983CE0101960E9493240E9477
:102F6000E820811103C0FF24F39402C082E0F82E10
:102F700080E80E94032F882361F0F8018081282FC8
:102F800030E02230310514F0815001C080E0F801BA
:102F9000808380E10E94032F882361F0F801808103
:102FA00090E02F2D30E00196281739070CF4C90165
:102FB000F80180830F900F90DF91CF911F910F91B7
:102FC000FF900895CF93DF93EC010E94F4231092B9
:102FD0008D0710928C0710928E07C459DF4F2881FD
:102FE000213230F080E490E0AC01421B51099A019B
:102FF000220F422F440F822F869560E2681B70E0FB
:10300000942F969580E4891B90E0DF91CF910C94EA
:103010006F2FEF920F93CF93DF93EC0120E440E802
:1030200060E070E080E090E00E946F2F48EA54E09A
:1030300064E18AE20E942C2F688188E0689FB001D9
:103040001124665D7F4FE12C00E022E044EC54E067
:1030500082E290E00E940E2F4DEE54E06AE28AE296
:103060000E942C2F43EA54E062E38AE2DF91CF9181
:103070000F91EF900C942C2FCF92DF92EF92FF9252
:103080000F931F93CF93DF939C01FC01E459FF4FF3
:10309000808181508083803209F08EC03B9780818F
:1030A00091818D50934119F08DE093E102C081E54B
:1030B00096E191838083F901ED59FF4F80819181E1
:1030C0008D5F924119F08DEF92E102C081E496E1AB
:1030D0009183808380917E0190917F018D519341F6
:1030E00019F04DE153E102C04DE556E150937F01E7
:1030F00040937E0189010B591F4FF3E14D315F076A
:1031000039F4F801808163E00E945B37992319F05C
:103110004D55564179F48091C501811109C0F801DE
:1031200080819BEA899F812D112486958F5F03C042
:1031300080E001C084E08093C5018091C5018111C8
:1031400002C087E001C088E0E9016901FDE6CF0E19
:10315000D11CF6018083F801808180937D01790183
:10316000F6E6EF0EF11CF701608160937C0140915F
:103170007B010E94BE1F20917B01F7014081F80175
:103180006081CE010E94C12FF6014081F70160816C
:10319000F80180810E94CD2421E041E269E370E0E2
:1031A000CE0101960E943A1383E08A8B8FEF8BA7A2
:1031B000C85BDF4F88831EC081111CC0F901EA582B
:1031C000FF4FD901A259BF4F8D919D910D90BC9198
:1031D000A02D80839183A283B3833C96D901A65806
:1031E000BF4F8D919D910D90BC91A02D80839183B7
:1031F000A283B383DF91CF911F910F91FF90EF9046
:10320000DF90CF900895CF93DF93EC018E818F3FB5
:1032100019F1EC81FD813097F1F0CE0109959E8185
:103220009F3F11F49AE09B8F8D3FB1F48091BA01DA
:10323000823014F4C2E001C0C3E00E948B362C2F10
:1032400030E040E050E00E94F836E62FF0E0E05633
:10325000FB4F849101C08FEFDF91CF9108951F93B1
:10326000CF93DF93EC011091C5011F5F212F30E058
:10327000E42FF0E08EE190E0B9010E946737CF01C2
:103280000E946737892B21F4988D81E0891B888FF4
:10329000842F65E00E945B37911152C08E898111A5
:1032A00023C080E190E0B9010E9467376E8B0E94D5
:1032B0008B3625E030E040E050E00E94F83670E0C8
:1032C000660F771FFB01E45AFB4F85919491189F7D
:1032D000802D11248D87FB01E35AFB4F859194913A
:1032E000189F102D11241E878E8981508E8B8F85FB
:1032F0006EE6681B862F6F819D85690F962F623061
:103300000CF492E0981724F463301CF462E001C0DE
:10331000682F70E088894EE3481B842F49859E857D
:10332000490F942F42300CF492E0981724F4433064
:103330001CF442E001C0482F20E0CE010E943A1365
:103340008FEFDF91CF911F910895EF920F931F930D
:10335000CF93DF93EC018091C501882329F08E8102
:10336000873021F011E003C010E001C012E08B8D26
:10337000882381F081508B8F062F01706985062E7E
:10338000000C770BE12E20E04EE854E08F81988509
:103390000E94E52E2E812F3FB1F1898D811109C048
:1033A0008C8D9985EF81F8854A895B89811109C0E7
:1033B00021C08150898F63E00E945B37913081F793
:1033C00022C02D3021F0A0E0B0E060E003C0ACEFFF
:1033D000BFEF68EF062E000C770B690F711D97FD8C
:1033E0007A95E12E088D2F89CD018E0F9F1F0E94A7
:1033F000E52E09C0692F990F770BE12E088D2F89D3
:10340000CF010E940E2FDF91CF911F910F91EF906E
:103410000895FC0194899130A1F4DB0116968C91FA
:103420008E3F11F0893069F422E0248B2685121634
:103430000CF49FEF9687893021F48AE394E00E9490
:10344000AC248FEF08951F93CF93DF93EC01DB0142
:10345000142F8E89843161F519966C9119975196C4
:10346000EC91519724E0E202C00111249C01245BFD
:103470003B4FF901749117964D915C911897470F46
:10348000511D77FD5A9558874F83FC01E35BFB4F35
:10349000E491862F8E0F8987F9013296E491ED87AA
:1034A000F9013396E491EE878BE094E00E94AC241E
:1034B0008E8981508E8B9D852F813885290F311DF6
:1034C00097FD3A9538872F8329859E85920F998796
:1034D000198F811102C08FEF8E838FEFDF91CF9113
:1034E0001F910895FF920F931F93CF93DF93EC01E9
:1034F000842F837009F07BC08E898B3019F481E0B2
:103500008D871E8A8E89F98481111AC08D85882342
:10351000B9F0FB01878190852F81388528173907FD
:103520007CF4245F3F4F2817390754F081E08E8BDD
:103530001D8681858F1514F083E001C08DEF8E8785
:10354000042F1F8148E06F2D812F98850E94A81FAE
:10355000811115C0F2948FE0F822E12FE295EF700F
:10356000F7E0FF9EE00D1124F0E080917B01E05830
:10357000FE4FE80FF11D80818D7F843079F48A85BC
:103580009B8598878F838C8589872E898D859E85DD
:10359000211123C081958D8791959E8749858E85C0
:1035A000480F8D856F817885680F711D87FD7A952D
:1035B00020E0CE010E943A13E9890E2E000CFF0B89
:1035C000EA59FB4FE491E88F802F90E001976EE17C
:1035D00070E00E9467376F8B0AC021E0811120E004
:1035E0002D8781E0911180E08E871E8AD7CF8FEFE3
:1035F000DF91CF911F910F91FF900895CF93DF93AB
:10360000FB0126812231C1F4EC011C8A1B8A1A8A33
:103610000E946C24898582958F70EF81E295EF700E
:10362000F7E08F9FE00D1124F0E080917B01E058DE
:10363000FE4FE80FF11D10828FEFDF91CF910895BB
:103640006F3F11F460917B01DC01AD56BF4F9C01CF
:1036500025583E4F87E070E045E09C91973199F402
:1036600013969C91139792959F701196EC911197D8
:10367000E295EF70989FE00D1124F0E0E058FE4FC6
:10368000E60FF71F40835D96A217B30731F7089541
:10369000FC01ED56FF4F85589E4F2FEF308134319E
:1036A00009F420837D96E817F907C1F70895FB0117
:1036B00026812E3F39F48285938590878783848580
:1036C000818720C02131F1F4FC0124892223D1F02B
:1036D000148A80919F068730A9F4E6EAF6E080819B
:1036E000883119F48685813069F07D9687E0EE385F
:1036F000F807A9F783E196E00E94481B80E494E074
:103700000E94AC248FEF0895CF92DF92EF92FF9248
:103710000F931F93CF93DF936F3F69F0FC01ED563A
:10372000FF4FC0E0D0E020812F3F39F021967D96F9
:10373000C830D105C1F78FEF20C06A017C018DE14F
:103740008C9F80018D9F100D1124C80183579F4FBE
:103750008E0D9F1D0E949425F601878190850E0D88
:103760001F1DF801EC56FF4F91838083F601818580
:10377000F801EA56FF4F80838C2FDF91CF911F9184
:103780000F91FF90EF90DF90CF900895CF93DF934C
:10379000FC01208D213009F449C0FB012681223033
:1037A00018F0213109F042C0EB01FC0121E0208F2B
:1037B0008AE394E00E94AC248E81813071F580917F
:1037C0009F06853051F5E6EAF6E08081853119F4EF
:1037D0008289882359F17D9627E0EE38F207A9F710
:1037E00044E156E063E083E196E00E94841BEDE152
:1037F0008E9FC00111248D5E994FFC01EC56FF4F46
:1038000020E330E03183208332962CE120833B9605
:1038100025E0208310929F0609C083E196E00E9474
:10382000481B6FEF83E196E00E94201B8FEFDF9132
:10383000CF910895DC01FB018781908517962D912A
:103840003C9118971F964C911F97B901640F711DF9
:1038500086179707FCF44785840F911D28173907B1
:10386000CCF42185022E000C330B19964C9119973C
:10387000042E000C550B50968C91BA01680F711DE7
:10388000261737073CF48089280F311D81E0421745
:1038900053070CF080E00895CF93DF93EC018C89FF
:1038A000811116C0CB01BE010E941A1C811110C0EB
:1038B0008F85883019F08AE694E002C08CE794E0A6
:1038C0009B8B8A8B81E08C8B86E494E00E94AC24F5
:1038D0008FEFDF91CF910895CF92DF92EF92FF9219
:1038E0000F931F93CF93DF936C017A018B01C0E09C
:1038F000D0E0CE15DF0581F0D8016D918D01D601A4
:10390000ED91FC910190F081E02DC6010995892B84
:1039100011F02196EECF7E01C701DF91CF911F916B
:103920000F91FF90EF90DF90CF900895CF92DF92AC
:10393000EF92FF921F93CF93DF93E82FF0E0E35EC7
:10394000FE4F1081E62FF0E0603330F4E755F84F7A
:10395000E491CE2FD0E006C0EE0FFF1FE755F94FE0
:10396000C591D4916E01E12CF12C60E074E284EFFA
:1039700090E0A70196010E94F836BA01A9014150D2
:103980005109610971094115510581E06807710507
:1039900080F060E970ED83E090E0A70196010E945D
:1039A000F836BA01A901415051096109710983E052
:1039B00001C081E01130E9F0133091F59091910050
:1039C000987F892B809391005093990040939800A1
:1039D0001092950010929400D0936601C0936501F7
:1039E00081E0809364018091710082608093710016
:1039F00017C090916701911113C090918100987F39
:103A0000892B809381005093890040938800109205
:103A100085001092840080916F00826080936F0017
:103A2000DF91CF911F91FF90EF90DF90CF9008959D
:103A30008091480108950895089580E090E00895E8
:103A40000E9495373FB7F89480916D0190916E0177
:103A5000A0916F01B091700126B5A89B05C02F3FC2
:103A600019F00196A11DB11D3FBFBA2FA92F982FA4
:103A70008827820F911DA11DB11DBC01CD0142E01F
:103A8000660F771F881F991F4A95D1F708951F92D7
:103A90000F920FB60F9211242F933F938F939F9302
:103AA000AF93BF938091690190916A01A0916B01DE
:103AB000B0916C013091680123E0230F2D3720F481
:103AC0000196A11DB11D05C026E8230F0296A11D78
:103AD000B11D209368018093690190936A01A093BE
:103AE0006B01B0936C0180916D0190916E01A0917A
:103AF0006F01B09170010196A11DB11D80936D0100
:103B000090936E01A0936F01B0937001BF91AF913C
:103B10009F918F913F912F910F900FBE0F901F900B
:103B200018951F920F920FB60F9211248F939F93A7
:103B3000AF93BF93EF93FF9380916701882309F4BC
:103B400049C08091570190915801A0915901B091BD
:103B50005A01892B8A2B8B2B51F190915601E091C0
:103B60005401F0915501808189278083809157010C
:103B700090915801A0915901B0915A011816190657
:103B80001A061B06A4F58091570190915801A09147
:103B90005901B0915A010197A109B10980935701C8
:103BA00090935801A0935901B0935A0120C01092EC
:103BB00063011092670180916F008D7F80936F0089
:103BC00080915601E0915401F091550190818095CA
:103BD00089230CC080916201811109C09091560126
:103BE000E0915401F0915501808189278083FF91F4
:103BF000EF91BF91AF919F918F910F900FBE0F905A
:103C00001F901895E82FF0E0E35EFE4F8081813031
:103C100019F0833089F008958091670181111CC0EB
:103C200080916F008D7F80936F0080915601E091AD
:103C30005401F09155010CC0109264018091630110
:103C400081110AC080916101E0915F01F0916001F2
:103C500090818095892380830895CF93DF93D1E06D
:103C6000E0914C01F0914D01DF011196B0934D01AF
:103C7000A0934C019491892F807FC92FCF708038F9
:103C800021F48C2F0E94021EEBCF8039F9F4E091D1
:103C90001106F091120609958D2780936201E0913B
:103CA0004C01F0914D01CF01019690934D0180930D
:103CB0004C01649180914901C81790F6C13009F018
:103CC00052C0809153018111CBCF4DC087FD3AC0C6
:103CD0003296F0934D01E0934C01FD01A491B0E0C8
:103CE000B92B20916501309166010E944C376C50D0
:103CF0007E4F8F4F9F4F28EE33E040E050E00E9410
:103D00002A3720935B0130935C0140935D0150930F
:103D10005E0180915B0190915C01A0915D01B09189
:103D20005E01892B8A2B8B2B21F581E090E0A0E0AE
:103D3000B0E080935B0190935C01A0935D01B09330
:103D40005E0117C0803E49F480914A0190914B0179
:103D500090934D0180934C0183CF803F09F080CF39
:103D600010924E0106C067FD7BCF8C2F0E94961CDF
:103D700077CFDF91CF9108951F920F920FB60F92D8
:103D800011242F933F934F935F936F937F938F9360
:103D90009F93AF93BF93EF93FF9380916401882328
:103DA00041F080916301811104C0809162018823F8
:103DB00051F180914E01882381F180915B019091B6
:103DC0005C01A0915D01B0915E01892B8A2B8B2B48
:103DD00021F180915B0190915C01A0915D01B09116
:103DE0005E010197A109B10980935B0190935C0189
:103DF000A0935D01B0935E01892B8A2B8B2B69F414
:103E00000E942D1E0AC090916101E0915F01F09126
:103E10006001808189278083CCCFFF91EF91BF9192
:103E2000AF919F918F917F916F915F914F913F9152
:103E30002F910F900FBE0F901F90189590914901F0
:103E4000923009F471C0292F30E0F901E35EFE4F92
:103E50004081F901EF5AFE4F8083913031F4209177
:103E60005101821302C0909353019F5F90934901C7
:103E700090E0FC01E651F94F2491FC01E553F94F24
:103E8000849130E0220F331FF901E354F94F65911B
:103E90007491F901E155F94FA591B4919C91982B3A
:103EA0009C93413019F04330D9F00895909164000B
:103EB000977F9093640010928000109281009091FF
:103EC000810098609093810090918100916090931F
:103ED00081007093550160935401809356010895B9
:103EE00090916500977F90936500109290001092DA
:103EF0009100909191009860909391009091910021
:103F00009160909391007093600160935F01809342
:103F1000610180914901882321F06CE380E00E94D7
:103F2000961C80E00C94021E08958FB18095807FCE
:103F3000669B88601C9B84600895109248013E989F
:103F40003F9808953E9A3F9A81E0809348010895F2
:103F500097FD12C067FD10C050E0840F951F803799
:103F6000910554F4460F511D67FD5A9581E0403488
:103F700051051CF480E0089581E00895EF92FF92CE
:103F80000F931F93CF93DF9320917E0130917F0198
:103F9000F901C591D491D9011296FD015491319640
:103FA000E4915E9F902D1124FD01A4916A9F800DE4
:103FB0001124E82EF12CD701AA0FBB1FFD01349666
:103FC000E20FF31F65917491E92FF0E08F01000F6C
:103FD000111F6C5F7F4F600F711F3197EE16FF0648
:103FE00054F4FD013696E20FF31FC591D4910C5F96
:103FF0001F4FC00FD11FC61BD70B5C2F550FBCE145
:10400000B40FA0E0A51708F04BC08A2F90E0FC0188
:10401000F595E795E60FF71FE20FF31FE491DA2F0E
:10402000D170A0FFE295EF70EF3079F58C010F5F52
:104030001F4FF801F595E795E60FF71FE20FF31F05
:10404000C49100FFC295CF70FC013296F595E795BB
:10405000E60FF71FE20FF31FE491D11101C0E295C3
:10406000EF70F42F8C2F90E00396CF2FC41BD0E07D
:104070008C179D073CF0CF2FD0E0C058DE4FE8836F
:10408000FF5FF3CFAD5F4F2FBDCF4B1730F4C42F81
:10409000D0E0C058DE4FE8834F5FAF5FF42FF3CF1F
:1040A000DF91CF911F910F91FF90EF900895AF9204
:1040B000BF92CF92DF92EF92FF920F931F93CF9315
:1040C000DF93C82FD0E0C058DE4FB12CF12C97E021
:1040D000A92E399181E0830FF80E8B2D6A2D0E9455
:1040E0005B378295807F9295907F4091C501A82F84
:1040F000B0E0C92ED12C31112DC0411108C08F2D37
:104100000E945B37913011F120E000E009C020E00F
:1041100000E0442329F03550EE24E394333008F4D2
:10412000E12C4DE855E0BD01C6010E940E2FB3946D
:104130008CE1B812CECFDF91CF911F910F91FF90FC
:10414000EF90DF90CF90BF90AF900895E12C0F2DAE
:1041500028E0E7CF383078F0032F10E0085011093D
:10416000000F111FF801ED57FA4F2491F801EC5799
:10417000FA4F0491CECF232FCBCFEF92FF920F9324
:104180001F93CF93DF9300D0CDB7DEB761E580E416
:1041900090E00E94EA3688EBE82E81E0F82E01E4F8
:1041A00010E0F70161917F011A830983CE01019626
:1041B0000E9493240F5F1F4F0D37110591F70F9049
:1041C0000F90DF91CF911F910F91FF90EF90089585
:1041D00080E490E00E94E23691E0813509F090E0C1
:1041E000892F08950F931F93CF93DF930E94E820A8
:1041F000882379F008EB11E0C1E4D0E0CE010E9401
:10420000E236F80181938F012196CD37D105B1F7C0
:104210002BC082E08093B8011092B9011092BA01CC
:104220001092C501EBEBF1E01192148281E0E03CC9
:10423000F807D1F7E6ECF1E084ED91E011928E17EA
:104240009F07E1F748EB51E024E080E090E0FA01BD
:10425000E80FF91F148E019688309105C1F721509F
:10426000485F5F4F2111F1CFDF91CF911F910F91E7
:104270000895CF92DF92EF92FF920F931F93CF9307
:10428000DF936C01C62F142FF22ED0E0DF15A9F0BA
:10429000612F70E0EE24E39400E020E0A6018C2F73
:1042A00090E00E94E52E84E08C0FD23019F4185F64
:1042B00088EF8C0FDF5FC82FE9CFDF91CF911F917F
:1042C0000F91FF90EF90DF90CF900895BF92CF9223
:1042D000DF92EF92FF920F931F93CF93DF93EC0146
:1042E00020E440E160E070E080E090E00E946F2F09
:1042F000C090B801BC8810E0DD24D394FF24F3946F
:10430000C116C9F021E01B1508F420E06D2D70E006
:10431000E12C00E049E15EE08F2D90E00E940E2F3D
:1043200084E08F0D133021F484E0D80E84EF8F0DDC
:104330001F5FF82EE5CFFE01E25AFF4FE081EF3F0D
:1043400089F0F0E0EE0FFF1FE05BF14F45915491D3
:10435000EE24E39400E020E06FE070E087E090E07E
:104360000E94E52EE12C00E020E049E45EE06DE0F3
:1043700070E081E090E00E940E2FE091C501F0E036
:10438000E854FE4F238140E361E081E49EE00E9417
:104390003921C15ADF4F28814EE160E08FE29EE073
:1043A0000E943921E091C501F0E0E854FE4F80857C
:1043B000882359F0EE24E39420E041E25EE067E1D7
:1043C00070E080E090E00E94E52EDF91CF911F9198
:1043D0000F91FF90EF90DF90CF90BF900895AF9234
:1043E000BF92CF92DF92EF92FF920F931F93CF93E2
:1043F000DF938C01D62EFC01EB59FF4F9081809109
:104400007D01981740F43596808120E730E07901EE
:10441000E81AF1080AC0F801891750F4E659FF4F6D
:10442000E080F12C80E7E81AF108C0E0D0E01CC081
:10443000EA59FF4F908180917C01981738F43496A7
:104440008081C0E4D0E0C81BD1090CC0891740F4BA
:10445000F801E659FF4FC081D0E0C054D10902C035
:10446000C0E0D0E0E12CF12CF0928D07E0928C07B7
:10447000CC2EC0938E07F801E957FF4F8081882327
:1044800059F0E114F10421F4209711F49FEF0CC0CE
:1044900080917B010E945720F7FC09C0D7FD62C0C4
:1044A0009FEFE114F10421F420E030E007C091E037
:1044B0009701B0E79B02200D311D112430938D0729
:1044C00020938C07209729F0E0E49E9FC00D1124D3
:1044D00001C0C0E0C0938E07C8010E949232D82F5D
:1044E000882321F0809101010E9457205801FDE8A6
:1044F000AF0EB11CC8E0D11105C0D50116968C9144
:10450000883149F4D501ED91FC910190F081E02DC5
:104510006D2DC5010995C150BDE1AB0EB11CC11196
:10452000EACFF0928D07E0928C07C0928E070F5F62
:104530001F4F6D2DC8010E942C1080E790E09093D2
:104540008D0780938C0710928E07C801DF91CF9161
:104550001F910F91FF90EF90DF90CF90BF90AF90A1
:104560000C946621E114F10409F0A1CF10928D079B
:1045700010928C0791E0A8CF8F929F92AF92BF923A
:10458000CF92DF92EF920F931F93CF93DF936C0143
:1045900080E790E090938D0780938C0710928E07B0
:1045A000C60101960E94662110928D0710928C0719
:1045B00044E05EE062E088E10E942C2F8091B90126
:1045C000882361F0EE24E39400E020E04AEE5DE011
:1045D0006CE270E086E090E00E94E52E10E046017B
:1045E00028E6820E911CC12FD0E08091BA01082EDE
:1045F000000C990BC817D90744F5F4018081FFE03E
:104600001F9F5001112418130CC0E12C00E020E082
:1046100043EE5DE0B501665F7F4F88E190E00E9468
:104620000E2FFE01EE0FFF1FED52F24F45915491F8
:10463000B501645F7F4FEE24E39400E020E08EE15B
:1046400090E00E94E52E1F5FCECF84E490E090932F
:104650008D0780938C0710928E070091C50104305E
:1046600008F054C0F601E359FF4F108190907C018F
:1046700080907D0145E15EE062E080E00E942C2FA9
:10468000C0E0D0E0AA24A394B12C28E0029FC0018E
:104690001124AC0148545E4F6A018C2F612F0E9497
:1046A0005B372C2F2770F50102C0EE0FFF1F2A95F4
:1046B000E2F79F01FE0133E0F595E7953A95E1F7C2
:1046C000EC0DFD1D348D2323891202C0981621F0B4
:1046D000222321F022E003C021E001C020E0682F66
:1046E00070E06E5F7F4F660F771F660F771FF4E0F5
:1046F0009F9FC0011124E12C00E04AE05EE0029699
:104700000E940E2F2196C034D10539F6DF91CF914A
:104710001F910F91EF90DF90CF90BF90AF909F903F
:104720008F900895FF920F931F93CF93DF93EC0127
:10473000F090BA01FF2061F180E80E94032F8E0102
:1047400008591F4F882361F0F8018081282F30E03D
:104750002230310514F0815001C080E0F8018083DF
:1047600080E10E94032F882379F0F801808190E096
:104770002F2DFF0C330B21503109019628173907D3
:104780000CF4C901F8018083F80180818F5F818377
:1047900088E00E94032F882309F1FE01E15AFF4FB0
:1047A000DE01A759BF4F8C91808377978FEF80836D
:1047B000BE9615968D919D910D90BC91A02D8083F4
:1047C0009183A283B3833C96C658DF4F8881998139
:1047D000AA81BB8180839183A283B383DF91CF9130
:1047E0001F910F91FF900895DF92EF92FF920F9328
:1047F0001F93CF93DF93EC01162F0E949232D82E95
:10480000882321F080917B010E9457207E018DE852
:10481000E80EF11C08E0D11005C0D70116968C9166
:10482000883149F4D701ED91FC910190F081E02DA0
:10483000612FC70109950150BDE1EB0EF11C01117B
:10484000EACF7E01EFEFEE1AFE0A612FC7010E9448
:104850002C10EDA1FEA10190F081E02D612FCE0181
:1048600085960995CE018E5B9F4FDC01ED91FC9101
:104870000190F081E02D612F0995612F84EF95E083
:104880000E94A519FE01E757FF4F8081882391F010
:104890008150808326E040E760E070E080E090E0B7
:1048A0000E946F2FC657DF4F4881598161E081E038
:1048B0000E942C2F80E790E090938D0780938C07C7
:1048C00010928E07C701DF91CF911F910F91FF903A
:1048D000EF90DF900C946621E0917E01F0917F01D2
:1048E0003296E49190917C0180917D01E99F800D49
:1048F00011249091C5019111865DE82FE695E6950A
:10490000E695F0E0E854FE4F877021E030E0A90121
:1049100002C0440F551F8A95E2F7CA019685892B7C
:1049200086870C94BD20FF920F931F93CF93DF9344
:10493000EC01F62E08811981C8010E94E236F816B2
:1049400021F06F2DC8010E94EA36CE01DF91CF9190
:104950001F910F91FF9008950F931F93CF938C0198
:10496000C0E080914901C81728F48C2F0E94021ED4
:10497000CF5FF7CF10924E0110934B0100934A0185
:1049800010934D0100934C010E942D1E81E08093F5
:104990004E01CF911F910F9108959091C5019430D0
:1049A000F0F4649F800D1124E82FF0E023E0F595EA
:1049B000E7952A95E1F728E0929FE00DF11D11247B
:1049C000E854FE4F877021E030E0A90102C0440F97
:1049D000551F8A95E2F7CA01948D892B848F08951B
:1049E000EF92FF920F931F93CF93DF93EC018C0113
:1049F00006591F4FF8018081825080833196808153
:104A0000882351F010822091010135974081319720
:104A10006081CE010E94C12FF801808181117DC08B
:104A200081E0FE01EA57FF4F80837E01F5E6EF0E3D
:104A3000F11CF701308120917D018E010A591F4F31
:104A4000CE010196321728F421E04A8560E770E034
:104A500014C0231728F421E04A8560E070E00DC0FF
:104A6000F801308120917C0168857985321718F42E
:104A700021E040E402C021E040E00E943A1398891E
:104A80008CE6891B9885292F94300CF424E0281794
:104A90002CF4953014F0892F01C084E090E09987C0
:104AA000888799898CE3891B9A85292F94300CF487
:104AB00024E028172CF4953014F0892F01C084E0ED
:104AC0008A87F701808180937D01F801608160937E
:104AD0007C01FE01E359FF4F40810E94CD248FEFFE
:104AE0008BA7FE01E85BFF4F8083BE96DE01A259D3
:104AF000BF4F8D919D910D90BC91A02D808391838E
:104B0000A283B3833C96C658DF4F88819981AA81DE
:104B1000BB8180839183A283B383DF91CF911F9167
:104B20000F91FF90EF900895DC016F3F09F472C080
:104B300016966C93169757961C92579758961C92F8
:104B4000589759961C9259975A961C925A971B96A9
:104B50001C921E921A971C961C921C971D961C92D2
:104B60001D971E961C921E9724E0629FC00111247F
:104B70009C012F59374EF9014491FC01EE59F74E33
:104B80008491F9013296E4915696EC935697F90187
:104B90003396E49191E0E11101C090E05C969C9322
:104BA0005C97942F92959F709F5F1F969C931F9781
:104BB0004F704F5F50964C935097282F30E094E001
:104BC000359527959A95E1F754962C9354978F70C5
:104BD00055968C935597F6E06F9FB0011124CB0149
:104BE0008E59914FFC012591349153963C932E930D
:104BF0005297FB01EC59F14F2591349113963C9358
:104C00002E931297FC0134968591949115969C935E
:104C10008E93149708953F924F925F926F927F9276
:104C20008F929F92AF92BF92CF92DF92EF92FF92BC
:104C30000F931F93CF93DF93CDB7DEB760970FB677
:104C4000F894DEBF0FBECDBF2091CD0123FF0AC077
:104C50002AE0FC01E757FF4F208328EC3DE0319626
:104C600031832083FC01E959FF4F2081222319F071
:104C70002150208367C3562E988B8F870E94951FE3
:104C8000EF85F889E857FF4F83FF37C080818F5F3A
:104C90008083823399F5EF85F889E15AFF4F80814F
:104CA000EF85F889E859FF4F8F3F41F0AF85B8890C
:104CB000A759BF4F8C938150808301C01082EF852C
:104CC000F889EA58FF4F82E993E291838083EF8568
:104CD000F889E858FF4F11821082EF85F889EE5766
:104CE000FF4F8CEB92E2918380832F8538892C577C
:104CF0003F4FD9011D921C9225C310820F85188940
:104D00000F5F1F4F452DB801C8010E947013EF853A
:104D1000F88983A1811116C34F01F5E28F0E911C12
:104D20006F8478882FE5620E711C7401D701ED91B4
:104D3000FC910280F381E02D452DB801C701099552
:104D4000D82E682FC7010E949425BFEFDB1649F0CB
:104D5000F7018781908504979087878381858450A8
:104D60008187FDE1EF0EF11C6E147F04F9F6AF842C
:104D7000B8882DE8A20EB11CCF84D8883BE8C31AAE
:104D80003EEFD30A7501D701ED91FC910280F381CA
:104D9000E02D452DB801C7010995A701682F8F8522
:104DA00098890E94841BBDE1EB0EF11CCE14DF0438
:104DB00051F77501512CEF85F889EB59FF4FFA83B4
:104DC000E9832F8538892A593F4F3C832B838F8570
:104DD000988984599F4F9E838D8350E4452EAF85DB
:104DE000B889AA58BF4FB887AF83EF85F889E858CC
:104DF000FF4FFA87E9872F8538892E573F4F3C8729
:104E00002B878F8598898C579F4F9E878D87D701D9
:104E10001696DC90BFEFDB1208C05394EDE1EE0E66
:104E2000F11CF8E05F12F3CFBFC0B801C7010E94C8
:104E30001A1C882309F457C02EE0D21224C0D701CF
:104E40001A968C911A97E981FA8180831C968C912D
:104E5000AB81BC818C93ED81FE814082ECE3F8E173
:104E6000AF81B885ED93FC93A985BA851D921C92FC
:104E700022EE37E1EB85FC8531832083AD85BE854D
:104E80001D921C9226C0B3E1DB1621F081EF8D0D3F
:104E90008230A0F4F70184898130D9F4AF85B889D4
:104EA0001B968D919C911C9719969C938E931897A5
:104EB0001D968C911D971A968C930BC0A801B70173
:104EC000C8010E948E0EA801682F8F8598890E94C4
:104ED000841BD701ED91FC910480F581E02DA801A0
:104EE000B801C70109956401F60186818F3F31F150
:104EF000B601C7010E941A1C882301F1D701ED9168
:104F0000FC910480F581E02DA801B601C701099547
:104F1000A701682F8F8598890E94841BD601ED9187
:104F2000FC910480F581E02DA801B701C601099527
:104F3000A601682F8F8598890E94841BBDE1CB0E46
:104F4000D11C6C147D0481F6F7018681893009F04B
:104F500064CF6501312C5314F9F0D60116968C916B
:104F60008930D1F4B601C7010E941A1C8823A1F030
:104F7000D701ED91FC910480F581E02DA801B601E7
:104F8000C7010995D601ED91FC910480F581E02DD2
:104F9000A801B701C60109953394BDE1CB0ED11C20
:104FA000E8E03E12D8CF39CFEF85F889E85BFF4FB4
:104FB0008081823159F4EF84F888F2E4EF0EF11C1D
:104FC000B701C8010E941A1C811179C18091FA05AC
:104FD000811107C0B80184EF95E00E941A1C81116D
:104FE00074C1AF85B8891A96DC901A971896ED901F
:104FF000FC90199740E06D2DC7010E94A81F3091C9
:105000007B01882309F44FC0EF85F88995852385B6
:105010004485892F82958F70E22FE295EF70F7E03B
:105020008F9FE00D1124F0E0E058FE4FE30FF11DDB
:105030008081F7FE0AC08823A9F08B30F1F083301D
:1050400009F47DC18C3021F57AC130E7E316F10413
:105050004CF0882339F08B3081F03EEF380F32303E
:10506000B8F46DC1D7FE0BC08823C1F13EEF380FF5
:105070003230A0F18C3061F431C0D7FC09C05FE35D
:105080005D1564F5382F3D7F49F18B50823030F14A
:10509000AF85B88918962C93189719964C93199741
:1050A0001A969C931BC0D2944FE0D422EE2DE29529
:1050B000EF70B7E0DB9EE00D1124F0E0E058FE4F0A
:1050C000E30FF11D80818D7F843041F4EF85F889F5
:1050D000838594859187808785858287AF85B88908
:1050E0001A96FC901A971896CD90DC90199740E08C
:1050F0006F2DC6010E94A81F882309F49CC0D7FE0B
:1051000008C0EF85F889EB59FF4F90917D019150D0
:105110000BC0B0E7CB16D1048CF0EF85F889EB59C2
:10512000FF4F90917D019F5F908390917C01EF856F
:10513000F889EA59FF4F908390E724C0F7FE0FC02B
:1051400090917D01EF85F889EB59FF4F9083EF85B2
:10515000F889EA59FF4F90917C01915011C0EFE31B
:10516000EF15ACF490917D01EF85F889EB59FF4F75
:105170009083EF85F889EA59FF4F90917C019F5FFA
:10518000908390E4EF85F889E659FF4F90839091E2
:10519000C5019330B1F4EF85F889ED56FF4F2F85A7
:1051A000388925583E4F90E04081483121F496855A
:1051B000992339F091E07D962E173F07A9F781E0FA
:1051C0008927EF85F889E957FF4F808340910101D6
:1051D000EF85F889EA59FF4F6081EF85F889EB592F
:1051E000FF4F80810E94BE1F81E0EF85F889E5595D
:1051F000FF4F808380EF94E2EF85F889EA58FF4FF4
:1052000091838083EF85F889E858FF4F11821082DF
:105210008FEE91E2EF85F889EE57FF4F91838083FF
:10522000EF85F889EC57FF4F11821082EF85F889DE
:10523000E757FF4F1082AF85B88955968C915597E7
:105240001816FCF01C920E94BD2083E397E1EF85C5
:10525000F889EA58FF4F91838083EF85F889E858F1
:10526000FF4F1182108289E098E1EF85F889EE57AF
:10527000FF4F91838083EF85F889EC57FF4F1182B0
:105280001082EF84F888BCE8EB0EF11CF7018081F6
:105290009FEF980F943008F055C0EF85F889ED56D0
:1052A000FF4F2F85388925583E4F90819650983072
:1052B00008F448C07D962E173F07B9F70DC0A80126
:1052C000B701C8010E948E0E81CEA80164EF75E07F
:1052D000C8010E948E0E85CE813039F48F85988961
:1052E0000E94481B0E946C2427C0823029F0843021
:1052F00031F024E0D22E05C095E0D92E02C086E020
:10530000D82EA80163E08F8598890E94841B2F8581
:1053100038895DE1859F200D311D1124F901EC567E
:10532000FF4F80E390E09183808332968CE180830D
:105330002F553F4FD901DC92F701108203C0D7FEF1
:105340009ECE94CE60960FB6F894DEBF0FBECDBF52
:10535000DF91CF911F910F91FF90EF90DF90CF9051
:10536000BF90AF909F908F907F906F905F904F9085
:105370003F900895CF93DF931F92CDB7DEB7698337
:10538000DC01ED91FC910280F381E02D41E050E0E1
:10539000BE016F5F7F4F09950F90DF91CF91089508
:1053A00083E08093E9008091F200882319F08AE37A
:1053B0008093E8000895FC018485958597FD0BC0D6
:1053C0009FB7F89482E08093E9008091F2009FBF3C
:1053D00090E0019608959FB7F89482E08093E900E9
:1053E0008091F2009FBF90E0089540917501509127
:1053F0007601209173013091740142175307B4F480
:105400009091E8009570E1F39091E80092FD19C049
:105410008093F100809175019091760101968F73D0
:105420009927892B19F48EEF8093E80080917501FC
:10543000909176010196909376018093750181E0B9
:10544000089580E00895DF92EF92FF920F931F93EB
:10545000CF93DF93D82E8A017B01E40EF51EEB017A
:10546000CE15DF0571F0D7FE03C0FE01849101C0A7
:1054700088810E94F52921968111F2CF8FEF9FEF4D
:1054800001C0C801DF91CF911F910F91FF90EF9064
:10549000DF900895615030F02091F100FC012083ED
:1054A0000196F8CF289884E68093790108950E94A8
:1054B000DA3290E008950F931F93CF93DF931F92FA
:1054C000CDB7DEB78C01FC018485958597FF0EC0B2
:1054D000CE0101960E94AC32019719F4898190E0C7
:1054E00002C08FEF9FEFF80195878487F8018485CC
:1054F00095850F90DF91CF911F910F910895CF93D4
:10550000DF931F92CDB7DEB7FC018485958597FDAB
:1055100005C02FEF3FEF358724870BC0CE010196E2
:105520000E94AC32019719F4898190E002C08FEF9C
:105530009FEF0F90DF91CF9108950F931F93CF931B
:10554000DF931F92CDB7DEB782E0898342E450E05B
:1055500068EF7EE080E80E94232A0E94EB32DC01A3
:1055600012960D911C9113970115110589F0D80120
:10557000ED91FC910280F381E02DBE016F5F7F4FC2
:10558000C801099597FD04C0F80100851185ECCF8D
:1055900089810F90DF91CF911F910F9108951F92F4
:1055A0000F920FB60F9211248F939F938091E10079
:1055B0009091E100937F9093E10083FF0FC01092E0
:1055C000E90091E09093EB001092EC0092E390934D
:1055D000ED0010927A0198E09093F00082FF20C0D5
:1055E00093E09093E9009091F200992319F09AE3E7
:1055F0009093E80090917801992339F09091780187
:10560000915090937801992389F190917901992390
:1056100039F090917901915090937901992341F15A
:1056200084FF10C08091E2008E7E81608093E20052
:105630008091E1008F7E8093E100809172018E7EE7
:10564000806111C080FF16C08091E2008E7E806173
:105650008093E2008091E1008E7E8093E100809152
:1056600072018E7E81608093720104C05D9ACDCFFD
:10567000289AD6CF9F918F910F900FBE0F901F90B9
:1056800018951F920F920FB60F921124CF92DF92AE
:10569000EF92FF920F931F932F933F934F935F933C
:1056A0006F937F938F939F93AF93BF93EF93FF93EA
:1056B000CF93DF93CDB7DEB76C97DEBFCDBF10922F
:1056C000E9008091E80083FFFBC168E0CE014596C8
:1056D0000E944A2A82EF8093E8008D8987FF05C0E7
:1056E0009091E80090FFFCCF03C09EEF9093E800FC
:1056F000982F907609F0C6C09E894F89588D2F89C2
:10570000F88C91110CC0803829F48091710180933C
:10571000F10002C01092F1001092F10045C19130E9
:1057200051F4811141C14130510509F03DC18091D1
:1057300071018D7F0BC0933061F4811135C141300F
:10574000510509F031C1809171018260809371012E
:105750002BC1953049F48091E80080FFFCCF822F67
:1057600080688093E30020C1963009F05EC00B8D05
:105770001C8D22E01092E9001092760110927501C2
:10578000F21232C010927401109273010E949D2A8D
:1057900099E0BE016F5F7F4FDB01E92F1D92EA9513
:1057A000E9F79983FA8291E09E8390EA98879AEFCD
:1057B00099872091750130917601275F3F4F3C8397
:1057C0002B838D831092E90010927601109275015F
:1057D000109374010093730149E050E080E00E944F
:1057E000232A0E949D2AE0C0109374010093730144
:1057F0000E94EB32DC0112960D911C91139701155A
:10580000110509F4BBC0D801ED91FC910480F5812C
:10581000E02DBE016B5E7F4FC8010995009709F02E
:10582000C7C0F80100851185EACF973009F445C15A
:10583000983021F481E08093F100B6C0993009F0EE
:10584000B3C0837009F039C1E0E2F1E081E031E0FA
:1058500096E32081211109C08EE78093EA0010921F
:10586000EA008F8980937A019FC08093E90030938A
:10587000EB0021912093EC009093ED008F5F873037
:1058800041F7EACF8B8D9C8D1092E9001092760142
:10589000109275019093740180937301898D811129
:1058A00053C08E899D89913A49F4813209F005C12E
:1058B00047E050E067E071E080E0BBC0913209F062
:1058C000FCC0833269F48F89988DA0E0B0E08093AA
:1058D000030190930401A0930501B093060164C0F5
:1058E000803269F48091E80082FFFCCF67E087E0B6
:1058F00091E00E944A2A8BEF8093E80055C08232E3
:1059000009F052C08F8980930E01EEEFFFE7859179
:1059100094918B3F9C4D19F0E0E0F8E002C0EEEF6F
:10592000FAE08091070190910801A0910901B091DE
:105930000A01803B9440A105B10509F09EC0809109
:105940000E0180FF79C099C00E94EB32FC010281F8
:1059500013810115110509F4B0C0D801ED91FC9136
:105960000190F081E02DBE016B5E7F4FC80109956B
:1059700081111AC0F80100851185EBCFF1E0FF1607
:1059800009F44EC0F3E0FF1298C08F89882309F410
:105990004AC0823089F440E860E18CE59FE00E94D3
:1059A0002C35882309F489C08EEF8093E80088C0E5
:1059B00018161906CCF381C0813029F440E86BE059
:1059C00080E59FE0ECCF833009F077C00E94EB3296
:1059D000DC011296ED90FC9013978E010F5F1F4F24
:1059E0006801E114F10479F0D701ED91FC91068092
:1059F000F781E02DB801C7010995080F111DF701C6
:105A0000E084F184EECFD8011C92F60101900020D1
:105A1000E9F73197BF016C197D0940E0C601BFCF9E
:105A20006EE37FE002C06AE37FE0FB01449150E057
:105A300080E80E94232AB8CFEE3F2AE0F20751F017
:105A4000808191818737A7E79A0721F09093FF0A19
:105A50008093FE0A87E797E79183808380916000B7
:105A6000809377019BE088E10FB6F894A895809326
:105A700060000FBE9093600097CF8081918187373F
:105A8000974709F091CFA895809160008861809335
:105A900060008091770180936000EE3FBAE0FB07E1
:105AA00039F08091FE0A9091FF0A918380837CCF28
:105AB0001092FF0A1092FE0A77CF81E28093EB00EA
:105AC0006C960FB6F894DEBF0FBECDBFDF91CF91BD
:105AD000FF91EF91BF91AF919F918F917F916F91C6
