:100000000C942E150C9456150C9456150C945615EC
:100010000C9456150C9456150C9456150C945615B4
:100020000C9456150C9456150C9466240C94D824F4
:100030000C9456150C9456150C9456150C94561594
:100040000C9456150C9456150C9456150C94561584
:100050000C9456150C9456150C9456150C94272D8B
:100060000C9456150C9456150C9456150C94561564
:100070000C9456150C9456150C9456150C94561554
:100080000C94F2280C9456150C9456150C94561595
:100090000C9456150C9456150C9456150C94561534
:1000A0000C9456150C9456150C9456157A188A18FB
:1000B0008A18DC18DC18FE18FE18FE186919AB192E
:1000C0000F1AC9183C1A5B1A9D1A291BE318E3186A
:1000D000961B961B35325A32F93495320E33F33370
:1000E000FB33A5344432792C7C2C6B2C6F2C732C75
:1000F0009D2C9D2C9D2C802C842C882C8E2C922C1D
:100100009D2C982C0808000C0C1E1E3F0C3F123F23
:100110000C1E000C0000000C0C1E1E3F1E3F0C1E8F
:10012000000C0C1E000C08080030207050F818FE5F
:100130000A1F060F040E000C0038183C0C1E081C89
:10014000081C041E1C3E183C08080C1E043F1E3FE1
:100150000C1E0C1E0C1E040E00060006040E0C1EC7
:100160000C1E0C1E1E3F043F0C1E08080018183CF5
:10017000247E7AFF7AFF3C7E183C001800000000C5
:10018000007E7EFF7EFF007E000000000C10030357
:10019000DFDFFFFFFEFEFFFFFFFFFFFFFEFE7F7FB3
:1001A0003F3F1F1F0F0F000001010D0D0F0F0F0F1D
:1001B00007070303010100000000000000000070B9
:1001C000307830F810F888FC40F858FEA6FF1AFF87
:1001D000027F043E001C000000000000000000013F
:1001E0000003030702070107040F00040000001CBE
:1001F0000C1E0CBE84FE42FFE0FE7CFEBCFE5CFEDC
:10020000B8FC70F80070000000010103020701074C
:1002100000070207000301030001000000000003C3
:1002200002DFC6FF68FE16FF56FFAAFF44FE327FBC
:100230001A3F0A1F000F00000001000D040F030FFA
:1002400002070103000100000000000000000F0F82
:100250001F1F3F3F7F7FFEFEFFFFFFFFFFFFFEFEF2
:10026000FFFFDFDF030300000000000000000101CA
:10027000030307070F0F0F0F0D0D01010000001CF6
:10028000043E027F1AFFA6FF58FE40F888FC10F8D3
:1002900030F83078007000000004040F01070207F6
:1002A00003070003000100000000000000000070D0
:1002B00070F8B8FC5CFEBCFE7CFEE0FE42FF84FEF3
:1002C0000CBE0C1E001C0000000000010103000316
:1002D0000207000701070207010300010000000FE9
:1002E0000A1F1A3F327F44FEAAFF56FF16FF68FE20
:1002F000C6FF02DF00030000000000000000000154
:1003000001030207030F040F000D00010000182075
:10031000008000800080008000800080008030B07D
:1003200078F870F0F0F0F0F0F8F8F8F8F8F8F8F87D
:10033000F0F0F0F0F0F078783030000000000000CD
:1003400000FFFFFF01FFFDFFFDFF01FF01FF01FFB8
:10035000FFFF00FFFFFFFFFFFFFFFFFFFFFFFFFFAC
:10036000FFFFFFFFFFFF7E7EFCFCF8F8E0E0C0C06F
:10037000001F1F3F207F40FF80FFBFFF5FFFA0FFE8
:10038000DFFFE0FFF0F0F9F9FFFFFFFFFFFFFFFFE6
:10039000FFFFFFFFFFFFFCFCFEFE7F7F3F3F1F1FB5
:1003A0000000000000000000000100018383FFFF47
:1003B000FFFFFFFFFFFFFFFFFFFFF3F30707070745
:1003C0000F0FFFFFFFFFFFFFFFFFFEFEF8F8E0E06B
:1003D000008000800080008000800080008000B0ED
:1003E00030F860F060F0A0F070F8B0F870F8B0F895
:1003F00060F060F060F03078003000000000000035
:1004000000FFFFFF01FFFDFFFDFF01FF01FF01FFF7
:10041000FFFFE0FF53FFA8FF50FF40FF54FF57FFCF
:100420004BFFA5FF3CFF1C7E68FCE0F8C0E000C06D
:10043000001F1F3F207F40FF80FFBFFF5FFF20FFA7
:100440009FFF40FF20F010F9E1FFE8FFE8FF21FFE8
:10045000D5FF12FF80FF28FC70FE2E7F1F3F001F7C
:10046000000000000000000000010001018382FF85
:10047000D5FFDEFFBDFFFAFF70FF01F303070007A2
:10048000060F05FFA2FFD5FFDEFFD8FEA0F800E0B3
:100490000000000000000000000000000000001844
:1004A000183C30F8B0F850F838FC58FC38FCD8FC50
:1004B000B0F8B0F830F8183C001800000000000058
:1004C000000000FFFEFF02FFFAFFFAFF02FF02FF3B
:1004D00002FFFEFF01FF54FFA8FF20FF2AFFABFF32
:1004E000A5FF52FF1EFF0E3F347E70FCE0F000E0DF
:1004F0000000003F3F7F40FF81FF01FF7EFFBEFF06
:1005000040FF3F7F00FF68FC70FF14FF44FF90FF37
:100510003AFF193F001F143E387F173F0F1F000F8F
:1005200000000000000000000001010301030001C1
:100530000000000000000007078F88FFC5FFD6FFFE
:10054000FFFFFCFF00FCF0F800F0000000000000DE
:10055000000000000000000000000000000000603B
:1005600060F0C0E0C0E040E0E0F060F0E0F060F09B
:10057000C0E0C0E0C0E060F00060000000000000EB
:10058000000000000000FEFEFEFEFEFEFEFEFEFE7F
:10059000FEFEFEFFFEFFFFFFFEFF81FFA8FFAFFF95
:1005A00056FF62FFB8FFB8FC30F8003000000000D2
:1005B0000000000000007F7FFFFFFFFFFFFFFFFF45
:1005C000FFFFFFFFFFFFFFFF7FFF14FF42FF56FF0C
:1005D000A6FF67FF036701030001000000000000A1
:1005E00000000000000000000000010103030707F5
:1005F0000707030301030007048F88FFC5FFD2FF2D
:10060000FCFFF8FC00F8F0F800F00000000000002B
:1006100000000000000030307878F0F0F0F0F0F0EA
:10062000F8F8F8F8F8F8F8F8F0F0F0F070F078F87A
:1006300030B000800080008000800080008000805A
:10064000C0C0E0E0F8F8FCFC7E7EFFFFFFFFFFFF8C
:10065000FFFFFFFFFFFFFFFFFFFFFFFF00FFFFFFA9
:1006600001FF01FF01FFFDFFFDFF01FFFFFF00FF95
:100670001F1F3F3F7F7FFEFEFCFCFFFFFFFFFFFFD2
:10068000FFFFFFFFFFFFFFFFF9F9F0F0E0FFDFFFE3
:10069000A0FF5FFFBFFF80FF40FF207F1F3F001FC5
:1006A000E0E0F8F8FEFEFFFFFFFFFFFFFFFF0F0F88
:1006B00007070707F3F3FFFFFFFFFFFFFFFFFFFF42
:1006C000FFFF838300010001000000000000000024
:1006D0000000000000000030307860F060F060F052
:1006E000B0F870F8B0F870F8A0F060F060F030F892
:1006F00000B00080008000800080008000800080CA
:1007000000C0C0E0E0F868FC1C7E3CFFA5FF4BFF8A
:1007100057FF54FF40FF50FFA8FF53FFE0FFFFFFCC
:1007200001FF01FF01FFFDFFFDFF01FFFFFF00FFD4
:10073000001F1F3F2E7F70FE28FC80FF12FFD5FF99
:1007400021FFE8FFE8FFE1FF10F920F040FF9FFFE5
:1007500020FF5FFFBFFF80FF40FF207F1F3F001F84
:1007600000E0A0F8D8FEDEFFD5FFA2FF05FF060FD0
:100770000007030701F370FFFAFFBDFFDEFFD5FF9F
:1007800082FF018300010001000000000000000062
:100790000000000000000018183C30F8B0F8B0F875
:1007A000D8FC38FC58FC38FC50F8B0F830F8183C4D
:1007B0000018000000000000000000000000000021
:1007C00000E0E0F070FC347E0E3F1EFF52FFA5FFFC
:1007D000ABFF2AFF20FFA8FF54FF01FFFEFF02FF2F
:1007E00002FF02FFFAFFFAFF02FFFEFF00FF000018
:1007F000000F0F1F173F387F143E001F193F3AFFAD
:1008000090FF44FF14FF70FF68FC00FF3F7F40FF34
:10081000BEFF7EFF01FF81FF40FF3F7F003F0000E2
:1008200000000000000000F0F0F800FCFCFFFFFFFB
:10083000D6FFC5FF88FF078F0007000000000000FB
:10084000000101030103000100000000000000009E
:10085000000000000000006060F0C0E0C0E0C0E008
:1008600060F0E0F060F0E0F040E0C0E0C0E060F098
:100870000060000000000000000000000000000018
:1008800000000000003030F8B8FCB8FF62FF56FFEF
:10089000AFFFA8FF81FFA0FF01FFFCFF04FF04FEE4
:1008A00004FEF4FEF4FE04FEFCFE00FE0000000068
:1008B00000000000000000010103036767FFA6FFBE
:1008C00056FF42FF14FFC6FF80FF7FFF80FF7CFFC3
:1008D000FCFF03FF03FF80FF7FFF007F000000009D
:1008E00000000000000000F0F0F800F8F8FCFCFF49
:1008F000D2FFC5FF88FF058F010700030001010338
:1009000002070207010300010000000000000000D0
:10091000000000000000000000000000000000C017
:10092000C0E080C080C080C0C0E0C0E0C0E0C0E0E7
:1009300080C080C080C0C0E000C000000000000097
:10094000000000F8F0F810F8D0F8D0F810F810F81F
:1009500010F9F1FF0DFFA2FF41FF02FF51FF5EFF03
:100960002DFF85FF51FF70F970F8E0F000E0000006
:10097000000000FFFFFF00FF0FFF15FFCAFFD4FFBD
:100980000CFFEDFF08FF24FF5DFF4DFF49FF54FF03
:10099000ABFF1BBF071F030700030001000100009E
:1009A0000000000101030207040F089F8BFFD5FF21
:1009B000DAFFBDFFF8FF73FF0FFF0EFF51FFADFF22
:1009C000A5FFD0FF64FE78FCB8FCD8FCF0F800F07E
:1009D0000000000000F8E8FC94FE2CFE083C000833
:1009E0000000000C08DC50F828FC18FC28FC08FC6F
:1009F000D8FC90F860F060F060F0207010300000DB
:100A000000000000000101030007050F0E1F061F74
:100A10000A1F041E00FF54FFA8FF20FF2AFFABFFA0
:100A2000A5FF52FF1EFF0E3F347E70FCE0F000E099
:100A300000000000000000000000000000000000B6
:100A400000E0E0F090F808FD70FFF4FFF4FF18FFFD
:100A5000EAFF29FF80FF14BE387F173F0F1F000FEA
:100A6000000000000000000000000000008080FC8A
:100A7000D4FFDDFFBCFFFBFF70FF00F101030007A7
:100A8000060F05FFA2FFD6FFDCFED8FCA0F800E0B1
:100A90000C0800D858FC60F858FD61FF5DFF5DFF51
:100AA00061FF58FD60F858FC00D806080038287C23
:100AB00074FE74FE287C00380030307A7AFF7AFFAA
:100AC000307A003008087878FEFEFFFFFFFFFFFF56
:100AD000FFFFFFFF7E7E007838FE56FF3EFF52FF8D
:100AE0004AFF26FF007E006C4CFE46FF4EFF44FF8F
:100AF00048FF26FF007E080878783C3C3F3F7F7F18
:100B00007F7F7F7F7F7F3F3F3078183C183F277F74
:100B1000317F197F297F123F000C0C1E06EFEEFF7C
:100B200072FFBEFF7EFF3C7E3F3F7F7F7F7F7F7FE8
:100B30007F7F3F3F3C3C7878123F297F197F317F90
:100B4000277F183F183C30783C7E7EFFBEFF72FF47
:100B5000EEFF06EF0C1E000C08081414BEBEFFFFCB
:100B6000FFFFFFFFFFFF5E5E0C0C001414BEBEFF14
:100B70009EFFB6FF5EFF0C5E000C001A1A7F4FFF4F
:100B80008FFF9BFF4FFF367F00360C101818FCFCC0
:100B9000FEFEFEFEFEFEFEFEFEFEFCFCF8F8E0E0C1
:100BA000C0C00000000000006161F3F3FFFFFFFF21
:100BB000FFFFFFFF9F9F0F0F07070303001818FC9D
:100BC000C4FEDCFEC4FE98FE64FE28FCC0F8C0E053
:100BD00000C0000000000000006160F392FF0AFF07
:100BE00060FF96FF0A9F020F030700030000000C3E
:100BF0000C7E62FF6EFF62FF4CFFB2FF14FE60FCD2
:100C0000A0F000E00000000C0C1E001F11BFA9FFA7
:100C100045FF20FFC4FF0ADF010B00010B100C0C85
:100C20001E1E7F7FFFFFFFFFFFFFFEFEFCFCE0E0DC
:100C3000C0C080800C0C1E1E1F1FBFBFFFFFFFFF28
:100C4000FFFFFFFFDFDF0B0B01010018183C24FE44
:100C5000ACFEBCFE5CFE18FC40F880C000800000CA
:100C60000000006060F292FF0AFF60FF96FF0A9F9B
:100C7000020F03070003000C081E067F48FF4AFF0F
:100C80001EFF8CFE20FC40E080C00080000C0C1E8B
:100C9000001F11BFA9FF45FF20FFC4FF0ADF010BA2
:100CA00000010018183C24FEACFEBCFE5CFE18FCE3
:100CB00000FE8CFE74FE007C000E06EFE0F712FFD3
:100CC0000A1F021F1D3F20FFC0E100C000000508F1
:100CD000004C4CFFF3FF4CFF004C005C5CFEF6FF49
:100CE0005CFE005C180800FF01FF00FF01FF00FF31
:100CF00003FF03FF00FF03FF07FF07FF07FF07FFD7
:100D000007FF07FF03FF00FF03FF03FF00FF01FFD3
:100D100000FF01FF00FF10087FFF41FF7DFF7DFF07
:100D20007DFF7DFF7FFF00FF7FFF41FF7DFF7DFF98
:100D30007DFF7DFF7FFF00FF80FFBEFF82FF82FF00
:100D400082FF82FF80FFFFFF80FFBEFF82FF82FFE6
:100D500082FF82FF80FFFFFF08080C1E043F1E3F3A
:100D60000C1E0C1E0C1E040E00060006040E0C1EAB
:100D70000C1E0C1E1E3F043F0C1E10030207020730
:100D8000020702070207020702070207020702071B
:100D90000207000702070007020700021003000213
:100DA00002070007020700070207020702070207FF
:100DB00002070207020702070207020702071010D4
:100DC000000000000000008080D0D0F8E8FCDCFECD
:100DD000BCFE6CFE7CFE08FC000800000000000069
:100DE00000000000000000E3E3F7F5FF36FF183FC6
:100DF000063F16FFF8FFA3FF80E300C000000000DD
:100E00000000000000000000000000000000008062
:100E10000080008000800000000000000000000052
:100E20000000006060F070F8B8FC5CFEDAFFD7FFED
:100E30002FFF5BFF5FFF02FFE8FEA0F880E000806D
:100E4000000000000000000000C8C8FCE4FEEEFF47
:100E50005EFFB6FFBEFF04FE0004000000000000BD
:100E60000000000000000000000101E3E3F7F5FFCF
:100E700096FF40FF367F003F0000000000000000AA
:100E800000000000000000000000000000000080E2
:100E900000800080008000000000000000000000D2
:100EA000000000C0C0E040F8B8FC7CFE7AFF97FF6D
:100EB0004FFFDBFFDFFF02FF000200000000000029
:100EC00000F0F0F818FC183C307848FC24FE6EFF67
:100ED000DEFFB6FFBEFF44FEC0E480C0008000001D
:100EE00000030307040F008480E0A0F030FF173FE9
:100EF000061F021F14FFF0FFA1F381E30081000031
:100F00000000000000800080000000000000008061
:100F10000080008000800000000000000000000051
:100F2000003E3E7F43FF03C786CF44EECAFFD7FF94
:100F30002FFF5BFF5FFF02FFE0F2A0F080E0008088
:100F4000000000000000008080C0C0E2E2F7E4FE84
:100F5000EEFFDEFFDEFFDEFFC4FE20F460F0207057
:100F600000000000000303E7E2F7B1FB93FF0B9FD3
:100F7000030F0B1F1BFFF1FFA0F180E000800000BA
:100F800000000000000000000000008080C0008021
:100F900080C080C080C080C00080000000000000D1
:100FA00000000000003030F8A8FC5CFEBCFFBDFF74
:100FB0003BFFB7FFAFFF4FFFA1FF60F160F0207074
:100FC00000000000000000C0C0E8E8FCF4FEEEFFF6
:100FD0005EFF36FFBEFF84FE0084000000000000BC
:100FE0000000000000000032327F093F1D3F0C1F4F
:100FF000011F0D1F040F0107000100000000000089
:1010000000000000008080C0C0FAEAFFDCFFBCFEE8
:101010005CFE5CFE18FC0098000000000000000070
:101020000000000000030307076F217F287F1A3F9D
:101030001B7F7AFFB1FF83F70083000000000000F0
:1010400000000000000000000000000000000000A0
:101050000000000000000000000000000000000090
:1010600060F020F030F850F828FC58FE64FE0CFECA
:101070005CFE0CFE34FE40FC4CFF2AFF6CFE00FCC4
:10108000000000000000000808FC7CFE6CFEBCFEB6
:10109000DCFEE8FCD0F880D00080000000000000FA
:1010A0000000000000C080E3A3FFF8FF16FF063F2A
:1010B000183F36FFF5FFE3F700E3000000000000F3
:1010C00000000000000000000000008000800080A0
:1010D0000080000000000000000000000000000090
:1010E000008080E0A0F8E8FE02FF5FFF5BFF2FFFBB
:1010F000D7FFDAFF5CFEB8FC70F860F0006000001B
:10110000000000000000000404FEBEFFB6FF5EFF0A
:10111000EEFFE4FEC8FC00C8000000000000000074
:101120000000000000000000003F367F40FF96FFF7
:10113000F5FFE3F701E300010000000000000000FC
:10114000000000000000000000000080008000801F
:10115000008000000000000000000000000000000F
:10116000000000000000000202FFDFFFDBFF4FFF76
:1011700097FF7AFF7CFEB8FC40F8C0E000C000009A
:101180000000008080C0C0E444FEBEFFB6FFDEFF6A
:101190006EFF24FE48FC3078183C18FCF0F800F094
:1011A0000000008181E3A1F3F0FF14FF021F061F7E
:1011B000173F30FFA0F080E00084040F0307000316
:1011C000000000000000000000000080008000809F
:1011D000008000000000000000800080000000008F
:1011E000008080E0A0F0E0F202FF5FFF5BFF2FFFD6
:1011F000D7FFCAFF44EE86CF03C743FF3E7F003EC2
:10120000207060F020F4C4FEDEFFDEFFDEFFEEFFA4
:10121000E4FEE2F7C0E280C00080000000000000B1
:101220000000008080E0A0F1F1FF1BFF0B1F030F07
:101230000B9F93FFB1FBE2F703E700030000000000
:10124000000000000000008080C080C080C080C01E
:10125000008080C00080000000000000000000004E
:10126000207060F060F1A1FF4FFFAFFFB7FF3BFFC1
:10127000BDFFBCFF5CFEA8FC30F8003000000000A1
:10128000000000000000008484FEBEFF36FF5EFF09
:10129000EEFFF4FEE8FCC0E800C000000000000023
:1012A00000000000000000010107040F0D1F011FD6
:1012B0000C1F1D3F093F327F00320000000000007C
:1012C0000000000000000000009818FC5CFE5CFEBE
:1012D000BCFEDCFFEAFFC0FA80C000800000000016
:1012E000000000000000008383F7B1FF7AFF1B7F3E
:1012F0001A3F287F217F076F0307000300000000CB
:1013000000000000000000000000000000000000DD
:1013100000000000000000000000000000000000CD
:1013200000FC6CFE2AFF4CFF40FC34FE0CFE5CFE11
:101330000CFE64FE58FE28FC50F830F820F060F0F7
:1013400008080000006060F8B8FDB1FB60F10060C3
:101350000000004040E0E0F4E4FEE0F4E0F040E0B3
:1013600000400000007070FD9DFF9EFF70FE007049
:101370000000080877777077770777775727502529
:1013800052057275030100012F010B0101010301D8
:10139000170100012B572697271B158B23572688EB
:1013A0006675B34867EB47976B77334515C8E162BD
:1013B0000D4AA650FC2A09212903FEFC000F9F506C
:1013C000A8020500FC828181818182FC0700000067
:1013D0000F000000070700000707000007070000D4
:1013E0000F0F00000707000F0F0F0F000700070087
:1013F0000700000007000F0007000F000B060C0499
:101400001E0C0C0400003B043B78100000000000A0
:1014100000000000000000000000000000000000CC
:10142000000000000000000080408040C0800000FC
:1014300000000000000000000000000000000000AC
:101440000000000000008000804020102050E0C01C
:1014500080000000000000008040804080C08000CC
:10146000000000000000000000000000000000007C
:10147000000000000000A87C80408040A8FC00F034
:1014800000000000800080808080808080402010EC
:101490008804A854E8D8B070E04020100804820105
:1014A00080412A172E55E3C18B172EDCF8F8F0C0C7
:1014B0008080C0C0C0408040205028140A0502012E
:1014C0008040A07060400005AB75EADCB874E2C1F2
:1014D0008040A0D1EA77AF170A0402018255EEDC02
:1014E000B874E8D0B870E040A0408040E0D08A15E1
:1014F0001F111F152A1F2A7FE0C080000000002452
:101500000027002A002D003000040802011040804E
:1015100040102040804080080204018040201002DA
:10152000011080102040402000000000250028000D
:101530002B002E00310004040404040304050202FD
:10154000020204030202020206060606060604045C
:1015500002020204041A06222518003E0501003387
:101560000C33001200003E211F003E0501003E0525
:10157000011606222518003E050100330C33001227
:1015800000003E211F003F013E0F063E041F003EAB
:101590002511003F2010003F09060F063F090600F5
:1015A0003F2010003E051F00033C0322063E211988
:1015B000003E051F003F023F003E251100000000D5
:1015C0003E211F000F300F003E2511001F09360875
:1015D0000877777077770777775727502552057206
:1015E00075030100012F010B010101030117010027
:1015F000012B572697271B158B235726886675B313
:101600004867EB47976B77334515C8E1620D4AA6EB
:1016100050FC2A09212903FEFC000F9F50A8020557
:1016200000FC828181818182FC101000000000801A
:1016300060E4EAEE5EBEC480000000000000CEDF81
:101640001F1616160BCFCF9F1E0C00000000008047
:1016500060F4F2F66EBEC48000000000001CDEDF05
:101660000F0E0A1617DFDF9F0E0000301867EB47DA
:10167000976B7733452B572697271B158B67EB47BF
:10168000976B7733452B572697271B158B67EB47AF
:10169000976B773345000000000000000015C8E19B
:1016A000620D4AA650235726886675B34815C8E1CF
:1016B000620D4AA650235726886675B34815C8E1BF
:1016C000620D4AA6500000000000000000235726CB
:1016D000886675B34815C8E1620D4AA6502357269F
:1016E000886675B34815C8E1620D4AA6500000002F
:1016F0000000000000000000000000000078100062
:1017000000000000000000000000000000000000D9
:101710000000000000000000000000008040804049
:10172000C080000000000000000000000000000079
:101730000000000000000000000080008040201039
:101740002050E0C080000000000000008040804089
:1017500080C08000000000000000000000000000C9
:1017600000000000000000000000A87C80408040D5
:10177000A8FC00F000000000800080808080808055
:10178000804020108804A854E8D8B070E0402010B1
:101790000804820180412A172E55E3C18B172EDCE5
:1017A000F8F8F0C08080C0C0C040804020502814AD
:1017B0000A0502018040A07060400005AB75EADCBC
:1017C000B874E2C18040A0D1EA77AF170A040201E1
:1017D0008255EEDCB874E8D0B870E040A04080409C
:1017E000E0D08A151F111F152A1F2A7FE0C0801B19
:1017F00006023E01003E041F003E251100000000CD
:10180000003E2511003F011E003F211E2810000050
:101810000000000000000000000000003E051F0066
:101820001F093600023E0100000000000000000019
:10183000000000000000182A221C00223E21003C6B
:10184000043800382410003C040800183428003CF8
:10185000083C00183428003C043800083F042810D5
:101860000000000000000000000000003E21130006
:101870003E211F003D211E003E25110000000000FA
:1018800000000000000000003054443800724A4656
:101890000030487800F8483000F848300030685090
:1018A0000070483E007C422600704838007820785E
:1018B0001F103E051F00000018A4780018243C00EB
:1018C0003C083C001834280000001F243800182071
:1018D0007C00000000000000000064544C007C44C8
:1018E0004400103810001038100000000000000004
:1018F0001720F8080808C888102040800000000061
:10190000000000000000000000FF0050003F201F0A
:1019100000C0201F00E0F010F0E00070F080F0F058
:10192000FF00FF00FF413E817E817E000307040728
:1019300003000000000F070F080B0A0A0A05020146
:101940000000000000000000000000000000202057
:10195000804020100A8F0A10204080000000000004
:101960000000000000000000000000000000000077
:10197000FF005000FF0027B494F4E70060F090B03F
:10198000201010FCFE101000FCFE00E0F090F0E0D3
:10199000FF00FF007F807317D413F70002060407CF
:1019A0000300000F070000000F07000307040602F2
:1019B000000102052A7A2A05020100000000000049
:1019C0000000000000000000000000000000000017
:1019D0000B0246000601460000008C004100180181
:1019E00000008C004100180100008C00410018012B
:1019F00000008C0000008C0000008C0000008C00B7
:101A000006011801060146000601460041001801C2
:101A100000008C0083008C0000008C004100180145
:101A200000008C004100180100008C0000008C00B8
:101A300000008C004100180101800B06060F1F3EBC
:101A40001F0F06003B043B2307047C0200447C423A
:101A5000007E047E007C4A22000201444A300000DD
:101A600000003E407C007E120C00005E1306222522
:101A700018003E2113003E211F001F0936003E259D
:101A8000111010000000000000008080D0D0F8E8A5
:101A9000FCDCFEBCFE6CFE7CFE08FC0008000000C6
:101AA00000000000000000000000E3E3F7F5FF364F
:101AB000FF183F063F16FFF8FFA3FF80E300C000BA
:101AC0000000000000000000000000000000000016
:101AD0000000800080008000800000000000000006
:101AE0000000000000006060F070F8B8FC5CFEDAF6
:101AF000FFD7FF2FFF5BFF5FFF02FFE8FEA0F8802C
:101B0000E00080000000000000000000C8C8FCE405
:101B1000FEEEFF5EFFB6FFBEFF04FE000400000005
:101B20000000000000000000000000000101E3E3ED
:101B3000F7F5FF96FF40FF367F003F0000000000F2
:101B40000000000000000000000000000000000095
:101B50000000800080008000800000000000000085
:101B6000000000000000C0C0E040F8B8FC7CFE7A35
:101B7000FF97FF4FFFDBFFDFFF02FF0002000000C7
:101B800000000000F0F0F818FC183C307848FC2405
:101B9000FE6EFFDEFFB6FFBEFF44FEC0E480C00065
:101BA00080000000030307040F008480E0A0F030F1
:101BB000FF173F061F021F14FFF0FFA1F381E30090
:101BC0008100000000000000800080000000000094
:101BD0000000800080008000800000000000000005
:101BE000000000003E3E7F43FF03C786CF44EECA9D
:101BF000FFD7FF2FFF5BFF5FFF02FFE0F2A0F08047
:101C0000E00080000000000000008080C0C0E2E230
:101C1000F7E4FEEEFFDEFFDEFFDEFFC4FE20F46031
:101C2000F0207000000000000303E7E2F7B1FB932F
:101C3000FF0B9F030F0B1F1BFFF1FFA0F180E000C4
:101C40008000000000000000000000000000808014
:101C5000C0008080C080C080C080C00080000000C4
:101C600000000000000000003030F8A8FC5CFEBC62
:101C7000FFBDFF3BFFB7FFAFFF4FFFA1FF60F1606C
:101C8000F0207000000000000000C0C0E8E8FCF494
:101C9000FEEEFF5EFF36FFBEFF84FE008400000004
:101CA0000000000000000000000032327F093F1DEC
:101CB0003F0C1F011F0D1F040F0107000100000052
:101CC00000000000000000008080C0C0FAEAFFDCD5
:101CD000FFBCFE5CFE5CFE18FC00980000000000EB
:101CE0000000000000000000030307076F217F28A9
:101CF0007F1A3F1B7F7AFFB1FF83F700830000004C
:101D000000000000000000000000000000000000D3
:101D100000000000000000000000000000000000C3
:101D200000000060F020F030F850F828FC58FE6405
:101D3000FE0CFE5CFE0CFE34FE40FC4CFF2AFF6CE9
:101D4000FE00FC000000000000000808FC7CFE6CA7
:101D5000FEBCFEDCFEE8FCD0F880D0008000000075
:101D60000000000000000000C080E3A3FFF8FF16A1
:101D7000FF063F183F36FFF5FFE3F700E3000000E2
:101D800000000000000000000000000000008000D3
:101D900080008000800000000000000000000000C3
:101DA000000000008080E0A0F8E8FE02FF5FFF5B1B
:101DB000FF2FFFD7FFDAFF5CFEB8FC70F860F00081
:101DC000600000000000000000000404FEBEFFB63A
:101DD000FF5EFFEEFFE4FEC8FC00C800000000004C
:101DE0000000000000000000000000003F367F40BF
:101DF000FF96FFF5FFE3F701E3000100000000009C
:101E00000000000000000000000000000000800052
:101E10008000800080000000000000000000000042
:101E2000000000000000000000000202FFDFFFDBF6
:101E3000FF4FFF97FF7AFF7CFEB8FC40F8C0E00040
:101E4000C000000000008080C0C0E444FEBEFFB6B9
:101E5000FFDEFF6EFF24FE48FC3078183C18FCF0D3
:101E6000F800F00000008181E3A1F3F0FF14FF020D
:101E70001F061F173F30FFA0F080E00084040F030F
:101E800007000300000000000000000000008000C8
:101E900080008000800000000000000080008000C2
:101EA000000000008080E0A0F0E0F202FF5FFF5B36
:101EB000FF2FFFD7FFCAFF44EE86CF03C743FF3E85
:101EC0007F003E207060F020F4C4FEDEFFDEFFDE07
:101ED000FFEEFFE4FEE2F7C0E280C00080000000F9
:101EE0000000000000008080E0A0F1F1FF1BFF0B6C
:101EF0001F030F0B9F93FFB1FBE2F703E700030003
:101F0000000000000000000000008080C080C08051
:101F1000C080C0008080C000800000000000000081
:101F2000000000207060F060F1A1FF4FFFAFFFB72D
:101F3000FF3BFFBDFFBCFF5CFEA8FC30F80030009B
:101F4000000000000000000000008484FEBEFF3698
:101F5000FF5EFFEEFFF4FEE8FCC0E800C0000000FA
:101F600000000000000000000000010107040F0D48
:101F70001F011F0C1F1D3F093F327F003200000070
:101F80000000000000000000000000009818FC5C49
:101F9000FE5CFEBCFEDCFFEAFFC0FA80C0008000F1
:101FA000000000000000000000008383F7B1FF7A0A
:101FB000FF1B7F1A3F287F217F076F030700030065
:101FC0000000000000000000000000000000000011
:101FD0000000000000000000000000000000000001
:101FE00000000000FC6CFE2AFF4CFF40FC34FE0C9D
:101FF000FE5CFE0CFE64FE58FE28FC50F830F82013
:10200000F060F0130622251800023E01003E051F75
:10201000003E2119003E25114F280000000000005D
:1020200000000000000000000000000000000000B0
:102030000000000000FE010501F117551557115170
:1020400011111151511111111111515111F10105BC
:1020500001FE000000000000000000000000000081
:102060000000000000000000007E0834007E027CBA
:1020700000447C42007C0A02007C4A2200002020AE
:10208000202040807F000000FF004040685C6848DE
:1020900000084040406060786C706000FF00000005
:1020A000FF00000000000000000000000000000031
:1020B000000000000000000000000000E000E00060
:1020C000C0A0E000E0000000E08040000000000050
:1020D0000000007D02C4C8C1B97979B9C1C1C1018C
:1020E000010101010101010101018181004020AFD5
:1020F00020202020202000007E207E007C083E0042
:10210000447C42007E120C0000000007020700071A
:1021100000030007040200070003000001010101A1
:102120000101BD402313031D1E1E1D0303030000F8
:102130000000000C1E1E0C204347474340405F40F8
:102140004040404040000040C02000E000C000E0AF
:1021500040E000E020C0000000007A423C003E4029
:102160007C007C4226007E08340000040404040243
:10217000017E80A08080808080808080F090D090E0
:10218000D090F08080808080808080A0807F000060
:102190000000000000000403000003040700070023
:1021A00007000701001E2C00000000000000008056
:1021B000C0E0F0F8FCFEFFFEFCF8F0E0C08000009C
:1021C00000000000008040E0F0F8FCFEFFFFFFFF91
:1021D000FFFFFFFFFFFFFFFFFFFFFFFFFFFEFCF81A
:1021E000F0E0C0070F9EFDFBF70FDFBF7FFFFFFF93
:1021F000FFFFFFFFFFFFFFFFFFFFFFFF1F0F071F97
:102200000F1E3F7FF3E1C000FFFF0F1E3D7BF70F66
:10221000FFFF1F0F071F0FFFC3E180C0E07E3F00DD
:102220000000000103000F1F3C78F0E0C000C3E194
:1022300080C0E07E3F1F0F07030100000000000088
:102240000000000000000000000103000F07030170
:102250000000000000000000000000080B00020267
:102260000201000904000001020200000524001020
:1022700001052401010104240206052406000107CA
:1022800005810310004009040100020A0000000754
:102290000502024000000705830240000004030914
:1022A0000412010002EF02014041233680000101C7
:1022B00002030141726475696E6F204C4C4300410A
:1022C000726475696E6F204C656F6E6172646F0029
:1022D0001008C601FFFF0FC003C003C003C013C036
:1022E00003C003C003C003C013C003C003C003C0C6
:1022F0000FC0FFFF01F60C6908830003FF03FF0313
:10230000FC03F003C003C043C003C003C043C003C9
:10231000C003C043C003C003C0FFCFFFCF03C0034F
:10232000C003C0FFCFFFCF03C003C003C0FFCFFF78
:10233000CF03C003C003C043C003C003C00000AA52
:102340003A0030AA3A0000AA0E000CAA0E0000AA19
:10235000030003AA030000000000000000000000CA
:102360000000000000AA030003AA03000000000010
:10237000000000000000000000000000000000005D
:1023800000000000000000AA030003AA03000000F0
:102390000000FC03CF033303CF033303CF03330326
:1023A000CF033303CF033303CF03FF03C003C03F87
:1023B000C3FFC3FFC3FFC003C003C043C003C003C8
:1023C000C043C003C003C043C003C003C0193507E6
:1023D000350A910EC112C117C11CB721B725B72903
:1023E000B72D142E3236B7381439323B32422442DC
:1023F000B7453247B749B74A4259A35A35613564A0
:102400005F088600FFC0FFC0FFC0FFC0FFC0FFC065
:10241000FFC0FFC0FFC03FC00FC003C043C003C028
:1024200003C043C003C003C043C003C003C003CC08
:1024300003FC03FC03FC03FC03FC03F003C003C028
:1024400043C003C003C000000000AA0E000CAA0E87
:10245000000000000303030F033F03FF03FC03F02E
:1024600003C043C003C003C003C043C003C003C0D4
:1024700003C043C003C003F003FC03FF03F003FFEA
:1024800003FF033F030F03030303030303030303D8
:102490000300030003030303030003000303030318
:1024A0000300030003030303033003C00303030318
:1024B00003C303C303C303030303030303030303AC
:1024C00003031B35033506A61533163319C11E63E6
:1024D0002BC131C135A43CA53C323F824A834C0418
:1024E00046824E8350044A82528354044E8256835D
:1024F00058045232574658325A2408860000C00009
:10250000C000C000C004C000C000C000C000C004C3
:10251000C000C000C000C0C0FFC0FFC0FFC0FFC0FF
:10252000FF00FF00FF03FF03FF03FC03FC0FFC0F92
:10253000FC0FF00FF03FF03FF03FC03FC0FFC0FF87
:10254000C0FFC0FFC0031504230962101008C601B4
:10255000FFFF00C000C000C000C000C000C000C03D
:1025600000C000C000C000C000C000C000C0FFFF2D
:1025700001E10E5C0845003FF03FF03FF03FF00FF7
:10258000FC0FFC0FFC3FF0FFC0FFC0FFC03FF03F5F
:10259000FC3FFC3FC03FC03FD00FC00FFC0FFC0F03
:1025A000FC0FC03FD03FC03FC03FFC3FFD3FFC3F62
:1025B000FD3FFC3FFD3FFC0FFC03F000C0000000AE
:1025C00008000000000020000000000008000000DB
:1025D00000002000200000000000000000000000BB
:1025E00000000200AA00AA00AA00020000000000E9
:1025F00000000000000000000200AA00AA00AA00DB
:102600000200000000000000000000000000AA001E
:102610008A0002008A00AA008A0002008A00AA003A
:102620008A0002008A00AA008A0002008A00AA1218
:10263000330535097611331376184127912E05316C
:1026400091343237143A904232421445734E32512B
:102650003255325960080600FFC0FFC0FFC0FFC0FE
:10266000FFC0FFC0FFC0FFC0FFC0FFC0FFC03FC032
:102670000FC003C0CFC00300000003C000D003C0E0
:102680000FC003C003C303CF03CF43CF0FCF03CD8E
:1026900003CF03CF03CF03CF0FC00FF003F403F03A
:1026A00003F003F00FF003C003C000C000000000FF
:1026B00003C003000F003FC003D003C0CFC003C05E
:1026C00003C0030000000300000000C003C003C0FB
:1026D0000FD003C003C0CFC003C003C003F000FC91
:1026E00003F000C000C200C000D000C200C000C0A3
:1026F00000C200C000C000C200C000C003FF03FF52
:1027000043FF03FF03FF03FF03FF03FC03F00FF08E
:102710003FF03FF03FF03FF01335053509661536C1
:1027200019361D631F6524342866320636423A3551
:102730003D3540834E835183543253735532563066
:102740000844000AA80AA802A002A002A00280026F
:102750008002800280028002A002A002A002A80AD9
:10276000A80AAA000000000000000000000000000D
:10277000FF00FF00FF00FC00F000C000C000C00030
:10278000C000C000D000C000C000C000C000D00326
:10279000C000C00FC003C0FFC33FC0FFC3FFCFFFD7
:1027A000CFFFC006C107141084218623862E8631F0
:1027B0001008C501FFFF03F003C013C303C003C02B
:1027C00013C003C003C013C003C003C013C303C0BE
:1027D00003F0FFFF01D60D6508430000FF00FF4036
:1027E000FF00FF00FF0000000000020002000200E6
:1027F000020000000000FF40FF00FF00FF00FF405C
:10280000FF00FF00FC00F000F400F000F000F0001A
:10281000F000F000F000F000F200F280F680F080AE
:10282000F080F080F080FA00FA00F800F000F0008C
:10283000F000F400F000F0000000000000000000D4
:102840000000000000000000000000000000000088
:1028500000000000FF00FF00FF000000000000007B
:10286000000000000000FF40FF00FF00FF0000002C
:10287000000000000000000000000300034003000F
:102880000300CF00FF00F000C000000000000000C7
:10289000000000000000AA00AA00AA00AA0AAA0AD2
:1028A000AA0AAA0AAA17320363104017651935212C
:1028B0003522352362243524063005340438323D70
:1028C00004415348044B32503253045504570459C1
:1028D000045B325E6508460000C000C000C000C056
:1028E00000C000C000D000C000C000C000D000C0C8
:1028F00000C000C000C000C000C000C000C000D0C8
:1029000000C000C000C000F000FC0000000000FC9F
:1029100000FC00FC00FC00F000C000C000C000C0D3
:1029200000D000C000C000C000C000C000D000C087
:1029300000C000C000C000C000D000C000C000C087
:1029400000C000C000C000F000F000F000C000C0F7
:1029500000C000D000C000C000C000C000C000C067
:1029600000D000C000C000C000D000C000F000FCDB
:1029700000FD00FC00FC00C000C000D000C000C092
:1029800000C000C000C000C000D000C000C000C037
:1029900000C000F000FC00FF00FF00FF00FF00FF90
:1029A00000FF1635053508560F35114514541E869F
:1029B00029862C3529352C66343438663E85478582
:1029C0004A644E3350665435563559866232621821
:1029D00008450000F000F000F000F000F400F00006
:1029E000F000FC00FD00FC00F000F000F000C00072
:1029F000D000C000F000F400F000C000C000D00023
:102A0000C000C00003063F213F03063F3F3F0308CD
:102A10003E211F223F2039252211251B06043F0796
:102A200025191E2538013D033A251B07291E0508D7
:102A3000004CF34C00005CF65C0000000002000952
:102A40000F0000030401000C000000000000000063
:102A500000000000000000000000ED3511241FBE42
:102A6000CFEFDAE0DEBFCDBF12E0A0E0B1E0E2E4FC
:102A7000FEE602C005900D92A430B107D9F727E019
:102A8000A4E0B2E001C01D92A53FB207E1F715E155
:102A9000CEE2D5E104C02197FE010E941437CD3269
:102AA000D107C9F70E94A92F0C941F370C9400007E
:102AB0002F923F924F925F926F927F928F929F924E
:102AC000AF92BF92CF92DF92EF92FF920F931F933C
:102AD000CF93DF9388E00E945320882381F184E024
:102AE0000E945320882359F180E80E945E208823A9
:102AF00031F1E091EE07F091EF07309739F08581E1
:102B00008F7B8583148217820C94101F8091ED07B0
:102B10008F5F8093ED07DF91CF911F910F91FF9011
:102B2000EF90DF90CF90BF90AF909F908F907F906D
:102B30006F905F904F903F902F900C947A298091E6
:102B40002303882321F081508093230360C6809162
:102B50001A03882369F0815080931A03811108C0F9
:102B60001092190380913603811102C010921E0346
:102B700080911803882341F08150809318038111BC
:102B800003C081E08093170380911E03882309F41A
:102B900060C280911A03811130C0809116038111A7
:102BA0002CC084E00E945E20882351F0109215030F
:102BB0008EE0809316036AE070E08FE991E01BC01D
:102BC00080E80E945E208823C1F08091EC07882372
:102BD00071F081508093EC0781E0809315038EE0C3
:102BE000809316036AE070E08FE393E004C065E031
:102BF00070E082E690E00E94972A80911A0381118A
:102C000033C08091140381110EC08091160381118D
:102C10000AC080911303882331F088E00E945E206F
:102C200081110C94841E8091160381111DC0809126
:102C30001403811108C080911303882399F080E167
:102C40000E9453200FC080E10E94532081110CC0CC
:102C500048EC51E06091210380911F039091200383
:102C60000E94202E8093140320911403211103C08D
:102C7000C8ECD1E002C0C4ECD1E080910F038823FE
:102C800011F0815017C03091120380911003909180
:102C9000110382549F4F90931103809310033323A9
:102CA000F1F097FD0AC010921103109210031092D8
:102CB000120384E080930F0341C0211103C0E8ECAC
:102CC000F1E002C0E4ECF1E068EE73E00E9400374E
:102CD00021E0AF018FE193E00E946A2F2FC068EEE0
:102CE00073E00E940037161617063CF421E0AE018F
:102CF0008FE193E00E946A2F17C08E0121E040E02F
:102D00006091210380911F03909120030E94662708
:102D100081110AC0609121036F5FAE0180911F0392
:102D2000909120030E94202E80931303809113031F
:102D3000882321F0109211031092100310911A03AE
:102D4000111111C0809116038111EBC780E20E941E
:102D50005320882311F40C94031F8FEF80931903E1
:102D600081E080930E03F0901903FF2021F1809100
:102D7000610390916203111106C020911403222374
:102D800031F064E005C0123110F061E001C062E092
:102D900070E00E94EC36892B71F48E0120E04F2DFB
:102DA0006091210380911F03909120030E94662768
:102DB000882309F4BEC780911603882309F44EC006
:102DC000815080931603893008F048C09091150314
:102DD00060912103992331F1883009F03FC081E0EF
:102DE00080930D0340911F035091200320910E0307
:102DF000211103C086E090E002C082EF9FEF840FB4
:102E0000951F9093270380932603809114038111CB
:102E100002C08EE001C086E0681B60932803209307
:102E200025031CC080911403811102C08BE001C0F6
:102E300084E0681BE0911F03F091200380910E0352
:102E4000811103C080E090E002C088EE9FEF02E0B5
:102E500022E048E18E0F9F1F0E94B32A8091210338
:102E6000813514F010921E0380910D038823E1F147
:102E7000209126033091270380912503811103C0FF
:102E800083E090E002C08DEF9FEF820F931F90933D
:102E900027038093260360912803615001E024E01A
:102EA00048E00E94B32A811110920D03009126037D
:102EB0001091270340EC51E060912803C8010E9463
:102EC000202E811110920D0320911C0330911D03BF
:102ED000C8010896821793072CF020583F4F2017FF
:102EE000310714F410920D038B819A81E090210335
:102EF0002981E21A2881C0901F03D0902003C21AB2
:102F0000D10802E112E04DE0A42E42E0B42EC0E070
:102F1000D0E059E0552E3601690E711C0E2C000CC4
:102F2000FF084701880E911CD8018C9186FF49C08B
:102F30008F7009F046C0F50120818DEF820F82303D
:102F400008F43FC0529EF0011124E45FFE4F33812C
:102F5000628112978C9191817081D50111964D916A
:102F60005C911297471B51094615570554F5460FBA
:102F7000511DC416D5062CF5891B082E000C990B83
:102F800088159905F4F4830F911DE816F906CCF421
:102F9000203109F0E9C6F801108280913703909141
:102FA00038038C599F4F909338038093370328E25E
:102FB00030E04AE252E06EE170E085E594E00E9484
:102FC000772A2196085F1F4FB8E0AB0EB11CC032C4
:102FD000D10509F0A9CFC0E0D0E080913603882365
:102FE000C1F190911803911134C0209791F191E0B3
:102FF00049815A8120911F033091200342175307C2
:103000000CF090E090930E03911102C09FEF01C06D
:1030100091E09093190398E190931A031092120390
:1030200010920F0310921603815080933603882369
:1030300019F088E78093180382E080933F032FE024
:1030400030E044EC50E069E170E080ED90E00E94F7
:10305000772A02E112E0EDE0CE2EE2E0DE2EF3E18F
:10306000EF2EF2E0FF2EC4E1D2E0A0E1AA2EA2E012
:10307000BA2EB1E18B2EB2E09B2E8CE0282E312CA3
:1030800099E0492E5524539423E0622E712CF801C7
:10309000208127FFA7C3822F8F70E9F08150207F06
:1030A000282B208381119EC3D4018C91882309F49D
:1030B00093C3D6018C918D3021F425FFDAC185E0D0
:1030C000D9C18E3019F425FDC2C2BFC28F30F9F0CC
:1030D000D7015C9287C326FF65C3F6014081842F28
:1030E00090E08431910508F07DC3FC01EA5AFF4F5E
:1030F0000C94143725FF76C388818F5F88838832CC
:1031000019F4D8011C926EC38C3009F06BC3F7011F
:10311000508268C38091610390916203B3010E9461
:10312000EC36892B09F05EC3322F3072D60111962E
:103130006D917C911297413069F4311103C081E0A7
:1031400090E002C08FEF9FEF860F971FF6019283EA
:1031500081830EC0311103C08FEF9FEF02C081E069
:1031600090E0860F971FD60112969C938E9311972D
:1031700088818F5F873111F0888334C318823323AD
:1031800021F02F7DF80120832DC32062D8012C93DC
:1031900029C3F50180818F5F8083843421F580917C
:1031A000EE079091EF07892B19F0D8011C921BC0F4
:1031B0008CEFF501808317C08091610390916203C9
:1031C00087709927E7C2449EA0011124445F5E4F97
:1031D00020E062E0C60101960E946A2FD6018C9120
:1031E000813109F4FFC28091610390916203B101C2
:1031F0000E94EC36892B09F4DCC5F4C2809161038E
:1032000090916203B3010E94EC36892B09F04AC009
:1032100024FF17C088818F5F88838A3009F042C0FD
:10322000F50140814A50D60111966D917C9112971B
:1032300082E10E941328F80180818F7E80831882AA
:1032400031C0D60111966D917C911297522F507218
:1032500025FD03C08FEF9FEF02C081E090E0860F55
:10326000971FF6019283818338813F5F388337311E
:10327000C9F41882552321F02F7DD8012C9312C058
:10328000463061F440911F0350912003841B950B3D
:103290008E3591051CF42061F8012083D8018C91B2
:1032A00080628C93F801808184FF04C0E3E0D70141
:1032B000EC9398C280916103909162038770992783
:1032C000892B09F08FC2D7018C91823009F0CFC0D1
:1032D000D0C025FD11C0D60111968D919C911297F9
:1032E00040911F0350912003841B950B8A35910553
:1032F0001CF42062F8012083D8018C9185FF72C2F2
:10330000209161033091620320FD1EC0F60181818E
:103310009281019792838183883F9F4F0CF41C9286
:1033200088818F5F888364E10E94E03680FD03C05E
:103330008FEF9FEF02C081E090E0D5014C91840FA8
:10334000911D47FD9A958C9327703327232B09F005
:1033500049C2F7016DC124FD1DC088818C3318F46A
:103360008F5F888346C0F6018181928140911F035F
:1033700050912003BC016F53710946175707CCF1D8
:10338000815B9F4F84179507A4F12061D8012C938E
:1033900018822FC0F60141815281322F307225FDF3
:1033A00003C08FEF9FEF02C081E090E0840F951F74
:1033B000D60112969C938E93119788818F5F888394
:1033C000883649F4332311F02F7D01C020622F7E0F
:1033D000F801208318829881892F837051F0D501DC
:1033E0008C91943310F09FEF01C091E0890FF501AB
:1033F000808380916103909162036AE070E00E9493
:10340000EC36892B09F0EEC1D8018C91F70185FFCC
:103410000FC18081853009F009C184E00FC180911E
:10342000610390916203B3010E94EC36892BE1F4B1
:1034300088818E3110F48F5F888388818E31A1F46A
:10344000F6016181728180911F03909120039B019D
:10345000281B390B2E3531053CF4D5014C914450D5
:1034600083E10E94132818828881843110F082E061
:1034700001C081E0F70194C180911F039091200366
:103480000396D60111964D915C911297841795077A
:103490001CF02062F8012083D8018C9185FFA2C125
:1034A00020E048E751E061E0C60101960E946A2FE2
:1034B000811184C497C14091610350916203CA0194
:1034C00083709927892B99F524FF0FC0822F8F7E57
:1034D000F801808325FF03C02F7C208302C0806217
:1034E0008083988187E5891B8883F60161817281D9
:1034F000D8019C91892F807295FD03C02FEF3FEF7B
:1035000002C021E030E0260F371FF601328321830D
:1035100028812F5F2883273551F41882882321F0D2
:103520009F7DD8019C9303C09062F8019083CA01EB
:1035300066E170E00E94EC366CC08091610380FD12
:103540005BC0F60161817281322F307225FD03C0AC
:103550008FEF9FEF02C081E090E0680F791FD601E6
:1035600012967C936E93119788818F5F888388363B
:10357000A9F4332311F02F7D01C02062F8012083CC
:10358000188280910C028F5F80930C02833031F49B
:1035900024FF02C02F7E208310920C0280910C0227
:1035A0008230E0F4D4012C9130E0285F3F4F8091CD
:1035B0000B028F5F80930B0290E028173907E4F429
:1035C000F50140818BE00E94132810920B0269E103
:1035D00070E088E891E00E94972A0EC09881892FB8
:1035E000837051F0D5018C91943310F09FEF01C09E
:1035F00091E0890FF501808380910C02823018F0F0
:1036000088818433F0F080916103909162038F7020
:103610009927892B09F0E6C0D8018C91F70185FF25
:1036200007C08081863011F086E008C085E006C0C2
:103630008081823011F082E001C081E0D7018C935B
:10364000D1C0F801808185FD02C083E0F7CF87E01B
:10365000F5CF24FF08C02F7CF801208310920C02C4
:103660001882D7015C92F801808185FF0BC0988198
:103670009F5F9883943609F0B5C08F7D8083D70112
:103680005C92AFC0E0910B02B8E0EB9FF001112417
:10369000D4018C91873018F080E090E002C088E17E
:1036A00090E020910C022770E20FF11DE80FF91F46
:1036B000E453FC4EE491EE2329F088818D3010F024
:1036C00088E001C081E0D7018C9388818F5F888377
:1036D000803109F087C0EE2379F0D5014C914E1B63
:1036E000F6016181728183E10E94132869E170E033
:1036F00088E891E00E94972A188280910C028F5FDF
:1037000080930C02883109F06DC0D8018C918062E1
:103710008C93F701408210920C0280910B028F5F14
:1037200063E00E94E03690930B025CC0D6011196D4
:103730002D913C9112972150310912963C932E9372
:103740001197E0916103F0916203423189F448815D
:103750008EEF840FD5019C91890F8C93483040F4F3
:10376000CF016AE070E00E94EC36892B09F435C382
:10377000D5018C91853444F480911C0390911D03F4
:1037800008972817390714F4D8011C92CF01B1010A
:103790000E94EC36892B31F5F70180818F5F8170B3
:1037A000808320C088818F5F88838830D9F4D701D7
:1037B0008C918F5F8C938330A1F4F60180818330EC
:1037C00019F430E1308305C0843049F4E1E1D601D9
:1037D000EC932064D8012C93F701108202C0D80129
:1037E0001C921882085F1F4FB8E0CB0ED11CE8E096
:1037F000EE0EF11C2896F8E0AF0EB11C28E0820E08
:10380000911C3DE0C31633E0D30609F040CC809113
:103810002203811162C08091390390913A0300978D
:1038200029F0019790933A03809339038091EA0736
:1038300020911F03309120032450310948E0849FD8
:10384000C00111248217930744F48091ED078F5F24
:103850008093ED070E94B12D3DC0E091EE07F091FD
:10386000EF07309719F08481882379F320911E03A4
:103870008091390390913A03222311F0009769F562
:1038800010921E031092EC07009719F41092350362
:103890000BC08C579C4F90933A03809339038091CF
:1038A000350381508093350387E080933E038CE895
:1038B00080933B037EE5E72EFF24F39401E310E0C1
:1038C00026E930E042E650E064E670E084EC90E007
:1038D0000E94522981E08093220320911C033091A1
:1038E0001D0380911F0390912003A901495E5F4F42
:1038F000481759076CF0489797FD05C090931D0332
:1039000080931C0320C010921D0310921C031BC047
:10391000265D3F4F28173907B4F48A9790931D030B
:1039200080931C032091EA0730E02051310963E0C5
:10393000220F331F6A95E1F72817390724F43093D3
:103940001D0320931C0380911B038823A1F0809109
:103950001C0390911D036CE170E00E940037FB0195
:1039600020E049E054E164E070E080E190E08E1BEB
:103970009F0B0E94CE22C0911C03D0911D039E017B
:10398000D7FF02C0295F3F4F53E0359527955A95E1
:10399000E1F7E22E33278901005F1F4F2E2D30E023
:1039A000021713070CF450C043E0220F331F4A954F
:1039B000E1F76901CC1ADD0AB12C912CA12CF12C74
:1039C000AE2DA1708A2E8091EB07B816D8F56B2D1D
:1039D0008E2D0E94F72D811108C0911031C0AA20B0
:1039E00079F1882091F023E011C0823021F42091F8
:1039F0000A02F12C1CC0833029F48110F2C1B0FC02
:103A000009C0EFC12091040203C022E099249394DD
:103A1000A12C0DC0FF2009F4F0C120910902809172
:103A20000502882311F0AA24A394FF24F39488E0CC
:103A3000B89EB001112442E753E1C6010E94CE2294
:103A4000B394C1CFE394AACF0DE012E083E1E82E56
:103A500082E0F82E99E0D92EF7013197808187FF17
:103A600038C08F74D70113978823F9F0F80180814B
:103A7000D89EF0011124E45FFE4F478150856C9180
:103A8000062E000C770B8581681B710987FD7395E5
:103A90002481D80111968D919C911297821B9109D6
:103AA00027FD9395F701208110C06C91062E000C24
:103AB000770B6A507109D80111968D919C911297DC
:103AC0000497F701208140E453E18C1B9D0B0E9479
:103AD000D422085F1F4FF8E0EF0EF11C23E00D30F9
:103AE000120709F0B9CF80911E03E0916103F091B4
:103AF00062038823A9F180911A03811133C0909148
:103B0000160391111AC080911303882369F18091E3
:103B100019038823D1F0CF016CE070E00E94EC36ED
:103B2000892B31F48091240391E09827909324030A
:103B30008091240381110BC008C08091150381116D
:103B400008C0983030F024E005C020E003C022E037
:103B500001C026E080911403882339F02F5F05C04F
:103B60002AE003C029E001C028E0CF018370992733
:103B7000892B41F480911A03811104C080911803AC
:103B8000811134C180911703882309F44CC010912E
:103B90000E03111102C080E001C08BE0280F60917C
:103BA0002103062E000C770B6051710980911F03D1
:103BB0009091200308974EEB5DE08C1B9D0B0E94BB
:103BC000D422809116038150873068F580911503C7
:103BD000811129C0111103C04AE75DE002C04CE920
:103BE0005DE060912103062E000C770B8091140399
:103BF000811103C08CE090E002C084E090E0681B7B
:103C0000790B20911F0330912003111103C088E02C
:103C100090E002C088EE9FEF820F931F20E08C1B84
:103C20009D0B0E94D42280910D03882389F060911E
:103C30002803062E000C770B809126039091270312
:103C400020910E0348E55DE08C1B9D0B0E94D42261
:103C500025E04091360360E070E080E090E00E9453
:103C60002627C6E3D0E020E047E050E060E070E0C7
:103C7000CE010E94E31F2196C334D105A1F70AEFBC
:103C800020E04CEF53E160E070E087E390E00E94B9
:103C90006E204091EC0750E020E060E070E084E4AA
:103CA00090E00E94E92E8091390390913A036CE3F1
:103CB00070E00E94EC36AB0122E060E070E080E84A
:103CC00090E00E94E92EE091EE07F091EF07309727
:103CD00009F4A6C02CE044816AE370E088E290E039
:103CE000DF91CF911F910F91FF90EF90DF90CF90D8
:103CF000BF90AF909F908F907F906F905F904F900C
:103D00003F902F900C9426271092130381E080930C
:103D1000120384EE93EF90931103809310030C949D
:103D2000131680911303882309F41DC810921903F8
:103D30001AC80F2DFF0C110B80911F0390912003C7
:103D4000AE0160912103800F911F0E94202E8111EE
:103D500032C880911F0390912003080F191F109300
:103D6000200300931F0327C8213158F4233008F49F
:103D700028C933E0CC0FDD1F3A95E1F7C35FDD4F73
:103D80002CC92131B1F78091EC078D5F8093EC074E
:103D9000809137039091380388539F4F9093380355
:103DA00080933703D8011C9228E230E04AEA58E0B9
:103DB00002C9D7018C918F5F817041CCF80180815D
:103DC0008F7B80832FE030E044EC50E069E170E0CD
:103DD00080ED90E00E94772A05CD81E0840F8883F2
:103DE000C7CCFF2069F02091080219CE90911703EB
:103DF00081E0892780931703C5CE209107020FCE5B
:103E0000209106020CCE80E40E945320882309F4FE
:103E100088CF81E08093190310920E030C94B3169F
:103E2000DF91CF911F910F91FF90EF90DF90CF9096
:103E3000BF90AF909F908F907F906F905F904F90CA
:103E40003F902F9008957F928F929F92AF92BF9252
:103E5000CF92DF92EF92FF920F931F93CF93DF9356
:103E60006C015B017A0180910701882309F46BC022
:103E700080914603882309F466C08091440380FF43
:103E800005C08091E00082608093E000E70110E0CF
:103E90000AEF83E0982E90E4792E2AE3822E209771
:103EA00009F448C08FB7F8949092E9009091E80027
:103EB00095FF06C09091F200272D291B922F01C07B
:103EC00090E08FBF91110AC0015009F43CC061E03D
:103ED00070E080E090E00E94ED2CE1CF292F30E0EF
:103EE000C217D3070CF49C2F8FB7F8949092E90077
:103EF0002091E80025FF1CC0292F30E0C21BD30B06
:103F0000F501915020F041914093F100FACFA20EBB
:103F1000B31E112319F08092E80009C09091E800C7
:103F200095FD06C08092E80011E0209709F010E0AE
:103F30008FBFB5CF1111B6CF5D9884E68093430350
:103F40001E141F0444F081E090E0F6019383828305
:103F500080E090E001C0C701DF91CF911F910F91E8
:103F6000FF90EF90DF90CF90BF90AF909F908F9099
:103F70007F900895CF93DF93A2E7B7E0CD91DC91D6
:103F800011979881E8E7F7E08081892B8883CD91AC
:103F9000DC91119798818081892B8883C091740767
:103FA000D0917507988180917907809589238883BE
:103FB0000D90BC91A02D9C918081809589238C933C
:103FC000DF91CF9108950F931F93CF93DF93460F07
:103FD000571F77FF02C060E070E0A1E0B0E0FA0197
:103FE0004134510514F0E0E4F0E06E177F073CF532
:103FF0008038910508F5E62FE695E695E695F0E020
:10400000EB01C770DD27F695FE2FEE27F795E795B4
:10401000E80FF91FE55AFC4F8D0102C0000F111F78
:10402000CA95E2F7E801222319F03389C32B03C0B4
:10403000C0953389C323C38B6F5F7F4FD0CFDF9190
:10404000CF911F910F9108950F931F93CF93DF93FB
:10405000EC018C011C5F89910E94F52BC017D107E0
:10406000D1F7DF91CF911F910F9108958FB12CB1AE
:1040700093B130E02095309520743327A90123E0D7
:10408000559547952A95E1F7292F30E020953095F1
:10409000207133273595279535952795242B8095C5
:1040A000807F822B0895CF93C82F0E9436208C23C7
:1040B00091E08C1390E0892FCF910895CF93C82F72
:1040C0000E94362020917B072C2329F490917A07B7
:1040D0009C2381E009F480E0CF9108954F925F9294
:1040E0006F927F928F929F92AF92BF92CF92DF9208
:1040F000EF92FF920F931F93CF93DF9300D000D0E6
:10410000CDB7DEB75C014115510509F432C2FA01A1
:104110006490319694914E5F5F4F222319F1A62D42
:10412000B0E0E92FE695E695E695CE2ED12CE1E0BC
:10413000F0E0892F877011F4E0E0F0E0EC0DFD1D58
:10414000AE9F6001AF9FD00CBE9FD00C11240330F6
:1041500011F4CC0CDD1C2C9DF0012D9DF00D1124D3
:104160004E0F5F1F0F3F09F402E0A62D062C000C36
:10417000BB0BF501EA0FFB1F1E161F060CF0F9C161
:1041800010E8A116B1040CF0F4C19B01290F311DF8
:1041900097FD3A95121613060CF0EBC160347105C9
:1041A0000CF0E7C14115510509F4E3C19B0177FF0C
:1041B00004C022273327261B370B822F8770482EF7
:1041C0006B0177FF03C017E0C10ED11C13E0D5943B
:1041D000C7941A95E1F72C2D77FF07C0442029F0EA
:1041E0002FEF2C0D88E08419482EB7FE05C06627F6
:1041F00077276A197B0902C060E070E0E038F105BA
:1042000024F080E8782E7A1801C0762C761A822E57
:10421000022E000C99082F3F1CF4C82CC09401C03A
:10422000C12C892F877887FF03C08150886F8F5FEB
:10423000F1E018160CF0F0E097FD995F95959595D3
:104240009595F90F8F0E911C39E08316910414F0A7
:10425000F8E0F21BFC192C0DC50110E82103800DBC
:10426000911D1124860F971F3C2D162D13036001FD
:104270001124C60ED71E4C0D5D1D61E070E0042CAC
:1042800002C0660F771F0A94E2F7033009F421C1D8
:1042900098F40130E1F0023009F06BC1EFEFE69FD6
:1042A0007001E79FF00C1124E094F094FC82EB8203
:1042B000BC80AF2EA20E34C00A3F31F00B3F09F094
:1042C00058C1DF2ED20EA2C0DF2ED20E64C06F2ED8
:1042D000620EE8C0F801E81BF90BE40FF51FE4914A
:1042E000E69F6001E79FD00C1124DA82C98227FD86
:1042F0000AC0E0915903F0915A03E00FF11FD080FA
:10430000DE20CD28C082411010C00F5F1F4FE02F6C
:10431000E81BE715F8F22F5F4A0F5B1F80589F4F8D
:104320002A1509F426C18C01F2CF273074F7C0900A
:104330005903D0905A03F801E058FF4FEC0DFD1DD2
:10434000D080DB20CA80DC28D082DFCFF801E81BD8
:10435000F90BE40FF51FE491E69F7001E79FF00C65
:104360001124FA82E98227FD09C0E0915903F091F6
:104370005A03E00FF11FF080EF28E082411010C0D7
:104380000F5F1F4FE02FE81BE71500F32F5F4A0F69
:104390005B1F80589F4F2D1509F4EBC08C01F2CFA5
:1043A000273074F7E0905903F0905A03F801E05871
:1043B000FF4FEE0DFF1DE080FA80FE28F082E0CF77
:1043C000F801E81BF90BE40FF51FE491E69F70017B
:1043D000E79FF00C1124FA82E98227FD0AC0E091E0
:1043E0005903F0915A03E00FF11FE094F080EF20A1
:1043F000E082411010C00F5F1F4FE02FE81BE71550
:10440000F8F22F5F4A0F5B1F80589F4F2D1509F45C
:10441000B0C08C01F2CF273074F7E0905903F090D0
:104420005A03F801E058FF4FEE0DFF1DFA80F0949B
:10443000E080FE20F082DFCF5801A81AB90AF70108
:10444000EA0DFB1DE491E69F6001E79FD00C11246B
:10445000C094D094DC82CB82FA01EA0DFB1DE4917A
:10446000E69F4001E79F900C11249A82898227FDE4
:104470000AC0E0915903F0915A03E00FF11FD08078
:10448000CD208C288082411012C00F5F1F4FE02F7B
:10449000E81BE71588F22F5F4A0F5B1FEA0EFB1E31
:1044A00080589F4F261509F464C08C01F0CF273047
:1044B00064F7C0905903D0905A03F801E058FF4FB9
:1044C000EC0DFD1DC080DC80DC20CA80DC28D082A1
:1044D000DCCFE0905903F0905A03072D10E05A0109
:1044E000AC0CBD1CA701480F591F80589F4FE80E08
:1044F000F91E80E890E0801B910BA01BB10B8D0191
:10450000000F111FAB81BC81C980DA807F2F612C25
:104510004D01572C3F2FF501DA01CF93DF93CE2DBC
:10452000DF2DC5908590442061F0C69EC02CD12C13
:10453000869E802C27302CF46880109461206D2892
:1045400069926C9022231AF0809468206C286D92F6
:104550007A9439F77A9551F0752C23951124E00F50
:10456000F11DA80FB11DC80FD11DDBCFDF91CF9179
:1045700011240F900F900F900F90DF91CF911F910A
:104580000F91FF90EF90DF90CF90BF90AF909F90F2
:104590008F907F906F905F904F9008950F9302E0FF
:1045A0000E946E200F9108950F9303E00E946E20E9
:1045B0000F910895FC0180914603811103C08FEF94
:1045C0009FEF08959FB7F89482E08093E9002091CF
:1045D000F20030E01216130614F421E030E0211549
:1045E000310559F0289884E6809345038091F100C5
:1045F00080838091F200882319F09FBFC90108953C
:104600008BE68093E800F9CF8091800781110DC07F
:1046100082E080937C0784E080937D0710927F077F
:1046200010927E0781E0809380078CE797E00895E1
:10463000CF93DF931F92CDB7DEB76983DC01ED9195
:10464000FC910280F381E02D41E050E0BE016F5FFC
:104650007F4F09950F90DF91CF91089583E080936C
:10466000E9008091F200882319F08AE38093E80042
:104670000895FC018485958597FD0BC09FB7F8943C
:1046800082E08093E9008091F2009FBF90E0019664
:1046900008959FB7F89482E08093E9008091F2003A
:1046A0009FBF90E008954091DC075091DD07209175
:1046B000DA073091DB0742175307B4F49091E80012
:1046C0009570E1F39091E80092FD19C08093F1009C
:1046D0008091DC079091DD0701968F739927892BD4
:1046E00019F48EEF8093E8008091DC079091DD074C
:1046F00001969093DD078093DC0781E0089580E0C8
:104700000895CF92DF92EF92FF920F931F93CF9372
:10471000DF931F92CDB7DEB7182F062FE42E862F1A
:10472000880F8E5F99830E94532383E00E94532356
:10473000F12EC12E9981D92E8C2D8F19801798F4C6
:10474000F601E7FE02C0849101C080810E945323DC
:10475000182F80E00E9453238123FFEFCF1ADF0A36
:104760008111EACF01C081E00F90DF91CF911F91BD
:104770000F91FF90EF90DF90CF900895DF92EF922E
:10478000FF920F931F93CF93DF93D82E8A017B0163
:10479000E40EF51EEB01CE15DF0571F0D7FE03C068
:1047A000FE01849101C088810E94532321968111CA
:1047B000F2CF8FEF9FEF01C0C801DF91CF911F9122
:1047C0000F91FF90EF90DF900895615030F02091AD
:1047D000F100FC0120830196F8CF289884E68093AD
:1047E00045030895CF93DF931F92CDB7DEB7FC0149
:1047F0008485958597FD05C02FEF3FEF358724878A
:104800000BC0CE0101960E94DA22019719F489812A
:1048100090E002C08FEF9FEF0F90DF91CF9108954E
:104820000F931F93CF93DF931F92CDB7DEB78C0109
:10483000FC018485958597FF0EC0CE0101960E94EC
:10484000DA22019719F4298130E002C02FEF3FEFFF
:10485000F80135872487F801848595850F90DF91CD
:10486000CF911F910F9108950F931F93CF93DF93D3
:104870001F92CDB7DEB782E0898342E450E06BE55A
:1048800072E280E80E94BE230E940423DC0112969B
:104890000D911C9113970115110569F0D801ED9147
:1048A000FC910280F381E02DBE016F5F7F4FC80154
:1048B000099597FF07C089810F90DF91CF911F91D4
:1048C0000F910895F80100851185E5CF1F920F9291
:1048D0000FB60F9211248F939F938091E1009091D6
:1048E000E100937F9093E10083FF0FC01092E900F5
:1048F00091E09093EB001092EC0092E39093ED0026
:104900001092460398E09093F00082FF20C093E05D
:104910009093E9009091F200992319F09AE3909313
:10492000E80090914303992339F09091430391500B
:1049300090934303992389F190914503992339F08A
:1049400090914503915090934503992341F184FF41
:1049500010C08091E2008E7E81608093E2008091A1
:10496000E1008F7E8093E100809144038E7E806120
:1049700011C080FF16C08091E2008E7E806180931E
:10498000E2008091E1008E7E8093E10080914403FB
:104990008E7E81608093440304C05D9ACDCF289AB7
:1049A000D6CF9F918F910F900FBE0F901F901895AB
:1049B0001F920F920FB60F921124CF92DF92EF92B7
:1049C000FF920F931F932F933F934F935F936F9398
:1049D0007F938F939F93AF93BF93EF93FF93CF9367
:1049E000DF93CDB7DEB76C97DEBFCDBF1092E90085
:1049F0008091E80083FFEDC168E0CE0145960E94FA
:104A0000E52382EF8093E8008D8987FF05C09091B0
:104A1000E80090FFFCCF03C09EEF9093E800982F32
:104A2000907609F0C6C09E892F89188D91110CC00F
:104A3000803829F48091D9078093F10002C0109248
:104A4000F1001092F10048C1422F50E0512B9130FB
:104A500051F4811141C14130510509F03DC18091AE
:104A6000D9078D7F0BC0933061F4811135C141307E
:104A7000510509F031C18091D90782608093D9072F
:104A80002BC1953041F48091E80080FFFCCF206875
:104A90002093E30021C1963009F05FC0EB8CFC8CC1
:104AA0001092E9001092DD071092DC07123091F5A8
:104AB0001092DB071092DA070E94342499E0BE01BD
:104AC0006F5F7F4FDB01E92F1D92EA95E9F799832C
:104AD0001A8391E09E8390EA98879AEF99872091B4
:104AE000DC073091DD07275F3F4F3C832B838D83AD
:104AF0001092E9001092DD071092DC07F092DB07BC
:104B0000E092DA0749E050E080E00E94BE230E9474
:104B10003424E2C0F092DB07E092DA070E9404231B
:104B2000DC011296ED90FC901397E114F10409F466
:104B3000C0C0D701ED91FC910480F581E02DBE014C
:104B40006B5E7F4FC7010995009719F00CF0C4C048
:104B5000C7C0F701E084F184E8CF973009F4C0C002
:104B6000983021F481E08093F100B6C0993009F0CB
:104B7000B3C0837009F0B4C0E5EEF1E081E021E05C
:104B800036E39081992361F08093E9002093EB0054
:104B900091919093EC003093ED008F5F873089F70F
:104BA0008EE78093EA001092EA008F898093460393
:104BB00093C08B8D9C8D1092E9001092DD071092AE
:104BC000DC079093DB078093DA07898D811156C04B
:104BD0008E899D89913A59F4813209F081C047E06C
:104BE00050E060E071E080E00E94BE2375C0913229
:104BF00009F076C0833289F4888D90E0982F882759
:104C00002F89822BA0E0B0E08093080190930901E6
:104C1000A0930A01B0930B015FC0803269F48091C8
:104C2000E80082FFFCCF67E080E091E00E94E5238E
:104C30008BEF8093E80006C0823209F04DC08F8967
:104C4000809307018091D807882319F0EEEFFAE0EE
:104C500002C0E0E0F8E08091000190910101A09194
:104C60000201B0910301803B9440A105B10509F018
:104C70007BC08091070180FF93C076C00E9404230F
:104C8000DC0112960D911C9113970115110541F14C
:104C9000D801ED91FC910190F081E02DBE016B5E99
:104CA0007F4FC8010995811117C0F8010085118552
:104CB000ECCF113009F44EC0133091F48F89882362
:104CC00009F445C0823081F440E860E18FEB92E264
:104CD0000E948123882321F08EEF8093E80079C021
:104CE00081E28093EB0075C0813029F440E86BE0ED
:104CF00083EB92E2EDCF833099F70E940423DC012D
:104D00001296ED90FC9013978E010F5F1F4F680174
:104D1000E114F10479F0D701ED91FC910680F7815F
:104D2000E02DB801C7010995080F111DF701E084B6
:104D3000F184EECFD8011C92F60101900020E9F732
:104D40003197BF016C197D0940E0C601C1CF6DE903
:104D500072E202C061EA72E26115710509F2FB01BB
:104D6000449150E080E840CF0FB6F894A895809128
:104D70006000886180936000109260000FBEA8956B
:104D8000EE3F2AE0F20739F08091FE0A9091FF0A87
:104D900091838083A1CF1092FF0A1092FE0A9CCFCC
:104DA000EE3F8AE0F80731F0808191819093FF0A0D
:104DB0008093FE0A87E797E7918380839BE088E1F1
:104DC0000FB6F894A895809360000FBE9093600092
:104DD00083CF6C960FB6F894DEBF0FBECDBFDF91C8
:104DE000CF91FF91EF91BF91AF919F918F917F9163
:104DF0006F915F914F913F912F911F910F91FF9074
:104E0000EF90DF90CF900F900FBE0F901F901895EE
:104E100080913303E0913103F0913203882349F00C
:104E2000CF01029690933203809331038591949140
:104E30000895CF01029690933203809331038081CD
:104E40009181089580912D0308950895AF92BF92A6
:104E5000CF92DF92EF92FF920F931F93CF93DF9346
:104E6000EC016B01E42EF22E8C015C0184E0289FA2
:104E7000A00CB11C11240A151B0554F420E047E0D6
:104E800050E0B601C8010E94E31F0F5F1F4FF3CF30
:104E900010E01F1581F01E1518F044E05AE202C020
:104EA00049E05AE20AEF20E0B601CE010E946E20EE
:104EB0001F5F2496EECFDF91CF911F910F91FF904E
:104EC000EF90DF90CF90BF90AF9008952F923F92D8
:104ED0004F925F926F927F928F929F92AF92BF920A
:104EE000CF92DF92EF92FF920F931F93CF93DF93B6
:104EF00000D01F92CDB7DEB77C01E40EF11C47FD58
:104F0000FA94962E920EA2E1B2E04DE052E05B835D
:104F10004A8380E099E0492EC92C092C000CDD0859
:104F20009C9196FF4BC0EA81FB813081333008F0C1
:104F300045C0F801638071804081B701641B71092D
:104F4000439EF0011124AF01445F5E4F1A01FA0144
:104F500053808280AD0142505109FA01A080F101D5
:104F6000B1803080EA81FB8141815281431951092E
:104F7000F8013280FB01E30DF11D4E175F07F4F4D9
:104F8000480D511D64177507CCF44A2D4B19042E9A
:104F9000000C550B692D6719062E000C770BFB01D1
:104FA000E60DF11D4E175F074CF4450D511D6417BA
:104FB000750724F4332319F1121634F118966A8117
:104FC0007B81685F7F4F7B836A836D50734009F0FC
:104FD000A7CF0F900F900F90DF91CF911F910F915E
:104FE000FF90EF90DF90CF90BF90AF909F908F9009
:104FF0007F906F905F904F903F902F900895121682
:1050000084F490629C930DC04A2DAA0C550B1A0192
:105010002B18310851014FEFA41AB40ACA14DB044B
:1050200069F681E0CBCFE2E1F2E020E030E0908170
:10503000911123C093E0220F331F9A95E1F7F901F4
:10504000E35FFD4F808372836183438399E0899F8F
:10505000D0011124A45FBE4F16969C91948380ECDE
:10506000858381E0911101C080E08683D901A35F2F
:10507000BD4F17961C92CF0108952F5F3F4F389672
:1050800020323105A1F680E090E00895CF92DF92C2
:10509000EF92FF920F931F93CF93DF930E94082705
:1050A000811520E8920761F4809171008D7F8093D3
:1050B000710010929100469847981092E00789C0BD
:1050C00021E02093E007813020E8920751F480919D
:1050D0002F039091300390933203809331030E9409
:1050E0000827469897FD05C02091DF07222309F481
:1050F0006BC02091DE07211167C021E02093E107FA
:10510000EC01DF77209769F481E08093E20746980D
:105110003FE9C32E3FE0D32EE12CF12CCAEFD0E0C3
:1051200014C08E0120E030E060E472E48FE090E093
:10513000A90198010E94903669017A0181E0C81A9C
:10514000D108E108F1081092E207E0915503F091CF
:1051500056030995811103C081E08093E207809195
:10516000E1078823A1F18091E207811130C0479ABD
:105170000E940827009771F09C01DE010E94D13641
:10518000DC01CB0129E0B595A795979587952A95E0
:10519000D1F703C08FEF9FEFDC01109290002AE05F
:1051A00020939100D0929900C09298008093E307D9
:1051B0009093E407A093E507B093E6078091710010
:1051C00082608093710005C01092E10799CF4798E3
:1051D000CFCFDF91CF911F910F91FF90EF90DF9094
:1051E000CF9008951F920F920FB60F9211242F9314
:1051F0003F934F935F936F937F938F939F93AF935F
:10520000BF93EF93FF938091E3079091E407A09100
:10521000E507B091E607892B8A2B8B2B81F18091D2
:10522000E20781110BC098B180E4892788B9809189
:10523000E107882319F088B1805888B98091E30785
:105240009091E407A091E507B091E60718161906BA
:105250001A061B06B4F48091E3079091E407A0912D
:10526000E507B091E6070197A109B1098093E3072B
:105270009093E407A093E507B093E60702C00E946D
:105280004628FF91EF91BF91AF919F918F917F91B0
:105290006F915F914F913F912F910F900FBE0F90A3
:1052A0001F901895EF92FF920F931F93DC01E1E797
:1052B000F0E090819D7F908310923303E7E4F3E068
:1052C000F0933203E0933103F0933003E0932F0324
:1052D000B183A0837383628355834483378326839A
:1052E00011870087F386E2861F910F91FF90EF9060
:1052F0000C944628EF92FF920F931F93CF93DF9366
:105300001092220382E080933E0380E090E0FC0153
:10531000E35FFD4F15820896811521E09207B9F7EA
:1053200010920C0210920B02E091ED07F0E0EE0FEC
:10533000FF1FE551FE4FC081D181FE018491809312
:10534000EA073196E491E093EB07FE0132968491EF
:10535000182F107C87FF17C093E09093E9071092F5
:10536000080291E0909309021092060290930702BE
:105370001092050299E090930A029AE09093040239
:1053800010921B0323C092E09093E90725E020933D
:10539000080297E09093090210920A0286FF0AC061
:1053A00094E09093060296E09093070291E0909328
:1053B0001B0306C0209306029093070210921B0362
:1053C00098E09093040291E090930502FE013396D9
:1053D000E49128E0E29FF00111243496F093200339
:1053E000E0931F038F70880F880F880F885F80936A
:1053F000210381E08093130310921603109215038A
:1054000080931E03109212031092140380931703CB
:1054100010920E0310921A031092180310920F03A9
:1054200010921903109211031092100310920D03A1
:105430002496D093E807C093E7078091EA079091FC
:10544000EB07899FC00111249595879595958795C0
:10545000C80FD91FFE01F4901092EF071092EE07CB
:1054600000E00F15F1F0FE01319684912296FE01C5
:105470006491482F4F70440F440F440F485FF8E089
:105480006F9FB00111246C5F7F4F82958F700E94D7
:105490001328103C21F49093EF078093EE070F5FE1
:1054A000E0CF10921D0310921C03109223038091F1
:1054B000EE079091EF07892B99F084E8E82E83E0BE
:1054C000F82E02E610E02CE231E044EC50E06CE211
:1054D00071E088E891E00E94522988E780932303D5
:1054E000DF91CF911F910F91FF90EF900895DC0114
:1054F000E1E7F0E090819D7F908310923303E7E431
:10550000F3E0F0933203E0933103F0933003E09340
:105510002F03B183A08373836283558344833783CE
:10552000268380E090E8918780870C9446289C0130
:10553000E1E7F0E090819D7F908310923303E7E4F0
:10554000F3E0F0933203E0933103F0933003E09300
:105550002F03318320837383628380E090E89583F7
:1055600084830C9446282F923F924F925F926F92C1
:105570007F928F929F92AF92BF92CF92DF92EF92E3
:10558000FF920F931F93CF93DF9300D000D01F9211
:10559000CDB7DEB75C0182E192E09D838C838DE024
:1055A000882E82E0982E91E1C92E92E0D92E33E127
:1055B000E32E32E0F32E80E01501240E311C662E1E
:1055C000660F77082301420E511CAC81BD819C916E
:1055D00096FFD2C0292F2F7009F0CEC0F4011081A0
:1055E00029E0219FF0011124E45FFE4F2681222350
:1055F00009F4C2C03381398362816A8312972C9186
:105600003181D40111964D915C9112976081FA011C
:10561000E61BF109BF01E215F3050CF0ADC0FA81FC
:105620006F0F711DA616B7060CF0A6C0231B022E25
:10563000000C330B241535050CF09EC06981260F34
:10564000311D621673060CF097C01D3099F56091FC
:105650001F037091200321E095FF04C064177507B4
:10566000ACF003C0461757078CF020E0E3E0D70109
:10567000EC939F60AC81BD819C936FE070E088E605
:1056800090E02B830E94972A2B8106C09061AC8109
:10569000BD819C93F7011082EC81FD81808185FFA3
:1056A00004C0D7019C919C5F9C938960EC81FD8133
:1056B00080832DC01E3069F494FD5DC0892F8072F7
:1056C00095FD84E0D7018C939961EC81FD819083F5
:1056D00020C01F30A9F495FB222720F995FF07C0B1
:1056E000D7011C929961EC81FD81908303C0E3E0B6
:1056F000D701EC93AC81BD818C9189608C9307C0FC
:10570000F70110829960AC81BD819C9302C0222375
:1057100091F1F6018081081728F1D4012C912350D2
:105720008091370390913803223050F4EC81FD8151
:105730002081207F2083E1E0D701EC930A9601C00D
:1057400049969093380380933703AC81BD818C9147
:105750008F7B8C93F6011082D40117961C926EE118
:1057600070E005C0801BF60180836FE070E08BE87D
:1057700090E80E94972A81E02C813D81285F3F4F6D
:105780003D832C8338E0830E911C68E0C60ED11C4B
:1057900098E0E90EF11CADE08A16A3E09A0609F044
:1057A00014CF0F900F900F900F900F90DF91CF912B
:1057B0001F910F91FF90EF90DF90CF90BF90AF902F
:1057C0009F908F907F906F905F904F903F902F9021
:1057D000089561E085E00E94B12C61E08DE00E94B7
:1057E000B12C81E080932D0308958EBD00000DB48F
:1057F00007FEFDCF8EB50895CF92DF92EF92FF9214
:105800000F931F93CF93DF936C017A018B01C0E05C
:10581000D0E0CE15DF0589F0D8016D918D01D6015C
:10582000ED91FC910190F081E02DC6010995892B45
:1058300011F47E0102C02196ECCFC701DF91CF9118
:105840001F910F91FF90EF90DF90CF9008953FB799
:10585000F8948091F1079091F207A091F307B0912D
:10586000F40726B5A89B05C02F3F19F00196A11D8E
:10587000B11D3FBFBA2FA92F982F8827820F911DE6
:10588000A11DB11DBC01CD0142E0660F771F881F2D
:10589000991F4A95D1F708950E941A37362F90E044
:1058A000FC01E65CF54D4491FC01E75FFA4E249162
:1058B000FC01EA5CFA4E8491882309F451C0442328
:1058C000E1F150E0FA013197EF30F105B0F5ED5814
:1058D000FF4F0C941437909180009F7707C09091F0
:1058E00080009F7D03C090918000977F90938000FF
:1058F00024C094B59F7702C094B59F7D94BD1DC010
:10590000909190009F7707C0909190009F7D03C079
:1059100090919000977F909390000FC09091C0005D
:105920009F7703C09091C0009F7D9093C00005C0F9
:105930009091C200977F9093C200E82FF0E0EE0FA5
:10594000FF1FE85DFA4EA591B4918FB7F894EC91E2
:10595000311103C020952E2301C02E2B2C938FBF15
:105960000895CF93DF9390E0FC01E75FFA4E249116
:10597000FC01EA5CFA4E8491882361F190E0880F83
:10598000991FFC01E550FB4EC591D491FC01E85DE7
:10599000FA4EA591B491611109C09FB7F89488811E
:1059A000209582238883EC912E230BC0623061F412
:1059B0009FB7F8943881822F809583238883EC9158
:1059C0002E2B2C939FBF06C08FB7F894E8812E2B07
:1059D00028838FBFDF91CF9108958F929F92AF92CE
:1059E000BF92CF92DF92EF92FF926B017C010E94F7
:1059F000272C4B015C01C114D104E104F104F1F046
:105A00000E94272CDC01CB0188199909AA09BB093E
:105A1000883E9340A105B10570F321E0C21AD10878
:105A2000E108F10888EE880E83E0981EA11CB11CE5
:105A3000C114D104E104F10419F7DDCFFF90EF9018
:105A4000DF90CF90BF90AF909F908F9008951F925E
:105A50000F920FB60F9211242F933F938F939F9322
:105A6000AF93BF938091290390912A03A0912B03B8
:105A7000B0912C033091F00723E0230F2D3720F451
:105A80000196A11DB11D05C026E8230F0296A11D98
:105A9000B11D2093F0078093290390932A03A093CC
:105AA0002B03B0932C038091F1079091F207A09102
:105AB000F307B091F4070196A11DB11D8093F10782
:105AC0009093F207A093F307B093F407BF91AF91BF
:105AD0009F918F913F912F910F900FBE0F901F902C
