:100000000C94E8030C9410040C9410040C94100449
:100010000C9410040C9410040C9410040C94100410
:100020000C9410040C9410040C9404250C94762564
:100030000C9410040C9410040C9410040C941004F0
:100040000C9410040C9410040C9410040C941004E0
:100050000C9410040C9410040C9410040C942C1A9E
:100060000C9410040C9410040C9410040C941004C0
:100070000C9410040C9410040C9410040C941004B0
:100080000C9410040C9410040C9410040C941004A0
:100090000C9410040C9410040C9410040C94100490
:1000A0000C9410040C9410040C94100405A84CCD6E
:1000B000B2D44EB93836A9020C50B9918688083CA2
:1000C000A6AAAA2ABE000000803F1F111F121F10FF
:1000D0001D151711151F07041F17151D1F151D01CD
:1000E0001D071F151F17151F06495F7F7F5F4906F4
:1000F0000E1115110E06495F7F7F5F490644656347
:100100006C696E65001C3E41556B3E1C4163636526
:100110007074001C3E4375433E1C706F696E7473AF
:1001200020746F20636F6E74696E75653F00537045
:10013000656E64203520626F6E757300D5F08D1486
:10014000A1C881CFD9F1AF200050726573656E747C
:100150007300434F524531303234006E256D0040FC
:100160003807427269646765204275696C6465721C
:100170000077007755555577426C6F636B7320504D
:10018000757A7A6C65001C15744574151C426C6F89
:10019000636B7320417263616465005374617274B0
:1001A0002000526573756D650045786974001C3ECA
:1001B00041556B3E1C546861742077617300596F20
:1001C0007520616C6D6F7374206265617400546892
:1001D000617427732061206E6577207265636F728A
:1001E000642100436F6E67726174756C6174696F2E
:1001F0006E73210047616D65204F76657200064978
:100200005F7F7F5F490653656C6563740052657359
:10021000657420004D6F7665001C1C6B776B1C1C91
:100220001C3E4375433E1C43686F6F7365204761F6
:100230006D65204D6F6465004C494E4553004C453B
:1002400056454C0053434F52450000000000003E0D
:100250005B4F5B3E3E6B4F6B3E1C3E7C3E1C183C36
:100260007E3C181C577D571C1C5E7F5E1C00183C92
:100270001800FFE7C3E7FF0018241800FFE7DBE7DB
:10028000FF30483A060E2629792926407F050507C2
:10029000407F05253F5A3CE73C5A7F3E1C1C08081E
:1002A0001C1C3E7F14227F22145F5F005F5F0609E3
:1002B0007F017F006689956A606060606094A2FF3C
:1002C000A29408047E040810207E201008082A1C2E
:1002D00008081C2A08081E101010100C1E0C1E0CFA
:1002E00030383E3830060E3E0E060000000000009A
:1002F000005F00000007000700147F147F14242A09
:100300007F2A1223130864623649562050000807DA
:100310000300001C2241000041221C002A1C7F1CFB
:100320002A08083E080800807030000808080808FD
:10033000000060600020100804023E5149453E0064
:10034000427F400072494949462141494D331814C2
:10035000127F1027454545393C4A49493141211111
:1003600009073649494936464949291E0000140003
:100370000000403400000008142241141414141426
:10038000004122140802015909063E415D594E7C84
:100390001211127C7F494949363E414141227F4139
:1003A00041413E7F494949417F090909013E414197
:1003B00051737F0808087F00417F41002040413F82
:1003C000017F081422417F404040407F021C027F91
:1003D0007F0408107F3E4141413E7F090909063EE6
:1003E0004151215E7F0919294626494949320301B5
:1003F0007F01033F4040403F1F2040201F3F4038C7
:10040000403F631408146303047804036159494DA1
:1004100043007F4141410204081020004141417FD7
:10042000040201020440404040400003070800204D
:10043000545478407F28444438384444442838444D
:1004400044287F385454541800087E090218A4A484
:100450009C787F0804047800447D40002040403DA3
:10046000007F1028440000417F40007C047804781D
:100470007C080404783844444438FC1824241818B0
:10048000242418FC7C08040408485454542404040C
:100490003F44243C4040207C1C2040201C3C4030F9
:1004A000403C44281028444C9090907C4464544C28
:1004B0004400083641000000770000004136080083
:1004C00002010204023C2623263C1EA1A161123A2D
:1004D0004040207A3854545559215555794121547A
:1004E000547841215554784020545579400C1E527F
:1004F0007212395555555939545454593955545423
:10050000580000457C410002457D420001457C4089
:10051000F0292429F0F0282528F07C5455450020A6
:1005200054547C547C0A097F493249494932324843
:10053000484832324A4848303A4141217A3A4240AA
:100540002078009DA0A07D39444444393D4040407E
:100550003D3C24FF2424487E4943662B2FFC2F2B4F
:10056000FF0929F620C0887E0903205454794100F0
:1005700000447D413048484A32384040227A007A6F
:100580000A0A727D0D19317D2629292F282629294D
:10059000292630484D40203808080808080808086F
:1005A000382F10C8ACBA2F102834FA00007B000096
:1005B00008142A142222142A14089500220095AA4D
:1005C000005500AAAA55AA55AA000000FF00101065
:1005D00010FF00141414FF001010FF00FF1010F0A3
:1005E00010F0141414FC001414F700FF0000FF00B6
:1005F000FF1414F404FC141417101F10101F101F04
:100600001414141F00101010F0000000001F101030
:1006100010101F10101010F010000000FF1010102C
:10062000101010101010FF10000000FF140000FF49
:1006300000FF00001F10170000FC04F41414171032
:10064000171414F404F40000FF00F7141414141425
:100650001414F700F7141414171410101F101F149B
:100660001414F4141010F010F000001F101F0000FC
:10067000001F14000000FC140000F010F01010FF28
:1006800010FF141414FF141010101F00000000F0CD
:1006900010FFFFFFFFFFF0F0F0F0F0FFFFFF0000A2
:1006A000000000FFFF0F0F0F0F0F38444438447C49
:1006B0002A2A3E147E02020606027E027E0263554C
:1006C0004941633844443C04407E201E2006027E9B
:1006D000020299A5E7A5991C2A492A1C4C720172AD
:1006E0004C304A4D4D303048784830BC625A463D17
:1006F0003E494949007E0101017E2A2A2A2A2A44CC
:10070000445F444440514A444040444A5140000000
:10071000FF0103E080FF000008086B6B083612360B
:100720002436060F090F06000018180000001010EC
:10073000003040FF0101001F01011E00191D1712AA
:10074000003C3C3C3C00000000000102040810207A
:1007500040806E256D00403807080B000202020140
:100760000009040000010202000005240010010538
:100770002401010104240206052406000107058165
:100780000310004009040100020A000000070502EE
:100790000240000007058302400000040309041220
:1007A000010002EF020140412336800001010203F3
:1007B0000141726475696E6F204C4C430041726454
:1007C00075696E6F204C656F6E6172646F00DF2F0C
:1007D00011241FBECFEFDAE0DEBFCDBF12E0A0E0F4
:1007E000B1E0E4EBF7E602C005900D92A834B10742
:1007F000D9F727E0A8E4B2E001C01D92AD3EB207F0
:10080000E1F713E0C8EED3E004C02197FE010E9497
:10081000CD33C73ED107C9F70E94DA280C94D833EC
:100820000C940000E0915202F09153028181928178
:10083000A381B4810196A11DB11D81839283A383FD
:10084000B4834581568167817085481759076A07C7
:100850007B0720F485839683A783B08708950F9341
:100860001F93E0914C02F0914D02022E000C330BCD
:10087000260F311D67FD3A95220F331FE20FF31F3C
:10088000840F2185328502C0369527958A95E2F737
:100890002170332710E081E02017310709F080E054
:1008A0001F910F910895CF92DF92EF92FF920F93D5
:1008B000E0914C02F0914D02C180D280E380F4803F
:1008C0009FEFC91AD90AE90AF90AC182D282E382E2
:1008D000F482062E000C770B022E000C330B082E30
:1008E000000C990B042E000C550B260F371F220FFE
:1008F000331FE20FF31F480F591F81E090E0A0E083
:10090000B0E004C0880F991FAA1FBB1F4A95D2F7F9
:10091000002329F021853285822B932B06C08095F8
:10092000909521853285822393239287818780E069
:100930000F91FF90EF90DF90CF900895942F990F33
:10094000490F440F840F42E0480F4D3358F4822F73
:10095000880F280F220F260F2E5F81E02D3318F409
:1009600080E0089581E008959F92AF92BF92CF9268
:10097000DF92EF92FF920F931F93CF93DF93F82EA6
:10098000B62EEA01A22E680110E085E0982E812F94
:10099000692D0E948B33882391F0FE01E80FF11D31
:1009A00087FDFA953197208130E0092E02C03595F8
:1009B00027950A94E2F720FF02C034E001C030E03E
:1009C000482F50E0FE01E40FF51F618170E0092E11
:1009D00002C0759567950A94E2F760FD3860992327
:1009E00071F0FE01E40FF51F608170E02FEF290F19
:1009F00002C0759567952A95E2F760FD3160FE01AA
:100A0000E40FF51FA081B0E021E0290FAD0102C085
:100A1000559547952A95E2F740FD3260092E02C0B0
:100A2000B595A7950A94E2F7A0FD06C01F5F19319E
:100A300009F0ADCF81E00BC0E32E0A2D282F492FFE
:100A40006B2D8F2DF6010995882381F380E0DF91CE
:100A5000CF911F910F91FF90EF90DF90CF90BF90BB
:100A6000AF909F900895CF92DF92EF92FF92CF9335
:100A7000DF93C0914C02D0914D020E945E3023E181
:100A8000C22ED12CE12CF12CA70196010E948230BC
:100A900068A3C0914C02D0914D020E945E30A70124
:100AA00096010E94823069A3C0914C02D0914D0200
:100AB0000E945E30A70196010E9482306AA3E091F5
:100AC0004C02F0914D028FEF878FDF91CF91FF9015
:100AD000EF90DF90CF900895EF92FF920F931F93C6
:100AE000CF93DF9380914E0290914F02E12C07E16A
:100AF00022E448E250E060E470E004960E94CD1DDC
:100B0000C0E4E12CF12CD5E0E0914C02F0914D02D3
:100B1000EE0DFF1D40A1433160F4D49FA0011124CC
:100B2000405F5E4F08E517E021E06AE28C2F0E94EB
:100B3000B4048FEFE81AF80ACA5EC23829F7DF91C9
:100B4000CF911F910F91FF90EF9008953F924F9298
:100B50005F926F927F928F929F92AF92BF92CF924D
:100B6000DF92EF92FF920F931F93CF93DF93D82FD3
:100B7000562E142F422EC02F3E2CF22EF094F2FE51
:100B80000CC0462F50E0682F70E080914E0290918B
:100B90004F02212F04960E94951CF0FE0DC0452D9A
:100BA00050E06D2F70E080914E0290914F020C2F1B
:100BB000212F04960E949D1DF3FE11C0412F50E08D
:100BC000450D511D415051096D2F70E080914E022D
:100BD00090914F020C2F212F04960E94951CF1FE3C
:100BE00011C0452D50E0612F70E06D0F711D6150F7
:100BF000710980914E0290914F020C2F212F049683
:100C00000E949D1D42FE2CC0E52CF12CAD2EB12C76
:100C1000C0904E02D0904F0284E0C80ED11C2C2F01
:100C2000A701B501C6010E94A21C4501810E911CBD
:100C300081E0881A91082C2FA701B401C6010E94F7
:100C4000A21C81E0E81AF1082C2FA701B501C6010A
:100C50000E94A21C2C2FA701B401C6010E94A21C55
:100C600040FE2CC0A52CB12CED2EF12CC0904E02D4
:100C7000D0904F0284E0C80ED11C2C2FA501B701E3
:100C8000C6010E94A21C4501810E911C81E0881AB8
:100C900091082C2FA401B701C6010E94A21C81E07B
:100CA000E81AF1082C2FA501B701C6010E94A21C69
:100CB0002C2FA401B701C6010E94A21C43FE2FC025
:100CC000E12EF12C4701850C911C340181E0681A5A
:100CD0007108AD2EB12CC0904E02D0904F0284E02E
:100CE000C80ED11C2C2FA301B501C6010E94A21C65
:100CF000EA0CFB1C81E0E81AF1082C2FA301B701D4
:100D0000C6010E94A21C2C2FA401B501C6010E949D
:100D1000A21C2C2FA401B701C6010E94A21C41FEF7
:100D20002FC0C52CD12C812E912C5401AD0EB11C9D
:100D3000350181E0681A7108E0904E02F0904F0290
:100D400084E0E80EF11C2C2FA601B301C7010E941C
:100D5000A21C8C0C9D1C81E0881A91082C2FA401E8
:100D6000B301C7010E94A21C2C2FA601B501C70127
:100D70000E94A21C2C2FA401B501C7010E94A21C35
:100D80003320E9F11330D8F16D2F70E082E0381292
:100D90000DC0452D50E080914E0290914F02EC2EF7
:100DA000012F212F04960E94CD1D29C07B01812F88
:100DB00090E04701880E991E652C712C6301C80EC6
:100DC000D91EE814F904DCF45301AC14BD049CF4FE
:100DD000C5018E0D9F1D80FF0AC080914E0290912B
:100DE0004F022C2FA501B70104960E94A21C8FEF81
:100DF000A81AB80AEACF8FEFE81AF80AE2CFDF9113
:100E0000CF911F910F91FF90EF90DF90CF90BF9007
:100E1000AF909F908F907F906F905F904F903F909A
:100E20000895EF920F93CF93DF93A82F862F342F3F
:100E3000330F340F330F3A0F3E5F3D3398F5522F87
:100E4000550F520F550F560F5E5F5D3358F5C09129
:100E50004C02D0914D02B6E06B2F0E949733E22FE7
:100E6000220FFF0BE80FF11D87FDFA95EE0FFF1F14
:100E7000EC0FFD1F8A2F6B2F0E949733480F81853F
:100E8000928502C0969587954A95E2F780FD02C04B
:100E900082E001C081E02E2DE82E45E0652F832FF2
:100EA0000E94A60580E0DF91CF910F91EF90089509
:100EB000EF920F93220F220F620F942F990F990F29
:100EC00022E0E22E20E043E0890F0E94A60580E0A8
:100ED0000F91EF900895CF93DF93EC01249668E093
:100EE000CE010E94031B811118C060E8CE010E9450
:100EF000031B811112C060E1CE010E94031B81110E
:100F00000CC060E2CE010E94031B811106C060E4A8
:100F1000CE01DF91CF910C94031BDF91CF91089507
:100F20002F923F924F925F926F927F928F929F92F9
:100F3000AF92BF92CF92DF92EF92FF920F931F93E7
:100F4000CF93DF9300D000D0CDB7DEB7262E342E5E
:100F5000F02EB22EA32E9E2C602F712F822F932F56
:100F600001E04AE0442E512C612C712CA301920126
:100F70000E94B430CA01B901232B242B252B11F078
:100F80000F5FF4CFD12C802F000F990B9C838B83A4
:100F90008B808C159D050CF48C2C3AE0432E512C43
:100FA000612C712CE32DF0E0FA83E983312C1814C5
:100FB0009CF58A946F2D712F8B2D9A2DA301920190
:100FC0000E94B430F22E132FB42EA52EE82DF0E09F
:100FD000611571058105910541F42B813C812E0F2E
:100FE0003F1F2C193D0937FDE2CF9B01220F331F14
:100FF000620F731FAB0146535F4FCF01880F991FDC
:10100000880F991FE92C05E023E069817A81820D20
:10101000931D0E94281BCBCF0F900F900F900F9025
:10102000DF91CF911F910F91FF90EF90DF90CF90C4
:10103000BF90AF909F908F907F906F905F904F90F8
:101040003F902F900895CF92EF920F931F93CF93DD
:10105000DF9380918206909183060E94E31AEE242A
:10106000E39408E028E045EF50E061E070E08DE5B2
:1010700090E00E94281B8091820690918306E12CCB
:1010800005E02CE142E050E061E470E004960E944B
:10109000CD1DC0915202D091530209811A812B813A
:1010A0003C8187E0C82EEE24E39442E061E4809125
:1010B0008206909183060E9490078091820690910B
:1010C0008306E12C05E02AE142E050E066E670E0AC
:1010D00004960E94CD1D0D811E812F813885C12C63
:1010E000EE24E39442E066E68091820690918306C6
:1010F0000E94900705E025E040EF50E06AE070E0D4
:101100008EE590E00E94281B098510E020E030E089
:101110004AE066E680918206909183060E949007DD
:1011200080915002882349F005E025E040EF50E02F
:1011300069E370E090E00E94281B40915102442333
:1011400061F09A858B85890F815021E066E370E01C
:10115000082E000C990B0E94881A6A857B858C8565
:101160000E944B226D857E858F85DF91CF911F91E7
:101170000F91EF90CF900C944B222F923F924F9271
:101180005F926F927F928F929F92AF92BF92CF9217
:10119000DF92EF92FF920F931F93CF93DF93CDB720
:1011A000DEB76C970FB6F894DEBF0FBECDBF6B01F4
:1011B0003A8729871C870B87FE86ED8690938306E6
:1011C000809382067093530260935202413051F52E
:1011D000DB014C93FB0111821282138214828DEE8B
:1011E000828784E2838760E270E080E090E00E9482
:1011F0002E196E5ED6011D966C936AE070E080E059
:1012000090E00E942E19DC01CB010596A11DB11DB5
:10121000F60186871786E0915202F09153021486F8
:10122000178638C0411136C0E0915202F091530246
:101230008081A985BA858C934181528163817481B3
:10124000AB85BC854D935D936D937C93139785819E
:101250009681A781B085ED85FE8580839183A283E9
:10126000B3836C960FB6F894DEBF0FBECDBFDF918F
:10127000CF911F910F91FF90EF90DF90CF90BF9093
:10128000AF909F908F907F906F905F904F903F9026
:101290002F900895109251021092500240915202E4
:1012A000509153025C8F4B8FDA018C91882309F4A3
:1012B000BBCF00918206109183060C5F1F4F64E044
:1012C000C8010E94031B8111AFCFC8010E948F1F6C
:1012D000882321F3809182069091830604960E94D0
:1012E0000D1B0E942308AB8DBC8D1A966C911A972A
:1012F0001B968C91680F65504DE280E00E94992208
:1013000080918206909183060E946B07882309F4DE
:10131000F1C1EB8DFC8D93858285980F9887915054
:101320009A8310925102E92E990FFF08C09082060D
:10133000D0908306F4E0CF0ED11C68E0C6010E9475
:10134000F91A8111E1C160E8C6010E94F91A811100
:10135000DBC160E1C6010E94F91A8111D5C160E2CA
:10136000C6010E94F91A8111CFC160E4C6010E9432
:10137000F91A8111C9C1C6010E948F1F8823B1F2D9
:10138000809182069091830604960E940D1B8091A5
:10139000510221E0863308F020E0280F209351020B
:1013A00047E350E0421B51098091820690918306E9
:1013B00001E0B70104960E949D1D809182069091E4
:1013C000830604960E94181B0E94831AAFCF809157
:1013D00082069091830604960E948F1F882309F449
:1013E00086C02BED3FE049E450E4C501B4010E9402
:1013F000E6302BED3FE049EC5FE30E94E6302B0145
:101400003C010E9448336B837C838D839E836B8970
:101410007C898D899E890E9494316B017C01C30176
:10142000B2010E9457312B013C01A70196016B814B
:101430007C818D819E810E94DB3220E030E048E596
:1014400052E40E94E6300E945C31262F660F330B77
:101450003C832B836F89788D898D9A8D0E9494317E
:101460006F87788B898B9A8BA7019601C301B20194
:101470000E94DB329B01AC016F85788989899A894A
:101480000E94E6300E945C31C62E660FDD08809116
:10149000820690918306EE24E3940B811C819601D1
:1014A00046E350E0B10104960E94041F8091820639
:1014B0009091830604960E94181B80918206909159
:1014C0008306E12C0B811C81960146E350E0B101BB
:1014D00004960E94041F20E537E746E55EE3C50158
:1014E000B4010E94E6304B015C010E94831A3F81E7
:1014F00031114EC12BED3FE049EC5FE3C501B40172
:101500000E94523187FD63CF4F8141111982598169
:10151000509351029101250F311DAB8DBC8D1D964D
:101520006C911D971E960C91A90141505109862F6F
:10153000062E000C990B702F07FF02C071E0700F90
:101540007595870F911D77FD9A954817590781F476
:10155000EB8DFC8D81858F5F818781819281A38155
:10156000B4810196A11DB11D81839283A383B483AD
:10157000060F8FEF800F082E000C990B0497281789
:1015800039070CF00AC1055018851550F12C63E09D
:10159000E62E10170CF05CC18091820690918306B4
:1015A00004960E948F1F8823A1F380918206909158
:1015B000830604960E940D1B8091820690918306FB
:1015C0000E946B078111EDC00E942308812F6E2DB0
:1015D0000E9497334DE2612F8F2D892B0E94992213
:1015E000809182069091830604960E94181BAB8D11
:1015F000BC8D1A969C911A971B968C91980F9150BE
:10160000B9819B0F412F012E000C550BBA016C5F65
:101610007F4F292F092E000C330B621773070CF034
:10162000C7C0FF2009F410C1AB8DBC8D1D968C91F5
:10163000082E000C990B9A01295F3F4F2817390794
:101640000CF4ECC00DE2F110C6C081E0EB8DFC8D16
:1016500010821C5F180F43E0F42E003409F0BDC067
:10166000EB8DFC8D8081882309F418C11092500203
:10167000309151022FEF230F8585922F981B828581
:10168000890F9385890F878716851387848732870B
:10169000120F60E270E080E090E00E942E19DC0101
:1016A000CB010296A11DB11D612F680FAB8DBC8DC2
:1016B0001D966C936AE070E080E090E00E942E1925
:1016C000DC01CB010596A11DB11DEB8DFC8D86873C
:1016D000178610925102E0915202F0915302178640
:1016E00065856F5F8285681B8385162F181B1930EF
:1016F00008F0B1C0809182069091830604960E9402
:10170000181B0E94831ACACDB0915102B983EB2EE7
:10171000F12CEA812E2EEE0F330847E350E04E19EC
:101720005F0900E02B2FB101C6010E949D1DAB8D0A
:10173000BC8D1D968C911D97082E000C990B1A9646
:101740003C911A971B962C91230F2150F701E20F21
:10175000F11D27FDFA959F01F1E0FF8382179307A2
:101760000CF41F82812C912C54019701FF0C440B27
:10177000550B2B8B3C8B4D8B5E8B8A81082E000C7E
:10178000990BAA0BBB0B8F8B988FA98FBA8FAFCEFB
:101790002BED3FE049E450E4B1CE0981FA810F0F0F
:1017A000F3CEF11003C054E0F52E0ECFF12C0CCF88
:1017B000EB8DFC8D858589170CF027C121503109EF
:1017C00081509685890F082E000C990B821793077C
:1017D0000CF027CF1AC18FEF39CF809182069091FC
:1017E000830604960E948F1F882309F436CF0E9437
:1017F0002308802F6F2D0E949733402F612F892F50
:1018000084600E94992280918206909183060496BA
:101810000E94181B0E94831A0F5F1FCF80915002F5
:1018200090E06817790784F005968417950764F0AF
:1018300010925002AB8DBC8D19968C9119978F5FC9
:1018400019968C930E9412040E94831A1F5FA1CEE6
:101850000E94120405CF0E945E3022E030E040E09A
:1018600050E00E948230672B682B692B09F042CF31
:10187000E0915202F091530202858385080F612F97
:1018800070E067507109072E000C880B990B0E94BD
:101890002E190F5F600F609350022CCFAB8DBC8D63
:1018A00019968C91853008F425CF8091820690910D
:1018B0008306C12C25E0E22E00E228E740E150E05B
:1018C00064E070E004960E949D1E809182069091D3
:1018D000830628E740E150E064E070E004960E944F
:1018E0001F23809182069091830627E030E0FC015F
:1018F000308B278743E150E0528B418B6EE271E0E1
:101900000E949D198091820690918306E7E0F0E0A5
:10191000DC015096FC93EE931F972BE130E052963A
:101920003C932E9351976AE171E00E949D19EE2439
:10193000E39407E027E043E151E066E270E087E0EE
:1019400090E00E94281B81E190E0909384078093AF
:10195000830736E2C32ED12CD0928607C09285072A
:101960006CE071E084E797E00E949D1927E045E074
:1019700051E066E270E082E490E00E94281B8CE473
:1019800090E09093840780938307D0928607C0925B
:1019900085076DEF70E084E797E00E949D198091C4
:1019A00082069091830604960E94181B80918206FD
:1019B0009091830604960E948F1F8823B9F380912B
:1019C00082069091830604960E940D1B0091820668
:1019D000109183060C5F1F4F68E0C8010E94031B33
:1019E000882361F0E0915202F09153028185855085
:1019F000818781E08083109251027CCE64E0C8012F
:101A00000E94031B882391F275CEF1101BCE03E2D6
:101A10001CCE6F927F928F929F92AF92BF92CF9285
:101A2000DF92EF920F931F93CF93DF931F92CDB767
:101A3000DEB760904C0270904D02F301818192817B
:101A4000A381B48145815681678170854817590704
:101A50006A077B0720F485839683A783B087A090CD
:101A60004E02B0904F024501F4E08F0E911CE12C24
:101A700005E02CE142E050E061E470E0C4010E9426
:101A8000CD1DF301018112812381348187E0C82EAD
:101A9000EE24E39442E061E4C5010E949007E12C4A
:101AA00005E02AE142E050E066E670E0C4010E94F1
:101AB000CD1DF3010581168127813085C12CEE24CF
:101AC000E39442E066E6C5010E94900712E0C12C53
:101AD000D12CF9E06F0E711C530192E0F5012191B8
:101AE00031915F010C2C02C0369527950A94E2F7DC
:101AF000E12C20FF02C001E001C000E020E045E051
:101B0000692F812F99830E94A60599819A5F9E3340
:101B100029F7FFEFCF1ADF0A1A5F1E33E9F60F909D
:101B2000DF91CF911F910F91EF90DF90CF90BF90F9
:101B3000AF909F908F907F906F9008952F923F92DB
:101B40004F925F926F927F928F929F92AF92BF92CD
:101B5000CF92DF92EF92FF920F931F93CF93DF9379
:101B6000CDB7DEB72C970FB6F894DEBF0FBECDBF52
:101B70003F832E8319870887FB86EA8690934F025E
:101B800080934E0270934D0260934C02413081F479
:101B9000DB014C93FB01118212821382148239966D
:101BA00084E1DF011D928A95E9F70E94330503C0A5
:101BB000442309F4EBC2C0904E02D0904F02C601FC
:101BC0000E94E31AB4E0CB0ED11C4FE36FE3C601D1
:101BD0000E941822EE24E39408E028E048EE50E04A
:101BE00061E070E08DE590E00E94281B0E94090DE5
:101BF000C6010E94181BA5E0FA2EB3E0CB2ED12C13
:101C0000E0914C02F0914D0280A187FF07C081A1B5
:101C100087FF04C082A187FD0E943305912CA12C6F
:101C2000612C712CB12CE0914C02F0914D02E60D2B
:101C3000F71D80A187FD98C090E0E12CE0914C0257
:101C4000F0914D02E60DF71D40A1F49EA001112474
:101C5000405F5E4F0EE914E021E060E0892F9C8731
:101C60000E94B4049C85811104C0AA24A394AE0CE4
:101C700005C0EA949650EBEFEE12E0CF90E0E12C35
:101C8000E0914C02F0914D02E60DF71D40A1F49E4B
:101C9000A0011124405F5E4F0EE914E021E0692F9E
:101CA00080E09C870E94B4049C85811104C0992423
:101CB00093949E0C05C0EA949650FBEFEF12E0CF90
:101CC000812C292C092C000C33084A2C0A2C000CDE
:101CD0005508E12CE0914C02F0914D02E60DF71D04
:101CE00040A1F49EA0011124405F5E4FB1016E0D32
:101CF000711DE7FC7A95862F880F680F660F920199
:101D0000280D311D87FC3A95822F880F820F0EE92E
:101D100014E021E0880F0E94B4048823E1F0E091F0
:101D20004C02F0914D02E60DF71D40A1F49EA0017A
:101D30001124405F5E4F0FE214E021E06E2D690D2B
:101D4000882D8A0D0E94B404882329F0B394EAE018
:101D5000EE2EFAE08F2EE39429E02E1508F0BACF8C
:101D60008394281508F0B5CF4FEF641A740A53E036
:101D70006516710409F057CFE0914C02F0914D02C5
:101D8000BB2011F011E002C0108200C2812F90E050
:101D9000DF01A80FB91F90962C9127FF06C001966E
:101DA000B6010E94B933182FF1CF06E160904E02C0
:101DB00070904F0284E0680E711CC3010E948F1F57
:101DC0008823A1F3C3010E940D1B64E0C3010E949C
:101DD000031B8111DBC168E0C3010E94031B40901B
:101DE0004C0250904D028823B9F1D2015F961C93AA
:101DF000F201E10FF11D80A1806880A382E1F20170
:101E0000858F868F0E946C050E94090DE0914C021F
:101E1000F0914D02878DDF01A80FB11D87FDBA95A6
:101E200090968C9190E08F77F89EA001F99E500DCE
:101E30001124405F5E4F01E117E021E0668D858D42
:101E40000E94B40480914E0290914F0204960E9429
:101E5000181B76E0572E62C060E4C3010E94031B8A
:101E6000E82E60E2C3010E94031B2E2D281B022EC8
:101E7000000C330B812F90E00396820F931FB60165
:101E80000E94B9331C01182FF201E80FF91F80A13D
:101E900087FDF0CF0E946C05029D3001039D700C00
:101EA0001124F0E46F0E711C21E043E168E270E060
:101EB000C3010E94881A21E043E16EE370E0C30190
:101EC0000E94881A80914E0290914F0204960E94BF
:101ED000181B0E94831A6ACF68E0C8010E94031B86
:101EE000811168C00E947B1A85FFC9C00E94201A18
:101EF000209148023091490240914A0250914B0290
:101F0000DC01CB01821B930BA40BB50B8B3F91051E
:101F1000A105B10508F070C10E94831A80914E029C
:101F200090914F0204960E948F1F8823B9F38091ED
:101F30004E0290914F0204960E940D1BE0914C02BC
:101F4000F0914D02878DDF01A80FB11D87FDBA9575
:101F500090968C9190E08F77F89EA001F99E500D9D
:101F60001124405F5E4F01E117E020E0668D858D12
:101F70000E94B40400914E0210914F020C5F1F4F5B
:101F800064E0C8010E94031B882309F4A5CFE091F7
:101F90004C02F0914D02878DDF01A80FB11D87FD26
:101FA000BA9590968C9190978F7790968C938FEFAF
:101FB000878F56C0E0914C02F0914D02878DDF0172
:101FC000A80FB11D87FDBA9590968C9190E08F7700
:101FD000F89EA001F99E500D1124405F5E4F868D42
:101FE00066E0E62E652D0E949733382F858D652D8E
:101FF0000E9497330FE214E021E0632F0E94B404A3
:10200000882309F48BCFE0914C02F0914D02878D2B
:10201000DF01A80FB11D87FDBA9590968C9190E0D5
:102020008F7725E0289FA001299F500D1124405F44
:102030005E4F868D6E2D0E949733382F858D6E2DC5
:102040000E94973303E514E021E0632F0E94B4045B
:10205000E0914C02F0914D028FEF878F0E94090DA5
:1020600040904C0250904D0280E090E010E0312C06
:10207000B201675F7F4FA201435E5F4F0DC00E94B8
:102080007B1A86FD33CF0E947B1A87FD2FCF0E94DB
:102090007B1A84FD2BCF40CFA82FFB01B0E021910C
:1020A0003191082E02C0369527950A94E2F720FD5B
:1020B000BF5FE417F50799F7BA3049F4E1E0F0E0C3
:1020C000EC0FFD1FE30DF11DA08333941F5F0196FC
:1020D0008A30910509F7F20192012C5E3F4F81850C
:1020E00092858F3F9340A1F412861186D2011196FA
:1020F0004D915D916D917C911497465F5F4F6F4F4D
:102100007F4F11964D935D936D937C9314971F5F52
:102110003296E217F30719F7212C2314C1F090E04F
:1021200066246394712C6C0E7D1E620C711CE12C74
:1021300000E0292FF301408160E080E09C870E944D
:1021400053049C859F5F9A3091F72394E6CF123019
:10215000D0F0812F90E00197FAE0F89F9001F99F6D
:10216000300D1124C901330FAA0BBB0BF2014181C1
:10217000528163817481840F951FA61FB71F8183CD
:102180009283A383B4830E94090D3ACDE0914C025F
:10219000F0914D028081AE81BF818C93418152814B
:1021A00063817481A885B9854D935D936D937C930C
:1021B000139785819681A781B085EA85FB85808309
:1021C0009183A283B3832C960FB6F894DEBF0FBE23
:1021D000CDBFDF91CF911F910F91FF90EF90DF90D6
:1021E000CF90BF90AF909F908F907F906F905F90B7
:1021F0004F903F902F90089560E2C8010E94031B0A
:1022000081119DC060E4C8010E94031B811197C029
:1022100060E8C8010E94031B811191C060E1C80100
:102220000E94031B81118BC00E947B1A182F0E94F1
:102230007B1A21E030E016FD02C020E030E041E0F2
:1022400050E085FD02C040E050E0C901841B950BC1
:10225000E82EEE0CE80EEE0C0E947B1A182F0E945E
:102260007B1A21E030E014FD02C020E030E0082EAF
:10227000000C990B8827990F881F9927A901481BE3
:10228000590BCA01442E440C840D482E440CE09195
:102290004C02F0914D02878DDF01A80FB11D87FD23
:1022A000BA9590968C9190E08F77F89EA001F99E58
:1022B000500D1124405F5E4F668D640D858D0EE9D3
:1022C00014E021E08E0D0E94B404882309F424CE8A
:1022D00060904C0270904D02D3015D968C915D9799
:1022E000E80E5D96EC925D975E968C915E97480E37
:1022F0005E964C920E94090DF301878DE80FF11D47
:1023000087FDFA9580A190E08F77F89EA001F99E55
:10231000500D1124405F5E4F01E117E021E0D30131
:102320005E966C915E975D968C910E94B40480914C
:102330004E0290914F0204960E94181BEDCD0E9410
:10234000201A609348027093490280934A02909346
:102350004B026ACFEF92FF920F931F93CF93DF93BD
:102360001F92CDB7DEB77C01FC0100811181C8014D
:1023700069830E946C306981681719F0C8010E9456
:102380007430C7010F90DF91CF911F910F91FF9093
:10239000EF900895CF93DF9380916F029091700238
:1023A00027E430E0FC01308B278722E130E0328BDC
:1023B000218BE0916D02F0916E0241815281638127
:1023C00074812AE00E945219E0916F02F09170022C
:1023D000CAE6D0E0D08BC78785E290E0928B818BF4
:1023E000E0916D02F0916E0281AD0E94A627E0910E
:1023F0006F02F0917002D08BC78785E390E0928BDB
:10240000818BE0916D02F0916E0282ADDF91CF91F0
:102410000C94A6272F923F924F925F926F927F92D9
:102420008F929F92AF92BF92CF92DF92EF92FF92E4
:102430000F931F93CF93DF93CDB7DEB7A5970FB65A
:10244000F894DEBF0FBECDBF6B013E8F2D8F18A35A
:102450000F8FFAA2E9A29093700280936F0270939B
:102460006E0260936D02413009F057C0DB01119696
:102470001D921D921D921C921497DA961C92DA9767
:10248000D9961C92FB01E95BFF4F83E08083319674
:1024900010820E945E30B5E4CB0ED11C27E030E004
:1024A00040E050E00E948230F601608300916D02AE
:1024B00010916E020E945E300A5B1F4F24E030E0F4
:1024C00040E050E00E948230D8016C93E0916D02B0
:1024D000F0916E02DF01AE5BBF4F86E08C931797E1
:1024E00080E08D938F5F8730E1F7DF011996CF0190
:1024F000C99621E038E02D933D93A817B907D9F785
:102500008FEF9FEF90AF87AB0E940428E0916D02A0
:10251000F0916E0281E0808303C0442309F495C2E8
:10252000E0906F02F090700281E0F701848B138AD3
:10253000878190859C01215F3F4F398B288BC70194
:102540000E94E31A01E02DE04FE260E08EE30E947A
:10255000C82721E043E167E070E08BE290E00E9451
:10256000881A21E043E167E070E08DE690E00E9488
:10257000881A37E4A32EB12CD7015096BC92AE92A4
:102580001F9783E090E052969C938E93519764E45A
:1025900072E0C7010E949D1921E045E56FE070E0FF
:1025A0008BE290E00E94881AC0906F02D090700277
:1025B000EE24E39409E024E541E150E06CE270E0B0
:1025C000C60104960E94CD1D21E045E56BE170E057
:1025D0008BE290E00E94881A01E02DE04EE362E277
:1025E00082E40E94C827F601B08AA78685E290E0BF
:1025F000928B818B6EE372E0C6010E949D192DE0E3
:102600004EE362E382E40E94C82780916F029091BA
:102610007002DC015096BC92AE921F9725E330E029
:1026200052963C932E93519768E372E00E949D1955
:1026300000E021E141E168E28EE20E94C827E090DB
:102640006F02F0907002B4E0EB0EF11C01E02FE39A
:1026500040E050E060E070E0C7010E949D1D2FE364
:1026600040E050E061E070E0C7010E949D1D2FE353
:1026700040E050E069E270E0C7010E949D1D2FE339
:1026800040E050E06AE270E0C7010E949D1D41E019
:102690006CE370E084E290E00E94CB1A41E06EE3CC
:1026A00070E085E290E00E94CB1A05E010E021E0A6
:1026B0004CE350E0B801C7010E94A21CB8016F5F53
:1026C0007F4F21E04CE350E0C7010E94A21C68014B
:1026D000E3E0CE0ED11C21E04CE350E0B601C7018F
:1026E0000E94A21C21E04EE350E0B801C7010E9405
:1026F000A21CB8016E5F7F4F21E04EE350E0C7019E
:102700000E94A21C21E04EE350E0B601C7010E94E6
:10271000A21C86010332110551F600E010E021E011
:10272000A80162E070E0C7010E94A21C21E0A8019C
:1027300063E070E0C7010E94A21C21E0A80165E0EF
:1027400070E0C7010E94A21C21E0A80165E270E0D0
:10275000C7010E94A21C21E0A80166E270E0C70147
:102760000E94A21C21E0A80168E270E0C7010E945B
:10277000A21C6801F2E0CF0ED11C21E0A60162E0AC
:1027800070E0C7010E94A21C21E0A60164E070E095
:10279000C7010E94A21C21E0A60165E070E0C7010C
:1027A0000E94A21C21E0A60165E270E0C7010E9420
:1027B000A21C21E0A60167E270E0C7010E94A21CF2
:1027C00021E0A60168E270E0C7010E94A21C0C5F34
:1027D0001F4F0034110509F0A2CF0E94CA111B86B9
:1027E000E0906F02F090700287010C5F1F4FC801EC
:1027F0000E948F1F8823A1F3C8010E940D1B64E073
:10280000C8010E94031B811119C10E947B1A84FF19
:1028100003C03B8531FF09C060E1C8010E94031B72
:10282000811103C03B853B7F19C2A0906D02B0901F
:102830006E026501F8E4CF0ED11CD6019C900E9477
:102840007B1A91E084FF90E0990EF501EC5BFF4F5D
:1028500080813197E081B4E0EB9FF0011124E80F13
:10286000F11DEE0FFF1FEF56FE4F40815181F50124
:10287000E95BFF4F22E0692D80810E946E2888234A
:1028800009F4EBC13B85397F3B87D6019C920E94BE
:102890007B1A85FF10C10E94201A809071029090CF
:1028A0007202A0907302B0907402DC01CB0188190F
:1028B0009909AA09BB098B3F9105A105B10508F04B
:1028C000CFC1A0906F02B090700285010C5F1F4FC6
:1028D00060E8C8010E94031B811119C268E0C801A9
:1028E0000E94031B811113C23B8530FFE9C03B8569
:1028F00030FF17C1D50117968D919C911897E889E3
:10290000F9898E179F0708F40CC100916D02109190
:102910006E02F801EC5BFF4F80813197E08124E08B
:10292000E29FF0011124E80FF11DEE0FFF1FEF569B
:10293000FE4F40815181D801A85BBF4FF801E95B90
:10294000FF4F21E06C9180810E946E28EFE6F1E05C
:10295000DE0111968AE001900D928A95E1F7F80167
:102960003D9680E092E0219131912F3F3F40C9F4A4
:102970008F5F692F262F30E0D9011197AA0FBB1F57
:10298000A00FB11F19964D915C911A97220F331F1A
:10299000D801A20FB31F1A965C934E9319976150FA
:1029A00049F79F5F9731F9F6FE013196E80FF11D67
:1029B000E80FF11DD801D9964C91D99750E04F5F9F
:1029C0005F4F60817181469F9001479F300D569FF8
:1029D000300D112411964D915D916D917C9114975C
:1029E000420F531F611D711DF801418352836383A0
:1029F0007483C580D680E780F084C416D506E606C9
:102A0000F70630F415964D935D936D937C9318976C
:102A1000F80192AD890F82AF6AE00E948B3381AFDB
:102A20000E94CA11E0916D02F0916E02DF01A85B75
:102A3000BF4F8C91823008F05FC01082E0916F022E
:102A4000F0917002148A81E0838BE0916D02F09125
:102A50006E028081AD8DBE8D8C93418152816381E8
:102A60007481AF8DB8A14D935D936D937C93139753
:102A700085819681A781B085E9A1FAA180839183A0
:102A8000A283B383A5960FB6F894DEBF0FBECDBF69
:102A9000DF91CF911F910F91FF90EF90DF90CF903A
:102AA000BF90AF909F908F907F906F905F904F906E
:102AB0003F902F9008950E947B1A86FDECCE01CFA7
:102AC000E0916D02F0916E0281AD883110F490E0DA
:102AD00002C087E190E0DC01A758BE4F6C9166957B
:102AE00070E0D50117968D919C9118970E94A5339F
:102AF000892B09F4AFC1FBCEE95BFF4F23E02083B4
:102B00001C928B858E7F82608B870E940428E091C7
:102B10006F02F091700287819085DC011F96B98B5E
:102B2000A88BF7E0EF2EF12C22242394312CE1E046
:102B3000F0E0022C02C0EE0FFF1F0A94E2F7FD87BF
:102B4000EC8788248394912CE3E04E2E512C97013E
:102B5000215031093F872E87340131E0631A710813
:102B6000C0906F02D090700244E0C40ED11C00E00F
:102B700022E0A4014F5F5F4FB701C6010E94951C80
:102B800022E0A3016E857F85C6010E949D1DA09055
:102B90006D02B0906E02F201EE0FFF1FEA0DFB1DF9
:102BA00081859285AC85BD858A239B23892B11F075
:102BB00001E001C000E022E0A301B701C6010E94CC
:102BC000951C22E0A401B701C6010E94951CBFEF2D
:102BD0004B1A5B0AE3E08E0E911CFDE38F16910405
:102BE00009F0BACF2FEF221A320A33E0E30EF11CBC
:102BF0004BE02416310409F09ACF612C712C450169
:102C000084E4880E911C750193E4E90EF11C8501A2
:102C1000095B1F4FBFEF6B1A7B0AF4018081D7015C
:102C2000EC91B4E0EB9FF0011124E80FF11DEE0FE1
:102C3000FF1FEF56FE4F4081518161E0660D22E09B
:102C4000F80180810E946E28882309F435C1A4E12F
:102C50006A16710409F430C1DDCF31E03B8717CE2D
:102C600060E2C8010E94031B811146C060E4C801F4
:102C70000E94031B811140C0A0906D02B0906E02B3
:102C80008501095B1F4FF801D0800E947B1A91E0FB
:102C900086FF90E0D90E0E947B1A91E085FF90E0BC
:102CA000D91AF501EC5BFF4F80813197E08124E078
:102CB000E29FF0011124E80FF11DEE0FFF1FEF5608
:102CC000FE4F40815181F501E85BFF4F22E06081BA
:102CD0008D2D0E946E28882309F4F3CD3B853E7F1D
:102CE0003B87D801DC92F701878190859C01215FA9
:102CF0003F4F398B288BE5CD0E94201A60937102DB
:102D0000709372028093730290937402B5CFE09037
:102D10006D02F0906E02470144E4840E911CD401D0
:102D20000C9110E00F5F1F4F03701127302E3701F9
:102D3000B3E46B0E711CF3018081F80124E0829FE3
:102D4000E00DF11D1124EE0FFF1FEF56FE4F4081E5
:102D50005181670138E4C30ED11C87E4E80EF11CF1
:102D600022E0D6016C91F70180810E946E288111CA
:102D700055C0D3018C91F801B4E08B9FE00DF11D9B
:102D80001124EE0FFF1FEF56FE4F40815181F701D6
:102D9000808122E0D6016C918F5F0E946E2888238B
:102DA00021F0F70180818F5F1BC0D3018C91F80166
:102DB000B4E08B9FE00DF11D1124EE0FFF1FEF56C5
:102DC000FE4F40815181F701808122E0D6016C9154
:102DD00081500E946E28882329F0F701808181505C
:102DE00080831CC0D3018C91F801B4E08B9FE00D6F
:102DF000F11D1124EE0FFF1FEF56FE4F4081518150
:102E0000F6016081615022E0D7018C910E946E280A
:102E1000882311F0F601E2CFD4013C90F4018081C7
:102E200090E0232D032C000C330B2817390721F4D5
:102E30003B8534603B8758CD8B858E7F84608B8744
:102E40003082F501878190859C01215F3F4F398B4E
:102E5000288B4ACDDF01AC5BBF4F8C911197AC91B1
:102E600024E0A29FD0011124A80FB11DAA0FBB1FFF
:102E7000AF56BE4F4D915C918F01085B1F4FD8013B
:102E80006C916F5FE95BFF4F22E080810E946E28AA
:102E9000882329F0F80180818F5F808328CD3B85CE
:102EA00031603B87D50117968D919C911897FC0155
:102EB0003F96F98BE88B1BCDEE24E3940DE02DE0DB
:102EC0004AE250E060E370E0C6010E94CD1DC301FC
:102ED000880F991FFC01E60DF71DFC8FEB8F412C2D
:102EE000512C9501295B3F4F3CA32BA3C501885B67
:102EF0009F4F9F878E87D501AC5BBF4FBB8BAA8B43
:102F0000F501ED5BFF4FFD8BEC8B21503109388FC4
:102F10002F8B03979A8F898F1201F3E02F2233248E
:102F2000920135952795359527953D872C87122D4C
:102F3000110F120D195F1E8BE22EEE0C122F1E0DBB
:102F4000ABA1BCA1EC908E2D880FE80E3E89E30E5C
:102F5000AE85BF858C9190E08615970534F5EA899A
:102F6000FB898081AC89BD89EC91B4E0EB9FF001D5
:102F70001124E80FF11DEE0FFF1FEF56FE4F808169
:102F80009181042C02C0969587950A94E2F780FF00
:102F90000CC04B8D5C8D410F511D465051096E2D5B
:102FA00070E021E0C6010E94A21CEA89FB898081B1
:102FB000AC89BD89EC91B4E0EB9FF0011124E80FDE
:102FC000F11DEE0FFF1FEF56FE4F808191819C0196
:102FD000042C02C0369527950A94E2F720FF71C0B1
:102FE0008C849D84880C991C880C991C082C02C028
:102FF000969587950A94E2F791012F5F3F4F02C0A3
:10300000969587952A95E2F780FF02C033E001C0CC
:1030100032E0A12EB12CEE85FF858081F12CA50137
:10302000F3E08F9F400D511D11244550510901E0DF
:10303000232FB701C6013DA30E94951CAE85BF8515
:103040008C91A501B3E08B9F400D511D112446507A
:1030500051093DA1232FB701C6010E94951CEA89A1
:10306000FB898081AC89BD89EC91B4E0EB9FF001D4
:103070001124E80FF11DEE0FFF1FEF56FE4F24E065
:10308000820E911C8081918102C0969587958A94C9
:10309000E2F7022C02C0969587950A94E2F780FF2A
:1030A00010C0AE85BF858C91A501B3E08B9F400D0C
:1030B000511D11244450510922E0B701C6010E945C
:1030C000951CEF89F88D8081A98DBA8DEC91B4E0C3
:1030D000EB9FF0011124E80FF11DEE0FFF1FEF56DB
:1030E000FE4F808191819C01042C02C0369527956A
:1030F0000A94E2F720FF5DC0AC84BD84AA0CBB1C1F
:10310000AA0CBB1C0A2C02C0969587950A94E2F77C
:1031100091012F5F3F4F02C0969587952A95E2F760
:1031200080FF02C033E001C032E0E12EF12CEE89D5
:103130008E2E912CFAE28F0E911CA701455D5F4FF8
:1031400000E0232FB401C6013DA30E94951CA701F6
:10315000445D5F4F3DA1232FB401C6010E94951C21
:10316000AF89B88D8C91A98DBA8DEC91B4E0EB9FAD
:10317000F0011124E80FF11DEE0FFF1FEF56FE4F77
:1031800024E0A20EB11C8081918102C096958795A2
:10319000AA94E2F702C0969587952A94E2F780FFF9
:1031A00008C0A701435D5F4F22E0B401C6010E9441
:1031B000951C3FEF431A530A40E14416510409F0AD
:1031C000ABCEC6010E94181B0E94831A09CBCF9276
:1031D000DF92EF92FF920F931F93CF93DF936C01D7
:1031E0007A018B01C0E0D0E0CE15DF0589F0D8016F
:1031F0006D918D01D601ED91FC910190F081E02D52
:10320000C6010995892B11F47E0102C02196ECCFED
:10321000C701DF91CF911F910F91FF90EF90DF9049
:10322000CF9008950895089580E090E008950E9459
:10323000D3336115710579F0FB0101900020E9F7A6
:103240003197AF01461B570BDC01ED91FC910280D9
:10325000F381E02D099480E090E00895CF93DF930F
:1032600000D000D0CDB7DEB761157105810591059D
:1032700079F09B01AC0169833A834B835C830E94A4
:103280005E3029813A814B815C810E94823003C08B
:1032900060E070E0CB010F900F900F900F90DF91E6
:1032A000CF9108954F925F926F927F92EF92FF922B
:1032B0000F931F93CF93DF93CDB7DEB7A1970FB6D0
:1032C000F894DEBF0FBECDBF7C01FA01CB0119A27D
:1032D000223008F42AE08E010F5D1F4F422E512C40
:1032E000612C712CBF01A30192010E94B430F9013D
:1032F000CA01015011096A3014F4605D01C0695CB3
:10330000D8016C93232B242B252B61F7B801C7011F
:103310000E941919A1960FB6F894DEBF0FBECDBF5B
:10332000DF91CF911F910F91FF90EF907F906F9061
:103330005F904F9008950C941919EF92FF920F939C
:103340001F93CF93DF938C017B01C0E0D0E0F701A6
:10335000EC0FFD1F6491662361F0D801ED91FC91A3
:103360000190F081E02DC8010995892B11F021967B
:10337000EECFCE01DF91CF911F910F91FF90EF9093
:1033800008953FB7F89480917A0690917B06A091BA
:103390007C06B0917D0626B5A89B05C02F3F19F08D
:1033A0000196A11DB11D3FBFBA2FA92F982F8827C5
:1033B000820F911DA11DB11DBC01CD0142E0660F20
:1033C000771F881F991F4A95D1F708958F929F9272
:1033D000AF92BF92CF92DF92EF92FF926B017C018E
:1033E0000E94C1194B015C01C114D104E104F10434
:1033F000F1F00E94C119DC01CB0188199909AA09D1
:10340000BB09883E9340A105B10570F321E0C21AC3
:10341000D108E108F10888EE880E83E0981EA11C0F
:10342000B11CC114D104E104F10419F7DDCFFF9000
:10343000EF90DF90CF90BF90AF909F908F900895C6
:103440002FB7F89460917606709177068091780690
:10345000909179062FBF08951F920F920FB60F9289
:1034600011242F933F938F939F93AF93BF9380919A
:10347000760690917706A0917806B0917906309102
:10348000750623E0230F2D3720F40196A11DB11DF1
:1034900005C026E8230F0296A11DB11D20937506D5
:1034A0008093760690937706A0937806B09379067A
:1034B00080917A0690917B06A0917C06B0917D0662
:1034C0000196A11DB11D80937A0690937B06A0936F
:1034D0007C06B0937D06BF91AF919F918F913F91F4
:1034E0002F910F900FBE0F901F901895BC0180E098
:1034F00090E00C94E6198FB18095807F669B886080
:103500001C9B8460089581E083BF889513BE089555
:10351000FC01840F911D18161906E4F5E038F10539
:10352000CCF5F7FF02C0E0E0F0E08138910514F03F
:1035300080E890E0382F3E1BAB0177FF02C0495F67
:103540005F4F83E0559547958A95E1F75695542F3F
:10355000442757954795E40FF51FEB58FD4F6770CB
:10356000772781E090E001C0880F6A95EAF7482F3D
:10357000222349F0213071F4315020F08081842BD6
:103580008193FACF08958095315020F0908198234F
:103590009193FACF0895EAE4F7E090E1969FD00185
:1035A000A0781124A80F6770E60FF11D9491AB5815
:1035B000BD4F442319F08C91982B03C090958C91AA
:1035C00098239C930895DC0190E0E5E7F2E09111E7
:1035D0009FEF002491939193919391930394D1F74A
:1035E00052961C921E92519750961C921E921F97B3
:1035F0000895FC019681962321F08581682381E05E
:1036000009F080E00895FC019681962321F48581DC
:10361000682381E009F480E00895CF93DF93EC0103
:103620008D818E830E947B1A8D83DF91CF910895C7
:10363000E5E7F2E080E0A0E0B8E000800EBC811198
:10364000012C1197A0FDFDCF0192B9F70DB408959B
:103650002F923F924F925F926F927F928F929F92A2
:10366000AF92BF92CF92DF92EF92FF920F931F9390
:10367000CF93DF93CDB7DEB72D970FB6F894DEBFAB
:103680000FBECDBFED82E22EF12C9C012E0D3F1D11
:1036900037FD32C1803891050CF02EC19B01200FFF
:1036A000311D37FD29C1603471050CF025C1DB01E6
:1036B00077FF04C0AA27BB27A61BB70BA770BB27A1
:1036C0009B0177FF02C0295F3F4F13E03595279597
:1036D0001A95E1F777FF08C02150310968E070E0E2
:1036E000FB01EA1BFB0BDF01E02FE695E695E69573
:1036F000CE2ED12C077019F0FFEFCF1ADF0AB901D7
:103700007695762F662777956795680F791F6B58A2
:103710007D4F8601020F131F19870887C12CD12CFA
:10372000F8E0AF2EB12C85010A1B1B0B1F830E8303
:10373000088519852017310709F4DEC028303105C6
:1037400009F4DAC02F3F1FEF31070CF4CAC08B0118
:1037500000581F4F1D870C874B013B012B011C019B
:103760001C830B831A8309831B861A860A851B8593
:103770000E151F050CF0B5C010E82116310409F430
:10378000B0C037FC89C02F3FEFEF3E0709F4B0C04F
:103790000A851B850C0D1D1DFD81F13079F4F801A2
:1037A000E40FF51FE491F0E08F010A2E01C0000F35
:1037B0000A94EAF7F301B0800B2925C0FD81F111CD
:1037C00014C0F801E40FF51FE491F0E00A2E02C0E6
:1037D000EE0FFF1F0A94E2F78F0100951095F40198
:1037E000A080B12C0A211B210EC0F801E40FF51FA7
:1037F000E491F0E08F010A2E01C0000F0A94EAF76D
:10380000F201B0800B250083109709F445C02730E2
:10381000310509F441C00A851B850C0D1D1DFD8174
:10382000F13089F4F801E40FF51FE4910E2F10E058
:103830000E8002C0159507950A94E2F7EC85FD8588
:10384000B0800B2928C0FD81F11115C0F801E40FEB
:10385000F51FE4910E2F10E00E8002C0159507951C
:103860000A94E2F700951095E981FA81A080B12CC5
:103870000A211B2110C0F801E40FF51FE4910E2F5F
:1038800010E00E8002C0159507950A94E2F7EB81CF
:10389000FC81B0800B2500830A851B850F5F1F4FBD
:1038A0001B870A870C851D850F5F1F4F1D870C879F
:1038B00009811A810F5F1F4F1A8309830B811C81B5
:1038C0000F5F1F4F1C830B831FEF211A310AEFEF8D
:1038D0004E1A5E0AFFEF6F1A7F0A0FEF801A900AE6
:1038E00045CF2F5F3F4F60587F4FCE0CDF1C20CF5E
:1038F000109709F090CFD0CF2D960FB6F894DEBF79
:103900000FBECDBFDF91CF911F910F91FF90EF9030
:10391000DF90CF90BF90AF909F908F907F906F90EF
:103920005F904F903F902F9008950F93CB01BA0175
:10393000422F202F6034710518F40F910C94881ACF
:103940000F910895CB01BA018038910530F44034CD
:10395000510518F4422F0C94CB1A08952F923F92E0
:103960004F925F926F927F928F929F92AF92BF928F
:10397000CF92DF92EF92FF920F931F93CF93DF933B
:10398000CDB7DEB729970FB6F894DEBF0FBECDBF17
:10399000FC016A3069F425898189928938E0239F86
:1039A000800D911D1124928B818B108A1786AAC0DD
:1039B0006D3009F4A7C099878887F58834882388F3
:1039C000618872880785108900381105C4F0A885C0
:1039D000B98555962C915597422F50E01F968D91A1
:1039E0009C915097B6E02B9F800D911D1124E88586
:1039F000F985908B8787268921116EC083C0F0E4FA
:103A00006F16710424F7C80125E0F29E800D911D08
:103A1000112418161906DCF68F2D90E09C838B83F9
:103A2000C301A8E0FA9E800D911D112418161906F5
:103A300074F6B5E06B9FB0011124FB01E65BFD4F0E
:103A4000FA83E98330E08885998504969E838D8387
:103A5000E981FA81E490353009F4E12C430188E0F2
:103A6000482EE0FC02C0532C01C0522C51100BC058
:103A7000321009C0E6944A948B819C81880E991E6D
:103A80004110EFCF1BC068018C2D801B8F1590F764
:103A900054018A2D88198F1568F4252DA501B601CA
:103AA0008D819E813F830E94A21C9FEFA91AB90AB3
:103AB0003F81EFCFAFEFCA1ADA0AE6CF3F5FEB8163
:103AC000FC810E0F1F1F89819A8101969A83898339
:103AD000363009F0BDCF7BCF6AEF64039001659F5C
:103AE000300D112420583F4F281739075CF4A88562
:103AF000B985ED91FC9111970190F081E02D6AE07C
:103B0000CD01099581E090E029960FB6F894DEBFCB
:103B10000FBECDBFDF91CF911F910F91FF90EF901E
:103B2000DF90CF90BF90AF909F908F907F906F90DD
:103B30005F904F903F902F900895AF92BF92CF9299
:103B4000DF92EF92FF920F93CF93DF936C015B01B3
:103B50007A01E20EF11CEA0157FF0DC0C0E0D0E08F
:103B60000AC0C417D5077CF4202FAE01B501C601E9
:103B70000E94A21C2196A70181E4E816F1048CF3AF
:103B800040E450E0EECFDF91CF910F91FF90EF90A6
:103B9000DF90CF90BF90AF9008958F929F92AF9299
:103BA000BF92CF92DF92EF920F931F93CF93DF9349
:103BB0005C014A01102FEB016B01C20ED11CCC1528
:103BC000DD054CF40E2D212FA401BE01C5010E947C
:103BD0009D1D2196F4CFDF91CF911F910F91EF9012
:103BE000DF90CF90BF90AF909F908F9008952F92CD
:103BF0003F924F925F926F927F928F929F92AF927D
:103C0000BF92CF92DF92EF92FF920F931F93CF93C9
:103C1000DF9300D01F92CDB7DEB74C013B012A01E4
:103C20001C2D822F90E09B838A8381E090E01C0111
:103C3000EA81FB812E1A3F0A6F01D194C194D10809
:103C4000CC0CDD1CAA24A394B12C302F3170398305
:103C5000E3940270F02EC5010197EA81FB818E1773
:103C60009F070CF054C037FC0AC08A819B810197E2
:103C70009B838A8392E0C90ED11C2C0C3D1CC5018C
:103C8000880F991F0196280E391E39813323E1F0E0
:103C90002A81220F2E0D012FA2018A819B81481BB0
:103CA000590BB501660D771DC4010E949D1D2A2D7B
:103CB000220F2E0DA2014A195B096A817B81660DD4
:103CC000771DC4010E949D1DFF20E9F02A81220F6B
:103CD0002E0D012FA201EA81FB814E1B5F0BB30168
:103CE0006A197B09C4010E949D1D2A2D220F2E0DE9
:103CF000A2014A195B09B3018A819B81681B790B78
:103D0000C4010E949D1D9FEFA91AB90AA4CF0F906C
:103D10000F900F90DF91CF911F910F91FF90EF9037
:103D2000DF90CF90BF90AF909F908F907F906F90DB
:103D30005F904F903F902F9008952F923F924F9217
:103D40005F926F927F928F929F92AF92BF92CF922B
:103D5000DF92EF92FF920F931F93CF93DF9300D0E8
:103D60001F92CDB7DEB74C011B015A01F22E302F46
:103D7000DE2C4E2C512C3B01640C751C8E2D880FB3
:103D8000281BEC2CB301C40139830E94CD1D882768
:103D9000992784199509880F991F3981830F911DDF
:103DA0009C01215031093B832A83A40CB51CB1012D
:103DB0006F0D711D6419750961507109790101E078
:103DC0002D2DA501C4010E94F71DEA80FB8002E0B1
:103DD0002D2DA501B301C4010E94F71D0F900F9076
:103DE0000F90DF91CF911F910F91FF90EF90DF9097
:103DF000CF90BF90AF909F908F907F906F905F908B
:103E00004F903F902F9008952F923F924F925F9244
:103E10006F927F928F929F92AF92BF92CF92DF92DA
:103E2000EF92FF920F931F93CF93DF932C01EB013F
:103E30006A0159019801241B350B37FF03C03195E6
:103E400021953109C5018C1B9D0B97FF03C09195EE
:103E500081959109FF24F3948217930714F0F12CB4
:103E60000AC09A2D8B2D5801092F182F9C2F8D2FAA
:103E7000E601C92ED82EAC16BD0654F49C2D8D2D0E
:103E80006801092F182F9C2F8D2FE501A92EB82E20
:103E900015012C1A3D0A38016C187D0877FE03C005
:103EA000719461947108410137FE03C08FEF881A45
:103EB000980A95948794C016D10614F00FEF01C0AC
:103EC00001E0002E000C110BAC16BD06ACF02E2D3F
:103ED000FF2019F0AE01B60102C0A601BE01C20169
:103EE0000E94A21C8618970897FE04C0C00ED11E1F
:103EF000820C931C2196E8CFDF91CF911F910F91F7
:103F0000FF90EF90DF90CF90BF90AF909F908F90F9
:103F10007F906F905F904F903F902F9008950F93F8
:103F20001F93CF93DF931F92CDB7DEB78C010E9412
:103F3000201AF8018085962F981B8185882321F00F
:103F40009287118680E016C0F8012781921740F40D
:103F50009F5F921778F489830E94831A89810AC02F
:103F600081E0F80181876087838194810196948341
:103F7000838381E00F90DF91CF911F910F9108957E
:103F80002FB7F89483E08093E9009091E800892F9F
:103F9000807295FF04C09091F20080E4891B2FBFCE
:103FA0000895CF93DF931F92CDB7DEB76983DC010D
:103FB000ED91FC910280F381E02D41E050E0BE01E3
:103FC0006F5F7F4F09950F90DF91CF91089583E048
:103FD0008093E9008091F200882319F08AE38093AE
:103FE000E80008950E94C01F90E008952F923F922C
:103FF0004F925F926F927F928F929F92AF92BF92F9
:10400000CF92DF92EF92FF920F931F93CF93DF93A4
:104010006C015B014A01C22FD0E081E090E03C01DD
:104020006C1A7D0A442455244C1A5D0A440C551C14
:10403000E12CF12C802F8470282E102F1270802FED
:104040008870382E0170EC16FD060CF06BC077FC02
:1040500006C0219782E0480E511C640C751C8FEF3E
:10406000E81AF80AC701880F991F0196680E791E91
:104070002220A1F021E0A4014C0F5D1FB7016A0DC1
:104080007B1DC6010E94A21C21E0A701480D591DFD
:10409000B5016C0F7D1FC6010E94A21C1123A1F067
:1040A00021E0A4014C1B5D0BB7016A0D7B1DC6010D
:1040B0000E94A21C21E0A4014E195F09B5016C0FFA
:1040C0007D1FC6010E94A21C3320A1F021E0A701A0
:1040D000480D591DB5016C1B7D0BC6010E94A21C29
:1040E00021E0A4014C0F5D1FB5016E197F09C601C7
:1040F0000E94A21C002309F4A6CF21E0A4014E19BE
:104100005F09B5016C1B7D0BC6010E94A21C21E05A
:10411000A4014C1B5D0BB5016E197F09C6010E94FD
:10412000A21C91CFDF91CF911F910F91FF90EF9043
:10413000DF90CF90BF90AF909F908F907F906F90C7
:104140005F904F903F902F9008958F929F92AF92E3
:10415000BF92CF92DF92EF92FF920F931F93CF9374
:10416000DF935C016B017A0180910701882309F4D8
:1041700058C080918106882309F453C080917F063E
:1041800080FF05C08091E00082608093E000E7013D
:1041900010E00AEF83E0882E9AE3992E2097C1F170
:1041A0000E94C01F811109C00150D9F161E070E087
:1041B00080E090E00E94E619F1CF282F30E0C2178E
:1041C000D3070CF48C2F2FB7F8948092E9009091CC
:1041D000E80095FF1BC0C81BD109F601982F91502C
:1041E00020F031913093F100FACFC80ED11C112389
:1041F00019F09092E80009C08091E80085FD06C0A2
:104200009092E80011E0209709F010E02FBFC6CF90
:104210001111C6CF5D9884E680937E061E141F049C
:1042200044F081E090E0F5019383828380E090E0A8
:1042300001C0C701DF91CF911F910F91FF90EF90C7
:10424000DF90CF90BF90AF909F908F900895EF92A6
:10425000FF920F931F93CF93DF9300D0CDB7DEB7BC
:1042600004E816E0845896407C019701200F311F26
:10427000F80161918F013A832983CE0101960E9452
:10428000AA11F7E004371F0781F784E896E00F9042
:104290000F90DF91CF911F910F91FF90EF900895B4
:1042A0002F923F924F925F926F927F928F929F9246
:1042B000AF92BF92CF92DF92EF92FF920F931F9334
:1042C000CF93C82F282F4EE150E06EE170E088E7D1
:1042D00097E00E94A21C2C2F42E050E06EE170E0BB
:1042E00088E797E00E94A21C2C2F40E150E06CE28E
:1042F00070E088E797E00E94A21C2C2F40E150E07C
:1043000060E170E088E797E00E94A21C22242394D9
:10431000312CE12CF12C0EE010E064EE462E5524F9
:104320005A9473EFC72EDD24DA948FEFE81AF80A57
:1043300082E0280E311CC20CD31C37018EE1680EBE
:10434000711C2C2F580180E1A80EB11CA501B301EE
:1043500088E797E00E94A21C8EE1882E912C8E188F
:104360009F082C2FA501B40188E797E00E94A21CAA
:104370002C2F90E1A92EB12CA01AB10AA501B301EE
:1043800088E797E00E94A21C2C2FA501B40188E7C2
:1043900097E00E94A21C570180E1A80EB11C2C2FAF
:1043A000A50148018EE1880E911CB40188E797E0D1
:1043B0000E94A21C2C2FA5013EE1A32EB12CA01A15
:1043C000B10AB50188E797E00E94A21C40E1642E83
:1043D000712C6E187F082C2FA301B40188E797E099
:1043E0000E94A21C2C2FA301B50188E797E00E9430
:1043F000A21CE016F10654F4D7FC97CF0150110926
:1044000082E0480E511CC40CD51C8FCFCF911F9158
:104410000F91FF90EF90DF90CF90BF90AF909F9063
:104420008F907F906F905F904F903F902F90089566
:10443000EF92FF920F93CF93DF937C01C62FD42F7F
:1044400021E0462F60E070E080E090E00E94881A52
:104450004D2F50E04150510901E02C2F60E070E0F9
:10446000C7010E94951C2D2F40E050E060E070E0F5
:10447000C7010E949D1D6C2F70E0615071092D2FA6
:1044800040E050E0C7010E949D1DDF91CF910F9148
:10449000FF90EF900895AF92BF92CF92DF92EF928C
:1044A0000F931F93CF93DF93D62FC72F182FA62ECE
:1044B000660FBB08C0908206D090830684E0C80EC9
:1044C000D11CEE24E39409E0272F47E350E0B50127
:1044D000C6010E94CD1D7C2FC7FD7F5F7595C5016C
:1044E000870F911D77FD9A95BC0120E049E350E0CC
:1044F000C6010E94A21C112391F0412F4D0F21E013
:1045000066E370E080E090E0DF91CF911F910F9122
:10451000EF90DF90CF90BF90AF900C94881ADF910E
:10452000CF911F910F91EF90DF90CF90BF90AF9000
:104530000895BF92CF92DF92EF92FF920F931F9355
:10454000CF93DF93B82E142FC62F660FDD0B82FD9D
:1045500004C088E0F82EF40E1BC0165FC12E012E99
:10456000000CDD08E0908206F090830684E0E80EFF
:10457000F11C21E0A601BE01C7010E94A21C21E09E
:10458000A601BE016E5F7F4FC7010E94A21CF12EE3
:10459000612F110F770B6E5F7F4FEE24E39407E0DE
:1045A00023E042E557E0CE010E94281BB0FE1AC06E
:1045B00000918206109183060C5F1F4F20E0CF2CE4
:1045C0000F2C000CDD08A601BE016E5F7F4FC801F5
:1045D0000E94A21C21E0A601BE016D5F7F4FC801B1
:1045E0000E94A21CB1FE21C00F2DFF0C110BE09008
:1045F0008206F090830684E0E80EF11C20E0A8011A
:10460000BE01C7010E94A21CBE016150710921E0D8
:10461000A801C701DF91CF911F910F91FF90EF90FB
:10462000DF90CF90BF900C94A21CDF91CF911F918F
:104630000F91FF90EF90DF90CF90BF9008952F9251
:104640003F924F925F926F927F928F929F92AF9222
:10465000BF92CF92DF92EF92FF920F931F93CF936F
:10466000DF936C01EB015A01F22E302E1E2D1195B5
:10467000110F212E220E6E2C712C4B01860C971CD3
:1046800001E0222DB4010E94951C2501430C511C10
:10469000A20141505109222DB401C6010E94951C6E
:1046A000130DA60CB71C212FA501BE01C6010E9447
:1046B0009D1DCF0DD11DBE0161507109212FA50196
:1046C000C6010E949D1D2E2DA501B401C6010E94A8
:1046D000F61FC619D709219702E02E2DA501BE01AC
:1046E000C6010E94F61F4618570881E0481A510873
:1046F00004E02E2DA201BE01C6010E94F61F08E0B3
:104700002E2DA201B401C6010E94F61FDF91CF91A8
:104710001F910F91FF90EF90DF90CF90BF90AF90DF
:104720009F908F907F906F905F904F903F902F90D1
:104730000895FC0180918106811103C08FEF9FEFE6
:1047400008959FB7F89482E08093E9002091F200E9
:1047500030E01216130614F421E030E02115310583
:1047600059F0289884E6809380068091F100808338
:104770008091F200882319F09FBFC90108958BE64C
:104780008093E800F9CFCF93DF931F92CDB7DEB7C8
:10479000FC018485958597FD05C02FEF3FEF358798
:1047A00024870BC0CE0101960E949923019719F42A
:1047B000898190E002C08FEF9FEF0F90DF91CF9142
:1047C000089580918F0781110DC082E080938B073F
:1047D00084E080938C0710928E0710928D0781E001
:1047E00080938F078BE897E00895FC018485958579
:1047F00097FD0BC09FB7F89482E08093E900809109
:10480000F2009FBF90E0019608959FB7F89482E070
:104810008093E9008091F2009FBF90E0089540915D
:10482000EB075091EC072091E9073091EA07421716
:104830005307B4F49091E8009570E1F39091E8008B
:1048400092FD19C08093F1008091EB079091EC07E5
:1048500001968F739927892B19F48EEF8093E800C6
:104860008091EB079091EC0701969093EC07809371
:10487000EB0781E0089580E00895CF92DF92EF92F8
:10488000FF920F931F93CF93DF931F92CDB7DEB7A5
:10489000182F062FE42E862F880F8E5F99830E9493
:1048A0000F2483E00E940F24F12EC12E9981D92E6E
:1048B0008C2D8F19801798F4F601E7FE02C08491C1
:1048C00001C080810E940F24182F80E00E940F24D5
:1048D0008123FFEFCF1ADF0A8111EACF01C081E007
:1048E0000F90DF91CF911F910F91FF90EF90DF908C
:1048F000CF900895DF92EF92FF920F931F93CF9383
:10490000DF93D82E8A017B01E40EF51EEB01CE1554
:10491000DF0571F0D7FE03C0FE01849101C08881DC
:104920000E940F2421968111F2CF8FEF9FEF01C0DB
:10493000C801DF91CF911F910F91FF90EF90DF9011
:104940000895615030F02091F100FC012083019620
:10495000F8CF289884E68093800608950F931F93DC
:10496000CF93DF931F92CDB7DEB78C01FC01848516
:10497000958597FF0EC0CE0101960E94992301975D
:1049800019F4298130E002C02FEF3FEFF80135879D
:104990002487F801848595850F90DF91CF911F9131
:1049A0000F9108950F931F93CF93DF931F92CDB76D
:1049B000DEB782E0898342E450E069E577E080E891
:1049C0000E947A240E94E123DC0112960D911C9131
:1049D00013970115110569F0D801ED91FC91028042
:1049E000F381E02DBE016F5F7F4FC801099597FFEE
:1049F00007C089810F90DF91CF911F910F9108958A
:104A0000F80100851185E5CF1F920F920FB60F9226
:104A100011248F939F938091E1009091E100937F07
:104A20009093E10083FF0FC01092E90091E0909312
:104A3000EB001092EC0092E39093ED00109281064F
:104A400098E09093F00082FF20C093E09093E900FB
:104A50009091F200992319F09AE39093E8009091D5
:104A60007E06992339F090917E06915090937E06B0
:104A7000992389F190918006992339F090918006CD
:104A8000915090938006992341F184FF10C080914A
:104A9000E2008E7E81608093E2008091E1008F7E53
:104AA0008093E10080917F068E7E806111C080FF3F
:104AB00016C08091E2008E7E80618093E20080913A
:104AC000E1008E7E8093E10080917F068E7E816082
:104AD00080937F0604C05D9ACDCF289AD6CF9F9150
:104AE0008F910F900FBE0F901F9018951F920F92ED
:104AF0000FB60F921124CF92DF92EF92FF920F9395
:104B00001F932F933F934F935F936F937F938F9355
:104B10009F93AF93BF93EF93FF93CF93DF93CDB763
:104B2000DEB76C97DEBFCDBF1092E9008091E80040
:104B300083FFEDC168E0CE0145960E94A12482EF7B
:104B40008093E8008D8987FF05C09091E80090FF71
:104B5000FCCF03C09EEF9093E800982F907609F069
:104B6000C6C09E892F89188D91110CC0803829F4F8
:104B70008091E8078093F10002C01092F10010923A
:104B8000F10048C1422F50E0512B913051F4811176
:104B900041C14130510509F03DC18091E8078D7F49
:104BA0000BC0933061F4811135C14130510509F0DA
:104BB00031C18091E80782608093E8072BC195306E
:104BC00041F48091E80080FFFCCF20682093E3004F
:104BD00021C1963009F05FC0EB8CFC8C1092E9008B
:104BE0001092EC071092EB07123091F51092EA0741
:104BF0001092E9070E94D22499E0BE016F5F7F4FB7
:104C0000DB01E92F1D92EA95E9F799831A8391E078
:104C10009E8390EA98879AEF99872091EB073091CD
:104C2000EC07275F3F4F3C832B838D831092E90075
:104C30001092EC071092EB07F092EA07E092E90776
:104C400049E050E080E00E947A240E94D224E2C031
:104C5000F092EA07E092E9070E94E123DC01129654
:104C6000ED90FC901397E114F10409F4C0C0D70152
:104C7000ED91FC910480F581E02DBE016B5E7F4FCC
:104C8000C7010995009719F00CF0C4C0C7C0F7011F
:104C9000E084F184E8CF973009F4C0C0983021F463
:104CA00081E08093F100B6C0993009F0B3C0837001
:104CB00009F0B4C0E0EFF1E081E021E036E390815B
:104CC000992361F08093E9002093EB0091919093F8
:104CD000EC003093ED008F5F873089F78EE780938B
:104CE000EA001092EA008F898093810693C08B8D31
:104CF0009C8D1092E9001092EC071092EB079093B4
:104D0000EA078093E907898D811156C08E899D89B4
:104D1000913A59F4813209F081C047E050E060E0F7
:104D200071E080E00E947A2475C0913209F076C06B
:104D3000833289F4888D90E0982F88272F89822BE1
:104D4000A0E0B0E08093080190930901A0930A01CC
:104D5000B0930B015FC0803269F48091E80082FF5C
:104D6000FCCF67E080E091E00E94A1248BEF80936C
:104D7000E80006C0823209F04DC08F898093070198
:104D80008091E707882319F0EEEFFAE002C0E0E037
:104D9000F8E08091000190910101A0910201B09191
:104DA0000301803B9440A105B10509F07BC08091CF
:104DB000070180FF93C076C00E94E123DC011296B8
:104DC0000D911C9113970115110541F1D801ED9139
:104DD000FC910190F081E02DBE016B5E7F4FC80118
:104DE0000995811117C0F80100851185ECCF1130AC
:104DF00009F44EC0133091F48F89882309F445C01B
:104E0000823081F440E860E18DEB97E00E943D2420
:104E1000882321F08EEF8093E80079C081E28093AF
:104E2000EB0075C0813029F440E86BE081EB97E03E
:104E3000EDCF833099F70E94E123DC011296ED90CB
:104E4000FC9013978E010F5F1F4F6801E114F1046E
:104E500079F0D701ED91FC910680F781E02DB80142
:104E6000C7010995080F111DF701E084F184EECF09
:104E7000D8011C92F60101900020E9F73197BF019B
:104E80006C197D0940E0C601C1CF6BE977E002C033
:104E90006FE977E06115710509F2FB01449150E07B
:104EA00080E840CF0FB6F894A895809160008861A3
:104EB00080936000109260000FBEA895EE3F2AE03C
:104EC000F20739F08091FE0A9091FF0A9183808366
:104ED000A1CF1092FF0A1092FE0A9CCFEE3F8AE00B
:104EE000F80731F0808191819093FF0A8093FE0A48
:104EF00087E797E7918380839BE088E10FB6F8947A
:104F0000A895809360000FBE9093600083CF6C964D
:104F10000FB6F894DEBF0FBECDBFDF91CF91FF91EA
:104F2000EF91BF91AF919F918F917F916F915F9121
:104F30004F913F912F911F910F91FF90EF90DF9034
:104F4000CF900F900FBE0F901F901895CF93C82F42
:104F5000843690F466E472E080916F029091700262
:104F60000E949B19CA3040F466E472E080916F029F
:104F7000909170020E949B194C2F50E060E070E00D
:104F80002AE080916F0290917002CF910C94521997
:104F9000BF92CF92DF92EF92FF920F931F93CF9326
:104FA000DF93142FF22EB02EC62ED12CC82FD0E0B6
:104FB00082E0E82EE00E80916F0290917002022F45
:104FC000242FA601BE0104960E941F230CEF0F0D93
:104FD0002CEF210FA6014E5F5F4FBE016E5F7F4F2A
:104FE00080916F0290917002CC24C394EB2C0496B4
:104FF0000E949D1EDF91CF911F910F91FF90EF9026
:10500000DF90CF90BF900895BF92CF92DF92EF9242
:10501000FF920F931F93CF93DF9300916D02109136
:105020006E02E801CE5BDF4F888190E0019667E079
:1050300070E00E94B9338883892B69F180916D02F9
:1050400090916E02DC01AD5BBF4FFC01EB5BFF4F4B
:1050500020812C931196EC01CA5BDF4F28812C93A1
:1050600012972C91DC01A20FB11DDB968C918083ED
:105070000E945E3024E030E040E050E00E94823048
:105080006883DF91CF911F910F91FF90EF90DF9098
:10509000CF90BF900895055C1F4F87E0C82ED12C9C
:1050A000E12CF12C0E945E30A70196010E94823013
:1050B0000E9494310E94CF31BA900E946331F8016E
:1050C000E60FF11D80818883B08281E0C81AD10883
:1050D000E108F108C017D10729F7B0CF8F929F924E
:1050E000AF92BF92CF92DF92EF92FF920F931F93F6
:1050F000CF93DF93C0916D02D0916E02A0E0B0E03B
:105100006F5F8F5FC12CD12C7601C3949A2FEA2F49
:10511000E695E695E60FE7FD38C08A010A2E02C043
:10512000169507950A94E2F700FF2FC09370980F29
:10513000F0E0EE0FFF1FEC0FFD1F223059F4018449
:10514000F285E02D02C0F695E7959A95E2F7E0FF2B
:105150001CC022C04601570104C0880C991CAA1C1F
:10516000BB1C9A95D2F7222339F001851285802A3B
:10517000912A9286818609C05401A094B094018539
:1051800012850A211B21128701871196A031B105D2
:1051900009F0BCCF81E001C080E0DF91CF911F9189
:1051A0000F91FF90EF90DF90CF90BF90AF909F90C6
:1051B0008F900895CF93DF93CDB7DEB72B970FB6BF
:1051C000F894DEBF0FBECDBF789484B5826084BDF5
:1051D00084B5816084BD85B5826085BD85B58160FB
:1051E00085BD80916E00816080936E001092810079
:1051F0008091810082608093810080918100816034
:1052000080938100809180008160809380008091F4
:1052100091008260809391008091910081608093E1
:105220009100809190008160809390008091C100F6
:1052300084608093C1008091C10082608093C1002E
:105240008091C10081608093C1008091C300816022
:105250008093C3008091C00082608093C0008091E1
:10526000C20081608093C20080917A008460809344
:105270007A0080917A00826080937A0080917A002F
:10528000816080937A0080917A00806880937A00B0
:10529000109281061092E80710927F068091D70045
:1052A00081608093D70080EA8093D80089B58061BF
:1052B00089BD89B5826089BD09B400FEFDCF61E07A
:1052C00070E080E090E00E94E6198091D8008F7C29
:1052D00080618093D8008091E000807F8093E0001F
:1052E0008091E1008E7E8093E1008DE08093E2006A
:1052F000559A209AEEEFFFE7859194918B3F9C4D54
:1053000019F481E08093E7078DE891E090935502CE
:105310008093540281E890E0909357028093560264
:105320008AE092E1909359028093580286E891E0D6
:1053300090935B0280935A0288E791E090935D021C
:1053400080935C0281E791E090935F0280935E021C
:105350008EE99DE0909361028093600281E791E085
:10536000909363028093620282E691E090936502DB
:105370008093640281E692E09093670280936602D4
:105380008DEB98E090936902809368028BE591E041
:1053900090936B0280936A0280E890E00E946C30E8
:1053A000803771F581EC80937C0085B1806F85B981
:1053B00084B1877E84B984B1876E84B95E9A5F9820
:1053C0008AB1806D8AB9769A6E9881B3806F81BBFD
:1053D000899880B38D7080BB80E58CBD81E08DBDE8
:1053E00085E090E00E94761A5F9A85E090E00E9446
:1053F000761A5E985C98ECE3F1E08DE08E0F29C0A0
:1054000080E890E09A83898360E7CE0101960E944C
:10541000AA1180EFE4E8F6E0DF011D928A95E9F732
:1054200080915602909157020E94272180915E023E
:1054300090915F020E9427218091660290916702FD
:105440000E942721AFCF0DB407FEFDCF31968E17F6
:1054500021F094919EBD0000F6CF5C9A81E8809384
:105460006400809165008160809365000E947B1AD2
:1054700087FF13C05C9885EA8EBD00000DB407FE5F
:10548000FDCF5C9A2E982F982D98809164008062B1
:10549000809364000E94831AFDCF02E010E00E9416
:1054A0007B1A82FF40C02D980E947B1A8478843832
:1054B000C1F00E947B1A8471843181F52D9A88ECA9
:1054C00090E00E94761A2E981A83098360E0CE013C
:1054D00001960E94AA1184EF91E00E94761A2E9AFA
:1054E00018C02D9A88EC90E00E94761A2F981A83A3
:1054F00009836FEFCE0101960E94AA1184EF91E01B
:105500000E94761A2F9A0E947B1A84788438D9F3E5
:10551000D0CF0E947B1A84718431D9F388EC90E05B
:105520000E94761ABCCF2D9A81E280937F0784E790
:1055300097E00E94E31A4EEE842E99249A9456E046
:10554000C52ED12C66EF662E77247A94F12C1A861C
:1055500075E3A72EB12CE9E22E2E312C0E947B1A86
:105560008111E6C288E797E00E948F1F8823B1F37C
:10557000BA85B23009F497C028F4BB2359F0B13092
:1055800021F154C1EA85E33009F4C6C0E43009F4DE
:1055900010C14CC181E00E94502101E02AE0A60127
:1055A0006EE170E088E797E00E949D1D25E0A6016E
:1055B000465F5F4F6EE170E088E797E00E94951CC0
:1055C000FAE0FF1508F43CC16CC000E02AE0A60137
:1055D0006EE170E088E797E00E949D1DA601465F9E
:1055E0005F4F25E06EE170E088E797E00E94951C30
:1055F000FF9C20011124620126E0C20ED11C3CE276
:10560000C316D104DCF180E00E94502101E02AE0C1
:105610004BE250E06EE170E088E797E00E949D1D4C
:1056200021E045E065E370E08EE190E00E94881A99
:10563000309284072092830788E090E09093860759
:105640008093850762E571E084E797E00E949D19E9
:105650003092840720928307A2E1B0E0B0938607DE
:10566000A093850769E471E084E797E00E949D19A3
:10567000C12CD12CF12CB2E0BA87DDC001E02AE0C8
:10568000A6016EE170E088E797E00E949D1DA201EF
:10569000405F5F4F25E06EE170E088E797E00E9491
:1056A000951CF394C8C0E2E0EF15C0F06F2D70E0D8
:1056B0002DEF2603A001279F500D11244C5C5F4F56
:1056C0006E5C7F4F01E023E088E797E00E949D1D1C
:1056D00040E066E370E082E390E018C036E03F15FA
:1056E000C0F083E0F89EA00111244E5D5F4F6F2D46
:1056F00070E06E5C7F4F01E023E088E797E00E9456
:105700009D1D40E066E370E088E390E00E94CB1AC4
:10571000C8CF93E09A87C5CFE12C05E310E02AE4D7
:1057200030E0A5014C195D096AE470E0661977095B
:1057300088E797E00E94041F6814790454F4AFEFDF
:105740006A1A7A0AC301880F991F0196880D991D5C
:1057500001C0C401C814D90464F0BFEFCB1ADB0A3E
:105760004601880C991CEFEF8E1A9E0A880E991E2E
:1057700001C04C01EE24E39405E310E02AE430E09C
:10578000A5014C195D096AE470E06619770988E79C
:1057900097E00E94041F77FC4EC021E045E06BE2D9
:1057A00070E088E490E00E94881AF12CF4E0FA8717
:1057B00042C08F2D6AE00E948B33492F50E0455D37
:1057C0005F4F21E06DE570E088E797E00E94A21C42
:1057D0008F2D65E00E948B33092F10E0035A1F4F75
:1057E00021E04BE250E0B80188E797E00E94A21C5C
:1057F00024E02F1598F421E040E350E0B80188E759
:1058000097E00E94A21C39E03F1540F421E045E3F7
:1058100050E0B80188E797E00E94A21CF3948FE063
:105820008F1548F4F12CA5E0AA8705C09EE19F15CD
:1058300008F037CF7DC188E797E00E94181B8ECE15
:10584000F12CB1E0BA878ACE82E390E00E94761A0A
:105850000E947B1A8111F8CF02E0802E912C8CE4FB
:10586000482E512C93E0692E712C8985882309F4E8
:1058700061C1809164008E7F8093640080917A0082
:10588000806480937A0080917A0086FDFCCF00913D
:105890007800109179000E94C11920E030E0980151
:1058A00011270027600F711F821F931F611571055B
:1058B0008105910511F00E94633080916400816040
:1058C0008093640000916C0228E0029F8001112403
:1058D000F801EC5AFD4F82819381F4E8CF2EF6E077
:1058E000DF2EDC01A458B6405D01C5018C0D9D1D65
:1058F0000E946C30F60181936F01F4E7CF16F7E058
:10590000DF0699F70E947B1A85FF07C080EFE4E865
:10591000F6E0DF011D928A95E9F7F801EC5AFD4F98
:105920000480F581E02D9E012F5F3F4F79018E01AC
:105930000B5F1F4F285F3F4F40E064E876E084E74D
:1059400097E0099522242A94322C210162E0A62EA8
:10595000B12C74E1872E912CE7E36E2E712C84E735
:1059600097E00E94E31A40E460E888E797E00E942D
:105970001822B0928407A0928307B0928607A09263
:105980008507E0916C0238E0E39FF0011124EC5AA6
:10599000FD4F6081718184E797E00E949D1921E0AD
:1059A00040E86AE070E080E090E00E94881AEE240F
:1059B000E39408E028E04EEF51E06CE070E08CE307
:1059C00090E00E94281B09811A812B813C81C12C07
:1059D0004DE065E484E797E00E949007898588237D
:1059E00009F489C1E0916C02B8E0EB9FF001112449
:1059F000EC5AFD4F46815781EE24E39407E027E0FF
:105A000060E270E08DE390E00E94281B8985882386
:105A100009F46DC20D811E812F81388587E0C82E63
:105A20004DE060E284E797E00E949007EE24E39463
:105A300007E027E040E252E067E370E082E090E0B8
:105A40000E94281B27E04EEA51E067E370E082E401
:105A500090E00E94281BECE4F0E0F0938407E093D0
:105A60008307709286076092850769EA71E084E790
:105A700097E00E949D1988E797E00E948F1F882376
:105A8000D1F388E797E00E940D1B2CE030E03093C3
:105A90008407209383077092860760928507898523
:105AA00081112EC26BE971E084E797E00E949D1995
:105AB00068E088E797E00E94031B882309F42CC262
:105AC0008985811124C251E029803A804B805C8015
:105AD000E0916C0238E0E39FF0011124EC5AFD4F95
