:100000000C948C040C94B4040C94B4040C94B404B8
:100010000C94B4040C94B4040C94B4040C94B40480
:100020000C94B4040C94B4040C94C10D0C94040FFF
:100030000C94B4040C94B4040C94B4040C94B40460
:100040000C94B4040C9492080C94B4040C94B4046E
:100050000C94B4040C94B4040C94B4040C94A5074C
:100060000C94B4040C94B4040C94B4040C94B40430
:100070000C94B4040C94B4040C94B4040C94B40420
:100080000C9430090C94B4040C94B4040C94B4048F
:100090000C94B4040C94B4040C94B4040C94B40400
:1000A0000C94B4040C94B4040C94B4045F0662067B
:1000B00051065506590683068306830666066A06B8
:1000C0006E067406780683067E06FA06FF060407A7
:1000D0000E07180762076207620722072C07360718
:1000E00040074D07620755071F1F1B1F1F1F1115D4
:1000F000111F18161116181F1111111F1B1D141F87
:1001000015151F141D1B1B151C151B1F1D14051772
:100110001705141D1F1F1504151F1E1F171617176F
:1001200016171F1E1F1614161F1F1F171C17171C2C
:10013000171F1F1F171C171F1F1F171F17171F170A
:100140001F1F1F171F171FF0F89C8E8783878E9C19
:10015000F8F00000FEFF0303030303070EFCF800A2
:1001600000FEFF0303030303070EFCF80000FFFF7C
:1001700000000000000000FFFF0000FEFF838383FB
:100180008383C7EE7C380000F8FC0E0703030307E7
:100190000EFCF800003F7FE0C08080C0E07F3FFFA2
:1001A000FF01010101010101FFFF0000FFFF0C0C35
:1001B0000C0C1C3E77E3C100007FFFC0C0C0C0C074
:1001C000E0703F1F00001F3F70E0C0C0C0E0703F04
:1001D0001F00007FFFC1C1C1C1C1E3773E1C000009
:1001E0001F3F70E0C0C0C0E0703F1F000000000073
:1001F00001FFFF0100000000000000240027002A8A
:10020000002D003000D5F08D14A1C881CFD9F1AFF9
:100210002000140213021202150207020802040150
:100220000C010601007F3E1C08081C3E7F1F0E04C7
:10023000040E1F44AA1144AA1144AA1144AA11444D
:10024000AA1144AA1144AA1144AA1111AA4411AA3C
:100250004411AA4411AA4411AA4411AA4411AA445F
:1002600011AA4400000000003E5B4F5B3E3E6B4F16
:100270006B3E1C3E7C3E1C183C7E3C181C577D5738
:100280001C1C5E7F5E1C00183C1800FFE7C3E7FFE4
:100290000018241800FFE7DBE7FF30483A060E2677
:1002A00029792926407F050507407F05253F5A3CCF
:1002B000E73C5A7F3E1C1C08081C1C3E7F14227F12
:1002C00022145F5F005F5F06097F017F00668995EA
:1002D0006A606060606094A2FFA29408047E0408D3
:1002E00010207E201008082A1C08081C2A08081E56
:1002F000101010100C1E0C1E0C30383E3830060E3C
:100300003E0E06000000000000005F000000070035
:100310000700147F147F14242A7F2A1223130864F1
:100320006236495620500008070300001C22410095
:100330000041221C002A1C7F1C2A08083E080800D5
:100340008070300008080808080000606000201075
:100350000804023E5149453E00427F40007249492F
:1003600049462141494D331814127F102745454510
:10037000393C4A4949314121110907364949493631
:10038000464949291E0000140000004034000000C6
:1003900008142241141414141400412214080201F8
:1003A0005909063E415D594E7C1211127C7F494924
:1003B00049363E414141227F4141413E7F494949C1
:1003C000417F090909013E414151737F0808087FB7
:1003D00000417F41002040413F017F081422417FBE
:1003E000404040407F021C027F7F0408107F3E4156
:1003F00041413E7F090909063E4151215E7F0919AD
:100400002946264949493203017F01033F404040C4
:100410003F1F2040201F3F4038403F6314081463B3
:1004200003047804036159494D43007F414141026F
:1004300004081020004141417F04020102044040B1
:10044000404040000307080020545478407F28446F
:1004500044383844444428384444287F3854545459
:100460001800087E090218A4A49C787F0804047868
:1004700000447D40002040403D007F1028440000A3
:10048000417F40007C047804787C08040478384478
:10049000444438FC1824241818242418FC7C08042C
:1004A0000408485454542404043F44243C4040204D
:1004B0007C1C2040201C3C4030403C4428102844F8
:1004C0004C9090907C4464544C44000836410000A9
:1004D00000770000004136080002010204023C26B9
:1004E00023263C1EA1A161123A4040207A38545480
:1004F0005559215555794121545478412155547805
:100500004020545579400C1E527212395555555998
:10051000395454545939555454580000457C4100BD
:1005200002457D420001457C40F0292429F0F02855
:100530002528F07C545545002054547C547C0A09ED
:100540007F4932494949323248484832324A48485C
:10055000303A4141217A3A42402078009DA0A07D66
:1005600039444444393D4040403D3C24FF24244824
:100570007E4943662B2FFC2F2BFF0929F620C088CC
:100580007E090320545479410000447D413048489D
:100590004A32384040227A007A0A0A727D0D1931B7
:1005A0007D2629292F28262929292630484D402013
:1005B000380808080808080808382F10C8ACBA2FEF
:1005C000102834FA00007B000008142A1422221498
:1005D0002A14089500220095AA005500AAAA55AA37
:1005E00055AA000000FF00101010FF00141414FFA3
:1005F000001010FF00FF1010F010F0141414FC0095
:100600001414F700FF0000FF00FF1414F404FC149E
:100610001417101F10101F101F1414141F00101097
:1006200010F0000000001F101010101F101010100C
:10063000F010000000FF101010101010101010FF2C
:1006400010000000FF140000FF00FF00001F101743
:100650000000FC04F414141710171414F404F4002C
:1006600000FF00F714141414141414F700F71414F2
:1006700014171410101F101F141414F4141010F079
:1006800010F000001F101F0000001F14000000FCED
:10069000140000F010F01010FF10FF141414FF14D9
:1006A0001010101F00000000F010FFFFFFFFFFF010
:1006B000F0F0F0F0FFFFFF0000000000FFFF0F0F61
:1006C0000F0F0F38444438447C2A2A3E147E02021D
:1006D0000606027E027E0263554941633844443C6B
:1006E00004407E201E2006027E020299A5E7A599FD
:1006F0001C2A492A1C4C7201724C304A4D4D303034
:1007000048784830BC625A463D3E494949007E011E
:1007100001017E2A2A2A2A2A44445F444440514A3D
:10072000444040444A51400000FF0103E080FF0084
:100730000008086B6B083612362436060F090F06C0
:10074000000018180000001010003040FF010100E8
:100750001F01011E00191D1712003C3C3C3C00000B
:1007600000000006011501260137014A015D0172F2
:100770000188019F01B801D201EE010B022A024B50
:10078000026E029302BA02E40210033F037003A454
:1007900003DC03170455049704DD0427057505C819
:1007A0000520067D06E0064907B8072D08A9082D93
:1007B00009B9094D0AEA0A900B400CFA0CC00D91D8
:1007C0000E6F0F5A1053115B1272139A14D4152026
:1007D000178018F519801B231DDE1EB420A622B534
:1007E00024E4263429A72B402E0031EA3300374574
:1007F0003ABC3D68414C456B49C84D68524F5780E3
:100800005C006210111213151617181A1C1D1F21F7
:10081000232527292C2E3134373A3E4145494E5263
:10082000575C62686E757B838B939CA5AFB9C4D00F
:10083000DCE9F70000000200090F000003040100DA
:100840000C0000000000000000000000000000009C
:1008500000000408020110408040102040804080C9
:100860000802040180402010020110801020404046
:100870002000000000250028002B002E003100047D
:100880000404040403040502020202040302020237
:100890000206060606060604040202020404030118
:1008A000080B00020202010009040000010202001C
:1008B000000524001001052401010104240206059D
:1008C000240600010705810310004009040100020D
:1008D0000A000000070502024000000705830240ED
:1008E00000000403090412010002EF020140412349
:1008F000368000010102030141726475696E6F2048
:100900004C4C430041726475696E6F204C656F6E8C
:100910006172646F0000C01A11241FBECFEFDAE0CD
:10092000DEBFCDBF11E0A0E0B1E0E6E9F8E302C030
:1009300005900D92AA37B107D9F728E0AAE7B1E0F0
:1009400001C01D92A838B207E1F714E0CCE8D4E06A
:1009500004C02197FE010E942A1CCB38D107C9F799
:100960000E9434110C94491C0C940000CF92DF9229
:10097000EF92FF920F931F93CF93DF936C017A0155
:100980008B01C0E0D0E0CE15DF0589F0D8016D9174
:100990008D01D601ED91FC910190F081E02DC60111
:1009A0000995892B11F47E0102C02196ECCFC70175
:1009B000DF91CF911F910F91FF90EF90DF90CF903B
:1009C00008953FB7F8948091FB039091FC03A091A8
:1009D000FD03B091FE0326B5A89B05C02F3F19F07B
:1009E0000196A11DB11D3FBFBA2FA92F982F8827AF
:1009F000820F911DA11DB11DBC01CD0142E0660F0A
:100A0000771F881F991F4A95D1F708952F923F921B
:100A10004F925F926F927F928F929F92AF92BF920E
:100A2000CF92DF92EF92FF920F931F93CF93DF93BA
:100A300000D000D000D0CDB7DEB76A3091F4FC0111
:100A4000E85EFB4F408132972081318158E0459F1D
:100A5000200D311D112431832083329711821082A1
:100A6000E4C06D3009F4E1C0FC01E85EFB4FD080CA
:100A70003297608071801C017CEE271A7BEF370A69
:100A8000D1012D913C910D2D10E0203831057CF0E5
:100A9000B6E0DB9E200D311D1124F101318320834E
:100AA000FC01E75EFB4F4081411194C0BEC0F0E401
:100AB0006F1671046CF7A90175E0D79E400D511DAA
:100AC00011241416150624F7A80173E0440F551FCE
:100AD0007A95E1F7460D571D14161506CCF6E5E09C
:100AE0006E9FD0011124BA83A983490160E070E0B0
:100AF00044244394512C6530710541F0E981FA8119
:100B0000E60FF71FED59FD4FE49101C0E0E05301FE
:100B1000F8E04E2F4170C42E9C828B824B81481985
:100B20004D1508F048C0A501F42EB42FBA19BD1513
:100B3000D8F5AB81BC81A038B10598F5403451059A
:100B400080F5AF2DA695A695A695EA2EF12CDA0193
:100B5000A770BB27BE83AD83D701B695BA2FAA274E
:100B6000B795A795EB80FC80AE0DBF1DA80FB91FF0
:100B700072010D8002C0EE0CFF1C0A94E2F7FE82A7
:100B8000ED82CC2031F05496FC905497ED80EF2804
:100B900006C0ED80E0945496FC905497EF20549654
:100BA000EC924F5F5F4FC0CF4B815C814F5F5F4FD7
:100BB0005C834B83B3CFE695F150A00EB11EF111CB
:100BC000A8CF6F5F7F4F800E911E6630710509F0D0
:100BD00092CF5ECF6AEF6003A001619F500D112498
:100BE00040585F4F4217530704F5DC01ED91FC912B
:100BF0000190F081E02D6AE026960FB6F894DEBFF2
:100C00000FBECDBFDF91CF911F910F91FF90EF905D
:100C1000DF90CF90BF90AF909F908F907F906F901C
:100C20005F904F903F902F90099426960FB6F894BE
:100C3000DEBF0FBECDBFDF91CF911F910F91FF900F
:100C4000EF90DF90CF90BF90AF909F908F907F906C
:100C50006F905F904F903F902F900895089580E09F
:100C600090E008950E94441C362F90E0FC01ED5C5A
:100C7000F74F4491FC01EE5AF74F2491FC01E158E3
:100C8000F74F8491882309F451C04423E1F150E0E7
:100C9000FA013197EF30F105B0F5EA5AFF4F0C94A5
:100CA0002A1C909180009F7707C0909180009F7DC3
:100CB00003C090918000977F9093800024C094B5EA
:100CC0009F7702C094B59F7D94BD1DC09091900008
:100CD0009F7707C0909190009F7D03C090919000F6
:100CE000977F909390000FC09091C0009F7703C0B2
:100CF0009091C0009F7D9093C00005C09091C2006C
:100D0000977F9093C200E82FF0E0EE0FFF1FEF589F
:100D1000F74FA591B4918FB7F894EC91311103C0BE
:100D200020952E2301C02E2B2C938FBF0895CF9397
:100D3000DF9390E0FC01EE5AF74F2491FC01E1585B
:100D4000F74F8491882361F190E0880F991FFC018F
:100D5000E950FE4FC591D491FC01EF58F74FA59192
:100D6000B491611109C09FB7F894888120958223BE
:100D70008883EC912E230BC0623061F49FB7F89406
:100D80003881822F809583238883EC912E2B2C939E
:100D90009FBF06C08FB7F894E8812E2B28838FBFA2
:100DA000DF91CF9108951F93CF93DF93182FEB011D
:100DB00061E00E949706209711F460E004C0CF3FE5
:100DC000D10539F461E0812FDF91CF911F910C940F
:100DD0003406E12FF0E0ED5CF74FE4914E2F50E048
:100DE000FA013197EF30F10508F06CC0EB59FF4F75
:100DF0000C942A1C84B5806884BDC7BD68C084B5C6
:100E0000806284BDC8BD63C080918000806880938B
:100E10008000D0938900C093880059C080918000E1
:100E2000806280938000D0938B00C0938A004FC073
:100E300080918000886080938000D0938D00C09363
:100E40008C0045C080919000806880939000D09382
:100E50009900C09398003BC080919000806280937D
:100E60009000D0939B00C0939A0031C08091900075
:100E7000886080939000D0939D00C0939C0027C011
:100E80008091C00080688093C0008091C0008F7BFB
:100E90008093C000C093CF001AC08091C0008062D0
:100EA0008093C000C093D00012C08091C2008860BF
:100EB0008093C2008091C2008B7F8093C200C09358
:100EC000D20005C0C038D1050CF07CCF76CFDF91C1
:100ED000CF911F9108958F929F92AF92BF92CF9220
:100EE000DF92EF92FF926B017C010E94E1044B01C3
:100EF0005C01C114D104E104F104F1F00E94E104A9
:100F0000DC01CB0188199909AA09BB09883E9340E5
:100F1000A105B10570F321E0C21AD108E108F1087A
:100F200088EE880E83E0981EA11CB11CC114D10468
:100F3000E104F10419F7DDCFFF90EF90DF90CF903F
:100F4000BF90AF909F908F9008951F920F920FB611
:100F50000F9211242F933F938F939F93AF93BF933F
:100F600080917B0190917C01A0917D01B0917E01E7
:100F70003091FA0323E0230F2D3720F40196A11DB1
:100F8000B11D05C026E8230F0296A11DB11D2093B7
:100F9000FA0380937B0190937C01A0937D01B09331
:100FA0007E018091FB039091FC03A091FD03B09121
:100FB000FE030196A11DB11D8093FB039093FC03DA
:100FC000A093FD03B093FE03BF91AF919F918F91CA
:100FD0003F912F910F900FBE0F901F9018958FB1DA
:100FE0002CB193B130E02095309520743327A901BE
:100FF00023E0559547952A95E1F7292F30E0209574
:101000003095207133273595279535952795242BD5
:101010008095807F822B0895FC0121912EBD9C5FDD
:1010200021910DB407FEFDCF2EBDE817F907C1F7DA
:101030000DB407FEFDCF0895CF92DF92EF92FF929D
:101040000F931F93CF93E82FF0E0E256F74FC49130
:10105000E62FF0E0603330F4ED5FF74FE4910E2FB0
:1010600010E006C0EE0FFF1FED5FF84F05911491E1
:101070006801E12CF12C60E074E284EF90E0A701BC
:1010800096010E94B31BBA01A9014150510961099F
:1010900071094115510581E06807710580F060E92B
:1010A00070ED83E090E0A70196010E94B31BBA01A6
:1010B000A901415051096109710983E001C081E032
:1010C000C130C9F0C33031F590919100987F892BE0
:1010D0008093910050939900409398001093F903E6
:1010E0000093F80381E08093F703809171008260A0
:1010F000809371000FC090918100987F892B80931D
:101100008100509389004093880080916F00826035
:1011100080936F00CF911F910F91FF90EF90DF9020
:10112000CF9008951F920F920FB60F9211242F9314
:101130003F938F939F93AF93BF93EF93FF938091D0
:10114000F003882309F44DC08091EC039091ED03E6
:10115000A091EE03B091EF03892B8A2B8B2B51F1D9
:1011600080910504E0910604F0910704908189279D
:1011700080838091EC039091ED03A091EE03B091F8
:10118000EF03181619061A061B06A4F58091EC0346
:101190009091ED03A091EE03B091EF030197A109A7
:1011A000B1098093EC039093ED03A093EE03B09309
:1011B000EF0320C01092F00380916F008D7F809329
:1011C0006F0090910504E0910604F091070480817E
:1011D000282F30E0892F90E08095909582239323EB
:1011E00008C080910504E0910604F0910704908105
:1011F00089278083FF91EF91BF91AF919F918F914C
:101200003F912F910F900FBE0F901F901895E82FD0
:10121000F0E0E256F74FE491E13019F0E33069F085
:10122000089580916F008D7F80936F0090910504E9
:10123000E0910604F091070408C01092F703909122
:101240000204E0910304F09104048081282F30E02F
:10125000892F90E080959095822393238083089531
:101260001F920F920FB60F9211242F933F934F931B
:101270005F936F937F938F939F93AF93BF93EF93FE
:10128000FF938091F703882349F080910204E09155
:101290000304F091040490818927808380917A016E
:1012A000882309F493C08091F3039091F403A091F3
:1012B000F503B091F603892B8A2B8B2B09F486C09A
:1012C0008091F3039091F403A091F503B091F6039C
:1012D0000197A109B1098093F3039093F403A093BC
:1012E000F503B093F603892B8A2B8B2B09F06EC084
:1012F000E091F103F091F203BF016F5F7F4F7093B4
:10130000F2036093F1034491942F907F842F8F70A8
:10131000903819F40E940709EBCF903981F4329686
:10132000F093F203E093F103FB01649190910804C0
:101330008917F0F667FDDCCF0E941C08D9CF903EDC
:1013400029F41092F2031092F103D2CF903F19F4D6
:1013500010927A013BC097FDCBCF3296F093F20307
:10136000E093F103FB01249130E0342BA091F803CA
:10137000B091F9030E94071C6C507E4F8F4F9F4F16
:1013800028EE33E040E050E00E94E51B2093F30399
:101390003093F4034093F5035093F6038091F303E5
:1013A0009091F403A091F503B091F603892B8A2B59
:1013B0008B2B61F481E090E0A0E0B0E08093F30338
:1013C0009093F403A093F503B093F603FF91EF918C
:1013D000BF91AF919F918F917F916F915F914F914D
:1013E0003F912F910F900FBE0F901F9018952F9245
:1013F0003F924F925F926F927F928F929F92AF92A5
:10140000BF92CF92DF92EF92FF920F931F93CF93F1
:10141000DF9300D01F92CDB7DEB71092C4031092B5
:10142000C303611106C064E0C62ED12CE12CF12C5F
:1014300005C0C12CD12C34E0E32EF12C60917F014A
:1014400070918001342E360E2091810130918201FD
:10145000282E220E2A01460E571E6090C50370905A
:10146000C6038C01020F131F95E0892E912C48E1D1
:101470002AE0A22EB12C2091C3033091C4033B83F8
:101480002A832230310509F45CC0632D2A812C9D0A
:10149000600D1124822D2E9D800D112449830E9400
:1014A000050D4981882309F440C02A813B812C9D88
:1014B000C0012D9D900D3C9D900D1124840D951D16
:1014C000861997090497B4010E94161C9B016A8132
:1014D0007B816E9DC0016F9D900D7E9D900D1124AE
:1014E000800F911F0497B4010E94161C429FF001C7
:1014F000439FF00D1124E60FF71FEE0FFF1FED576E
:10150000FE4F20813181C901B5010E94161C03974D
:1015100061F4C9018D599F4F873C910530F42C59D6
:101520003F4F3183208381E001C080E02A813B81ED
:101530002F5F3F4F3093C4032093C303882309F4E4
:101540009ACF0F900F900F90DF91CF911F910F9135
:10155000FF90EF90DF90CF90BF90AF909F908F90D3
:101560007F906F905F904F903F902F900895FC0177
:1015700080910104811103C08FEF9FEF08959FB701
:10158000F89482E08093E9002091F20030E0121696
:10159000130614F421E030E02115310559F02898A4
:1015A00084E6809300048091F10080838091F200B2
:1015B000882319F09FBFC90108958BE68093E80046
:1015C000F9CF2FB7F89483E08093E9009091E80079
:1015D000892F807295FF04C09091F20080E4891BEE
:1015E0002FBF0895CF93DF931F92CDB7DEB76983E6
:1015F000DC01ED91FC910280F381E02D41E050E0AF
:10160000BE016F5F7F4F09950F90DF91CF910895D5
:1016100083E08093E9008091F200882319F08AE347
:101620008093E80008950E94E10A90E00895CF9326
:10163000DF931F92CDB7DEB7FC018485958597FDBA
:1016400005C02FEF3FEF358724870BC0CE010196F1
:101650000E94B70A019719F4898190E002C08FEFC8
:101660009FEF0F90DF91CF9108950F931F93CF932A
:10167000DF931F92CDB7DEB78C01FC018485958581
:1016800097FF0EC0CE0101960E94B70A019719F488
:10169000298130E002C02FEF3FEFF8013587248722
:1016A000F801848595850F90DF91CF911F910F915F
:1016B0000895FC018485958597FD0BC09FB7F8942C
:1016C00082E08093E9008091F2009FBF90E0019654
:1016D00008959FB7F89482E08093E9008091F2002A
:1016E0009FBF90E008958F929F92AF92BF92CF924A
:1016F000DF92EF92FF920F931F93CF93DF935C01E2
:101700006B017A0180910701882309F45BC0809105
:101710000104882309F456C08091FF0380FF05C0AF
:101720008091E00082608093E000E70110E00AEF22
:1017300083E0882E9AE3992E2097D9F10E94E10A3E
:1017400081110AC0015009F43DC061E070E080E001
:1017500090E00E946B07F0CF282F30E0C217D3072C
:101760000CF48C2F4FB7F8948092E9009091E80028
:1017700095FF1DC0282F30E0C21BD30BF601982F18
:10178000915020F081918093F100FACFC20ED31EC8
:10179000112319F09092E80009C08091E80085FDBE
:1017A00006C09092E80011E0209709F010E04FBFCA
:1017B000C3CF1111C3CF5D9884E6809323081E1414
:1017C0001F0444F081E090E0F5019383828380E080
:1017D00090E001C0C701DF91CF911F910F91FF9061
:1017E000EF90DF90CF90BF90AF909F908F90089533
:1017F0002F923F924F925F926F927F928F929F9221
:10180000AF92BF92CF92DF92EF92FF920F931F930E
:10181000CF93DF93CDB7DEB727970FB6F894DEBF2F
:101820000FBECDBFA22EB12C9C012A0D3B1D37FD52
:10183000C1C0803891050CF0BDC09B01200F311D47
:1018400037FDB8C0603471050CF0B4C0DB0177FF20
:1018500004C0AA27BB27A61BB70BA770BB279B01F9
:1018600077FF02C0295F3F4FF3E035952795FA9542
:10187000E1F777FF08C02150310968E070E04B01C3
:101880008A1A9B0AD401402E469446944694512CC1
:10189000077019F00FEF401A500AB9017695762FAC
:1018A000662777956795680F791F420E531EE12CC6
:1018B000F12CE8E0F0E04F018A1A9B0A9F828E82A9
:1018C0002415350509F476C02830310509F472C0B5
:1018D0002F3F0FEF30070CF463C03B0110E8610E9F
:1018E000711C8B0103561B4F6C011B821A828A806C
:1018F0009B808A149B040CF053C0E0E8CE16D10400
:1019000009F44EC0D7FC41C02F3FFFEF3F0709F459
:101910004EC0EA81FB81EE0DFF1DE40FF51FE4913F
:10192000480186189708860E971E2E2E312CF1013D
:101930000A2E02C0EE0FFF1F0A94E2F7FD83EC832C
:10194000F4012080EC81FD81E229FD83EC833C8061
:10195000F40130821097C9F027303105B1F0EA81E7
:10196000FB81EE0DFF1DE40FF51FE491F0E01F0178
:101970000E8002C0359427940A94E2F7F801908013
:10198000F101E9294F01F8018082EA81FB8131965A
:10199000FB83EA830F5F1F4FFFEFCF1ADF0AA7CF4A
:1019A0002F5F3F4FEA0CFB1C60587F4F89CF109789
:1019B000B1F6EBCF27960FB6F894DEBF0FBECDBFC2
:1019C000DF91CF911F910F91FF90EF90DF90CF901B
:1019D000BF90AF909F908F907F906F905F904F904F
:1019E0003F902F900895009769F0FC01019000202E
:1019F000E9F73197AF01481B590BBC0189E094E02E
:101A00000C94B60480E090E00895262F2695269544
:101A10002695677090E8299F90011124275F3B4F1E
:101A2000F901E80FF11D8489282F30E081E090E072
:101A3000062E02C0880F991F0A94E2F7822393238F
:101A400002C0959587956A95E2F7089520E08DE1AB
:101A500094E0B22FB111BFEFFC010024B193B19318
:101A6000B193B1930394D1F70895CF93DF939091FD
:101A70000804923009F46EC0C82F292F30E0F90114
:101A8000E256F74FD491F901E05DF74F80839F5FF5
:101A90009093080461E00E949706D13019F0D3308A
:101AA00039F158C01092800010928100809181001D
:101AB00088608093810080918100816080938100A3
:101AC0008C2F90E0FC01E158F74FE491F0E0EE0F2D
:101AD000FF1FEF58F74F259134913093070420935F
:101AE0000604FC01EE5AF74F84918093050432C03E
:101AF00010929000109291008091910088608093E4
:101B00009100809191008160809391008C2F90E0F2
:101B1000FC01E158F74FE491F0E0EE0FFF1FEF58A2
:101B2000F74F259134913093040420930304FC0172
:101B3000EE5AF74F84918093020480910804882321
:101B400021F06CE380E00E941C0880E0DF91CF91DF
:101B50000C940709DF91CF91089580912808811195
:101B60000DC082E08093240884E0809325081092C1
:101B700027081092260881E08093280884E298E0E4
:101B800008951F920F920FB60F9211248F939F9377
:101B90008091E1009091E100937F9093E10083FFB9
:101BA0000FC01092E90091E09093EB001092EC00CE
:101BB00092E39093ED001092010498E09093F0006E
:101BC00082FF20C093E09093E9009091F200992366
:101BD00019F09AE39093E80090912308992339F043
:101BE00090912308915090932308992389F1909123
:101BF0000004992339F090910004915090930004CF
:101C0000992341F184FF10C08091E2008E7E8160B3
:101C10008093E2008091E1008F7E8093E1008091CB
:101C2000FF038E7E806111C080FF16C08091E200AC
:101C30008E7E80618093E2008091E1008E7E8093B1
:101C4000E1008091FF038E7E81608093FF0304C0DA
:101C50005D9ACDCF289AD6CF9F918F910F900FBECE
:101C60000F901F90189540918608509187082091F9
:101C700084083091850842175307B4F49091E80026
:101C80009570E1F39091E80092FD19C08093F10006
:101C9000809186089091870801968F739927892BE8
:101CA00019F48EEF8093E800809186089091870860
:101CB0000196909387088093860881E0089580E0DC
:101CC0000895CF92DF92EF92FF920F931F93CF93DD
:101CD000DF931F92CDB7DEB7182F062FE42E862F85
:101CE000880F8E5F99830E94330E83E00E94330E2B
:101CF000F12EC12E9981D92E8C2D8F19801798F431
:101D0000F601E7FE02C0849101C080810E94330E7B
:101D1000182F80E00E94330E8123FFEFCF1ADF0AD5
:101D20008111EACF01C081E00F90DF91CF911F9127
:101D30000F91FF90EF90DF90CF900895DF92EF9298
:101D4000FF920F931F93CF93DF93D82E8A017B01CD
:101D5000E40EF51EEB01CE15DF0571F0D7FE03C0D2
:101D6000FE01849101C088810E94330E2196811169
:101D7000F2CF8FEF9FEF01C0C801DF91CF911F918C
:101D80000F91FF90EF90DF900895615030F0209117
:101D9000F100FC0120830196F8CF289884E6809317
:101DA000000408950F931F93CF93DF931F92CDB735
:101DB000DEB782E0898342E450E060EA78E080E8C0
:101DC0000E949E0E0E94AD0DDC0112960D911C9199
:101DD00013970115110569F0D801ED91FC9102806E
:101DE000F381E02DBE016F5F7F4FC801099597FF1A
:101DF00007C089810F90DF91CF911F910F910895B6
:101E0000F80100851185E5CF1F920F920FB60F9252
:101E10001124CF92DF92EF92FF920F931F932F9393
:101E20003F934F935F936F937F938F939F93AF9362
:101E3000BF93EF93FF93CF93DF93CDB7DEB76C974C
:101E4000DEBFCDBF1092E9008091E80083FFEDC1B5
:101E500068E0CE0145960E94C50E82EF8093E800AF
:101E60008D8987FF05C09091E80090FFFCCF03C0EB
:101E70009EEF9093E800982F907609F0C6C09E8957
:101E80002F89188D91110CC0803829F48091830816
:101E90008093F10002C01092F1001092F10048C14D
:101EA000422F50E0512B913051F4811141C141300A
:101EB000510509F03DC1809183088D7F0BC093309F
:101EC00061F4811135C14130510509F031C1809172
:101ED00083088260809383082BC1953041F4809100
:101EE000E80080FFFCCF20682093E30021C19630FA
:101EF00009F05FC0EB8CFC8C1092E900109287080F
:101F000010928608123091F510928508109284087C
:101F10000E94D20E99E0BE016F5F7F4FDB01E92F77
:101F20001D92EA95E9F799831A8391E09E8390EADE
:101F300098879AEF99872091860830918708275FC4
:101F40003F4F3C832B838D831092E90010928708CA
:101F500010928608F0928508E092840849E050E0EB
:101F600080E00E949E0E0E94D20EE2C0F092850890
:101F7000E09284080E94AD0DDC011296ED90FC9079
:101F80001397E114F10409F4C0C0D701ED91FC915D
:101F90000480F581E02DBE016B5E7F4FC70109957E
:101FA000009719F00CF0C4C0C7C0F701E084F184B9
:101FB000E8CF973009F4C0C0983021F481E08093D5
:101FC000F100B6C0993009F0B3C0837009F0B4C015
:101FD000E9E5F1E081E021E036E39081992361F0C9
:101FE0008093E9002093EB0091919093EC00309363
:101FF000ED008F5F873089F78EE78093EA001092BB
:10200000EA008F898093010493C08B8D9C8D109280
:10201000E9001092870810928608909385088093B3
:102020008408898D811156C08E899D89913A59F411
:10203000813209F081C047E050E060E071E080E06B
:102040000E949E0E75C0913209F076C0833289F4E9
:10205000888D90E0982F88272F89822BA0E0B0E010
:102060008093080190930901A0930A01B0930B019A
:102070005FC0803269F48091E80082FFFCCF67E0A6
:1020800080E091E00E94C50E8BEF8093E80006C0CF
:10209000823209F04DC08F898093070180918208B8
:1020A000882319F0EEEFFAE002C0E0E0F8E080915A
:1020B000000190910101A0910201B0910301803BC8
:1020C0009440A105B10509F07BC08091070180FF14
:1020D00093C076C00E94AD0DDC0112960D911C914B
:1020E00013970115110541F1D801ED91FC91019073
:1020F000F081E02DBE016B5E7F4FC8010995811113
:1021000017C0F80100851185ECCF113009F44EC0DD
:10211000133091F48F89882309F445C0823081F40B
:1021200040E860E184E099E00E94610E882321F09C
:102130008EEF8093E80079C081E28093EB0075C058
:10214000813029F440E86BE088EF98E0EDCF8330F0
:1021500099F70E94AD0DDC011296ED90FC9013975B
:102160008E010F5F1F4F6801E114F10479F0D70170
:10217000ED91FC910680F781E02DB801C70109952A
:10218000080F111DF701E084F184EECFD8011C92F5
:10219000F60101900020E9F73197BF016C197D0924
:1021A00040E0C601C1CF62EE78E002C066EE78E0A2
:1021B0006115710509F2FB01449150E080E840CFC0
:1021C0000FB6F894A89580916000886180936000B4
:1021D000109260000FBEA895EE3F2AE0F20739F09A
:1021E0008091FE0A9091FF0A91838083A1CF109283
:1021F000FF0A1092FE0A9CCFEE3F8AE0F80731F00A
:10220000808191819093FF0A8093FE0A87E797E788
:10221000918380839BE088E10FB6F894A895809322
:1022200060000FBE9093600083CF6C960FB6F89459
:10223000DEBF0FBECDBFDF91CF91FF91EF91BF9178
:10224000AF919F918F917F916F915F914F913F914E
:102250002F911F910F91FF90EF90DF90CF900F90F3
:102260000FBE0F901F901895CF93DF93CDB7DEB7B9
:10227000E8970FB6F894DEBF0FBECDBF789484B553
:10228000826084BD84B5816084BD85B5826085BD72
:1022900085B5816085BD80916E00816080936E0000
:1022A00010928100809181008260809381008091F2
:1022B00081008160809381008091800081608093A3
:1022C00080008091910082608093910080919100C4
:1022D0008160809391008091900081608093900054
:1022E0008091C10084608093C1008091C1008260B0
:1022F0008093C1008091C10081608093C100809172
:10230000C30081608093C3008091C000826080938D
:10231000C0008091C20081608093C20080917A00E9
:10232000846080937A0080917A00826080937A0042
:1023300080917A00816080937A0080917A00806831
:1023400080937A0010920104109283081092FF0388
:102350008091D70081608093D70080EA8093D80075
:1023600089B5806189BD89B5826089BD09B400FEE7
:10237000FDCF61E070E080E090E00E946B0780910B
:10238000D8008F7C80618093D8008091E000807FAE
:102390008093E0008091E1008E7E8093E1008DE0EB
:1023A0008093E200559A209AEEEFFFE78591949191
:1023B0008B3F9C4D19F481E0809382081FB7F894FD
:1023C0008091C803811127C0E0E9F8E08491E3E639
:1023D000F8E09491E82FF0E0EE0FFF1FE950FE4F78
:1023E000A591B491EC91E92321F461E081E10E948F
:1023F000340661E081E10E9497068CB580618CBD56
:102400008CB580648CBD61E08FE00E94970661E02E
:1024100080E10E9497068091C8038F5F8093C80374
:102420001FBF02E112E0F80184910E5F1F4F319649
:102430006491882319F00E949706F5CF61E086E049
:102440000E94340661E070E080E090E00E946B073B
:1024500060E086E00E9434066AE070E080E090E090
:102460000E946B0761E086E00E943406EBE8F8E02A
:10247000E491F0E0EE0FFF1FEF58F74F8591949134
:102480009093CE038093CD03EEE5F8E0E491E093E2
:10249000CC03E3E8F8E0E491F0E0EE0FFF1FEF5823
:1024A000F74F859194919093CB038093CA03E6E50F
:1024B000F8E0E491E093C9038CB58C7F8CBD8DB5B9
:1024C00081608DBDE091CD03F091CE03908180912C
:1024D000CC03982B9083A091CA03B091CB032C918D
:1024E0009091C903909592239C9390818095892324
:1024F0008083E5E0F2E002E0E231F00749F0849108
:102500008EBD00000DB407FEFDCF8EB53196F3CF22
:10251000E091CA03F091CB0390818091C903892B8C
:102520008083E091CD03F091CE0390818091CC0324
:10253000809589238083809164008160809364000A
:102540008091640082608093640080916400806860
:102550008093640080916400806480936400809123
:1025600065008160809365000E94EF0787FF1AC0B5
:1025700080E094E01EBC00000DB407FEFDCF2EB538
:102580000197C1F760E070E08AE00E94D30660E046
:1025900070E08BE00E94D30660E070E089E00E946A
:1025A000D306FFCFAEEEEA2EFF24FA9418E1CC2436
:1025B000CA94D12C812F8E19B601681B71098AE04B
:1025C0000E94D3066FEF70E08BE00E94D3066FEF9E
:1025D00070E089E00E94D3060E94260D00E128E504
:1025E00047E451E0B70184E190E00E94F80B8DE1EF
:1025F00094E00E940C086BE170E080E090E00E94A3
:102600006B0720EFE21206C06AEF70E080E090E016
:102610000E946B073FEFE31AF30A49E1E416F10465
:1026200049F66EEE72E080E090E00E946B076FEF7B
:1026300070E08AE00E94D3066FEF70E08BE00E94AA
:10264000D3066FEF70E089E00E94D30685E00E9418
:10265000350D8DE00E94350D10927A0182E090E0F8
:102660000E94AB1B882369F080916400877F809370
:10267000640080916500877F8093650081E080938E
:10268000C70380E090E00E94441B8CE380930F041A
:1026900080E1809312041092C4031092C30310923D
:1026A000D6031092D5031092EB031092EA03109216
:1026B000D2031092D1031092DF031092DE03109226
:1026C000E1031092E003EAE04E2E512CFAE02F2EA7
:1026D000312C8FB7F89440917B0150917C0160912F
:1026E0007D0170917E018FBF80911B04882389F04A
:1026F00080911304942F981B90931C0480911004D4
:1027000090911104019690931104809310041092FB
:102710001B048091170490911804A0911904B091A2
:102720001A04481759076A077B077CF4841B823018
:1027300008F4D7C583B7817F83BF83B7816083BF28
:10274000889583B78E7F83BFCCC5809112048A01A0
:102750009B01080F111D211D311D009317041093BB
:1027600018042093190430931A04409313045093CF
:102770001404609315047093160411E010931B0465
:102780000E94260D8091EA039091EB038130910520
:1027900009F484C01CF4892B49F090C5823091055E
:1027A00009F40CC5039709F41EC588C5E090E00341
:1027B000F090E10300E423E04BE452E060E070E0DD
:1027C000C70101960E94F80B23E043E352E060E06A
:1027D00070E08CE790E08E199F090E94F80BE09062
:1027E000DE03F090DF0386E08E9DF0018F9DF00DFB
:1027F0001124E45EFE4F4081518105E025E062E353
:1028000070E08EE390E00E94F80B23E040E352E09A
:1028100062E370E084E390E00E94F80B23E04DE275
:1028200052E062E370E089E490E00E94F80B0E94BD
:10283000EF0785FF5EC58091E90381115AC507E066
:1028400024E049E252E061E370E083E390E00E941B
:10285000F80BF1E0EF1AF108F092DF03E092DE03EB
:102860001093E9038091DE039091DF0397FF07C087
:1028700084E090E09093DF038093DE0306C0059729
:1028800024F01092DF031092DE030E94EF0787FF0F
:102890005DC58091E903811159C548C500E423E075
:1028A0004BE452E060E070E081E090E00E94F80BC1
:1028B00023E043E352E060E070E08CE790E00E94A8
:1028C000F80B1092C4031092C30315E078E1772E41
:1028D000E090C303F090C4038CE0E816F1040CF020
:1028E00061C01092D6031092D5031E9D50011F9D0A
:1028F000B00C112424E0A20EB11C7E9C40017F9CF0
:10290000900C1124C090D503D090D60348E1C41692
:10291000D1040CF03FC0F401EC0DFD1DEE0FFF1FC4
:10292000ED57FE4F208131812115310559F1C90143
:102930000197B2010E94161CFC01C90164E670E017
:102940000E94161C9C01CB0162E070E00E94161CE4
:10295000E80FF91FEE0FFF1FEC5EFE4F0190F081B4
:10296000E02DC901B2010E94161C6A0D7B1D1C9D41
:10297000C0011D9D900D112405E025E0AF010496D6
:102980000E94F80B3FEFC31AD30AD092D603C0922D
:10299000D503B8CF5FEFE51AF50AF092C403E092D1
:1029A000C30396CF9090D9039920B1F0E091D7035B
:1029B000F091D803EE0FFF1FEE5EFE4F4081518174
:1029C0006091DC037091DD0305E025E08091DA037E
:1029D0009091DB030E94F80BC0907F01D0908001A2
:1029E000E0908101F0908201E091DE03F091DF033D
:1029F000CF01880F991FE80FF91F8091D1039091A3
:102A0000D203E80FF91FEE0FFF1FE45EFE4F408177
:102A1000518105E025E0B601C7010E94F80B009145
:102A2000E7031091E8030F5F1F4F1093E803009333
:102A3000E70390E4C916D10424F081E08093E20317
:102A40006CC02091C5033091C603C6010196821B5C
:102A5000930B25E030E0B9010E94161C5B01C70111
:102A60000297B9010E94161C88E18A9DF0018B9D96
:102A7000F00D1124DF01A60FB71FAA0FBB1FAD5722
:102A8000BE4F8D919C91B2010E94161C823091051F
:102A9000A1F2892B31F5C701B9010E94161CDF0193
:102AA000A60FB71FAA0FBB1FAD57BE4F8D919C91AC
:102AB000B2010E94161C029709F4BFCFC701049708
:102AC000B9010E94161CE60FF71FEE0FFF1FED570E
:102AD000FE4F80819181B2010E94161C029709F479
:102AE000ACCFA4E0EA16F10409F4A7CFB7E7EB16E0
:102AF000F10409F4A2CFCA946C2D8E2D0E94050D0D
:102B0000813009F49ACF6C2D84E08E0D0E94050D62
:102B1000813009F492CF1092E203911063C080914A
:102B2000E5039091E603880F991F6DEF7FEF0E94F8
:102B3000161C635C7F4FC8010E94161C892B09F08C
:102B400094C00C3311050CF490C00E949D1B28E129
:102B500030E040E050E00E94B31B9B017093C4033F
:102B60006093C303660F771FFB01ED57FE4F808113
:102B70009181892B51F745E0429FC001439F900D01
:102B8000112404969093DB038093DA038BEF9FEF7D
:102B90009093DD038093DC0381E08093D9030E944E
:102BA0009D1B24E630E040E050E00E94B31B6530FE
:102BB0007105810591051CF483E090E00EC0693138
:102BC0007105810591053CF4E2E0F0E0F093D80353
:102BD000E093D7034AC081E090E09093D8038093BC
:102BE000D70343C00091C5031091C6032091DC03B5
:102BF0003091DD03C8010396821793073CF02F5FE5
:102C00003F4F3093DD032093DC032FC08091DA0324
:102C10009091DB03049745E0E42EF12CB7010E946C
:102C2000161CFB01C9010497801B910BB7010E9480
:102C3000161C28E1269FC001279F900D1124E80F44
:102C4000F91FEE0FFF1FED57FE4F2AE0209FC00136
:102C5000219F900D11242091D7033091D803820F2A
:102C6000931F918380831092D903C090E703D09083
:102C7000E803DAA6C9A6C60164E170E00E94161C4A
:102C80009CA78BA700918101109182011EA30DA327
:102C900020917F013091800138A72FA33091E2036A
:102CA0003AA33091D5032091D6036090C50370906C
:102CB000C6034DE0640E711CA12CB12C00E010E0A5
:102CC0000C30110509F4A6C0812C912CBDE0EB2E2F
:102CD000F12CE1E0F0E09801215031093AAB29AB49
:102CE000A301425151095CAB4BAB6401CA0CDB1C24
:102CF00096012D573E4F3CA32BA3D9012D913C911A
:102D0000C901B2010E94161C039709F06DC0C901E8
:102D10008D599F4F873C910508F466C02C3BB2E06B
:102D20003B0764F4CBA4DCA4CD2809F05DC02C598A
:102D30003F4FABA1BCA12D933C9356C049A95AA9C2
:102D40009F01225031093CA32BA320E030E0C601B3
:102D5000C0979EA78DA7D7015297B8ABAFA78BA1FD
:102D60009CA160E070E0CDA4DEA4C20ED31ED8AE5C
:102D7000CFAAE817F90784F14F3FBFEF5B0791F047
:102D80008F3FAFEF9A0771F04C30510559F0883101
:102D9000910541F0AFA9B8ADA60FB71FAF57BE4F11
:102DA0001D921C92CDA0DEA0AFA5B8A9CA16DB0665
:102DB0007CF0EC14FD0464F0CFA0D8A4ABA9BCA9AE
:102DC000CA16DB062CF06C147D0414F0B1E0BAA333
:102DD00001966E5F7F4FCDCF4F5F5F4F205D3F4FBE
:102DE0002039310509F0BBCF319622E0820E911CCB
:102DF00035E0E30EF11CE931F10509F076CF0F5F04
:102E00001F4F45E0640E711C50E3A50EB11C38E164
:102E100020E056CF3093D5032093D603EAA1E09368
:102E2000E2038090E5039090E60364EB70E068199C
:102E3000790989A59AA50E94161C892B09F07BC0E7
:102E400073E9C72E73E0D72EEBE0F0E0A4E67A2E0C
:102E5000F7FD42C000E010E07601E00EF11ED70160
:102E60002D913C912115310559F1C901B2010E9402
:102E7000161C5C01C90164E670E00E94161CA501E5
:102E8000485D5F4F8417950731F0265F3F4FD701AC
:102E90002D933C9315C0EB30F10569F0769EC0018F
:102EA000779E900D1124A80EB91ED701D196BC9221
:102EB000AE92D09703C0D801AD56BC4F1D921C9264
:102EC0000E5F1F4F0033110539F63197B0E3CB1A6F
:102ED000D10838E120E0BCCF3093D5032093D6034E
:102EE000F093C403E093C3038091C5039091C6039C
:102EF00001968530910529F09093C6038093C50310
:102F000004C01092C6031092C503EAE58E16910420
:102F10003CF4FFEF8F1A9F0A9092E6038092E5033C
:102F20008091E3039091E4038C599F4F9093E403C5
:102F30008093E303ACC08BE090E09093C403809354
:102F4000C303C090C503D090C603DEA2CDA228E182
:102F500034E6E090C303F090C403F7FC98C01092ED
:102F6000D6031092D5038E2D880F880F8E0D875FA4
:102F70008AA32E9D80012F9D100D112418A70FA349
:102F8000C7010196289FA001299F500D11245CA321
:102F90004BA3C090D503D090D60308E1C016D1044E
:102FA0000CF06DC0AFA0B8A4AC0CBD1CC501880F5F
:102FB000991FDC01AD57BE4F5D010D911C910115AC
:102FC000110509F454C0C80164E670E00E94161CA3
:102FD000BBE0EB16F10499F4B2010E94161C4DA15E
:102FE0005EA16417750709F442C0F601EE0FFF1FDA
:102FF000ED56FC4F065F1F4F1183008338C03B0125
:103000004C01B2010E94161C4AA1640F8C2D880F3E
:10301000880F8C0D8A5F2DAB3EAB0E94050D2DA94C
:103020003EA9811124C0C801B2010E94161CAC0146
:10303000485D5F4F8416950631F0065F1F4FD5013E
:103040000D931C9314C0EBA1FCA1EC0DFD1DEE0F24
:10305000FF1FED57FE4F369DA001379D500D1124E7
:10306000840F951F91838083F50111821082FFEFF9
:10307000CF1ADF0AD092D603C092D5038ACF11E0CF
:10308000E11AF108F092C403E092C30362CF1091F9
:10309000D303111112C200917F010B5FF0908101E7
:1030A000602F8F2D0E94050D811107C2602F84E0D3
:1030B0008F0D0E94050D811100C281E08093D40321
:1030C0002091D40380917F0190918001222331F0DF
:1030D00001969093800180937F0105C08B33910509
:1030E000BCF71092D4030E94EF0782FF0BC08091BF
:1030F000E903811107C0111105C08091D403882311
:1031000009F4E6C18091D3038823E9F08091CF03CD
:103110009091D0038B30910584F420917F01309100
:103120008001215031093093800120937F01019665
:103130009093D0038093CF0306C01092D3031092D4
:10314000D0031092CF030E94EF0785FFC5C1009105
:103150007F0110918101115064E0600F812F0E9466
:10316000050D8111B9C1602F812F0E94050D8111BC
:10317000B3C181E090E09093D2038093D1038FEFAD
:103180009FEF2091810130918201820F931F9093D4
:103190008201809381018091E203882331F083E0F2
:1031A00090E09093EB038093EA030E94EF0783FF84
:1031B00085C08091E903811181C0C4C130921E088D
:1031C00020921D083092200820921F0883E691E08B
:1031D0000E94F30C0E94EF0783FF70C08091E90307
:1031E00081116CC0B9C130921E0820921D08309226
:1031F000200820921F0889E691E00E94F30C30928B
:103200001E0820921D0888E290E090932008809389
:103210001F08C090E303D090E4030D2C000CEE08CF
:10322000FF08F7FE28C0E0910904F0910A0401901C
:10323000F081E02D6DE289E094E0099522273327A3
:10324000A9012C193D094E095F0919A28E010F5DD4
:103250001F4FCA01B9012AE030E040E050E00E946F
:10326000E51B605DD8016E938D0121153105410587
:10327000510579F717C0A701960119A28E010F5DBC
:103280001F4FCA01B9012AE030E040E050E00E943F
:10329000E51B605DF80162938F0121153105410541
:1032A000510579F7C8010E94F30C0E94EF0783FFD4
:1032B00005C08091E903882309F457C10E94EF07F4
:1032C00083FD0BC00E94EF0782FD07C08091EA03D7
:1032D0009091EB03892B09F050C18DE194E00E949D
:1032E0000C0880E090E0892B09F4F3C90E940000EB
:1032F000F0C90E94EF0786FFB5CA8091E9038111EA
:10330000B1CA07E024E045E252E061E370E089E4FD
:1033100090E00E94F80B0FEFE01AF00AF092DF0342
:10332000E092DE0381E08093E9039CCA8091E00390
:103330009091E1038E3191052CF405969093E10371
:103340008093E00381E08093E90309C00E94EF07C6
:1033500084FF05C08091E903882309F4A1C030925D
:103360001E0820921D083092200820921F088FE529
:1033700091E00E94F30C0E94EF0785FD14C00E94AB
:10338000EF0786FD10C00E94EF0787FD0CC00E946A
:10339000EF0784FD08C00E94EF0783FD04C00E9470
:1033A000EF0782FF87C00E94EF0783FF87CF8091DE
:1033B000E903811183CF1092E8031092E703109282
:1033C000C6031092C5038BEF9FEF9093DD038093AC
:1033D000DC031092DB031092DA031092E6031092E2
:1033E000E5031092D9031092D8031092D7032091CD
:1033F000D5033091D60340E050E080E090E0A1E0BA
:10340000B0E08C30910511F18A010D571E4F20E07C
:1034100030E06AEF7FEFF801E20FF31F8A30910589
:1034200034F06C30710518F4B183A08302C01182AE
:1034300010822E5F3F4F6F5F7F4F2033310559F76A
:103440000196405D5F4F28E130E0DBCF3093D6033B
:103450002093D5039093C4038093C3038EE390E03D
:1034600090938201809381018EE190E0909380019E
:1034700080937F0181E08093D4031092D303109254
:10348000D2031092D1031092E2031092D003109253
:10349000CF031092E4031092E3038093E9035EC02C
:1034A0008091E0039091E103853091050CF44ACFBF
:1034B000059744CF1092E90376CF20E045E050E035
:1034C00061E080E090E00E94F7091092D403F8CD0B
:1034D00081E08093D30316CE0E94EF0786FF1BC0C6
:1034E00000917F01109181011B5F64E0600F812FCB
:1034F0000E94050D81110FC0602F812F0E94050DC4
:10350000811109C022E030E03093D2032093D1032F
:1035100081E090E036CE21E040E050E060E085E0E0
:1035200090E00E94F70921E040E050E060E08FEF7A
:103530009FEF0E94F7091092D2031092D10380E00E
:1035400090E01FCE81E08093E90342E050E0509389
:10355000EB034093EA03B2CE1093E90381E090E0DD
:103560009093EB038093EA03A9CE81E08093E90373
:103570001092EB031092EA03A1CE1092E903ADCEB4
:10358000E2E3F8E01382128288EE93E0A0E0B0E07C
:1035900084839583A683B7838EE391E091838083B0
:1035A0008FEF9FEF95878487E9E0F4E01382128222
:1035B00080E591E0918380838CE3868380E181873D
:1035C0001086178216861786108A118A128A109220
:1035D0001E0810921D081092200810921F0881E00A
:1035E0008093210808958F929F92AF92BF92CF92BD
:1035F000DF92EF92FF92CF93DF93EC0168817981A4
:103600008A819B81611571058105910521F464E230
:1036100079ED8BE597E02DE133EF41E050E00E943A
:10362000B31B49015A019B01AC01A7EAB1E40E9416
:10363000D21B6B017C01ACEEB4EFA50194010E949A
:10364000E01BDC01CB018C0D9D1DAE1DBF1DB7FF26
:1036500003C00197A109B04888839983AA83BB83DB
:103660009F77DF91CF91FF90EF90DF90CF90BF9049
:10367000AF909F908F9008950E94F31A08958CE068
:1036800091E00E94F31A0895A0E0B0E080930C014D
:1036900090930D01A0930E01B0930F0108958F92A6
:1036A0009F92AF92BF92CF92DF92EF92FF92CF9311
:1036B000DF93EC01688179818A819B8161157105B5
:1036C0008105910521F464E279ED8BE597E02DE128
:1036D00033EF41E050E00E94B31B49015A019B01C6
:1036E000AC01A7EAB1E40E94D21B6B017C01ACEEF5
:1036F000B4EFA50194010E94E01BDC01CB018C0D0D
:103700009D1DAE1DBF1DB7FF03C00197A109B048A5
:1037100088839983AA83BB83BC01CD019F77DF9106
:10372000CF91FF90EF90DF90CF90BF90AF909F90A0
:103730008F9008950E944F1B089580E191E00E94B0
:103740004F1B089560931001709311018093120133
:10375000909313010895F999FECF92BD81BDF89A17
:10376000992780B50895052E97FB1EF400940E94BA
:10377000CA1B57FD07D00E94E51B07FC03D04EF47F
:103780000C94CA1B50954095309521953F4F4F4F53
:103790005F4F089590958095709561957F4F8F4FFD
:1037A0009F4F08950E94071CA59F900DB49F900DF8
:1037B000A49F800D911D11240895B7FF0C94D21B76
:1037C0000E94D21B821B930B0895A1E21A2EAA1B02
:1037D000BB1BFD010DC0AA1FBB1FEE1FFF1FA217C1
:1037E000B307E407F50720F0A21BB30BE40BF50BBE
:1037F000661F771F881F991F1A9469F76095709547
:10380000809590959B01AC01BD01CF010895A29FC9
:10381000B001B39FC001A39F700D811D1124911DA4
:10382000B29F700D811D1124911D089597FB072EE5
:1038300016F4009407D077FD09D00E94301C07FCD5
:1038400005D03EF4909581959F4F089570956195B0
:103850007F4F0895EE0FFF1F0590F491E02D09941E
:10386000AA1BBB1B51E107C0AA1FBB1FA617B707A6
:1038700010F0A61BB70B881F991F5A95A9F78095C2
:103880009095BC01CD01089581E090E0F8940C94EE
:06389000491CF894FFCF73
:1038960000E1000000000000FFFFFFFF0100000044
:1038A60001000000F700F200ED00E80042013D01D2
:1038B600380133012E01290124011F011A011501C6
:1038C60010010B0106010101FC0000000000F20AD4
:1038D600730B130B080B590B170B350B000000006D
:1038E6000605B6042F062E0600C180810000007072
:1038F60069740050617573650047616D656F766523
:0A390600722053637265656E0000C5
:00000001FF
