:100000000C94B3060C94DB060C94DB060C94DB0614
:100010000C94DB060C94DB060C94DB060C94DB06DC
:100020000C94DB060C94DB060C94DB060C94DB06CC
:100030000C94DB060C94DB060C94DB060C94DB06BC
:100040000C94DB060C94DB060C94DB060C94DB06AC
:100050000C94DB060C94DB060C94DB060C94F72D59
:100060000C94DB060C94DB060C94DB060C94DB068C
:100070000C94DB060C94DB060C94DB060C94DB067C
:100080000C94DB060C94DB060C94DB060C94DB066C
:100090000C94DB060C94DB060C94DB060C94DB065C
:1000A0000C94DB060C94DB060C94DB06E409F109E6
:1000B000F609260A580A6D0A7E0A820A860ADF09AC
:1000C000A50AA90AAF0AB30A0F0B010B3D0B650B7A
:1000D0007B0BB40BB70B230CF60AC60BFA0BFC0A0E
:1000E000330EDD0C330E330E3B0E330E430EDD0CA0
:1000F000DD0CDD0C4C0EDD0C540EB010C810D2100F
:10010000D810DE10F110FB1002110811111E411E53
:10011000571F571F4D1E571F571F681E7B1E571F07
:10012000A41E571FAF1E571F571F571F571FC01E14
:10013000AE21BE21DE2140227C2281228B22DA22C6
:10014000D5F08D14A1C881CFD9F1AF200057696EC9
:1001500000202020202020202020202020202020BF
:10016000202020202020004229436C65617200532A
:10017000636F7265002000400024006279004B69C3
:100180006C6C65640046726F7A656E0053746172C0
:100190007665005F5F5F295C5C2F2F2929282F2F50
:1001A0005C282F28285F5F5F002A7C2020202020E9
:1001B0002020202020207C2A007C2020202020209D
:1001C00020202020207C007C202020202020202097
:1001D0002020207C007C2020204865726F20202079
:1001E000207C002F20202020202020202020205C88
:1001F000002F2020522E492E502E205C002D2D2D18
:100200002D2D2D2D2D2D0045783A0041433A0053D8
:10021000743A0048703A0041753A004C763A002032
:10022000202020202020202020002053746174757D
:1002300073202020004229436F6E74696E7565003B
:1002400041294E65772047616D65005B40207E5DEA
:100250002420526F677565002043002045003E0052
:100260002077686963683F0020200020496E76652A
:100270006E746F7279202020202000020303040492
:1002800005010101010102010301042020202020B9
:100290002020202020202020202000202064726F99
:1002A0007020202020202020202000202074687230
:1002B0006F772020202020202020002020757365CB
:1002C000202020202020202020200020416374694D
:1002D0006F6E2020202020202020202020000005DC
:1002E0000A14192328323C414B555A5F6400050A11
:1002F0000F14232D37414B555A646464676F6C6447
:1003000000000000666F6F64000000006D6F6C6499
:10031000000000006D616365000000006178650009
:100320000000000073776F7264000000626F770056
:100330000000000064617274000000006172726F5E
:1003400077000000736872696B656E0064616767AF
:10035000657200006C6561746865720072696E6731
:10036000000000007363616C6500000063686169F0
:100370006E00000073706C696E74000062616E64E0
:1003800065640000706C617465000000616D6265F9
:1003900072000000626C61636B000000626C756546
:1003A0000000000062726F776E000000636C656190
:1003B000720000006379616E000000006F72616E70
:1003C00067650000677265656E000000677261799D
:1003D0000000000070696E6B000000007265640030
:1003E0000000000076696F726574000077686974B8
:1003F0006500000079656C6C6F7700005A454C47CA
:100400004F0000004A555945440000004E52203923
:1004100000000000584958415841000044414959E2
:10042000454E0000454C42494200000054484152AC
:100430005200000059554D2059554D00414E444F32
:1004400056410000464F4F424945000054454D4F2C
:100450005600000052454144204D450061676174DB
:1004600065000000616D7468797374006469616D82
:100470006F6E6400656D6572616C64006761726EB9
:10048000657400006F6E6978000000006F70616C29
:1004900000000000706561726C0000007275627986
:1004A000000000007361706869726500746F7061AC
:1004B0007A000000627261737300000062726F6EF6
:1004C0007A650000636F70706572000069726F6E0C
:1004D000000000006C656164000000006E69636BE1
:1004E000656C0000737465656C00000073696C7660
:1004F0006572000074696E00000000007A696E6326
:100500000000000059656E646F720000706F7765BF
:1005100072000000726573746F7265006865616CCB
:1005200000000000652E6865616C0000706F6973E3
:100530006F6E00006C6576656C000000626C696E21
:100540006400000068616C6C750000006D2E6474BE
:1005500065637400692E647465637400636F6E660E
:10056000757365006C65767461746500737065659C
:10057000640000006C6F6F6B0000000070726F749D
:1005800065637400686F6C640000000077656170DB
:100590006F6E000061726D6F7200000069646E74AE
:1005A0006966790074656C706F727400736C656550
:1005B000700000007363617265000000626C657317
:1005C000730000006372656174650000616E6765A9
:1005D000720000006D6170000000000073746561BE
:1005E0006C74680074656C706F7274006C69666519
:1005F00000000000666F6F640000000064616D61C0
:10060000676500007374726F6E6700006465780040
:10061000000000006172646F726E00007365650017
:100620000000000061726D6F7200000073656172FE
:100630006368000074656C706F727400736C6F7720
:1006400000000000636F6E6675736500636C656122
:10065000720000006368616E676500006661737414
:1006600000000000736C6565700000006D697373B5
:10067000696C650063616E63656C00006E6F746821
:10068000696E670077656C636F6D652100004920B6
:1006900063616E6E6F7400006E6F207370616365CE
:1006A00000006F626A206865726500006E6F2073DB
:1006B0006C6F740000006469723F0000000000006D
:1006C0006C6576656C20757000006F6F70732E2EF0
:1006D0002E00000079756D6D7900000000006974CE
:1006E000206375727365640072656D6F7665640072
:1006F0000000726561647920676F00007769656C3E
:1007000064656400000066726F7A656E0000000028
:10071000706F69736F6E6564000073746F6C656EE3
:100720000000000072757374656400000000686565
:100730006C64000000000000677261636564000083
:1007400000006275726E6564000000006C657620C2
:10075000646F776E0000647261696E65640000000A
:100760005A5A5A2E2E2E000000002A004B454253A2
:100770004849524F5A4C4351414E5946545750588C
:10078000554D56474A44020304050606070A01046C
:100790003C0200830B0103410200020A01033C02F8
:1007A0000025080103320200030F02054303000382
:1007B0000F00004405000413020A460A0003190151
:1007C0000546050A03150107450800031900004BFB
:1007D000156404200513550F0A051E030F4E14144B
:1007E00003190000641400031900004B276404235C
:1007F000031250321405490000505B00014B051CE8
:100800004B7D21032D02104B3700054C0514507809
:1008100032652A04184B6E00065A042855C8210375
:1008200061072555FA190337021255FF1203730A9F
:100830003255FF0A8384073264FF000591083C6447
:10084000FF5A02000A0F18213F5D606440002A3AF7
:10085000295B213F3D2F2C4000200001020408109D
:1008600020408000000000003E5B4F5B3E3E6B4F2F
:100870006B3E1C3E7C3E1C183C7E3C181C577D5732
:100880001C1C5E7F5E1C00183C1800FFE7C3E7FFDE
:100890000018241800FFE7DBE7FF30483A060E2671
:1008A00029792926407F050507407F05253F5A3CC9
:1008B000E73C5A7F3E1C1C08081C1C3E7F14227F0C
:1008C00022145F5F005F5F06097F017F00668995E4
:1008D0006A606060606094A2FFA29408047E0408CD
:1008E00010207E201008082A1C08081C2A08081E50
:1008F000101010100C1E0C1E0C30383E3830060E36
:100900003E0E06000000000000005F00000007002F
:100910000700147F147F14242A7F2A1223130864EB
:100920006236495620500008070300001C2241008F
:100930000041221C002A1C7F1C2A08083E080800CF
:10094000807030000808080808000060600020106F
:100950000804023E5149453E00427F400072494929
:1009600049462141494D331814127F10274545450A
:10097000393C4A494931412111090736494949362B
:10098000464949291E0000140000004034000000C0
:1009900008142241141414141400412214080201F2
:1009A0005909063E415D594E7C1211127C7F49491E
:1009B00049363E414141227F4141413E7F494949BB
:1009C000417F090909013E414151737F0808087FB1
:1009D00000417F41002040413F017F081422417FB8
:1009E000404040407F021C027F7F0408107F3E4150
:1009F00041413E7F090909063E4151215E7F0919A7
:100A00002946264949493203017F01033F404040BE
:100A10003F1F2040201F3F4038403F6314081463AD
:100A200003047804036159494D43007F4141410269
:100A300004081020004141417F04020102044040AB
:100A4000404040000307080020545478407F284469
:100A500044383844444428384444287F3854545453
:100A60001800087E090218A4A49C787F0804047862
:100A700000447D40002040403D007F10284400009D
:100A8000417F40007C047804787C08040478384472
:100A9000444438FC1824241818242418FC7C080426
:100AA0000408485454542404043F44243C40402047
:100AB0007C1C2040201C3C4030403C4428102844F2
:100AC0004C9090907C4464544C44000836410000A3
:100AD00000770000004136080002010204023C26B3
:100AE00023263C1EA1A161123A4040207A3854547A
:100AF00055592155557941215454784121555478FF
:100B00004020545579400C1E527212395555555992
:100B1000395454545939555454580000457C4100B7
:100B200002457D420001457C40F0292429F0F0284F
:100B30002528F07C545545002054547C547C0A09E7
:100B40007F4932494949323248484832324A484856
:100B5000303A4141217A3A42402078009DA0A07D60
:100B600039444444393D4040403D3C24FF2424481E
:100B70007E4943662B2FFC2F2BFF0929F620C088C6
:100B80007E090320545479410000447D4130484897
:100B90004A32384040227A007A0A0A727D0D1931B1
:100BA0007D2629292F28262929292630484D40200D
:100BB000380808080808080808382F10C8ACBA2FE9
:100BC000102834FA00007B000008142A1422221492
:100BD0002A14089500220095AA005500AAAA55AA31
:100BE00055AA000000FF00101010FF00141414FF9D
:100BF000001010FF00FF1010F010F0141414FC008F
:100C00001414F700FF0000FF00FF1414F404FC1498
:100C10001417101F10101F101F1414141F00101091
:100C200010F0000000001F101010101F1010101006
:100C3000F010000000FF101010101010101010FF26
:100C400010000000FF140000FF00FF00001F10173D
:100C50000000FC04F414141710171414F404F40026
:100C600000FF00F714141414141414F700F71414EC
:100C700014171410101F101F141414F4141010F073
:100C800010F000001F101F0000001F14000000FCE7
:100C9000140000F010F01010FF10FF141414FF14D3
:100CA0001010101F00000000F010FFFFFFFFFFF00A
:100CB000F0F0F0F0FFFFFF0000000000FFFF0F0F5B
:100CC0000F0F0F38444438447C2A2A3E147E020217
:100CD0000606027E027E0263554941633844443C65
:100CE00004407E201E2006027E020299A5E7A599F7
:100CF0001C2A492A1C4C7201724C304A4D4D30302E
:100D000048784830BC625A463D3E494949007E0118
:100D100001017E2A2A2A2A2A44445F444440514A37
:100D2000444040444A51400000FF0103E080FF007E
:100D30000008086B6B083612362436060F090F06BA
:100D4000000018180000001010003040FF010100E2
:100D50001F01011E00191D1712003C3C3C3C000005
:100D600000000000013611241FBECFEFDAE0DEBF25
:100D7000CDBF29E0A4E9B1E001C01D92A33FB207B5
:100D8000E1F711E0A0E0B1E0EAE1FFE602C0059082
:100D90000D92A439B107D9F716E0C3EBD6E004C031
:100DA0002197FE010E948D36C23BD107C9F70E94F0
:100DB000CE2E0C948B370C940000EF92FF920F9381
:100DC0001F93CF93DF93D82F082F10E0C8018858C6
:100DD0009D4F7C01FC01C081C4FF14C0C6FF02C04E
:100DE00089E024C0CF7EFC01C0838AE00E94D61A2D
:100DF000F801E052FD4F80818057803108F041C0FA
:100E00006FEF36C0F801E052FD4F9081892F829537
:100E10008F708330B0F1853018F08730A1F031C089
:100E200061E00E949828882349F08CE0DF91CF91FF
:100E30001F910F91FF90EF900C94D61AC261F701A9
:100E4000C0838BE0F3CF61E087E00E949828182FE1
:100E500062E087E00E949828189FC0011124892B26
:100E600021F7C261F701C0838BE00E94D61A61E0CE
:100E70008D2FDF91CF911F910F91FF90EF900C94E8
:100E8000192BDF91CF911F910F91FF90EF90089553
:100E90002F923F924F925F926F927F928F929F928A
:100EA000AF92BF92CF92DF92EF92FF920F931F9378
:100EB000CF93DF93CDB7DEB728970FB6F894DEBF98
:100EC0000FBECDBF482E10E022242394312C01E028
:100ED0000E94962C3092E4052092E3051092E605DC
:100EE0001092E505411015C00093E8051092E70542
:100EF0008BE692E00E94122D609101017091020137
:100F000080910301909104010E944C2D88E692E0AB
:100F100002C080E692E00E94122D3092E4052092F9
:100F2000E30538E0C32ED12CD092E605C092E5054A
:100F30001092E8050093E7058EE592E00E94122DDD
:100F4000E12EF12CF886EF8280911301A7014A5F10
:100F50005F4F282F30E04217530714F487E0810FCA
:100F60002F81388528583D4F79012F8138852455A8
:100F70003D4F69012F81388520523D4F4901AF8097
:100F8000B88428E0622E712C282F30E03D832C831A
:100F90002C813D81A216B3060CF0AEC087E090E034
:100FA0009093E4058093E3057092E6056092E50571
:100FB000FB82EA82D7018C9183FD09C0D401EC91B8
:100FC000E295EF70F0E0E35BF74F849101C08BE7AF
:100FD0000E94072D80E20E94072DF701808187FF84
:100FE0000DC0F501EA53FD4F608170E080E090E0B4
:100FF0004AE00E94C62C80E20E94072DD4019C91F9
:10100000692F6F70892F82958F70903510F440E0B2
:101010000FC0E82FF0E0EE0FFF1FE357FE4F4081B7
:101020005181062E02C0569547950A94E2F7417009
:101030000E94462086EB95E00E94B42CF701808147
:1010400085FF38C0D4018C9190ED980F9031A0F4B9
:101050008BE50E94072DF6016081062E000C770BB0
:10106000880B990B0E944C2D8CE20E94072DF501F4
:10107000EE56FD4F608114C090EC980F903158F0FF
:1010800090E8980F903138F08057803198F4F6014D
:101090008081882379F08BE50E94072DD6016C9121
:1010A000062E000C770B880B990B0E944C2D8DE5BA
:1010B0000E94072DF701808184FF04C08BE592E038
:1010C0000E94122DFFEFEF1AFF0AAA81BB818C91BB
:1010D0008274823421F488E592E00E94122DBFEFE1
:1010E000AB1ABB0AEFEFCE1ADE0AFFEF8F1A9F0A88
:1010F00028E0620E711C4CCF88ED95E00E94762EA0
:101100000E94B225823029F4112309F4E1CE115056
:10111000DFCE843061F48091130190E00197CF809D
:10112000D884C816D9060CF0D3CE1F5FD1CE853037
:1011300009F090C6411091C601E00093E8051092B5
:10114000E705A7E0EA2EF12CF092E405E092E30532
:1011500088E090E09093E6058093E5058BEC92E0C3
:101160000E94122D1092E8050093E705F092E40525
:10117000E092E305B0E1CB2ED12CD092E605C092EF
:10118000E5058BEB92E00E94122DF092E405E092CF
:10119000E30588E190E09093E6058093E5058BEA0E
:1011A00092E00E94122DF092E405E092E30580E2C5
:1011B00090E09093E6058093E5058BE992E00E942C
:1011C000122DF092E405E092E30588E290E090931E
:1011D000E6058093E5058BE892E00E94122DF092DF
:1011E000E405E092E305D092E605C092E5058EE3C2
:1011F0000E94072D88ED95E00E94762E00E087E0A2
:10120000C82ED12C0E94B225843011F118F48230FE
:1012100041F0F8CF853009F449C0863009F41DC685
:10122000F1CF002379F3D092E405C092E305802F3B
:1012300090E00296F3E0880F991FFA95E1F79093FA
:10124000E6058093E50580E20E94072D015016C057
:101250000230C0F6D092E405C092E305802F90E002
:101260000296E3E0880F991FEA95E1F79093E6056F
:101270008093E50580E20E94072D0F5FD092E40580
:10128000C092E305802F90E0029673E0880F991FCB
:101290007A95E1F79093E6058093E5058EE30E9449
:1012A000072D88ED95E00E94762EACCF01112EC35C
:1012B000F090A801F11031C3EF81F885E052FD4FA5
:1012C0000081902F92959F709230E1F5EF81F88523
:1012D000EA53FD4F808181508083811103C0812FAB
:1012E0000E94851288E00E94D61A609101017091D7
:1012F0000201809103019091040123E030E040E07D
:1013000050E00E94283769017A018EE5C80E81E01D
:10131000D81EE11CF11C0E94043722E330E040E0BB
:1013200050E00E942837DC01CB018C0D9D1DAE1DC5
:10133000BF1D8093010190930201A0930301B0931C
:101340000401DDC2933009F4A4C2943009F4A1C2AF
:101350000F70953009F00EC1C02ED12C81E090E0C5
:10136000A0E0B0E0002E04C0880F991FAA1FBB1F89
:101370000A94D2F72091970130919801822B932BF8
:101380009093980180939701EF81F885EA53FD4F80
:10139000808181508083811103C0812F0E9485123A
:1013A000F601EC5EFE4FE0814E2F50E04E305105CD
:1013B00008F0DCC0FA01EA5AFF4F0C948D3662EC5B
:1013C000C62E63E0D62EBEC090914C012091000144
:1013D00081E0890F80934C019213C8C08093000173
:1013E000C5C08091000180934C01C0C0809109016B
:1013F00090910A01A0910B01B0910C01409105015F
:1014000050910601609107017091080184179507BA
:10141000A607B70721F40196A11DB11D2FC06A01CF
:101420007B01C80ED91EEA1EFB1EC701B60122E0D1
:1014300030E040E050E00E942837209309013093CB
:101440000A0140930B0150930C0190C08091090157
:1014500090910A01A0910B01B0910C0140910501FE
:10146000509106016091070170910801841795075A
:10147000A607B707A1F40296A11DB11D809309012B
:1014800090930A01A0930B01B0930C018093050186
:1014900090930601A0930701B093080167C04093A1
:1014A000090150930A0160930B0170930C015EC017
:1014B000F0904C0153E0D52EDF1460F40E94043705
:1014C000FA9423E030E040E050E00E942837F61A1A
:1014D000F0924C011092AA0149C080910E019091A6
:1014E0000F01A0911001B09111018093AD01909373
:1014F000AE01A093AF01B093B00138C082E38093F6
:10150000AB0134C082E38093AA0130C081E08093B4
:1015100062052CC0F601EA0DFB1D8081882321F0B5
:101520006A2D8F2D0E94B11A2FEFA21AB20A38E04D
:10153000A316B10479F788E0C80ED11CF39495E1A5
:10154000F916A1F0A12CB12CE5CF8AE08093AC0173
:101550000DC0109264058EE18093A70107C084E15D
:101560008093A90103C081E08093630541E0602F6F
:1015700085E071C1963009F075C1D090AB01D110F2
:101580006FC1E02EF12C81E090E0A0E0B0E0002EF1
:1015900004C0880F991FAA1FBB1F0A94D2F720917D
:1015A000990130919A01822B932B90939A01809309
:1015B0009901EF81F885EA53FD4F80818150808346
:1015C000811103C0812F0E948512D701AC5EBE4FEE
:1015D0007D011E96EC914E2F50E04C30510508F0E5
:1015E00032C1FA01EC59FF4F0C948D3680911301F2
:1015F00090E0E8E7F2E0BFC049EBA42E41E0B42E52
:101600001FC1209177028091760290E0B8E02B9F75
:10161000800D911D112460E070E0409728C061E0CA
:1016200084E00E949828882309F40DC1E82FF0E097
:10163000E958FD4F808188605CC0FA01EA0FFB1F0A
:10164000E657FB4FE081EE2339F0F0E0EF5AFA4F16
:1016500020812F71205820834F5F5F4F4330510509
:1016600061F7685F7F4F6832710509F4ECC0DC01F7
:10167000A60FB71F4EEF5FEFE0CF61E083E00E945F
:101680009828882309F4DFC0C82ED12CE1E0CE1AB7
:10169000D108F601E858FD4F80818F7B80830E943E
:1016A000043722E030E040E050E00E942837F601A5
:1016B000672B682B692B31F4E455FD4F90819F5FB8
:1016C0009083C1C0EE56FD4F12C061E084E00E94DD
:1016D0009828882309F4B7C0E82FF0E03197DF019C
:1016E000A858BD4F8C918F7B8C93E455FD4F808122
:1016F0008F5F8083A8C081E00E94480790E0FC01D2
:10170000E858FD4F208122622083FC01E052FD4F0A
:101710009081292F2F70892F82958F70903510F42A
:1017200040E01CC0E82FF0E0EE0FFF1FE357FE4F34
:1017300041E050E060E070E0022E04C0440F551F0D
:10174000661F771F0A94D2F7A081B1814A2B5B2BC9
:10175000518340839059903118F341E0622F0E94E9
:1017600046200E94922D6FC00E9440136CC085E0FD
:101770008093A80168C09F01285732402817390775
:101780000CF061C020812F7B2193F5CFE2E5F5E0DD
:1017900081E09191911101C0582E8F5F8131C9F77D
:1017A00041E060917602809177020E94962790E056
:1017B000009709F448C00197E52DF0E0319720919A
:1017C0007702215063E070E00E947936820FDF01DA
:1017D000AE5BBA4F8C93409176024150460FEE5C5F
:1017E000FA4F4083682F8FEF850D0E9468240E9476
:1017F000C51829C0E2E5F5E08081882319F08F71D2
:10180000805E8083319625E0E236F207A9F71BC09F
:10181000F501E80DF91D8081882321F0682D8D2DBB
:101820000E94B11A3FEF831A930A88E08816910448
:1018300079F798E0A90EB11CD394A5E1DA1619F056
:10184000812C912CE5CFF7018685843009F457C0AF
:1018500041E0602F86E00E9446200E94922D4FC0FA
:1018600081E010C19730C9F481E090E0A0E0B0E0E1
:1018700004C0880F991FAA1FBB1F0A95D2F7209199
:101880009B0130919C01822B932B90939C01809320
:101890009B01812F0E94DD0632C0983081F581E0E6
:1018A00090E0A0E0B0E0002E04C0880F991FAA1FAE
:1018B000BB1F0A94D2F720919D0130919E01822B8B
:1018C000932B90939E0180939D01EF81F885E455C1
:1018D000FD4F808118161CF48150808301C009E0FF
:1018E0000E947D1064E10E94442897FF02C081504D
:1018F0009F4F992321F0692F802F0E9490100E9402
:10190000C3110E94F71A0E94B316A7C2013009F052
:101910005BC08091A801882321F086E10E94D61A3D
:101920009CC22F81388528583D4F6901D9018C917F
:101930002F81388520523D4F790184FF09C0D9019C
:101940009C9120ED290F2031A8F59F70943090F1E3
:1019500086FF05C0F701908190539031A8F00E9456
:101960007D10082F61E083E00E949828882309F405
:10197000C6C0E82FF0E0E152FD4F90819F70933098
:1019800009F0BDC064E1BEC08260F601808361E001
:1019900083E00E949828882339F0E82FF0E0E95886
:1019A000FD4F80818F7E8083D6018C9180618C93E6
:1019B00089E001C08CE00E94D61A0E94F71A0E94AA
:1019C000B3160E94C31149C2023009F01BCC8091AA
:1019D000A8018111A2CFE0907602E0917702AF8159
:1019E000B885A858BD4F0C91902F907104FD85C00B
:1019F000AF81B885A052BD4FAC904A2D50E0A2E215
:101A0000B1E08D91873021F09F5F9C30D1F701C00C
:101A10009983C9802C2D30E0205A3F4FCE2ED12CF7
:101A2000F12C42175307E9F4EF81F885EA53FD4F93
:101A3000908191509083911103C0812F0E94851253
:101A4000F60133E0EE0FFF1F3A95E1F7EE0DFF1DB3
:101A5000E754FE4F80816AE00E945F36925E908379
:101A60004ECFC60123E0880F991F2A95E1F78E0D0E
:101A70009F1D9C012E533C4F7901D9018C918823E5
:101A800021F083E00E94D61A3ACF0E94A112883238
:101A900011F484E0F7CF91E0980FF7019083E82FDD
:101AA000F0E0DF01A656BC4FAC929F012E583C4F90
:101AB0008F8198858A539D4FDC018C91D9018C933D
:101AC0009F01265B3C4F8F81988584559D4FDC019B
:101AD0008C91D9018C939F012E5D3C4F8F8198850D
:101AE0008E569D4FDC018C91D9018C93E650FD4FB1
:101AF0000083812F0E94851202CF8CE0C3CF6091BA
:101B00004C016695802F0E9444284C01D7014C91CE
:101B10004093A40181E08093A301EF81F885E4550F
:101B2000FD4F00810093A201EF81F885EE56FD4F35
:101B3000E080E092A101F601C080C092A001EF8197
:101B4000F885EA53FD4F808181508083811105C063
:101B5000812F4E830E9485124E81C40197FE02C0E0
:101B600081509F4F692E792E770C7708B92EC401CA
:101B700060E071E00E94793665E170E00E9479369C
:101B8000D62EF82E611002C021E0B5C080ED840F82
:101B9000803158F44F70E42FF0E0EE0FFF1FE5584E
:101BA000FD4FE491CE2EC00E02C0CC24C3940E94FF
:101BB000043724E630E040E050E00E942837E62E6B
:101BC00080910D01880F885D9C2D990F9C0D082F29
:101BD000090F61E083E00E949828E82FF0E0E152CD
:101BE000FD4F80814091A401982F94279F7009F4A4
:101BF00087C0453321F48F70833009F481C0E0162B
:101C000008F071C0EE24EA94EB0C8E2D0E94AE26F3
:101C10000091A40180ED800F803160F4E02FEF701F
:101C2000F0E0EE0FFF1FE458FD4FE491A090A101FA
:101C3000AE0E01C0A12C80EB800F8031F0F58E2D0F
:101C40000E94AE260F70E02FF0E0EC5EFE4FE081C8
:101C50008E2F90E08D30910508F0AFCEFC01E05959
:101C6000FF4F0C948D36C3019927FC01E759FB4FB8
:101C70008081865F20C0C3019927FC01E759FB4F93
:101C80008081869518C0C3019927FC01EF5AFA4F4D
:101C900080818F71805C0FC0C3019927FC01E758D8
:101CA000FB4F8081806207C0C3019927FC01E75880
:101CB000FB4F80818068808380CE0058003150F5D2
:101CC0000E94043724E030E040E050E00E942837D2
:101CD000672B682B692BF1F08091A4016B2D8F701D
:101CE0000E9490106ACEC090A001E090A1010091E6
:101CF000A2012091A3016D2D8F2D0E94AD125DCE0A
:101D0000B4E00B9FC001112463E070E00E947936BB
:101D1000062F75CF8091A4018053803108F04BC00D
:101D20002C2D0C2C000C330BAA2DAA0CBB0B0E94E3
:101D300093369B01AC016C2DCC0C770B880B990B67
:101D40000E94D52D4B015C0190919F0180914C0127
:101D5000890F0E941511880C991CAA1CBB1C282FE6
:101D600030E0C901880F991F092E000CAA0BBB0B8C
:101D7000880D991DAA1DBB1D40916905042E000CFC
:101D8000550B660B770B840F951FA61FB71F20916D
:101D90000D01820F911DA11DB11DBC01CD016F5F11
:101DA0007F4F8F4F9F4F22E030E040E050E00E9495
:101DB0002837422F1FC090919F0180914C01890FBD
:101DC0000E941511482F50E041505109440F551FF2
:101DD00080916905480F511D87FD5A9580910D012D
:101DE000480F511D4F5F5F4F57FF02C04F5F5F4F5E
:101DF0005595479561E083E04E830E949828E82F2F
:101E0000F0E0E152FD4F80812091A401982F9227AC
:101E10009F704E819923A1F0253319F48F70833080
:101E200079F0C30199278F5A9A4FDC016C91629522
:101E3000669567700D2D2F2D8E2D0E941C27BDCD10
:101E4000E4E04E02C001112463E070E00E947936A4
:101E5000462FE7CF863009F03BC8812F28960FB672
:101E6000F894DEBF0FBECDBFDF91CF911F910F91D0
:101E7000FF90EF90DF90CF90BF90AF909F908F90AA
:101E80007F906F905F904F903F902F9008952F928A
:101E90003F924F925F926F927F928F929F92AF92FA
:101EA000BF92CF92DF92EF92FF920F931F93CF9347
:101EB000DF9300D000D000D0CDB7DEB78D8390E0A7
:101EC0009C0123593D4F3A832983D9010C91002E5F
:101ED000000C110B01501109FC01EB59FD4F5F0182
:101EE0009C0127593D4F1901DC01AF59BD4FBC83FF
:101EF000AB83BD81B75DBE83E5E19E2EED819E0E75
:101F0000F2E04F2E512C612C712CA8E28A2ED501C3
:101F10008C91082E000C990B0196801791070CF4F8
:101F200048C0D1018C91780173E0EE0CFF1C7A95CA
:101F3000E1F7F701E80FF11D87FDFA959F0128549D
:101F40003E4F6901D9018C91883069F40E940437B1
:101F5000A30192010E942837892D869E800D1124AD
:101F6000F601808303C0EE81D901EC93AB81BC8183
:101F70008C91F701E80FF11D87FDFA959F0126541A
:101F80003E4F7901D9018C91883069F40E94043761
:101F9000A30192010E942837892D869E800D11246D
:101FA000F701808303C0EE81D901EC930F5F1F4FCF
:101FB000AECFF1010081002E000C110B9D80F3E3E8
:101FC0009F0E45E1D42E2D81D20E52E0452E512C8C
:101FD000612C712C62E3C62EEB81FC812081822F63
:101FE000022E000C990B801791070CF43EC0A981BA
:101FF000BA818C91F80128E08202E00DF11D1124D4
:10200000DF01AF54BE4F7D018C91883069F40E948E
:102010000437A30192010E9428378D2DC69E800DA2
:102020001124F701808301C09C92F5018081980101
:1020300048E08402200D311D1124D901AF53BE4F59
:102040007D018C91883069F40E940437A3019201CC
:102050000E9428378D2DC69E800D1124F7018083A4
:1020600001C09C920F5F1F4FB7CFDD80D394D50185
:102070006C91F101A081E981FA81808190E08C016D
:1020800033E0000F111F3A95E1F7E0E0F0E070E077
:102090008A2E912C622E712C68177907ACF0A4015E
:1020A0007F01E00EF11E641675065CF05A01AE0C5D
:1020B000BF1C950127543E4FD901DC924F5F5F4F03
:1020C000F2CF01963896E8CF26960FB6F894DEBF89
:1020D0000FBECDBFDF91CF911F910F91FF90EF9079
:1020E000DF90CF90BF90AF909F908F907F906F9038
:1020F0005F904F903F902F9008950E9490190E94FA
:102100004B190E94BD200E94C51885E00E94D61A76
:102110000E94492488ED95E00E94762E0C94B22509
:10212000EF92FF921F93CF93DF931F92CDB7DEB74D
:10213000182F8FEF860F69830E94AE26E12FF0E003
:10214000EC5EFE4FE2A58E2F90E06981893091050B
:1021500008F064C0FC01E358FF4F70E00C948D362A
:1021600061507109FB01EE5AFA4F1082FB01EE5CDF
:10217000FA4F8081FB01EE5BFA4FE08198E0E99F26
:10218000F0011124E80FF11DE657FB4F108246C005
:10219000FB01E758FB4F808187FF02C08F773DC06E
:1021A00084603BC0FB01E758FB4F8081806235C0F3
:1021B000FB01E758FB4F808180642FC0FB01EF5A81
:1021C000FA4F7F016081162F107E0E9404372AE1AA
:1021D00030E040E050E00E942837610FF701608353
:1021E0001DC0FB01E758FB4F808182FF02C08B7F3F
:1021F00014C0806812C0FB01EF5AFA4F80818F71C2
:1022000080580BC0FB01E759FB4F8081869505C0C4
:10221000FB01E758FB4F8081877F80830F90DF9120
:10222000CF911F91FF90EF9008952FEF280F253049
:1022300018F49BEF980F23C02AEF280F2930A0F045
:1022400021EF280F233090F0823191F02DEE280FEE
:10225000223080F0853181F02AEE280F293070F08D
:102260008F3168F098E00BC091E009C093E007C09F
:1022700094E005C095E003C096E001C097E0892F87
:1022800008954F925F926F927F928F929F92AF923A
:10229000BF92DF92EF92FF920F931F93CF93DF9342
:1022A00002E515E0C0E0D0E08AE0882E912CA12C58
:1022B000B12C94E0E92EF12CF80180818054803219
:1022C00008F04AC0FE01EE5BFA4F408150E0809179
:1022D00077029A01281B310937FF03C031952195F8
:1022E0003109FE01EE5CFA4F808190E04091760268
:1022F000BC01641B7109AB0177FF03C05195419587
:102300005109420F531F4330510534F50E940437E1
:102310002B013C0180E00E94F62AD82EC301B201B5
:10232000A50194010E9428372B013C012D2D30E09E
:10233000B9016F5F7F4FC7010E947936CB01770FDC
:10234000AA0BBB0B481659066A067B062CF4F8014B
:1023500080818F71805E808321960F5F1F4FC03117
:10236000D10509F0A9CFDF91CF911F910F91FF9077
:10237000EF90DF90BF90AF909F908F907F906F9085
:102380005F904F9008952F923F924F925F926F927D
:102390007F928F929F92AF92BF92CF92DF92EF92F5
:1023A000FF920F931F93CF93DF93CDB7DEB729979B
:1023B0000FB6F894DEBF0FBECDBFE0EEF2E0DF0156
:1023C000912C8FEF9C91911102C08C939394119654
:1023D00022E0AA3FB207B1F766EC72E04CEA52E0A5
:1023E00022E932E03F832E8388E792E0998788874D
:1023F00000EE12E01D821C828C819D8101969D83DE
:102400008C838A31910509F446C0D8018C909C01D7
:1024100020523D4F6901D901FC90F814D0F5DB0141
:102420004C90DA015C90AE81BF816C90A885B98533
:102430007C90D801FC929C012A533D4F5901D9014F
:10244000FC90DB01FC929C0124553D4F3A8329838B
:10245000D901FC90DA01FC929C012E563D4F1901E6
:10246000D901FC90AE81BF81FC929C0128583D4F60
:102470007901D9013C91A885B9853C93D6018C920C
:10248000D5014C92A981BA815C92D1016C92D7019D
:102490007C920196B6CF0F5F1F4F6F5F7F4F4F5FEC
:1024A0005F4FAE81BF811196BF83AE83288539858A
:1024B0002F5F3F4F398728878C819D814A9709F08C
:1024C0009BCF80818F3F09F41082319692E0EA3FE2
:1024D000F907B9F784E1891929960FB6F894DEBF98
:1024E0000FBECDBFDF91CF911F910F91FF90EF9065
:1024F000DF90CF90BF90AF909F908F907F906F9024
:102500005F904F903F902F90089590E0FC01E05233
:10251000FD4F1082FC01EA53FD4F1082FC01E4558F
:10252000FD4F1082FC01EE56FD4F1082FC01E85871
:10253000FD4F1082809113018150809313010C9400
:10254000C31180E0E82FF0E0E656FC4F908199231C
:1025500019F08F5F8832B1F70895AF92BF92CF9292
:10256000EF92FF920F931F93CF93DF93142FC62FF9
:10257000D0E0A82EB12CFE0198E0899FE00DF11D5E
:102580001124EE53FC4F9081992339F040E00E94D2
:102590009627F82E8823B9F102C045E0F42E0E9458
:1025A000A112282F8F2DFF0C990B019763E070E08B
:1025B0000E9479368A0D9B1D33E0880F991F3A954A
:1025C000E1F786549C4FC80FD91F6C0F7D1FEB019C
:1025D000219781E0820F8883822F90E0FC01E656EC
:1025E000FC4F1083FC01EE58FC4F21E02083FC01DE
:1025F000E65BFC4F0083FC01EE5DFC4FE082FC01DA
:10260000E650FD4FC082DF91CF911F910F91FF9057
:10261000EF90CF90BF90AF900895CF93DF93C82FE6
:102620000E94043724E630E040E050E00E94283762
:1026300080E09FE0C99FA001112442525D4F9EE0BF
:10264000C99FD0011124C62FD0E0FD01E80FF11D74
:10265000EC5EFE4F208130E0FA01E20FF31FE491BF
:102660006E1748F0F9013196E40FF51FE491F0E0A0
:10267000CE17DF0714F08F5FE8CFDF91CF91089579
:102680001F93CF93DF9380917102811106C062E0A6
:1026900070E080E090E00E94B12DC1E0D0E0809138
:1026A0007202882311F0C0E0D0E0FE01E359FD4F33
:1026B0001081FE01EB59FD4F6081062E000C770B57
:1026C000611B710917FD73956F5F7F4F072E000C1B
:1026D000880B990B0E94B12D610F60937702FE0168
:1026E000E759FD4F1081CF59DD4F6881062E000C50
:1026F000770B611B710917FD73956F5F7F4F072E75
:10270000000C880B990B0E94B12D610F609376022B
:10271000E091770288E0E89FF0011124E60FF11DB7
:10272000E657FB4FA081AA2329F0B0E0AF5ABA4F79
:102730001C921082DF91CF911F9108952F923F92AA
:102740004F925F926F927F928F929F92AF92BF92C1
:10275000CF92DF92EF92FF920F931F93CF93DF936D
:10276000CDB7DEB76B970FB6F894DEBF0FBECDBF07
:102770001D8A1E8A1F8A188E198A1A8A1B8A1C8A29
:102780001D861E861F86188A19861A861B861C8639
:1027900088E0EAE6F1E0DE01119601900D928A955B
:1027A000E1F710927202109273021092740210926A
:1027B000750280911201853068F00E94043724E18F
:1027C00030E040E050E00E942837672B682B692BEF
:1027D00009F4A0C2109271020E94043727E030E091
:1027E00040E050E00E9428378B01095F1F4F0E9494
:1027F000043722E030E040E050E00E9428376D5F6F
:102800007F4F8FEF800F8D8769876230710519F0D8
:1028100091E09093720291E0960F9A8B8E8787E0F9
:102820008A876430710519F081E080937302633008
:10283000710531F41A821982CC24C394D12C02C0C0
:10284000C12CD12C0E94043722E030E040E050E05F
:102850000E9428376D5F7F4F81E0800F8F8B94E15E
:102860009F876B876230710519F091E09093740235
:10287000888F81E0860F8C8B84E1888B87E08C8742
:102880006430710519F081E0809375026330710541
:1028900029F418861F8242E0C40ED11C72E7272E4D
:1028A00072E0372E4101E12CF12CE3E04E2E512C49
:1028B000612C712CF40181914F01813009F04AC0E3
:1028C000E5E1F0E0EC0FFD1FEE0DFF1D20812B8FE9
:1028D0000E940437A70143595D4F5A012B8D2F5F8A
:1028E000298FA30192010E942837598D650FF501A8
:1028F0006083F701E759FD4FA1E1B0E0AC0FBD1FC8
:10290000AE0DBF1D8C918F5F8083EDE0F0E0EC0F8A
:10291000FD1FEE0DFF1D20812B8F0E940437A701A4
:102920004B595D4F5A012B8D2150298FA3019201E4
:102930000E942837898D861BF5018083F701EF59A6
:10294000FD4FA9E0B0E0AC0FBD1FAE0DBF1D8C91D7
:1029500081508083FFEFEF1AFF0A44E0E416F10490
:1029600009F0A8CFC114D10469F40E94043722E011
:1029700030E040E050E00E942837672B682B692B3D
:1029800009F4DBC184E190E0801B910B959587955C
:10299000902E980E21E0290DC80195958795882ED7
:1029A0007C0143E0EE0CFF1C4A95E1F7F701E1548E
:1029B000FE4F3F01DF01AC0130E068E0B62E241786
:1029C0003507D4F0BD0165507109FB01B0826F5F1E
:1029D0007F4FFB01B0826F5F7F4FFB01B0826F5F63
:1029E0007F4FFB01B0826F5F7F4FFB01B082BC92D3
:1029F0004F5F5F4F1896E3CF49815A81452BE9F429
:102A0000BC0140E050E0A92CB12CA616B706ACF0F2
:102A1000DA01AE0DBF1DA754BE4F12961C9212973D
:102A200013961C92139714961C92149715961C9249
:102A30006F5F7F4F485F5F4FE8CF4B815C81452BD5
:102A400041F541E0480D50E05A01A3E0AA0CBB1C3F
:102A5000AA95E1F760E070E0E92CF12CE416F506A8
:102A6000C4F0DB01AA0DBB1DA754BE4F11961C92EA
:102A7000119712961C92129713961C921397149604
:102A80001C92149715961C924F5F5F4F685F7F4FA3
:102A9000E5CF4D815E81452BB1F44FEF490D50E0FC
:102AA0004817590784F0D30114971C9211961C9271
:102AB00011961C9211961C92F30110820196F8E077
:102AC0006F0E711CEDCF8F8198858394892BD1F483
:102AD000882D90E0BC01F3E0660F771FFA95E1F7CF
:102AE00040E050E0281739076CF0FA01E60FF71FB5
:102AF000E754FE4F12821382148215820196485FBA
:102B00005F4FF0CF882D90E0BC01E3E0660F771FA8
:102B1000EA95E1F740E050E0292D30E02817390729
:102B20006CF0FA01E60FF71FE754FE4F1282138292
:102B3000148215820196485F5F4FF0CFF12CF101AE
:102B400081911F01813019F48F2D0E94470FF3945A
:102B5000F4E0FF12F4CF43E0C416D10461F059EB66
:102B6000E52E51E0F52E65E0462E512C612C712C9E
:102B700074E4B72E10C043E0000F111F4A95E1F72F
:102B8000F801E754FE4F88E0818382838383848346
:102B900085838683E4CF00E010E06701C00ED11E7C
:102BA000F6018081883059F40E940437A301920114
:102BB0000E942837672B682B692B09F4D1C00F5F5F
:102BC0001F4F0830110549F7F8E0EF0EF11C41E600
:102BD000E41642E0F406F9F605EB11E035E0C32E09
:102BE000D12CE12CF12CBB24B3940E940437A70113
:102BF00096010E942837F801672B682B692B11F486
:102C0000B08201C010820F5F1F4FF1E0093B1F0728
:102C100061F780917102811106C062E070E080E08E
:102C200090E00E94B12D11E080917202811110E0BC
:102C3000212F30E0F901E359FD4FC080F901EB5934
:102C4000FD4F6081062E000C770B6C197109C7FCD3
:102C500073956F5F7F4F072E000C880B990B1B8FAE
:102C60003A8F0E94B12D0C2C000CDD08EE08FF08F5
:102C7000C60ED71EE81EF91E2B8D3A8DF901E759B5
:102C8000FD4F0081F901EF59FD4F8081082E000CA6
:102C9000990B801B910907FD9395BC016F5F7F4FD6
:102CA000072E000C880B990B0E94B12D802E000F6F
:102CB0009908AA08BB08DC01CB01880D991DAA1D43
:102CC000BB1D23E0CC0CDD1C2A95E1F7B601680F93
:102CD000791FFB01E754FE4F155F10830E94471ACE
:102CE0006B960FB6F894DEBF0FBECDBFDF91CF91CC
:102CF0001F910F91FF90EF90DF90CF90BF90AF901A
:102D00009F908F907F906F905F904F903F902F900B
:102D10000C94401381E0809371028093720280933F
:102D20006D028093690283E18093650286E080935F
:102D3000610280E00E94470F6CCF0E94043724E0BC
:102D400030E040E050E00E942837660F771FE1E056
:102D5000F0E0EC0FFD1FE60FF71F1182108212CE7C
:102D6000F601B0822CCFCF92DF92EF92FF92CF93F9
:102D70008091B1019091B201A091B301B091B401E1
:102D80000196A11DB11D8093B1019093B201A09352
:102D9000B301B093B401C0900E01D0900F01E09048
:102DA0001001F09011018091AD019091AE01A091C0
:102DB000AF01B091B0018C159D05AE05BF050CF4B7
:102DC0004CC0C0910D01C53108F047C086E00E949B
:102DD000D61ACF5FC0930D01CC0CDD1CEE1CFF1C7E
:102DE000C0920E01D0920F01E0921001F0921101F9
:102DF0000E94043728E030E040E050E00E9428378D
:102E000083E0860F90E0A0E0B0E04091090150918E
:102E10000A0160910B0170910C01480F591F6A1F44
:102E20007B1F4093090150930A0160930B0170933B
:102E30000C014091050150910601609107017091CC
:102E40000801840F951FA61FB71F8093050190935B
:102E50000601A0930701B0930801C0900901D0902A
:102E60000A01E0900B01F0900C0180910501909116
:102E70000601A0910701B0910801C816D906EA061B
:102E8000FB069CF520910D0186E190E0821B9109E3
:102E900063E070E00E9479369B012F5F3F4F032E65
:102EA000000C440B550B6091B1017091B2018091FF
:102EB000B3019091B4010E942837672B682B692BCE
:102EC000A1F482E00E94F62A9FEFC91AD90AE90A02
:102ED000F90AC80ED11CE11CF11CC0920901D09264
:102EE0000A01E0920B01F0920C018091AC01882361
:102EF00019F081508093AC018091AB01882319F0C7
:102F000081508093AB018091AA01882319F08150F0
:102F10008093AA018091A901882319F081508093A0
:102F2000A9018091A801882319F081508093A801FC
:102F30008091A701882319F081508093A70181E037
:102F40000E94F62A882369F00E9404372CE030E0C2
:102F500040E050E00E942837672B682B692B09F46A
:102F60008BC083E00E94F62AC0900101D09002013C
:102F7000E0900301F090040191E0C91AD108E10842
:102F8000F108C80ED11CE11CF11CC0920101D092C5
:102F90000201E0920301F092040161E087E00E94E7
:102FA0009828882321F08091B10180FF68C062E0F9
:102FB00087E00E9498288823A1F06091B101709168
:102FC000B2018091B3019091B40122E030E040E081
:102FD00050E00E942837613071058105910509F4A0
:102FE0005CC0C0900101D0900201E0900301F0901C
:102FF00004018CE3C816D104E104F104DCF0609113
:10300000050170910601809107019091080124E06B
:1030100030E040E050E00E94283780910901909113
:103020000A01A0910B01B0910C01281739074A073A
:103030005B0774F082E30E94332D1C141D041E04F0
:103040001F044CF01092A60182E08093A50103C0FA
:1030500080E00E94332DE12CF12C8AE00E94F62AB8
:1030600090E0880F991FE816F9065CF50E94862EFD
:103070009FEFE91AF90AF1CF0E94401372CF81E065
:10308000C81AD108E108F108C0920101D0920201EA
:10309000E0920301F09204018ACF809101019091A6
:1030A0000201A0910301B09104010197A109B109A6
:1030B0008093010190930201A0930301B093040156
:1030C00090CFCF91FF90EF90DF90CF900895CF9366
:1030D000DF93C82FD0E0FE01E658FB4F808186FFCA
:1030E00009C088E00E94F62A811104C0809163051E
:1030F0008130A1F58091AA01CE5ADA4F8823D1F010
:1031000088818056803260F40E94043729E030E0E4
:1031100040E050E00E942837FB01E25BF74F19C006
:103120000E9404372AE130E040E050E00E94283756
:10313000FB010DC0E88180EA8E0F803230F48AE610
:1031400097E0DF91CF910C94122DEF71F0E0E459EC
:10315000F84F8491DF91CF910C94072DDF91CF919F
:103160000895E4EDF5E026E0AC01249FC001259F21
:10317000900D11240196908B878783E0660F771F4F
:103180008A95E1F7728B618B0895CF92DF92EF926F
:10319000FF920F931F93CF93DF9382E5E82E85E094
:1031A000F82E02E315E0C2E4D5E0D12C9AE0C92E56
:1031B000F70181917F01803208F45DC08091620542
:1031C00081114FC080917602E091770298E0E99FEB
:1031D000F0011124E80FF11DE754FE4F2081822FEA
:1031E0006C2D0E945F36492FE92FF0E0EC54FE4F22
:1031F000808181111CC02830D1F08881F8012081A4
:1032000030E0A82FB0E0F90198E0899FE00DF11DB2
:103210001124E754FE4F80810E945F36491307C096
:10322000B901CD010E94B1188D2D0E9467188881C7
:1032300090E02091770230E0281B390B2F5F3F4F41
:1032400023303105C0F4F801608170E020917602EE
:1032500030E0261B370B2F5F3F4F2330310558F4EA
:1032600005C0F801608170E0888190E00E94B1188B
:103270008D2D0E9467180F5F1F4F2196D394F0E1A8
:10328000DF1296CFDF91CF911F910F91FF90EF90BA
:10329000DF90CF9008950F931F93CF93DF9380918A
:1032A000AB0181112EC000E010E0C0E0D0E08091C1
:1032B00077029801280F311DC901019720917602EC
:1032C000BE01620F711D61507109FC0123E0EE0F18
:1032D000FF1F2A95E1F7E60FF71FE754FE4F208105
:1032E0002150263028F40E94B1188EE20E94072D4A
:1032F0002196C330D105D9F60F5F1F4F033011055A
:10330000A1F66091760270E08091770290E00E94D1
:10331000B11880E4DF91CF911F910F910C94072D8C
:10332000AF92BF92CF92DF92EF92FF920F931F93D3
:10333000CF93DF9389EBE82E81E0F82EC0E0D0E058
:103340009AE0B92E0C2F06950695069598E0099FF0
:1033500080011124C12CD12C8C2F8770A82EB6018E
:10336000CE010E94B118F601E00FF11FE658FA4FA6
:10337000808190E00A2C02C0959587950A94E2F727
:1033800080FF54C0F701EC0DFD1D2081222309F4BC
:103390004DC08FEF820F8630F8F480917602E09175
:1033A000770298E0E99FF0011124E80FF11DE7543E
:1033B000FE4F80816B2D0E945F36392FE92FF0E0A0
:1033C000EC54FE4F8081811109C0822F0E945F362C
:1033D00093132CC08EE22BC02830E1F085EF820FD2
:1033E0008630D0F08BEE820F8630C0F081EE820FF7
:1033F0008830B0F087ED820F8630B0F08DEC820F10
:10340000863080F083EC820F863070F027542630AF
:1034100048F00CC083E20BC085E209C08BE207C014
:103420008FE305C08CE703C08DE201C080E20E94FB
:10343000072D8FEFC81AD80A98E0C916D10409F0F1
:103440008ECF219688E0E80EF11CC531D10509F038
:1034500079CFDF91CF911F910F91FF90EF90DF9087
:10346000CF90BF90AF90089529EB31E080E090E0DD
:10347000F901E80FF91F1082019688309105C1F714
:10348000285F3F4F82E02136380781F708950F9378
:103490001F93CF93DF9320E030E080E090E0AC0119
:1034A000420F531FFA01E657FB4F1082FA01EE5309
:1034B000FC4F108201968830910589F7285F3F4FB5
:1034C000283A310551F72AE735E080E090E0F9012C
:1034D000E80FF91F1082019688309105C1F7285F27
:1034E0003F4F45E02239340781F7EAE9F3E022E76C
:1034F00033E08AE493E0C2E2D3E06AEF72E0119233
:10350000D9011D929D01DC011D92CD011992DB01B3
:103510001D92BD01B3E0E23CFB0789F7E2E4F5E070
:1035200042E355E022E535E08AE694E0CAE7D4E0DC
:103530000AE615E01192DA011D92AD01D9011D9242
:103540009D01DC011D92CD011992D8011D928D01C2
:10355000B5E0E235FB0771F7DF91CF911F910F9135
:103560000895E82FE695E695E69598E0E99FF00145
:103570001124E60FF11DE658FA4F282F277081E03D
:1035800090E0A0E0B0E004C0880F991FAA1FBB1F05
:103590002A95D2F72081822B80830895EEEBF5E007
:1035A000119285E0E43DF807D9F70895CF93DF93B2
:1035B0001F92CDB7DEB789830E94CE1AAEEBB5E07D
:1035C00089812AE0829FC001112420E030E0F901C6
:1035D000E80FF91FEC57F94FE491ED932F5F3F4F40
:1035E0002F303105A1F70F90DF91CF9108952F92E1
:1035F0003F924F925F926F927F928F929F92AF9283
:10360000BF92CF92DF92EF92FF920F931F93CF93CF
:10361000DF93CDB7DEB72C970FB6F894DEBF0FBEA1
:10362000CDBF22E435E03A83298312E3C12E15E0B1
:10363000D12E0AE7202E04E0302E02E515E031E01D
:103640003E8385E0882E912CA12CB12CD8018C9141
:10365000811194C00E94043720E830E040E050E03F
:103660000E942837672B682B692B09F027C48091AB
:103670007602E0917702B8E0EB9FF0011124E80FA9
:10368000F11DE754FE4F80819091710291111DC090
:1036900090E001976AE070E00E9479369C0162E058
:1036A00070E00E947936281B390B37FF02C02F5F6C
:1036B0003F4F35952795C901019662E070E00E9461
:1036C00079369C01220F331F02C020E030E0F9015F
:1036D000EE58FD4F8081811102C02F5F3F4FF901ED
:1036E000E359FD4FF080F901EB59FD4F6081062E43
:1036F000000C770B6F197109F7FC73956F5F7F4FA3
:10370000072E000C880B990B2A8739870E94B12D50
:10371000F60EE981FA81F0822A853985F901E759A7
:10372000FD4FF080F901EF59FD4F6081062E000C2E
:10373000770B6F197109F7FC73956F5F7F4F072E39
:10374000000C880B990B0E94B12D4F2D460FD6010E
:103750004C93E981FA81608128E0629FF001112495
:10376000E40FF11DE657FB4F80818111A7C3802F25
:10377000A2E5B5E08A1B0E946824A0C3F1019081F4
:10378000892F881F8827881F8F5F92FF04C0909120
:10379000B10190FD93C31D821C82282F30E0388731
:1037A0002F838C819D81AF81B8858A179B070CF090
:1037B00085C3D8018C9190EC980F903A08F443C1DE
:1037C0008F718531C9F580917602E0917702B8E07A
:1037D000EB9FF0011124E80FF11DE754FE4F20810B
:1037E000283009F48BC0F6018081A981BA81EC915F
:1037F000B8E0EB9FF0011124E80FF11DE754FE4FF4
:103800008081FAE0FF2E6F2D0E945F36392F822FC4
:103810000E945F36391372C0F101808183FF6EC050
:103820000E94F42682E10E94D61AF092AC01D101E6
:103830008C91877F8C930BC1893109F05FC021E0A7
:10384000F12C6AE0822F2A870E9444282A8597FF5C
:1038500002C081509F4F892F990F990BFC01EF5A9D
:10386000FA4F80818F71893109F4F3942F5F2530ED
:1038700041F7FF2009F442C00E94043722E030E003
:1038800040E050E00E942837672B682B692BB1F588
:103890000E9404372AE030E040E050E00E942837E0
:1038A0008AE0860F482E512C612C712C80910901E1
:1038B00090910A01A0910B01B0910C014816590694
:1038C0006A067B060CF0C3C00E94F42683E10E94C6
:1038D000D61A8091090190910A01A0910B01B09133
:1038E0000C0184199509A609B709809309019093E1
:1038F0000A01A0930B01B0930C01A9C0F8018081CB
:10390000805E803210F42FEF01C021E0A981BA81DE
:103910003C91A0917702A31718F5422F022E000CBC
:10392000550B832F90E0841B950BF601608173E0AB
:10393000880F991F7A95E1F7860F911DFC01E657D4
:10394000FB4F608161110CC0FC01E754FE4F808188
:1039500081508A3128F422E030E0241B350B24C04A
:10396000F601408150917602541708F5622F022E1D
:10397000000C770B842F90E0861B970BF8E03F9F9D
:10398000800D911D1124FC01E657FB4FE081E111F0
:103990000EC0FC01E754FE4F808181508A3138F41B
:1039A00023E030E0261B370B3C872B8750C03A17AB
:1039B000F8F4A22F022E000CBB0BCD01830F911D3A
:1039C00063E0880F991F6A95E1F7840F911DFC0150
:1039D000E657FB4F608161110BC0FC01E754FE4FBD
:1039E000808181508A3120F4BD016E5F7F4F2DC0F0
:1039F0004517E8F4622F220F770BCB01840F911D3E
:103A0000A8E03A9F800D911D1124FC01E657FB4F61
:103A1000208121110CC0FC01E754FE4F80818150B0
:103A20008A3128F4FB013396FC87EB8710C00E9493
:103A3000043724E030E040E050E00E9428379B014A
:103A40002F5F3F4FB1CF65E070E07C876B87D1017E
:103A50008C9185FF0DC00E94043723E030E040E0E8
:103A600050E00E942837672B682B692B09F452C25B
:103A70002B853C85215031092430310508F017C2CF
:103A8000AB85BC85A170BB278B859C8502978A9FDF
:103A9000A02D1124217033278B859C850397289FA7
:103AA000902D1124E981FA818081682F70E0AB01AB
:103AB0004A0F511DA7FD5A952091770230E0421719
:103AC000530709F0B4C1F6012081E92F092E000C3B
:103AD000FF0BE20FF11D2091760230E0E217F307B1
:103AE00009F0A5C12C813D81232B09F0E0C1D8014B
:103AF000EC91EF71EB83B7E0EB9FF00111249F0194
:103B00002357384F7901F9013396649090916905F4
:103B100080910D01890F880F681A0E94043724E6EE
:103B200030E040E050E00E942837562E61E084E00B
:103B30000E949828882389F090E00197FC01E052C8
:103B4000FD4FE081EF70F0E0EA57F84FE491DC01BF
:103B5000A455BD4F4C904E0E01C0412C561408F098
:103B6000A6C1F701329624913197649130E040E08C
:103B700050E070E080E090E00E94D52D9B01AC0108
:103B8000642D7DEF7603D0011124AC59BF4F0E9404
:103B9000523724E630E040E050E00E942837290107
:103BA0003A015524662477248091090190910A01F5
:103BB000A0910B01B0910C01481659066A067B06CC
:103BC0004CF07B80739473947092A60182E0809392
:103BD000A5016DC10E94F4268091090190910A010E
:103BE000A0910B01B0910C0184199509A609B709A0
:103BF0008093090190930A01A0930B01B0930C01EB
:103C0000D1018C9183FF53C1EB818E2F90E0FC0199
:103C10003597E231F10508F04AC1EA57FF4F0C949D
:103C20008D360E940437A50194010E942837672B26
:103C3000682B692B09F03BC18DE00E94D61A0E94C7
:103C40000437A50194010E9428376C5F6093A80196
:103C50000E94043724E130E040E050E00E94283721
:103C6000672B682B692B09F00EC210920901109284
:103C70000A0110920B0110920C0181E08093A601C1
:103C800002C280914C01843008F051C185E00E944D
:103C9000F62A882309F44BC10AC1809165059091E9
:103CA0006605A0916705B0916805C397A105B105A8
:103CB0000CF4FDC00E9404372AE030E040E050E000
:103CC0000E942837672B682B692B09F044C1EFC08D
:103CD00061E084E00E949828882309F4E8C0E82E77
:103CE000F12CF1E0EF1AF108F701E858FD4F80815F
:103CF00083FF55C1DCC00E94043722E030E040E081
:103D000050E00E942837672B682B692B09F0CFC041
:103D10000E94043724E130E040E050E00E94283760
:103D2000E62FF0E0E858FD4F808184FDC0C08FE0B1
:103D300069870E94D61A6985862F0E948512D8014C
:103D40008C9180548C939FC18091A7018111AFC049
:103D500081E10E94D61A81E08093640594C180912C
:103D60000D01863008F4A3C00E940437A501940118
:103D70000E942837672B682B692B09F41EC197C056
:103D80000E9404372AE030E040E050E00E942837EB
:103D900064307105810591050CF089C085E10E94B0
:103DA000D61A0E94043723E030E040E050E00E9441
:103DB0002837F62E60FF2DC08091090190910A01ED
:103DC000A0910B01B0910C018A309105A105B105BC
:103DD0000CF459C10197A109B1098093090190938D
:103DE0000A01A0930B01B0930C0180910501909101
:103DF0000601A0910701B09108010197A109B1093D
:103E00008093050190930601A0930701B0930801E8
:103E10003AC185E00E94F62A90914C01882309F46A
:103E20002EC1963008F02BC1F110C6CF2CC1453100
:103E30005105E8F5F601B0812B2F30E0F901E90FCB
:103E4000F11D97FDFA95E830F10588F5440F551FEF
:103E5000440F551F440F551F4E0F5F1FFA01E657C1
:103E6000FB4FE081E11123C0FA01E754FE4F40818E
:103E700041504A31E0F443E0660F771F4A95E1F77D
:103E8000620F731FFB01E657FB4F1082A80FE981F9
:103E9000FA81A0839B0FF6019083F8E0AF9FD001D9
:103EA0001124A90FB11DA657BB4F2E812C936C81F5
:103EB0007D816F5F7F4F7D836C8373CC0F5F1F4F5E
:103EC000E981FA813196FA83E983FFEFCF1ADF0A9D
:103ED0002E812F5F2E833FEF231A330A213109F001
:103EE000B5CB2C960FB6F894DEBF0FBECDBFDF91D9
:103EF000CF911F910F91FF90EF90DF90CF90BF90E7
:103F0000AF909F908F907F906F905F904F903F9079
:103F10002F9008950E94043724E030E040E050E004
:103F20000E942837DB011196BC87AB87A1CD0E9488
:103F30000437A50194010E942837672B682B692B51
:103F400009F0B5CF8EE00E94D61A80914C018150C5
:103F500080934C0198C08FE00E94D61A409065056E
:103F60005090660560906705709068050E94043760
:103F700022E330E040E050E00E942837461A570A1A
:103F8000680A790A40926505509266056092670555
:103F900070926805F80180818054808374C089E044
:103FA0000E94F62A811183CF80E10E94D61AF70180
:103FB000E455FD4F80818150F0CF84E10E94D61AF4
:103FC00060910E0170910F0180911001909111018B
:103FD00022E030E040E050E00E94283720930E01BC
:103FE00030930F014093100150931101DA01C90180
:103FF0000197A109B1098093AD019093AE01A093FF
:10400000AF01B093B00180910D01815080930D01FB
:1040100040900501509006016090070170900801E2
:10402000F3E04F1A5108610871080E94043727E035
:1040300030E040E050E00E942837461A570A680AEC
:10404000790A409205015092060160920701709230
:1040500008018091090190910A01A0910B01B09192
:104060000C01481659066A067B066CF44092090159
:1040700050920A0160920B0170920C0104C09150A1
:1040800090934C01D1CE0E94F42611CFCF93DF93B1
:10409000CDB7DEB72D970FB6F894DEBF0FBECDBFFC
:1040A0009DE0E6E8F1E0DE01119601900D929A950F
:1040B000E1F790E070E0FE01E80FF91F411118C030
:1040C0008081680F711D33E0660F771F3A95E1F725
:1040D00064507D4FA6EBB5E080E090E0FB01E80F77
:1040E000F91FE491ED93019688309105B9F726C048
:1040F000258105973EE0389FF001399FF00D11248E
:104100006E0F7F1FFB01EC5EFE4F808190E0820FFF
:10411000911D23E0880F991F2A95E1F784509D4F48
:10412000A6EBB5E020E030E0FC01E20FF31FE491E4
:10413000ED932F5F3F4F28303105B1F72D960FB625
:10414000F894DEBF0FBECDBFDF91CF91089590E010
:10415000FC01E656FC4F1082FC01EE58FC4F108229
:10416000FC01E65BFC4F1082FC01EE5DFC4F10820F
:10417000FC01E650FD4F108208954F925F926F92BE
:104180007F929F92AF92BF92CF92DF92EF92FF9277
:104190000F931F93CF93DF9382ECC82E83E0D82E2A
:1041A00000E010E098E0492E512C612C712CE02E9B
:1041B000E694E694E694E8E0EE9E70011124C0E0F7
:1041C000D0E0F02FF7709F2EFE01EE0DFF1DE65898
:1041D000FA4F808190E0092C02C0959587950A944A
:1041E000E2F780FF23C05601AC0EBD1ED5018C91B5
:1041F0008823E1F0BE01C8010E94B118D501EC91FD
:10420000F0E0E756FC4FE0818091AA018823B1F1EC
:104210000E940437A30192010E9428376F5FE62FA6
:10422000F0E0E35BF74F84910E94072D2196C830A0
:10423000D10551F60F5F1F4FB8E0CB0ED11C0531F1
:10424000110509F0B4CF6091760270E08091770299
:1042500090E00E94B1188CE498E0DF91CF911F911B
:104260000F91FF90EF90DF90CF90BF90AF909F9015
:104270007F906F905F904F900C94122D6E2F6295EF
:104280006F70CDCF6F927F928F929F92AF92BF92BD
:10429000CF92DF92EF92FF920F931F93CF93DF9312
:1042A0001F92CDB7DEB728E0829FC0011124860F90
:1042B000911D8C010E531C4FF8018081811193C117
:1042C00049830E94A11291E0980FF8019083082F72
:1042D00010E0C8018E589C4F7C0181E0F70180837B
:1042E000C801865B9C4F6C01FC011082C8018E5D89
:1042F0009C4F5C01FC011082C80186509D4F3C011F
:10430000FC011082498141111CC00E94043724E63F
:1043100030E040E050E00E94283740E0262F30E0B7
:10432000842F90E0FC01ED5BF74FE4914F5F6E1737
:10433000B8F3FC01EC5BF74FE491F0E02E173F0778
:104340007CF750E0FA013197E830F10508F04BC1F5
:10435000E856FF4F06561C4F0C948D3680E1F8014D
:1043600080830E94043724E630E040E050E00E9461
:10437000283780911201680FF70134C10E94043779
:1043800025E030E040E050E00E942837672B682BA2
:10439000692B11F481E201C080E2F80180830E9460
:1043A000043722E030E040E050E00E9428376F5FA1
:1043B000F7016083F30180818068FAC00E940437AE
:1043C00028E030E040E050E00E94283780E3860F8C
:1043D000F8018083643018F481E0F7010EC00E9478
:1043E00004372DE030E040E050E00E9428376D5F58
:1043F000F7016083F3018081806880830E94043725
:1044000026E030E040E050E00E94283761111AC0F9
:104410000E94043723E030E040E050E00E9428375B
:1044200011E0160F612F70E06F5F7F4F072E000CB9
:10443000880B990B0E94B12DF6016083161BF501C4
:104440001083D1C0613009F0CEC00E94043723E050
:1044500030E040E050E00E94283711E0160F612F55
:1044600070E06F5F7F4F072E000C880B990B0E9446
:10447000B12D862F8195F6018083611BF50187C0E0
:104480000E94043727E030E040E050E00E942837E7
:10449000B62E605CF801608381E0F70180830E94A2
:1044A000043726E030E040E050E00E9428376111F8
:1044B0000CC00E94043723E030E040E050E00E944E
:1044C00028376F5FF601608311C0613079F40E9474
:1044D000043723E030E040E050E00E942837609548
:1044E000F6016083F301808180648083B1107BC01A
:1044F000F301808188605CC080E00E940D13805BC6
:1045000004C081E00E940D13805AF801808381E08D
:10451000F70180834FCF0E9404372BE030E040E06A
:1045200050E00E94283780E7860FF801808381E001
:10453000F7018083E62FF0E0EC5EFE4F848D84303F
:1045400049F018F4813089F14EC0863019F0873077
:1045500001F149C00E94043722E0822E912CA12C47
:10456000B12CA50194010E942837611108C00E9456
:104570000437A50194010E9428376F5F32C00E9462
:104580000437A50194010E9428376095F6016083E5
:104590000CC00E94043722E030E040E050E00E946E
:1045A0002837672B682B692BF1F4F3018081806435
:1045B000808319C00E9404372AE030E040E050E0D8
:1045C0000E9428376058F801608381E0F7018083FA
:1045D0000E94043724E030E040E050E00E94283799
:1045E0006D5FF60160830F90DF91CF911F910F9166
:1045F000FF90EF90DF90CF90BF90AF909F908F9003
:104600007F906F9008953F924F925F926F927F924A
:104610008F929F92AF92BF92CF92DF92EF92FF92D2
:104620000F931F93CF93DF9382E7E82E82E0F82E5B
:104630006701C0E0D0E0F60181916F01813029F07F
:104640002196C430D105B9F74CC000E010E0CE018E
:104650008B599D4F2C01FE01E359FD4F3F01CE01C7
:104660008F599D4F5C01FE01E759FD4F4F0180912D
:104670007102F7E08F9FC001112402968017910705
:10468000FCF2F2012081022E000C330B2F5F3F4F12
:10469000032E000C440B550BF3016081062E000C19
:1046A000770B880B990B0E94D52D362EF5012081B2
:1046B000022E000C330B2F5F3F4F032E000C440BD8
:1046C000550BF4016081062E000C770B880B990BBB
:1046D0000E94D52D40E0832D0E9442210F5F1F4F85
:1046E000C6CF8091120163E00E945F36992341F0AA
:1046F0009091120180914D01981708F042C0B7C007
:10470000C0E0D0E0F70181917F018130A9F5FE0181
:10471000EB59FD4F2081022E000C330B2F5F3F4FD2
:10472000032E000C440B550BFE01E359FD4F608135
:10473000062E000C770B880B990B0E94D52D162F97
:10474000FE01EF59FD4F2081022E000C330B2F5F2D
:104750003F4F032E000C440B550BFE01E759FD4F54
:104760006081062E000C770B880B990B0E94D52DCB
:1047700042E0812F0E9442212196C430D10511F6DA
:10478000B7CFE0911301F0E0E152FD4F8081803915
:1047900009F46DC08091710281110AC00E94043732
:1047A00022E030E040E050E00E942837660F01C070
:1047B00060E0E62FF0E0EE58FD4F8081811101C0EE
:1047C0006F5FC62FD0E0FE01E359FD4F1081FE015F
:1047D000EB59FD4F6081062E000C770B611B7109B0
:1047E00017FD73956F5F7F4F072E000C880B990B99
:1047F0000E94B12D160FFE01E759FD4F0081CF59E0
:10480000DD4F6881062E000C770B601B710907FDD8
:1048100073956F5F7F4F072E000C880B990B0E94DA
:10482000B12DC02FC60F0E94A11228E0129FF001E7
:104830001124EC0FF11DEE53FC4F91E0980F908383
:1048400090E0FC01E656FC4F20E92083FC01EE5885
:10485000FC4F21E02083FC01E65BFC4F1082FC0151
:10486000EE5DFC4F1082FC01E650FD4F1082DF919F
:10487000CF911F910F91FF90EF90DF90CF90BF905D
:10488000AF909F908F907F906F905F904F903F90F0
:10489000089580917602843058F081E090E0909302
:1048A000E4058093E3051092E6051092E5050CC03F
:1048B00081E090E09093E4058093E30588E390E045
:1048C0009093E6058093E5058EEB95E00C94B42C6F
:1048D000BF92CF92DF92EF92FF920F931F93CF93ED
:1048E000DF93182FF62EE42E6091120123E0260F9D
:1048F000665066310CF065E167FD60E02B310CF02D
:1049000029E1022E000C330B440B550B062E000C34
:10491000770B880B990B0E94D52DB62E27E0629F4E
:10492000C0011124FC01E357F84F6F01EF012696F7
:10493000FE0194919F70933069F028F49130B1F0AA
:10494000923019F125C0953099F008F1963001F5B3
:1049500003E01EC00E94043725E030E040E050E054
:104960000E942837672B682B692B79F001E010C073
:104970000E94043725E030E040E050E00E942837F4
:10498000672B682B692B19F0F1CF02E001C004E01E
:10499000812F90E0FC01EE5AFA4F20E2029FB00C0A
:1049A0001124B082F601C490FC01E659FB4FC0828D
:1049B000FE01C491FC01E658FB4FC07FC860C08374
:1049C00028E0F29EF0011124EE0DF11DE657FB4F99
:1049D0001F5F1083DF91CF911F910F91FF90EF9098
:1049E000DF90CF90BF9008953F924F925F926F9269
:1049F0007F928F929F92AF92BF92CF92DF92EF926F
:104A0000FF920F931F93CF93DF9392E5C92E95E00A
:104A1000D92E22E4E22E25E0F22E00E010E033E071
:104A2000432E512C612C712C42E0842E912CA12C10
:104A3000B12C80917102E7E08E9FC001112408968D
:104A4000801791070CF47CC00E940437A3019201E7
:104A50000E942837672B682B692B09F066C080916C
:104A6000710281110AC00E940437A50194010E94BD
:104A70002837EB01CC0FDD1F02C0C0E0D0E0FE0103
:104A8000EE58FD4F8081811101C02196FE01E3594E
:104A9000FD4F3080FE01EB59FD4F6081062E000C6A
:104AA000770B6319710937FC73956F5F7F4F072E82
:104AB000000C880B990B0E94B12D360EF701308245
:104AC000FE01E759FD4F3080CF59DD4F6881062E3A
:104AD000000C770B6319710937FC73956F5F7F4F7B
:104AE000072E000C880B990B0E94B12D432D460F09
:104AF000F801EE5CFA4F4083F70160818091770204
:104B0000681799F080917602481779F028E0629F43
:104B1000F0011124E40FF11DE657FB4F8081811154
:104B200004C0802F0E94682402C0F60110820F5F2B
:104B30001F4FFFEFCF1ADF0A2FEFE21AF20A79CFE9
:104B4000DF91CF911F910F91FF90EF90DF90CF9069
:104B5000BF90AF909F908F907F906F905F904F909D
:104B60003F900895CF938091DD058093DE050E94EC
:104B70005A2E8093DD0580E20E94A92CC82F80E880
:104B80000E94A92C8111C2E080E40E94A92C81110D
:104B9000C3E080E10E94A92C8111C4E088E00E945A
:104BA000A92C8111C5E084E00E94A92C811103C0C9
:104BB000CC23C9F201C0C6E00E94CE1A8C2FCF913F
:104BC00008954F925F926F927F928F929F92AF92D1
:104BD000BF92CF92DF92EF92FF920F931F93CF93EA
:104BE000DF931F92CDB7DEB780911201811103C010
:104BF0008FEF809312018091650590916605A091D9
:104C00006705B091680540919205509193056091B8
:104C1000940570919505481759076A077B070CF0B2
:104C20008AC0209112018093920590939305A093DE
:104C30009405B09395052093960582E9E82E85E0CA
:104C4000F82E670120E030E045E02F5F3F4F8601FE
:104C50000B5F1F4FC801B9016530710551F1F601B5
:104C60004080518062807380FC0180809180A280AE
:104C7000B38084149504A604B704BCF4F601ACEA2E
:104C8000B5E0542F01900D925A95E1F7FC01D60141
:104C9000542F01900D925A95E1F7ECEAF5E0DC0112
:104CA000542F01900D925A95E1F76F5F7F4F059653
:104CB000D3CF68012530310541F609E610E05801EF
:104CC000F5E0AF1AB108C801875D9A4F6C01F60193
:104CD00061916F01C50169830E941237698168176C
:104CE00019F0C5010E941A37FFEFAF1ABF0AA016CC
:104CF000B10669F785010B5F1F4F02381105F9F600
:104D00004091650550916605609167057091680551
:104D100095E080E0F7010081118122813381041741
:104D200015072607370709F4892FF5E0EF0EF11C68
:104D3000915081F701C080E00F90DF91CF911F91DA
:104D40000F91FF90EF90DF90CF90BF90AF909F902A
:104D50008F907F906F905F904F900895CF93DF93E7
:104D6000C82F8091AB01811106C00E9490190E944A
:104D7000BD200E94C51881E08093E8051092E705E8
:104D8000D0E0FE01EE5CFA4F608170E0FE01EE5B68
:104D9000FA4F808190E00E94B1188091AB0181119F
:104DA00011C0FE01E658FB4F808186FD0BC0CE5A34
:104DB000DA4FE881EF71F0E0E459F84F84910E94F6
:104DC000072D04C089E598E00E94122D88ED95E03A
:104DD0000E94762E0E94762D1092E80581E0809345
:104DE000E705DF91CF910895CF938091AB018111B9
:104DF00006C00E9490190E94BD200E94C518C1E003
:104E0000C093E8051092E7056091760270E080910A
:104E1000770290E00E94B11887E598E00E94122D79
:104E200088ED95E00E94762E0E94762D1092E8057E
:104E3000C093E705CF9108958F929F92AF92BF9252
:104E4000FF920F931F93CF93DF93E82FF0E0DF01E2
:104E5000A659BB4F9C91EE5AFA4F491708F454C01B
:104E600088E0289FD0011124A00FB11DA657BB4F89
:104E70001C92108287E0689FE0011124C357D84F2D
:104E8000FE013496E4918091AD019091AE01A09124
:104E9000AF01B091B0018E0F911DA11DB11D809386
:104EA000AD019093AE01A093AF01B093B0016F300C
:104EB00011F410926405122FF62E0E940437FE01A1
:104EC0003596C49124E630E040E050E00E94283757
:104ED0008C2E912CA12CB12C681579058A059B0587
:104EE000DCF489E0F81202C041E001C040E0602F2C
:104EF000812FDF91CF911F910F91FF90BF90AF90C5
:104F00009F908F900C944221941B9C9380818034BD
:104F100018F08F71805E8083DF91CF911F910F9188
:104F2000FF90BF90AF909F908F9008953F924F92C7
:104F30005F926F927F928F929F92AF92BF92CF9229
:104F4000DF92EF92FF920F931F93CF93DF9300D0E6
:104F500000D0CDB7DEB7682E862ED42E0E9404373F
:104F600028E030E040E050E00E942837909177023E
:104F70002091760230E088E0989FA00111245C83A4
:104F80004B83FA01E20FF31FE657FB4F8FEF80834D
:104F900000E010E0462E512C99E0A92EB12C712C86
:104FA00043E0342E912CC801840D951DB5010E945B
:104FB0007936C82E632D0E946B369150D301A90F0C
:104FC000B11D97FDBA958150F401E80FF11D87FDE1
:104FD000FA95FA83E98383E0AA0FBB1F8A95E1F76C
:104FE000CF018A0F9B1FAC0147545E4FFA014081ED
:104FF0004150443220F58E539C4FFC01E080F12C4F
:1050000041E050E0DD2011F040E050E0E49EB001CE
:10501000E59E700DF49E700D1124672B81F449817B
:105020005A81A40FB51FFD01E657FB4F80818D9D6E
:10503000C0011124892B19F481E08C0D07C00F5F8A
:105040001F4F0930110509F0AECF80E0EB81FC81E4
:105050002E0F3F1F26573B4FF90110820F900F90E4
:105060000F900F90DF91CF911F910F91FF90EF90D4
:10507000DF90CF90BF90AF909F908F907F906F9078
:105080005F904F903F9008951F93CF93DF93162F1B
:10509000E82FF0E09F01225031098170829F202D7E
:1050A0001124CF01019762E070E00E9479363397B6
:1050B0008E9F902D1124309177027091760260E0DE
:1050C000A22F022E000CBB0BC92F092E000CDD0BEA
:1050D000AD01430F511DE3E0440F551FEA95E1F781
:1050E000FE01E70FF11D4E0F5F1FFA01E657FB4F60
:1050F0008081882319F0320F790F0CC0FA01E75430
:10510000FE4F40814150483228F4320F790F6F5FD3
:105110006113DECF90E0982F882725E1729F800DE4
:10512000911D1124830F911DDF91CF911F9108953F
:10513000482FE0EEF2E021E030E080E0919192959E
:105140009F70941309C0D901A958BD4F9C9194FF39
:1051500003C0615009F4822F2F5F3F4F2531310585
:1051600069F708958F929F92AF92BF92CF92DF928C
:10517000EF92FF920F931F93CF93DF939091AC0127
:10518000992351F00E94043724E030E040E050E0E1
:105190000E94283781E0860F9091A801911114C0D8
:1051A000082F10E0E801229781708C9FC02D1124F8
:1051B000C801019762E070E00E947936035011093E
:1051C000809FE02C112402C0E12CC0E01092AB05BE
:1051D000809177024C2F0C2E000C550B480F511D5F
:1051E000009176026E2D0E2C000C770B600F711D56
:1051F0009A01B3E0220F331FBA95E1F7260F371F4C
:10520000F901E657FB4FD081D11130C168307105EB
:1052100008F0C5C14531510508F0C1C1F901E75495
:10522000FE4F90819150963208F0B9C1909164057B
:10523000911106C0C80FC09377020E0D009376023D
:105240000E94CE1A8091A7018111A9C10091770215
:10525000C0917602D0E038E0039F80011124F8016C
:10526000EC0FFD1FEE53FC4FE081E11103C00E94E3
:10527000CE1A95C1F0E0E756FC4F6081862F8295EB
:105280008F706F70893028F4853030F48130B8F039
:1052900015C0893099F013C0E82FF0E0EE0FFF1F22
:1052A000E357FE4F20813181062E02C036952795A7
:1052B0000A94E2F7922F9170F92E01C0F12C4F2D34
:1052C0000E9446200E94922DC8018C0F9D1FDC0178
:1052D000AE53BC4F7D018C91282F30E02150310915
:1052E000F901E656FC4F9081F9019031E9F4EE584E
:1052F000FC4F90814091650550916605609167056E
:1053000070916805490F511D611D711D4093650520
:1053100050936605609367057093680581500E94FD
:10532000A720F70110823BC1E650FD4F808187FD29
:1053300009C0209113012A3109F05AC082E00E946D
:10534000D61A2DC160EE862E62E0962E76ECA72E40
:1053500072E0B72EC12CD12C40E08091130190E077
:10536000C816D9060CF041C0D4012D914D01F701AA
:105370008081E82FF0E03197DF01A656BC4F9C9169
:1053800029132CC0D601A455BD4F2C91DF01A65B7B
:10539000BC4F9C91291322C0D601AE56BD4F2C9113
:1053A000DF01AE5DBC4F9C91291318C0D601A858EF
:1053B000BD4F9C91DF01A650BD4F2C91292726FDA2
:1053C0000DC0EE58FC4FD5012C919081920F9C930B
:1053D00081500E94A720F701108241E0FFEFCF1A11
:1053E000DF0A2FEFA21AB20AB8CF4111D8C0A1CF5D
:1053F00030E0C00FD11FCE53DC4F8881482F50E0E2
:1054000041505109F901E052FD4FDA01A656BC4F57
:105410009C919083F901EA53FD4FDA01AE58BC4FDD
:105420009C919083F901E455FD4FDA01A65BBC4FD6
:105430009C919083F901EE56FD4FDA01AE5DBC4FB1
:105440009C919083F901E858FD4FDA01A650BD4FB9
:105450009C91908381500E94A72018828091130113
:105460008F5F809313010E94C31199C0ED2FF0E06C
:10547000EF5AFA4F10810E94CE1A0E94043724E698
:1054800030E040E050E00E942837062F61E083E0E2
:105490000E949828882309F190E00197FC01E052CE
:1054A000FD4F20812F7030E0F901EE0FFF1FE5580E
:1054B000FD4FE491DC01A455BD4F6C91DE2ED60E5C
:1054C000F901EE0FFF1FE358FD4FE491DC01AE56EA
:1054D000BD4F9C91FE2EF90E02C0F12CD12C809173
:1054E0000D01880F885D9D2D990F9D0D890F08175F
:1054F00008F055C0D1508D2F0E94AE26DF9CF001E0
:1055000011249F01FF0F440B550B6D2D70E080E0BF
:1055100090E00E94D52D4B015C0190919F018091FC
:105520004C01890F0E941511282F009176020E0D53
:1055300080917702C80F880C991CAA1CBB1C30E014
:10554000C901880F991F092E000CAA0BBB0B880DEF
:10555000991DAA1DBB1D40916905042E000C550B19
:10556000660B770B840F951FA61FB71F20910D01A7
:10557000820F911DA11DB11DBC01CD016F5F7F4F39
:105580008F4F9F4F22E030E040E050E00E942837EC
:10559000422F612F6F712C2F8D2F0E941C270E948C
:1055A00041110E94B3168091A901882321F08091B6
:1055B000B10180FD0EC0DF91CF911F910F91FF903F
:1055C000EF90DF90CF90BF90AF909F908F900C9412
:1055D000F71ADF91CF911F910F91FF90EF90DF901D
:1055E000CF90BF90AF909F908F9008951F93CF93CF
:1055F000DF93182F90E0C0E0D1E0D90F6D2F87E046
:105600000E949828882369F0E82FF0E0E152FD4FCE
:10561000E081EF70F0E0EC5EFE4F848D811301C0FD
:10562000CF5F91E0D23041F78C2FDF91CF911F9166
:10563000089590E0FC01E052FD4FE081EF70F0E052
:10564000EC5EFE4F248D243019F0263069F0089569
:10565000FC01E455FD4F908180919F01699F800D71
:10566000112480939F010895FC01E455FD4F908122
:1056700080916905699F800D1124809369050895C3
:10568000AFEEB5E02FB7F8947D918D919C9166B502
:105690002FBFA89B05C06F3F18F47F5F8F4F9F4FB0
:1056A00022E0660F771F881F991F2A95D1F708956A
:1056B000CF92DF92EF92FF920F931F93CF93DF93DE
:1056C0006C017A018B01C0E0D0E0CE15DF0589F0D6
:1056D000D8016D918D01D601ED91FC910190F08181
:1056E000E02DC6010995892B11F47E0102C0219697
:1056F000ECCFC701DF91CF911F910F91FF90EF90F9
:10570000DF90CF9008952F923F924F925F926F92C9
:105710007F928F929F92AF92BF92CF92DF92EF9241
:10572000FF920F931F93CF93DF93CDB7DEB72797E9
:105730000FB6F894DEBF0FBECDBF9B838A836A305D
:10574000A1F4DC0155962C91559751968D919C9121
:105750005297B8E02B9F800D911D1124EA81FB81A7
:10576000928B818B108A1786C1C06D3009F4BEC040
:10577000AA81BB8155964C91559754966C9054973D
:105780006E8253967C9053977F825196CD90DC9099
:1057900052971F968D919C91509780389105C4F037
:1057A000AA81BB8155962C915597422F50E01F96A8
:1057B0008D919C915097B6E02B9F800D911D1124E7
:1057C000EA81FB81908B8787268921117AC08EC060
:1057D000F0E4CF16D10424F79C0155E0459F200D3D
:1057E000311D112412161306DCF6242E312C9601DD
:1057F000A8E04A9F200D311D11241216130684F6CD
:10580000B5E06B9FB0011124FB01ED59F74F2F015B
:1058100050E0F201B490553009F4B12C7601B8E0B3
:105820009B2EB0FC02C08E8001C08F8081100BC007
:105830006E807F80671007C0B6949A94E20CF31CC8
:105840009110EFCF33C09C012983622F681B64172E
:1058500098F7B701E62FEE19E41728F5203831053F
:10586000F8F460347105E0F48B01EBE5F8E0A0E1B9
:105870006A2E7980609ED001A0781124A70D077050
:10588000E00FF11DA490BD83AC83AD50BA4F8820CA
:1058900019F0EC91AE2A03C0A094EC91AE22AC9228
:1058A0006F5F7F4FD7CF2F5F3F4FCECF5F5F820DB0
:1058B000931D92012F5F3F4F2901563009F0A9CF68
:1058C0006FCF6AEF64039001659F300D112420585B
:1058D0003F4F2817390754F48A819B81DC01ED91F1
:1058E000FC910190F081E02D6AE0099581E090E063
:1058F00027960FB6F894DEBF0FBECDBFDF91CF91D4
:105900001F910F91FF90EF90DF90CF90BF90AF90DD
:105910009F908F907F906F905F904F903F902F90CF
:1059200008950895089580E090E0089590E0E3EFF1
:10593000F5E091119FEF8FEF919391939193919354
:105940008150D0F7E4EDF5E0128A118A108A1786AB
:1059500008952091DE05282329F49091DD059823F0
:1059600081E009F480E00895009769F0FC0101905E
:105970000020E9F73197AF01481B590BBC0184EDBA
:1059800095E00C94582B80E090E008958F929F92C0
:10599000AF92BF920F931F93CF93DF93CDB7DEB734
:1059A000A1970FB6F894DEBF0FBECDBF19A242304B
:1059B00008F44AE08E010F5D1F4F842E912CA12C1C
:1059C000B12CA50194010E945A37E62FB901CA01F2
:1059D00001501109EA3014F4E05D01C0E95CD8011E
:1059E000EC93232B242B252B61F7C8010E94B42CA8
:1059F000A1960FB6F894DEBF0FBECDBFDF91CF9159
:105A00001F910F91BF90AF909F908F900895E0915C
:105A1000D405F091D5050190F081E02D682F84ED3B
:105A200095E009940F931F93CF93DF938C01C0E00F
:105A3000D0E0F801EC0FFD1F6491662371F0E09156
:105A4000D405F091D5050190F081E02D84ED95E02D
:105A50000995892B11F02196ECCFCE01DF91CF91E2
:105A60001F910F91089594B59F772F9A94BD9091AF
:105A700080009F75811102C02E9A0AC08F3F11F4D9
:105A80002E9806C0906210928B00809580938A00B9
:105A90002D9A909380000895CF92DF92EF92FF921B
:105AA000CF93DF9397FF19C06B017C018DE20E94B9
:105AB000072DEC0166277727CB016C197D098E092C
:105AC0009F094AE00E94C62C8C0F9D1FDF91CF9149
:105AD000FF90EF90DF90CF9008954AE0DF91CF9153
