:100000000C943A070C9462070C9462070C946207F4
:100010000C9462070C9462070C9462070C946207BC
:100020000C9462070C9462070C94E8210C945A22F9
:100030000C9462070C9462070C9462070C9462079C
:100040000C9462070C94F50A0C9462070C946207F6
:100050000C9462070C9462070C9462070C94CF090D
:100060000C9462070C9462070C9462070C9462076C
:100070000C9462070C9462070C9462070C9462075C
:100080000C94060C0C9462070C9462070C946207A3
:100090000C9462070C9462070C9462070C9462073C
:1000A0000C9462070C9462070C94620789088C0810
:1000B0007B087F088308AD08AD08AD089008940858
:1000C00098089E08A208AD08A808240929092E0945
:1000D000380942098C098C098C094C0956096009B8
:1000E0006A0977098C097F09F0F89C8E8783878ECF
:1000F0009CF8F00000FEFF0303030303070EFCF867
:100100000000FEFF0303030303070EFCF80000FFDB
:10011000FF00000000000000FFFF0000FEFF8383DF
:10012000838383C7EE7C380000F8FC0E07030303CB
:10013000070EFCF800003F7FE0C08080C0E07F3FFA
:10014000FFFF01010101010101FFFF0000FFFF0CA2
:100150000C0C0C1C3E77E3C100007FFFC0C0C0C088
:10016000C0E0703F1F00001F3F70E0C0C0C0E070E3
:100170003F1F00007FFFC1C1C1C1C1E3773E1C002A
:10018000001F3F70E0C0C0C0E0703F1F00000000D3
:100190000001FFFF01000000000000002400270014
:1001A0002A002D003000D5F08D14A1C881CFD9F1DF
:1001B000AF20001402130212021502070208020403
:1001C000010C010601004F6666004F6E00536F750B
:1001D0006E643A2000FFFFFFFFFFFFFFFFFFFFFFFE
:1001E000FFFFFFFFFFFF0F0703010101E1E1E10155
:1001F00001010107070FFFFFFF010101010101FFDD
:10020000FFFF01010101010101FFFFFF01010101E8
:100210000101E1E1E10101010107070FFFFFFD011C
:100220000101010101E1E1E1E1E1E1E1E1E1EDFFF4
:10023000FF01010101010101E1E1E1010101030708
:100240000FFFFFFFFFFFFFFFFFFFFFFFFFFFFFFFAE
:10025000FFFFFFFFFFFFFFFFFFFFFFFFFFFFFFFFAE
:10026000FFFFFFFFFFFF3C3830303030F3E3E306A1
:10027000060606060E1EFFFFFF000000000000FF3E
:10028000FFFF00000000000000FFFFFF0000000073
:100290000000FFFFE3E0E0E0E0F0F8F8FFFFFF0020
:1002A0000000000000FFEBE3E3E3E3E3E3E3EBFF45
:1002B000FF00000000000000FFE3E3000000001862
:1002C00018FBFFFFFFFFFFFFFFFFFFFFFFFFFFFF29
:1002D000FFFFFFFFFFFFFFFFFFFFFFFFFFFFFFFF2E
:1002E000FFFFFFFFFFFFF8F0C0C0C0C0C3C3C3C023
:1002F000C0C0C0F0F0F8FFFFFFF8F0C0C0C0C0C33E
:10030000C3C3C0C0C0C0F0F0F8FFFFFFC0C0C0C092
:10031000C0C0FFFFFFFFFFFFFFFFFFFFFFFFDFC0CA
:10032000C0C0C0C0C0C3C3C3C3C3C3C3C3C3DBFF58
:10033000FFC0C0C0C0C0C0C0FFFFFFC0C0C0C0C0C1
:10034000C0FFFFFFFFFFFFFFFFFFFFFFFFFFFFFFFC
:10035000FFFFFFFFFFFFFFFFFFFFFFFFFFFFFFFFAD
:10036000FFFFFFFFFFFFFFFFFFFFFFFFFFFFFFFF9D
:10037000FFFFFFFFFFFFFFFFFFFFFFFFFFFFFFFF8D
:10038000FFFFFFFFFFFFFFFFFFFFFFFFFFFFFFFF7D
:10039000FFFFFFFFFFFFFFFFFFFFFFFFFFFFFFFF6D
:1003A000FFFFFFFFFFFFFFFFFFFFFFFFFFFFFFFF5D
:1003B000FFFFFFFFFFFFFFFFFFFFFFFFFFFFFFFF4D
:1003C000FFFFFFFFFFFFFFFFFFFFFFFFFFFFFFFF3D
:1003D000FFFFFFFFFFFFFFFFF8F8F8F80000000045
:1003E000000000F8F8F8F8F8FFFFFF000000000038
:1003F00000FFFFFF00000000000000FFFFFF010101
:1004000000000000F8F8F800000000010303FFFFFF
:10041000FF010100000000F8F8F8010107070100E2
:10042000F8F8F800000000000303FFFFFF010100DF
:10043000000000F8F8F8000000000103F7FFFF07D4
:10044000010100000000F8F8F8808080808183FFBF
:10045000FFFFFFFFFFFFFFFFFFFFFFFF00000000A8
:10046000000000FFFFFFFFFFFFFFFF000000000094
:1004700000F1F1F100000000000000FFFFFF0000AC
:1004800000000000FFFFFF00000000000000FFFF71
:10049000FF000000000000FFFFFF00000000000060
:1004A000FFFFFF00000000000000FFFFFF00000052
:1004B0000000001F1F1F000000000000FFFFFF1EC4
:1004C0001C1C1C181818F1F1F1030303030707FFA4
:1004D000FFFFFFFFFF3F3F3F3F3F3F3F30303030A8
:1004E0003030303F3F3F3F3F3F3F3F303030303094
:1004F000303F3F3F303030303030303F3F3F3C388E
:100500003030303031313130303030383C3C3F3FAA
:10051000373030303030303F3F3F303030303030A7
:10052000373F3F303030303030303F3F3F30303079
:100530003030303F3F3F303030303030373F3F3C5D
:1005400038303030303031313130303030383C3F7D
:100550003F3F3F3F3F7B009300AF00DC002601B8E8
:10056000014B02170455049704DD0427052E084E9D
:100570000AB707902F00AA8000AA902F00AA8090A7
:100580003600AA8000AA903600AA80903200AA8085
:1005900000AA903200AA80903400AA8000AA903469
:1005A00000AA80903400AA8000AA903400AA80009B
:1005B000AAF0546F74616C002B446973742E00535D
:1005C000636F726500FF80003FC3FC07F80080FF87
:1005D000FFE04207FC0FF08083002042044C08102B
:1005E0008083002442044C88108FF3002442644C22
:1005F00088108903232042644C09908903232042F8
:10060000644C09908903232042644C09F089132328
:1006100021C2644C390089132327C2040CF90081DC
:1006200003232042040C09008103232042060C0905
:1006300000FFFFFFFFC3FDF7FF0000000000000008
:100640000000000020D1C1B1A3D1C1B1A1FF0010B1
:1006500021113121FF0010C1B1A191FF081001004B
:100660000000010018FF83ABA37F120701FF9E1F4C
:10067000FE81070018FFFFFFFF7F120701FF9F1F8A
:10068000FF8107080801000000016020FF6367F395
:100690005F4A6020FF7F7FFF5F4A00404141515128
:1006A00061617171FF080801020101011C5AB997CB
:1006B000B7997A1C1C5EFFFFFFFF7E1C4849474824
:1006C0002053434F524500484947482053434F5217
:1006D000455300483A0053636F72653A200010108A
:1006E00001030200010000000000805028060141C3
:1006F000E222140C08804070282512080E06010121
:100700000000000000000000000080D0E8FEFF7F35
:10071000FE3E1C0C08804070383D1F0F0F07010182
:10072000000000000000000000003E5B4F5B3E3E0A
:100730006B4F6B3E1C3E7C3E1C183C7E3C181C578D
:100740007D571C1C5E7F5E1C00183C1800FFE7C331
:10075000E7FF0018241800FFE7DBE7FF30483A0600
:100760000E2629792926407F050507407F05253F6C
:100770005A3CE73C5A7F3E1C1C08081C1C3E7F1458
:10078000227F22145F5F005F5F06097F017F0066A2
:1007900089956A606060606094A2FFA29408047EFC
:1007A000040810207E201008082A1C08081C2A08AB
:1007B000081E101010100C1E0C1E0C30383E383065
:1007C000060E3E0E06000000000000005F00000064
:1007D00007000700147F147F14242A7F2A12231392
:1007E00008646236495620500008070300001C22A6
:1007F00041000041221C002A1C7F1C2A08083E08D8
:1008000008008070300008080808080000606000D8
:1008100020100804023E5149453E00427F400072CC
:10082000494949462141494D331814127F10274543
:100830004545393C4A494931412111090736494961
:100840004936464949291E00001400000040340082
:100850000000081422411414141414004122140836
:1008600002015909063E415D594E7C1211127C7FEE
:10087000494949363E414141227F4141413E7F49FC
:100880004949417F090909013E414151737F0808E7
:10089000087F00417F41002040413F017F08142232
:1008A000417F404040407F021C027F7F0408107F50
:1008B0003E4141413E7F090909063E4151215E7F8B
:1008C00009192946264949493203017F01033F405E
:1008D00040403F1F2040201F3F4038403F631408E6
:1008E000146303047804036159494D43007F414177
:1008F000410204081020004141417F04020102042A
:100900004040404040000307080020545478407F96
:10091000284444383844444428384444287F3854D0
:1009200054541800087E090218A4A49C787F080477
:10093000047800447D40002040403D007F10284462
:100940000000417F40007C047804787C080404782F
:100950003844444438FC1824241818242418FC7CF7
:1009600008040408485454542404043F44243C40DC
:1009700040207C1C2040201C3C4030403C4428103F
:1009800028444C9090907C4464544C440008364178
:100990000000007700000041360800020102040256
:1009A0003C2623263C1EA1A161123A4040207A3801
:1009B0005454555921555579412154547841215564
:1009C00054784020545579400C1E527212395555B6
:1009D0005559395454545939555454580000457C8C
:1009E000410002457D420001457C40F0292429F068
:1009F000F0282528F07C545545002054547C547C24
:100A00000A097F4932494949323248484832324A14
:100A10004848303A4141217A3A42402078009DA02E
:100A2000A07D39444444393D4040403D3C24FF24AE
:100A300024487E4943662B2FFC2F2BFF0929F620E3
:100A4000C0887E090320545479410000447D413020
:100A500048484A32384040227A007A0A0A727D0DAC
:100A600019317D2629292F28262929292630484D64
:100A70004020380808080808080808382F10C8ACB3
:100A8000BA2F102834FA00007B000008142A142220
:100A900022142A14089500220095AA005500AAAA3B
:100AA00055AA55AA000000FF00101010FF001414F2
:100AB00014FF001010FF00FF1010F010F0141414B9
:100AC000FC001414F700FF0000FF00FF1414F404EE
:100AD000FC141417101F10101F101F1414141F00E3
:100AE000101010F0000000001F101010101F101048
:100AF0001010F010000000FF101010101010101057
:100B000010FF10000000FF140000FF00FF00001F96
:100B100010170000FC04F414141710171414F40434
:100B2000F40000FF00F714141414141414F700F761
:100B3000141414171410101F101F141414F414108C
:100B400010F010F000001F101F0000001F14000024
:100B500000FC140000F010F01010FF10FF1414142B
:100B6000FF141010101F00000000F010FFFFFFFF27
:100B7000FFF0F0F0F0F0FFFFFF0000000000FFFFCB
:100B80000F0F0F0F0F38444438447C2A2A3E147E3E
:100B900002020606027E027E026355494163384422
:100BA000443C04407E201E2006027E020299A5E7F6
:100BB000A5991C2A492A1C4C7201724C304A4D4D91
:100BC000303048784830BC625A463D3E4949490079
:100BD0007E0101017E2A2A2A2A2A44445F44444095
:100BE000514A444040444A51400000FF0103E08024
:100BF000FF000008086B6B083612362436060F0912
:100C00000F06000018180000001010003040FF010F
:100C100001001F01011E00191D1712003C3C3C3C45
:100C2000000000000006011501260137014A015DA0
:100C300001720188019F01B801D201EE010B022A65
:100C4000024B026E029302BA02E40210033F0370E9
:100C500003A403DC03170455049704DD042705757A
:100C600005C80520067D06E0064907B8072D08A936
:100C7000082D09B9094D0AEA0A900B400CFA0CC07C
:100C80000D910E6F0F5A1053115B1272139A14D4F8
:100C90001520178018F519801B231DDE1EB420A611
:100CA00022B524E4263429A72B402E0031EA330054
:100CB00037453ABC3D68414C456B49C84D68524F79
:100CC00057805C006210111213151617181A1C1D9C
:100CD0001F21232527292C2E3134373A3E414549FF
:100CE0004E52575C62686E757B838B939CA5AFB93F
:100CF000C4D0DCE9F70000000200090F0000030483
:100D000001000C00000000000000000000000000D6
:100D100000000000040802011040804010204080C4
:100D20004080080204018040201002011080102041
:100D300040402000000000250028002B002E00313C
:100D40000004040404040304050202020204030272
:100D50000202020606060606060404020202040453
:100D6000030108080102020F003C42ADA1ADC25CC4
:100D700068080801020201010EC5FF6854EAD47830
:100D80000EC7FF787CFEFC780808010201030118F9
:100D9000A4EE656DE6A41818BCFE7F7FFEBC1800AB
:100DA00010F1E4FF0020E3D3E3D3C585FF0000008A
:100DB0000000FF00000000FF00FF000000818181B3
:100DC00081818181FFFF8181BF81818181818181D9
:100DD00081818181FFFF8181FD81818181FF81A5E9
:100DE0008181A581FFFF8185B5959D81FFFFA9A91F
:100DF000B9A9EFA9FFFFFFFFFFFFFFFFFF080B00EF
:100E000002020201000904000001020200000524A0
:100E10000010010524010101042402060524060036
:100E2000010705810310004009040100020A0000C7
:100E3000000705020240000007058302400000048D
:100E400003090412010002EF020140412336800031
:100E5000010102030141726475696E6F204C4C43BD
:100E60000041726475696E6F204C656F6E617264CB
:100E70006F00213011241FBECFEFDAE0DEBFCDBFFF
:100E800011E0A0E0B1E0E2E0F9E602C005900D92C9
:100E9000A636B107D9F728E0A6E6B1E001C01D9259
:100EA000A832B207E1F717E0CAE3D7E004C0219700
:100EB000FE010E948831C933D107C9F70E948A24F4
:100EC0000C947F340C940000CF92DF92EF92FF924B
:100ED0000F931F93CF93DF936C017A018B01C0E0D6
:100EE000D0E0CE15DF0589F0D8016D918D01D601D6
:100EF000ED91FC910190F081E02DC6010995892BBF
:100F000011F47E0102C02196ECCFC701DF91CF9191
:100F10001F910F91FF90EF90DF90CF9008953FB712
:100F2000F8948091910190919201A0919301B091D8
:100F3000940126B5A89B05C02F3F19F00196A11D6D
:100F4000B11D3FBFBA2FA92F982F8827820F911D5F
:100F5000A11DB11DBC01CD0142E0660F771F881FA6
:100F6000991F4A95D1F70895089580E090E008957B
:100F70000E94A231CF93DF9300D000D0CDB7DEB76F
:100F8000611571058105910579F09B01AC016983BB
:100F90003A834B835C830E94ED3029813A814B81F7
:100FA0005C810E94113103C060E070E0CB010F90C2
:100FB0000F900F900F90DF91CF9108954F925F9215
:100FC0006F927F92EF92FF920F931F93CF93DF93D5
:100FD000CDB7DEB7A1970FB6F894DEBF0FBECDBF79
:100FE0007C01FA01CB0119A2223008F42AE08E011B
:100FF0000F5D1F4F422E512C612C712CBF01A3019C
:1010000092010E944331F901CA01015011096A306D
:1010100014F4605D01C0695CD8016C93232B242B10
:10102000252B61F70115110591F0F80101900020C1
:10103000E9F73197AF01401B510BD701ED91FC91BE
:101040000280F381E02DB801C701099502C080E05C
:1010500090E0A1960FB6F894DEBF0FBECDBFDF9132
:10106000CF911F910F91FF90EF907F906F905F90C5
:101070004F900895EF92FF920F931F93CF93DF93BA
:101080008C017B01C0E0D0E0F701EC0FFD1F649103
:10109000662361F0D801ED91FC910190F081E02D83
:1010A000C8010995892B11F02196EECFCE01DF9171
:1010B000CF911F910F91FF90EF900895362F90E000
:1010C000FC01EB50F34F4491FC01EC5EF24F249194
:1010D000FC01EF5BF24F8491882309F451C0442353
:1010E000E1F150E0FA013197EF30F105B0F5EA5A3D
:1010F000FF4F0C948831909180009F7707C09091AA
:1011000080009F7D03C090918000977F9093800026
:1011100024C094B59F7702C094B59F7D94BD1DC037
:10112000909190009F7707C0909190009F7D03C0A1
:1011300090919000977F909390000FC09091C00085
:101140009F7703C09091C0009F7D9093C00005C021
:101150009091C200977F9093C200E82FF0E0EE0FCD
:10116000FF1FED5CF24FA591B4918FB7F894EC910D
:10117000311103C020952E2301C02E2B2C938FBF3D
:101180000895CF93DF9390E0FC01EC5EF24F249141
:10119000FC01EF5BF24F8491882361F190E0880FAE
:1011A000991FFC01E856FE4FC591D491FC01ED5CFE
:1011B000F24FA591B491611109C09FB7F89488814D
:1011C000209582238883EC912E230BC0623061F43A
:1011D0009FB7F8943881822F809583238883EC9180
:1011E0002E2B2C939FBF06C08FB7F894E8812E2B2F
:1011F00028838FBFDF91CF9108951F93CF93DF9303
:10120000182FEB0161E00E94C108209711F460E003
:1012100004C0CF3FD10539F461E0812FDF91CF9138
:101220001F910C945E08E12FF0E0EB50F34FE49136
:101230004E2F50E0FA013197EF30F10508F06CC005
:10124000EB59FF4F0C94883184B5806884BDC7BDCD
:1012500068C084B5806284BDC8BD63C080918000D1
:10126000806880938000D0938900C093880059C023
:1012700080918000806280938000D0938B00C09327
:101280008A004FC080918000886080938000D09356
:101290008D00C0938C0045C0809190008068809341
:1012A0009000D0939900C09398003BC0809190002B
:1012B000806280939000D0939B00C0939A0031C0CD
:1012C00080919000886080939000D0939D00C0939F
:1012D0009C0027C08091C00080688093C0008091EE
:1012E000C0008F7B8093C000C093CF001AC0809154
:1012F000C00080628093C000C093D00012C0809173
:10130000C20088608093C2008091C2008B7F80936E
:10131000C200C093D20005C0C038D1050CF07CCF0C
:1013200076CFDF91CF911F9108958F929F92AF92C8
:10133000BF92CF92DF92EF92FF926B017C010E94ED
:101340008F074B015C01C114D104E104F104F1F0F9
:101350000E948F07DC01CB0188199909AA09BB09F2
:10136000883E9340A105B10570F321E0C21AD1086F
:10137000E108F10888EE880E83E0981EA11CB11CDC
:10138000C114D104E104F10419F7DDCFFF90EF900F
:10139000DF90CF90BF90AF909F908F9008951F9255
:1013A0000F920FB60F9211242F933F938F939F9319
:1013B000AF93BF938091B5019091B601A091B70111
:1013C000B091B8013091900123E0230F2D3720F424
:1013D0000196A11DB11D05C026E8230F0296A11D8F
:1013E000B11D209390018093B5019093B601A09315
:1013F000B701B093B8018091910190919201A091B1
:101400009301B09194010196A11DB11D80939101AA
:1014100090939201A0939301B0939401BF91AF91E7
:101420009F918F913F912F910F900FBE0F901F9022
:1014300018958FB12CB193B130E020953095207480
:101440003327A90123E0559547952A95E1F7292FE0
:1014500030E02095309520713327359527953595C7
:101460002795242B8095807F822B0895FC01219164
:101470002EBD9C5F21910DB407FEFDCF2EBDE81758
:10148000F907C1F70DB407FEFDCF0895E0916A0199
:10149000F0916B01908180916901892B8083E091AB
:1014A0006701F091680190818091660180958923A0
:1014B0008083E0916A01F0916B01908180916901D4
:1014C0008095892380830895E0916701F0916801F8
:1014D000908180916601892B8083E0916A01F0916F
:1014E0006B019081809169018095892380830895A3
:1014F0008EBD00000DB407FEFDCF8EB50895CF92CE
:10150000DF92EF92FF920F931F93CF93E82FF0E0BB
:10151000E05AF24FC491E62FF0E0603330F4EB5321
:10152000F34FE4910E2F10E006C0EE0FFF1FEB53B8
:10153000F44F059114916801E12CF12C60E074E204
:1015400084EF90E0A70196010E941131BA01A90130
:1015500041505109610971094115510581E0680740
:10156000710580F060E970ED83E090E0A7019601DD
:101570000E941131BA01A901415051096109710953
:1015800083E001C081E0C130C9F0C33031F59091F2
:101590009100987F892B80939100509399004093FC
:1015A000980010938F0100938E0181E080938D014C
:1015B000809171008260809371000FC090918100D2
:1015C000987F892B809381005093890040938800F5
:1015D00080916F00826080936F00CF911F910F9177
:1015E000FF90EF90DF90CF9008951F920F920FB66B
:1015F0000F9211242F933F938F939F93AF93BF9399
:10160000EF93FF938091B401882309F44DC080913A
:10161000B0019091B101A091B201B091B301892BB9
:101620008A2B8B2B51F18091AC01E091AD01F091AF
:10163000AE019081892780838091B0019091B101A2
:10164000A091B201B091B301181619061A061B0633
:10165000A4F58091B0019091B101A091B201B09137
:10166000B3010197A109B1098093B0019093B10131
:10167000A093B201B093B30120C01092B401809145
:101680006F008D7F80936F009091AC01E091AD0170
:10169000F091AE018081282F30E0892F90E0809575
:1016A00090958223932308C08091AC01E091AD0115
:1016B000F091AE01908189278083FF91EF91BF91D6
:1016C000AF919F918F913F912F910F900FBE0F90EF
:1016D0001F901895E82FF0E0E05AF24FE491E130C6
:1016E00019F0E33069F0089580916F008D7F809349
:1016F0006F009091AC01E091AD01F091AE0108C096
:1017000010928D019091A901E091AA01F091AB0195
:101710008081282F30E0892F90E08095909582235A
:10172000932380830895E0916C01F0916D01BF01D6
:101730006F5F7F4F70936D0160936C014491942FA4
:10174000907F842F8F70903819F40E946A0BEBCF32
:10175000903981F43296F0936D01E0936C01FB01B6
:1017600064919091AF018917F0F667FDDCCF0E947C
:101770007F0AD9CF903E49F480916E0190916F011C
:1017800090936D0180936C01CECF903F19F410922D
:101790007001089597FDC7CF3296F0936D01E093E5
:1017A0006C01FB01249130E0342BA0918E01B091AB
:1017B0008F010E9465316C507E4F8F4F9F4F28EEF6
:1017C00033E040E050E00E944331209389013093A0
:1017D0008A0140938B0150938C01809189019091F3
:1017E0008A01A0918B01B0918C01892B8A2B8B2BC4
:1017F00061F481E090E0A0E0B0E0809389019093F3
:101800008A01A0938B01B0938C0108951F920F92CF
:101810000FB60F9211242F933F934F935F936F93C3
:101820007F938F939F93AF93BF93EF93FF93809199
:101830008D01882349F08091A901E091AA01F091DE
:10184000AB0190818927808380917001882329F1E1
:101850008091890190918A01A0918B01B0918C01B6
:10186000892B8A2B8B2BC9F08091890190918A0159
:10187000A0918B01B0918C010197A109B1098093CE
:10188000890190938A01A0938B01B0938C01892BDD
:101890008A2B8B2B11F40E94930BFF91EF91BF9138
:1018A000AF919F918F917F916F915F914F913F91F8
:1018B0002F910F900FBE0F901F9018952F923F926F
:1018C0004F925F926F927F928F929F92AF92BF9250
:1018D000CF92DF92EF92FF920F931F93CF93DF93FC
:1018E000CDB7DEB72A970FB6F894DEBF0FBECDBFD7
:1018F0009E838D83202E312CCB01820D931D97FD6D
:1019000031C1603871050CF02DC1CA018E0D911DD9
:1019100097FD28C1403451050CF024C1DA0157FF6E
:1019200004C0AA27BB27A41BB50BA770BB27CA01FD
:1019300057FD079613E0959587951A95E1F757FFA0
:1019400007C0019748E050E05A01AA1ABB0AD50126
:10195000EE2DE695E695E695AE2EB12C4E2D477010
:1019600019F00FEFA01AB00AAC015695542F442776
:1019700057954795460F571F8501080F191F1C8360
:101980000B83412C512CF8E0EF2EF12C5701AA1AB1
:10199000BB0ABA82A982AB80BC808A159B0509F478
:1019A000E1C08830910509F4DDC08F3F0FEF90074B
:1019B0000CF4CEC03A0110E8610E711C8A010C567D
:1019C0001F4FAD80BE80A00EB11EB886AF824B0106
:1019D00000E010E0021513050CF0BAC0E0E88E1626
:1019E000910409F4B5C097FCA8C08F3FFFEF9F0793
:1019F00009F4B4C0F801E40DF51DEF80F884E61891
:101A0000F708AA24A394E20FF31FCA1013C0E491AD
:101A1000E40EF51EF0E05F010A2E02C0AA0CBB1C0A
:101A20000A94E2F7BA86A986F701B080E985FA85BB
:101A3000EB292BC0C11017C0E491E40EF51EF0E0B5
:101A40000A2E02C0EE0FFF1F0A94E2F75F01A09476
:101A5000B094BA86A986F701A080B12CE985FA85F1
:101A6000AE22BF2213C0E491E40EF51EF0E05F0148
:101A70000A2E02C0AA0CBB1C0A94E2F7BA86A986F9
:101A8000F701B080E985FA85EB255F01F701A082B7
:101A9000109709F452C08730910509F44EC0F8013F
:101AA000E40DF51DAA24A394CA1011C0E20FF31F80
:101AB000E491EE2EF12C5701098002C0B594A79451
:101AC0000A94E2F7EF81F885F080AF2835C0EF8007
:101AD000F884E618F708E20FF31FC11018C0E4916C
:101AE000E60CF71CAE2EB12C098002C0B594A79469
:101AF0000A94E2F7F501E095F095FA87E987F70196
:101B0000A080B12CE985FA85AE22BF2214C0E491F1
:101B1000E60CF71CAE2EB12CF501098002C0F5953C
:101B2000E7950A94E2F7FA87E987F701B080E9853B
:101B3000FA85EB255F01F701A0820F5F1F4FEF8150
:101B4000F8853196F887EF83FFEF8F1A9F0A42CF0F
:101B50000196420C531C40585F4F1DCF109709F05F
:101B60009ECFEBCF2A960FB6F894DEBF0FBECDBF47
:101B7000DF91CF911F910F91FF90EF90DF90CF9069
:101B8000BF90AF909F908F907F906F905F904F909D
:101B90003F902F9008956038710518F54034510535
:101BA00000F5A42FA695A695A695B0E047705527F9
:101BB000B695BA2FAA27B795A7956A0F7B1FFC0188
:101BC000E60FF71F81E090E001C0880F4A95EAF721
:101BD000222319F09489892B03C080959489892345
:101BE000848B08952F923F924F925F926F927F92D3
:101BF0008F929F92AF92BF92CF92DF92EF92FF921D
:101C00000F931F93CF93DF93CDB7DEB72A970FB60D
:101C1000F894DEBF0FBECDBF6A3091F4FC01E85EE0
:101C2000FB4F408132972081318158E0459F200D44
:101C3000311D112431832083329711821082C1C05B
:101C40006D3009F4BEC09A878987885E9B4F9C835C
:101C50008B83DC012C90E985FA85EA5EFB4F60807E
:101C60007180E985FA85EC5EFB4FFA83E983008198
:101C7000118100381105D4F0AB81BC812C91422F29
:101C800050E0E981FA8180819181F6E02F9F800DFB
:101C9000911D1124A981BA818D939C93E985FA85C0
:101CA000E75EFB4F208121115EC08BC0B0E46B1654
:101CB000710414F7C801E5E02E9E800D911D1124DA
:101CC00018161906CCF6422C512CC301F8E02F9EB1
:101CD000800D911D11241816190674F655E0659FA4
:101CE000900111243F832E83E12CF12C85E0E8162E
:101CF000F10441F0EE81FF81EE0DFF1DEB5DF84F29
:101D0000349001C0312C630138E0932D91709D8394
:101D10004801882D801B8215B0F456018A2D8C193C
:101D2000821568F42D81A501B40189859A853887CB
:101D30000E94CB0DAFEFAA1ABA0A3885EFCFBFEFDA
:101D40008B1A9B0AE6CF36943150C40CD51C311146
:101D5000DCCFEFEFEE1AFE0A040D151DF6E0EF16CC
:101D6000F10421F689CF6AEF64039001659F300D7D
:101D7000112420583F4F281739071CF5A985BA852B
:101D8000ED91FC9111970190F081E02D6AE0CD0179
:101D90002A960FB6F894DEBF0FBECDBFDF91CF916C
:101DA0001F910F91FF90EF90DF90CF90BF90AF9079
:101DB0009F908F907F906F905F904F903F902F906B
:101DC00009942A960FB6F894DEBF0FBECDBFDF91FF
:101DD000CF911F910F91FF90EF90DF90CF90BF9028
:101DE000AF909F908F907F906F905F904F903F90BB
:101DF0002F9008952F923F924F925F926F927F9211
:101E00008F929F92AF92BF92CF92DF92EF92FF920A
:101E10000F931F93CF93DF932C01EB016A015901BC
:101E20009801241B350B37FF03C0319521953109EB
:101E3000C5018C1B9D0B97FF03C09195819591095E
:101E4000FF24F3948217930714F0F12C0AC09A2D03
:101E50008B2D5801092F182F9C2F8D2FE601C92E8D
:101E6000D82EAC16BD0654F49C2D8D2D6801092F7B
:101E7000182F9C2F8D2FE501A92EB82E15012C1A95
:101E80003D0A38016C187D0877FE03C07194619497
:101E90007108410137FE03C08FEF881A980A9594A4
:101EA0008794C016D10614F00FEF01C001E0002E98
:101EB000000C110BAC16BD06ACF02E2DFF2019F056
:101EC000AE01B60102C0A601BE01C2010E94CB0D47
:101ED0008618970897FE04C0C00ED11E820C931C72
:101EE0002196E8CFDF91CF911F910F91FF90EF9056
:101EF000DF90CF90BF90AF909F908F907F906F902A
:101F00005F904F903F902F9008950C9403310C9464
:101F1000FB30AF92BF92CF92DF92EF92FF920F937E
:101F20001F93CF93DF93CDB7DEB764970FB6F894C6
:101F3000DEBF0FBECDBFFC017C0188E2E80EF11CC4
:101F4000CE01019600E010E0D701DC90D1103FC037
:101F5000A2E1A09FC001A19F900D1124DC01589621
:101F6000AE0FBF1FE80FF91F758F648F81E080A748
:101F700082E081A703E0440F551F0A95E1F7179609
:101F80005C934E93169783E0220F331F8A95E1F7F7
:101F900019963C932E9318971B961C921E921A9793
:101FA0001D961C921E921C971F961C921F971E96A0
:101FB0001C921E976E5D764041F48CEF9FEF93A3C9
:101FC00082A382E090E095A384A3CD016AC0C68479
:101FD000D784D7011A970D90BC91A02DCA1ADB0A9D
:101FE000D7FE03C0D194C194D108DC01CD92DC921C
:101FF0000F5F1F4FB2E1EB0EF11C02960A30110584
:1020000009F0A2CF99818E010D5F1F4F81E0B12CA5
:10201000D801ED90FD908D01C92ED12CCE14DF0496
:1020200014F49E2DB82E8F5F8A3091F782E1B89E0E
:10203000D0011124CD0148968E0F9F1FEA0FFB1F80
:10204000758F648FA1E0A0A7A2E0A1A7A3E0440F31
:10205000551FAA95E1F7DC0117965C934E931697EE
:1020600013E0220F331F1A95E1F719963C932E9334
:1020700018971B961C921E921A971D961C921E92E0
:102080001C971F961C921F971E961C926E5D7640A1
:1020900041F42CEF3FEF33A322A322E030E035A33D
:1020A00024A364960FB6F894DEBF0FBECDBFDF91B8
:1020B000CF911F910F91FF90EF90DF90CF90BF9045
:1020C000AF900C94601ACF93DF9357FD21C0EC01C1
:1020D000CE59DF4FA0E0B0E02881398126173707BD
:1020E00091F42A813B812417350769F445E04A9F22
:1020F00090014B9F300D1124820F931FFC01EA5970
:10210000FF4F808106C011962596AE31B10521F7AB
:1021100080E0DF91CF9108952FB7F89483E080930A
:10212000E9009091E800892F807295FF04C090919A
:10213000F20080E4891B2FBF0895CF93DF931F9295
:10214000CDB7DEB76983DC01ED91FC910280F381AC
:10215000E02D41E050E0BE016F5F7F4F09950F9089
:10216000DF91CF91089583E08093E9008091F200A0
:10217000882319F08AE38093E80008950E948C1068
:1021800090E008952F923F924F925F926F927F92CC
:102190008F929F92AF92BF92CF92DF92EF92FF9277
:1021A0000F931F93CF93DF93CDB7DEB729970FB669
:1021B000F894DEBF0FBECDBF7C01E0919402F09198
:1021C0009502DF01A452BE4F2D913C91C9018E0DA5
:1021D0009F1D64E070E00E9474318E0F9F1FFC0110
:1021E000E851FE4F8081829FB001839F700D1124C2
:1021F0006E0D7F1D072E000C880B990B6115710564
:102200008105910511F00E94F230C70163E070E092
:102210000E9474318C0125E0000F111F2A95E1F70F
:1022200080E090E0FC01E00FF11FEA56FD4F1082C4
:10223000019680329105B1F763E070E080E090E0B4
:102240000E94BA07DC01CB010D96A11DB11D888744
:10225000E0919402F0919502E452FE4F208120FF1C
:1022600002C0198602C028E02987470194E0880C43
:10227000991C9A95E1F73985232E312CE114F1044C
:1022800091F4332341F0B1016F5F7F4F81E090E023
:102290000E947D2008C0682F70E06250710981E0C3
:1022A00090E00E944D2081E0098401C0880F0A94CB
:1022B000EAF78D83640109561D4FA12CB12C1A82B7
:1022C0001982A1014B5F5F4F5F834E83C10102966C
:1022D0009C838B839985992351F0F801983021F0E4
:1022E0008291AD818A2B02C0808181608083A1149C
:1022F000B10409F0CAC0F8858F2F90E0F80131973A
:1023000080319105FCF4883091055CF4408121E036
:1023100030E0082E01C0220F0A94EAF7242B208314
:102320000FC09C012850310941E050E002C0440F29
:10233000551F2A95E2F79A01D8013C91232B2C9343
:102340000196DECFE114F10409F4A2C0809192035A
:1023500090919303E816F9060CF09AC00E94ED30B4
:102360002AE030E040E050E00E941131672B682BFA
:10237000692B99F463E070E080E090E00E94BA0776
:10238000DC01CB010296A11DB11D5C01E985EE23A4
:10239000C9F0F1E0AF1AB10815C00E94ED3025E098
:1023A00030E040E050E00E941131672B682B692B30
:1023B00049F40E94ED3028852F3008F09FC0E88551
:1023C000EF5FE887809198039091990388159905AC
:1023D0000CF05EC00E94ED3028E030E040E050E0BC
:1023E0000E941131672B682B692B91F50E94ED300B
:1023F00024E130E040E050E00E9411316A3048F4BE
:102400004885242F30E022503109A60168E87DE09C
:1024100019C0603148F45885252F30E02250310929
:10242000A60161E77DE00EC0633190F489E0E81613
:10243000F10474F09885292F30E022503109A6016B
:1024400062E67DE080919402909195020E94890F4E
:102450000E94ED3020E130E040E050E00E94113178
:10246000672B682B692BA1F4A114B10489F4A8850A
:102470004A2E512CEE81FF81E415F5054CF429819B
:102480003A812F303105F1F503C031E0A31AB108CC
:1024900049815A814F5F5F4F5A8349835FEFC51A65
:1024A000D50A0E5F1F4F89819A81409709F012CF9C
:1024B0008091920390919303E816F90691F4C40178
:1024C0000D96A985AA2331F0B1016F5F7F4F0E945D
:1024D0007D2007C0B8856B2F70E0625071090E94A3
:1024E0004D208091980390919903881599050CF0DF
:1024F00043C090929903809298033EC0F885F150B2
:10250000F88760CFB20163507109CB01770FAA0B36
:10251000BB0B27E0421A51084B815C8144165506DB
:102520000CF42A01052C000C660877084816590699
:102530006A067B0664F4BC01CD016419750986093D
:1025400097090E94BA07460E571E681E791E0E9400
:10255000ED3024E030E040E050E00E941131A20173
:10256000672B682B692B19F4B60189E002C0B6010C
:1025700087E00E94EB1F8CCF29960FB6F894DEBF40
:102580000FBECDBFDF91CF911F910F91FF90EF90C4
:10259000DF90CF90BF90AF909F908F907F906F9083
:1025A0005F904F903F902F9008958F929F92AF929F
:1025B000BF92CF92DF92EF92FF920F931F93CF9330
:1025C000DF935C016B017A0180910901882309F492
:1025D0005BC080919801882309F456C080919601D0
:1025E00080FF05C08091E00082608093E000E701F9
:1025F00010E00AEF83E0882E9AE3992E2097D9F114
:102600000E948C1081110AC0015009F43DC061E0A4
:1026100070E080E090E00E949509F0CF282F30E034
:10262000C217D3070CF48C2F4FB7F8948092E900AF
:102630009091E80095FF1DC0282F30E0C21BD30BFE
:10264000F601982F915020F081918093F100FACFFC
:10265000C20ED31E112319F09092E80009C0809198
:10266000E80085FD06C09092E80011E0209709F08F
:1026700010E04FBFC3CF1111C3CF5D9884E68093A4
:1026800095011E141F0444F081E090E0F50193834E
:10269000828380E090E001C0C701DF91CF911F915C
:1026A0000F91FF90EF90DF90CF90BF90AF909F90F1
:1026B0008F90089580919203909193039695982F0F
:1026C00088279795879501972091940330919503DA
:1026D0003695322F222737952795215C3F4FE09181
:1026E0009003F0919103DF01B695BA2FAA27B79511
:1026F000A7954091D6015091D7014054510950936C
:10270000A8034093A7036091D8017091D901685044
:102710007109261737072CF07093AA036093A90359
:1027200004C03093AA032093A9038417950724F4C7
:102730009093A8038093A7038091A7039091A80387
:102740008A179B0724F4B093A803A093A703A09132
:102750009402B09195021E968D919C911F9797FFC0
:1027600002C081589F4F880F892F881F990B0197AE
:1027700097FF02C080E090E0E817F9073CF49093DF
:1027800091038093900302960C94C2100895CF9207
:10279000DF92EF92FF92CF9381E08093AB03109290
:1027A000AF031092AE0310928D0310928C0310921F
:1027B0009703109296031092910310929003109237
:1027C00099031092980380E090E02FEF3FEFFC0117
:1027D000E850FD4F31832083059686399105B9F77E
:1027E000E12CF12CC2E1CE9DC001CF9D900D1124B2
:1027F00048962091940230919502820F931F0E9477
:1028000015178FEFE81AF80A8AE0E816F10459F76D
:10281000E0919402F0919502DF01A452BE4F2D91F8
:102820003C91C90164E070E00E947431E80FF91F27
:10283000E851FE4F8081829FB001839F700D11246B
:10284000072E000C880B990B611571058105910508
:1028500011F00E94F230E0919402F0919502E4525E
:10286000FE4F60817181072E000C880B990B0E942E
:10287000BA07645F7F4FE0919402F0919502E452B1
:10288000FE4F80819181860F971F092E000CAA0BA5
:10289000BB0B6B01770FEE08FF08C816D906EA06D6
:1028A000FB067CF4BC01CD016C197D098E099F09E2
:1028B0000E94BA07DC01CB018C0D9D1DAE1DBF1D12
:1028C00002C0D701C601092E000CAA0BBB0BC8160B
:1028D000D906EA06FB0664F4BC01CD016C197D093A
:1028E0008E099F090E94BA07C60ED71EE81EF91E60
:1028F000D0929303C092920380E090E00E94C210B5
:1029000081E090E00E94C21082E090E00E94C2103C
:1029100061E080ED91E00E94B517811105C080ED66
:1029200091E00E94A618F4CFCF91FF90EF90DF9036
:10293000CF900C945A132FB7F8948091B5019091D1
:10294000B601A091B701B091B8012FBF8093B40335
:102950009093B503A093B603B093B70308950F9374
:102960001F938FB7F8940091B5011091B601209193
:10297000B7013091B8018FBF4091B4035091B503B6
:102980006091B6037091B70348535F4F6F4F7F4F0D
:1029900081E0401751076207730708F080E01F913C
:1029A0000F910895CF93DF93AB01682F70E0403112
:1029B00087E258076CF4483EC3E05C0764F4443691
:1029C000510564F44A30510564F420E030E00BC056
:1029D00024E130E008C02FE030E005C02AE030E01C
:1029E00002C025E030E08091CE019091CF01DC0162
:1029F000AC5EBB4FE0E6F0E0EF01C21BD30BCD9322
:102A0000DC93FC01EA5EFB4F7183608360E070E061
:102A10002AE00E94DE078091CE019091CF0144967A
:102A20000E94360A6AEF70E080E090E00E9495090B
:102A30000E94190A8823E1F3DF91CF9108954F9204
:102A40005F926F927F928F929F92AF92BF92CF923E
:102A5000DF92EF92FF92CF93DF93EC014A015B018B
:102A600081E08093B4012E01612C712C60E072E151
:102A70008AE790E0A30192010E94113169017A0175
:102A800081E0C81AD108E108F108C114D10481E03D
:102A9000E806F10488F068E478EE81E090E0A301B4
:102AA00092010E94113169017A0181E0C81AD108AE
:102AB000E108F10883E001C081E090918100987FF6
:102AC000982B9093810081149104A104B10471F0BA
:102AD000DE01AA0FBB1FA50194010E94303128EE30
:102AE00033E040E050E00E94433103C02FEF3FEF5E
:102AF000A901D0928900C09288002093B001309340
:102B0000B1014093B2015093B30180916F00826094
:102B100080936F00DF91CF91FF90EF90DF90CF9087
:102B2000BF90AF909F908F907F906F905F904F90ED
:102B30000895CF93DF939091AF01923009F46EC066
:102B4000C82F292F30E0F901E05AF24FD491F90152
:102B5000EB53FE4F80839F5F9093AF0161E00E9433
:102B6000C108D13019F0D33039F158C0109280002B
:102B70001092810080918100886080938100809113
:102B800081008160809381008C2F90E0FC01EF5BDD
:102B9000F24FE491F0E0EE0FFF1FED5CF24F259154
:102BA00034913093AE012093AD01FC01EC5EF24F05
:102BB00084918093AC0132C01092900010929100E9
:102BC0008091910088608093910080919100816054
:102BD000809391008C2F90E0FC01EF5BF24FE49129
:102BE000F0E0EE0FFF1FED5CF24F25913491309332
:102BF000AB012093AA01FC01EC5EF24F849180931B
:102C0000A9018091AF01882321F06CE380E00E944C
:102C10007F0A80E0DF91CF910C946A0BDF91CF9116
:102C2000089520E08CEC93E0B22FB111BFEFFC01CE
:102C30000024B193B193B193B1930394D1F7089564
:102C4000E091B803F091B9030190F081E02D682F75
:102C500088EB93E00994E9E9F1E001900020E9F7BD
:102C60003197AF014959514069E971E088EB93E030
:102C70000C946407FC0180919801811103C08FEFCF
:102C80009FEF08959FB7F89482E08093E900209128
:102C9000F20030E01216130614F421E030E02115A2
:102CA000310559F0289884E6809397018091F100CE
:102CB00080838091F200882319F09FBFC901089595
:102CC0008BE68093E800F9CFCF93DF931F92CDB7C7
:102CD000DEB7FC018485958597FD05C02FEF3FEF9A
:102CE000358724870BC0CE0101960E943A160197C2
:102CF00019F4898190E002C08FEF9FEF0F90DF9170
:102D0000CF9108958091BD0181110DC082E0809323
:102D1000B90184E08093BA011092BC011092BB010A
:102D200081E08093BD0189EB91E008952F923F925D
:102D30004F925F926F927F928F929F92AF92BF92CB
:102D4000CF92DF92EF92FF920F931F93CF93DF9377
:102D50008C017B016A01EC01CA59DF4F1C018CEF29
:102D6000280E311C84E1482E512C9FE9692E9DE0EC
:102D7000792E24EAA22E2DE0B22E4A01E1E08E1A2D
:102D80009108FE013497808191818E159F05A9F5E8
:102D90003296808191818C159D0579F588818730E7
:102DA00061F0893051F59401A70165EA76E0F801F8
:102DB000808191810E94890F1EC0F801208131819C
:102DC000F901E852FE4F80819181019691838083C1
:102DD000B2010E947431D901AA51BE4F892B49F426
:102DE000329680819181019691838083AD92BC92CD
:102DF00002C06D927C92F8E0F8832596C215D30547
:102E000009F0BFCFDF91CF911F910F91FF90EF900D
:102E1000DF90CF90BF90AF909F908F907F906F90FA
:102E20005F904F903F902F900895FC01158214827F
:102E3000108A118A8FEF9FEF97838683918780870F
:102E40001386128615861486168617860895DC0169
:102E50001496ED91FC911597E49116968D919C91A5
:102E600017978E0F911D019708950F931F93CF937E
:102E7000DF939B0177FF02C0295F3F4FB3E0359599
:102E80002795BA95E1F7FA0157FD3796A3E0F59536
:102E9000E795AA95E1F7DC011296CD91DC911397A5
:102EA000C453DF4FE131F105D4F5C90137FD0F9669
:102EB00044E0959587954A95E1F763E070E00E94BC
:102EC00074318C01C90160E170E00E947431AC0181
:102ED000440F551FC80175E0880F991F7A95E1F7D7
:102EE0008C0F9D1FDC01A40FB51FE830F10554F4D1
:102EF00081E090E00E2E01C0880F0A94EAF7129646
:102F00009C910BC0BF016850710981E090E001C045
:102F1000880F6A95EAF713969C91892349F4AF01CB
:102F2000B901CE01DF91CF911F910F910C946310E5
:102F30008FEFDF91CF911F910F910895DC011496CF
:102F4000ED91FC911597319684910895CF93DF937D
:102F5000FC01C085D1850E949E179E01280F311D5E
:102F6000C9010197DF91CF910895AF92BF92CF929F
:102F7000DF92EF92FF920F931F93CF93DF93EC01B9
:102F8000E62EF12CEC81FD81E491E695E695E6953F
:102F9000FE1608F04CC0EE2021F081E0E816E1F0CA
:102FA00044C0C884D98491E0C91AD108AE80BF80DA
:102FB00088E0F89E80011124B501600F711FA60101
:102FC000CE010E943517811134C00A0D1B1DB801B6
:102FD000695F7F4FA60124C008851985CE010E9434
:102FE0009E1798E0F99E60011124A801480F511D19
:102FF0006E817F816C0D7D1DCE010E943517811180
:1030000018C008851985CE010E949E17A801480F97
:10301000511D8E819F818C0D9D1DBC01695F7F4F6D
:10302000CE010E943517811104C0F394ABCF80E02C
:1030300001C081E0DF91CF911F910F91FF90EF9040
:10304000DF90CF90BF90AF900895CF93DF93EC01C6
:1030500061E00E94B517882321F028EF3FEF3D87FC
:103060002C87DF91CF9108958F929F92AF92BF925C
:10307000CF92DF92EF92FF920F931F93CF93DF9344
:10308000EC01E62EF12CCE010E949E1786958695C6
:103090008695F81608F04AC082E0E81621F0E3E0D1
:1030A000EE16E1F041C0A884B984F8E0FF9E8001EB
:1030B0001124CE80DF8081E0C81AD108A501400F1D
:1030C000511FB601CE010E943517811131C0A501F3
:1030D000400F511F495F5F4FB60121C0888499841A
:1030E000E8E0FE9E80011124CE80DF80AC80BD80B0
:1030F000F5018491A401400F511FB601680F711DA5
:10310000CE010E943517811113C0F501A490A401CE
:10311000400F511F495F5F4FB6016A0D711DCE010F
:103120000E943517811104C0F394ADCF80E001C037
:1031300081E0DF91CF911F910F91FF90EF90DF9091
:10314000CF90BF90AF909F908F900895EF92FF9295
:103150000F931F93CF93DF931F92CDB7DEB7DC01A0
:103160001496ED91FC9115973396E4911C968D91F0
:103170009C911D97E0FF19C016964D915C91179791
:103180001A962D913C911B97240F351F17963C934F
:103190002E93169718962D913C911997820F931F95
:1031A00019969C938E93189783C17D01892B99F46E
:1031B00061E0CD010E94B51781110DC0D7011C96A9
:1031C0008D919C911D97863091052CF401961D964A
:1031D0009C938E931C97F701848595851816190684
:1031E0004CF500E010E0D7011C968D919C911D9745
:1031F00008171907B4F461E0C7010E94B5178111DF
:103200000DC0D70118968D919C911997019619962A
:103210009C938E9318970F5F1F4FE5CFF70115868C
:103220001486F70184859585863091051CF40196F6
:1032300095878487D7011C968D919C911D9797FF48
:10324000CDC001961D969C938E931C9700E010E0D4
:10325000F70184859585801791070CF0BFC060E069
:10326000C7010E94B517D701882309F4ABC0149693
:10327000ED91FC9115973396E491E1FD9FC0F70124
:10328000008511850150110966817781A801C70168
:103290000E9435178D3041F5C7010E942717A801FC
:1032A000BC01C7010E9435178E30F1F4F701868109
:1032B0009781803491050CF481C0D70112968D91CD
:1032C0009C911397FC01EA51FE4F23E436E03183D1
:1032D0002083339784E080831296ED91FC911397BD
:1032E000EC51FE4F11821082F701008511850150CB
:1032F000110966817781A801C7010E943517282F1F
:10330000C70129830E942717A801BC01C7010E9499
:103310003517182F2981273011F0293031F5D701C1
:1033200018968D919C911997AC014150510957FF06
:1033300002C0495F5F4FF3E055954795FA95E1F775
:10334000F7016681778177FF02C0695F7F4FE3E015
:1033500075956795EA95E1F7D70112968D919C9145
:10336000139784539F4F0E949616173011F019300F
:1033700029F5F70180859185AC014150510957FF2E
:1033800002C0495F5F4F8A0163E0159507956A9512
:10339000E1F7C7010E94271797FD0796BC0153E08C
:1033A000759567955A95E1F7D70112968D919C9185
:1033B0001397A80184539F4F0E949616F701158614
:1033C00014860CC018968D919C91199701971996A7
:1033D0009C938E931897015011093ACFD7011A96F2
:1033E0008D919C911B971816190644F0F701828560
:1033F000938597FF5DC000E010E052C000E010E050
:10340000D7011A968D919C911B970817190774F78D
:10341000C7010E942717D7011296ED91FC911397CF
:10342000E653FE4F208131812F5F3F4F3695322F7B
:1034300022273795279582179307C4F663E0C701C3
:103440000E9434188111D2CFF701868197810196AD
:10345000978386830F5F1F4FD3CFD7011296ED91CD
:10346000FC911397E853FE4F808191819695982F98
:1034700088279795879516962D913C9117978217D7
:103480009307B4F462E0C7010E943418811110C0A0
:10349000F7018681978101979783868301501109EF
:1034A000D7011A968D919C911B9780179107ACF2CA
:1034B0000F90DF91CF911F910F91FF90EF900895A2
:1034C0000F931F93CF93DF93EC018C819D819C011F
:1034D0002B5F3F4FF901449142FF62C0AA81BB813B
:1034E0001C96ED91FC911D97E4914E815F811E9693
:1034F0006D917C911F976E0F711D641775075CF4B9
:1035000062E0698BFC013496E491F0E0F195E1957D
:10351000F109FB87EA87FC016491460F511D1E9655
:103520006D917C911F97461757073CF443E0498BF8
:103530003496849190E09B878A87F901249123FF38
:10354000A2C06989CE010E943418882319F0CE01E7
:103550000E9425188989823071F46E817F816150C3
:1035600071094FE750E0CE010E943517811103C069
:10357000CE010E9425188989833009F084C0CE01CC
:103580000E942717BC016F5F7F4F4FE750E0CE01CD
:103590000E943517811177C0CE010E94251873C093
:1035A000F901249120FF2AC08989823091F462E0D8
:1035B000CE010E943418882311F083E014C0EC81FE
:1035C000FD813496E491F0E0F195E195F109FB87F6
:1035D000EA878989833091F463E0CE010E94341830
:1035E000882329F082E0898B1B861A8607C0EC812C
:1035F000FD813496E491F0E0FB87EA87EC81FD8160
:103600003596E491E1FF3FC089898230D9F4CE013B
:103610000E94A617AC014F5F5F4F6E817F816150A2
:103620007109CE010E943517811102C083E020C0CC
:10363000EC81FD813496E491F0E0F195E195F1099A
:10364000FB87EA8789898330F1F4CE010E94A617AF
:103650008C01CE010E942717A8014F5F5F4FBC016C
:103660006F5F7F4FCE010E943517811105C082E048
:10367000898B1B861A8607C0EC81FD813496E49104
:10368000F0E0FB87EA87CE01DF91CF911F910F9188
:103690000C94A618CF93DF93EC010E949E176C81C7
:1036A0007D81FB012491829F9001112483E0359557
:1036B00027958A95E1F73296E491E29FC001E39F56
:1036C000900D1124EE85E29FA001E39F500D11247F
:1036D000840F951F0796860F971FDF91CF9108954E
:1036E000CF92EF920F93CF93DF93EC01EC81FD81AA
:1036F0003696E491EE2319F10E949E17E82EEC8194
:10370000FD810491CE010E944A1B9C01AA81BB81CC
:10371000FD01EF51FE4F4885598580819181481BFD
:10372000590B32976E817F8180819181681B790B63
:10373000C12C16968D919C9117970E945E0CCE011C
:103740000E949E17E82EEC81FD810491CE010E941B
:103750009E17EC81FD814491AA81BB81849FA001C9
:10376000112483E0559547958A95E1F78E85849FCE
:103770009001859F300D1124295F3F4F2E0F3F1F71
:10378000FD01EF51FE4F4885598580819181481B8D
:10379000590B32976E817F8180819181681B790BF3
:1037A000CC24C39416968D919C9117970E945E0C21
:1037B000DF91CF910F91EF90CF900895EF92FF920C
:1037C0000F931F93CF93DF93DC0116962D913C91BD
:1037D0001797EB01C21BD30B18968D919C911997EB
:1037E000D7FD3AC08A01081B190B17FD35C0149686
:1037F000ED91FC911597E491F0E0EC17FD0764F171
:103800007D01CD010E949E1790E08017910724F161
:10381000C7010E944A1BD7011496ED91FC911597A0
:103820002491A80133E0559547953A95E1F7249FF7
:10383000F001259FF00D1124CE0FDF1FFC01EC0FCE
:10384000FD1F849190E00770112702C09595879520
:103850000A95E2F7817001C080E0DF91CF911F915E
:103860000F91FF90EF9008958F929F92AF92BF9229
:10387000CF92DF92FF920F931F93CF93DF93F12CA0
:10388000CF2CD12C80919A0390919B03C816D90616
:103890000CF076C0D194C194D108CC0CDD1C009101
:1038A000D8011091D901055F1F4F0C0D1D1D80918E
:1038B000A9039091AA03081B190BC091D601D091BE
:1038C000D70121968091A7039091A803C81BD90B1B
:1038D000A090CE01B090CF014E0126E0820E911C47
:1038E000D7FF0DC0C0E0D0E00AC0C817D9077CF4EC
:1038F00021E0A801BE01C5010E94CB0D2196C401A3
:1039000021E8821691048CF380E890E0EECF80915C
:10391000D8019091D9010A96C80ED91E8091A903A9
:103920009091AA03C81AD90AC091D601D091D701A3
:1039300021968091A7039091A803C81BD90B0091F1
:10394000CE011091CF015E0186E0A80EB11CD7FF19
:103950000DC0C0E0D0E00AC0C217D3077CF421E05C
:10396000A601BE01C8010E94CB0D2196950181E8F8
:10397000A816B1048CF320E830E0EECFF39480CFAA
:10398000DF91CF911F910F91FF90DF90CF90BF906B
:10399000AF909F908F900895EF92FF920F931F9397
:1039A000CF93DF93C0E0D0E0CE0188539E4F7C01DF
:1039B000FC0180A58823B9F08E0100521E4FC8017A
:1039C0000E9427174091A7035091A803841B950BD1
:1039D0001816190644F4F701268D378D241B350B74
:1039E000203831055CF06296C43BD105E9F6DF91E1
:1039F000CF911F910F91FF90EF900895C8010E9401
:103A0000701BF1CF2F923F924F925F926F927F92F5
:103A10008F929F92AF92BF92CF92DF92EF920F93CD
:103A20001F93CF93DF93CDB7DEB72A970FB6F894E5
:103A3000DEBF0FBECDBF9091A7038091A803E09198
:103A4000A903F091AA032091A40320FF94C1292F78
:103A5000382F37FF02C02D5F3F4FC90195958795DD
:103A60009595879560E870E00E9474319A87898700
:103A7000CF016CE070E00E9474311B019B012C5E51
:103A80003F4F3A832983A984BA8430E6A31AB10848
:103A90002B0164E3460E511C69857A8560587109D3
:103AA000EE24E39409811A819501A2018091CE014F
:103AB0009091CF010E94FA0EC984DA8470E4C71A8B
:103AC000D1088201960149815A81B5018091CE01C8
:103AD0009091CF010E94FA0E510184E2A80EB11C10
:103AE00085019601A201B6018091CE019091CF018E
:103AF0000E94FA0E89849A8493E4891A9108698451
:103B00007A84EDE36E1A71089401A501B3018091E6
:103B1000CE019091CF010E94FA0E6101F6E2CF0E24
:103B2000D11C29853A852B5331098601A501B301A2
:103B30008091CE019091CF010E94FA0E29853A859D
:103B400025543109A501B4018091CE019091CF0196
:103B50000E94FA0E29853A85215431093C832B8332
:103B600069857A856F53710978876F83A601809183
:103B7000CE019091CF010E94FA0EC10188969E83DA
:103B80008D838C019301A6016F8178858091CE0190
:103B90009091CF010E94FA0E0D811E819401A60121
:103BA0006B817C818091CE019091CF010E94FA0EB1
:103BB0009CE1290E311C89849A84E0E28E1A9108D6
:103BC00069857A856853710981019401A201809108
:103BD000CE019091CF010E94FA0E29853A85285096
:103BE00031098201A101B4018091CE019091CF01F0
:103BF0000E94FA0E69847A84F0E26F0E711C0981CA
:103C00001A819301A20169857A858091CE019091F4
:103C1000CF010E94FA0E89849A8420E4820E911CBE
:103C20008201940149815A81B3018091CE01909122
:103C3000CF010E94FA0E85019401A201B401809186
:103C4000CE019091CF010E94FA0E69847A8433E408
:103C5000630E711C89849A846DE3860E911C930116
:103C6000A501B4018091CE019091CF010E94FA0E7E
:103C700029853A85255C3F4F8601A501B4018091D5
:103C8000CE019091CF010E94FA0E29853A852B5BD7
:103C90003F4FA501B3018091CE019091CF010E94C9
:103CA000FA0EA984BA8471E4A70EB11C89859A859D
:103CB000CF969C838B839501A601BC018091CE0198
:103CC0009091CF010E94FA0E0D811E819401A601F0
:103CD0006B817C818091CE019091CF010E94FA0E80
:103CE0000D811E819301A601B5018091CE019091B5
:103CF000CF010E94FA0EC984DA8490E6C90ED11C65
:103D000069857A85685B7F4F81019601A201809168
:103D1000CE019091CF010E94FA0E29853A8528584C
:103D20003F4F8201A101B6018091CE019091CF0158
:103D30000E94FA0EC984DA84ECE9CE0ED11C6985A2
:103D40007A8560587F4F09811A819601A20180917E
:103D5000CE019091CF010E94FA0E29853A852E530B
:103D60003F4F820149815A81B6018091CE019091E5
:103D7000CF010E94FA0E8091A7039091A80397FDAE
:103D800007969C0163E0359527956A95E1F73C839A
:103D90002B83490173E0880C991C7A95E1F7222462
:103DA0002394312C8091A7039091A80397FD079647
:103DB00023E0959587952A95E1F74096EB81FC8164
:103DC0008E179F070CF4EFC0A090A903B090AA0330
:103DD000B7FE03C037E0A30EB11C53E0B594A7941F
:103DE0005A95E1F78B819C8197FD0F96B4E09595EC
:103DF0008795BA95E1F763E070E00E9474319C0109
:103E00008B819C8160E170E00E947431880F991F62
:103E1000350103E0660C771C0A95E1F745E0220FB7
:103E2000331F4A95E1F728533E4FA901480F591F08
:103E3000BA0161537F4F7A836983FA01E253FF4FDE
:103E4000FE83ED83C090A903D090AA03C601D7FCDE
:103E5000079633E0959587953A95E1F708968A1588
:103E60009B050CF459C0F1E1AF16B1040CF05EC033
:103E700028E0A216B1045CF4ED81FE812081C1012D
:103E80000A2C01C0880F0A94EAF782230DC0C501ED
:103E90000897910102C0220F331F8A95E2F7C901EA
:103EA000E981FA8190818923882309F43FC0A30125
:103EB0004C195D098091A7039091A803B401681B78
:103EC000790BC12C88E0E82E08E025EF3DE08091D9
:103ED000CE019091CF010E945E0C8091A903909138
:103EE000AA03A301481B590B8091A7039091A80333
:103EF000B401681B790BCC24C3942DEE3DE0809176
:103F0000CE019091CF010E945E0CFFEFAF1ABF0A65
:103F100028E0620E711C96CF6B817C816F5F7F4FB2
:103F20007C836B8378E0870E911C3CCFA5016B816D
:103F30007C8184E992E00E94631087508A3028F7E0
:103F4000E82FF0E0EE0FFF1FEE5EFE4F4080518045
:103F500041145104D1F2A3014C195D098091A703CA
:103F60009091A803B401681B790BC12CE8E0EE2EF8
:103F700008E025EF3DE08091CE019091CF010E94B5
:103F80005E0C8091A9039091AA03A301481B590BD1
:103F90008091A7039091A803B401681B790BCC24EE
:103FA000C3949201ACCF2A960FB6F894DEBF0FBE31
:103FB000CDBFDF91CF911F910F91EF90DF90CF9008
:103FC000BF90AF909F908F907F906F905F904F9039
:103FD0003F902F900895FF920F931F93CF93DF93FD
:103FE000F82E8B01EA0184E992E00E9463108111AE
:103FF00024C0A0918C03B0918D0385E08A9F90012D
:104000008B9F300D112428533E4FF901E25DFE4F86
:10401000118300833296D183C0833296F082CD0122
:1040200001968E31910529F090938D0380938C0336
:1040300004C010928D0310928C03DF91CF911F91D9
:104040000F91FF9008950F931F93CF93DF932091CB
:10405000D6013091D70182179307CCF0EB018C0188
:1040600080ED91E00E9427178017910784F08091DE
:10407000D8019091D901C817D9074CF080ED91E093
:104080000E94A6178C179D0714F081E001C080E004
:10409000DF91CF911F910F910895CF92DF92EF9210
:1040A000FF920F931F93CF938C01C62FD72E462FCD
:1040B000572FBC018BE00E94EB1F78018FEFE81AAD
:1040C000F80A4C2F5D2DB7018CE00E94EB1FCF5FEB
:1040D000C03158F4CC2ED12CA601B8018FE00E943B
:1040E000EB1FA601B70180E1F0CFCF911F910F9197
:1040F000FF90EF90DF90CF900895CF92DF92EF92F4
:10410000FF920F931F93CF93DF938C01EB016B0111
:104110008FEFC81AD80AA601B8018DE00E94EB1FE4
:1041200078018FEFE81AF80AA601B7018EE00E9425
:10413000EB1FAE01B8018FE00E94EB1FAE01B7018B
:1041400080E1DF91CF911F910F91FF90EF90DF9071
:10415000CF900C94EB1F8091AB03813048F18330FA
:1041600018F08530A8F008950E94021D0E94CC1C12
:104170008091AC0380FD1CC080ED91E00E94701B1B
:1041800080919A0390919B03892B91F00C94341C9D
:1041900080ED91E00E94701B80919A0390919B03A7
:1041A000892B11F00E94341C0E94021D0C94CC1C1F
:1041B0000895FC018485958597FD0BC09FB7F89401
:1041C00082E08093E9008091F2009FBF90E0019629
:1041D00008959FB7F89482E08093E9008091F200FF
:1041E0009FBF90E0089540912608509127082091A4
:1041F00024083091250842175307B4F49091E80041
:104200009570E1F39091E80092FD19C08093F10060
:10421000809126089091270801968F739927892B02
:1042200019F48EEF8093E80080912608909127087A
:104230000196909327088093260881E0089580E0F6
:104240000895CF92DF92EF92FF920F931F93CF9337
:10425000DF931F92CDB7DEB7182F062FE42E862FDF
:10426000880F8E5F99830E94F32083E00E94F320E1
:10427000F12EC12E9981D92E8C2D8F19801798F48B
:10428000F601E7FE02C0849101C080810E94F32004
:10429000182F80E00E94F3208123FFEFCF1ADF0A5E
:1042A0008111EACF01C081E00F90DF91CF911F9182
:1042B0000F91FF90EF90DF90CF900895DF92EF92F3
:1042C000FF920F931F93CF93DF93D82E8A017B0128
:1042D000E40EF51EEB01CE15DF0571F0D7FE03C02D
:1042E000FE01849101C088810E94F32021968111F2
:1042F000F2CF8FEF9FEF01C0C801DF91CF911F91E7
:104300000F91FF90EF90DF900895615030F0209171
:10431000F100FC0120830196F8CF289884E6809371
:10432000970108950F931F93CF93DF931F92CDB7FB
:10433000DEB78C01FC018485958597FF0EC0CE0108
:1043400001960E943A16019719F4298130E002C0C3
:104350002FEF3FEFF80135872487F8018485958595
:104360000F90DF91CF911F910F9108950F931F939D
:10437000CF93DF931F92CDB7DEB782E0898342E40B
:1043800050E06DEF7DE080E80E945E210E94821681
:10439000DC0112960D911C9113970115110569F01E
:1043A000D801ED91FC910280F381E02DBE016F5F99
:1043B0007F4FC801099597FF07C089810F90DF9152
:1043C000CF911F910F910895F80100851185E5CFD8
:1043D0001F920F920FB60F9211248F939F9380918B
:1043E000E1009091E100937F9093E10083FF0FC083
:1043F0001092E90091E09093EB001092EC0092E3B0
:104400009093ED001092980198E09093F00082FF55
:1044100020C093E09093E9009091F200992319F065
:104420009AE39093E80090919501992339F0909147
:104430009501915090939501992389F1909197015D
:10444000992339F090919701915090939701992376
:1044500041F184FF10C08091E2008E7E81608093E4
:10446000E2008091E1008F7E8093E10080919601CF
:104470008E7E806111C080FF16C08091E2008E7E2A
:1044800080618093E2008091E1008E7E8093E10064
:10449000809196018E7E81608093960104C05D9A22
:1044A000CDCF289AD6CF9F918F910F900FBE0F90AE
:1044B0001F9018951F920F920FB60F921124CF9252
:1044C000DF92EF92FF920F931F932F933F934F939F
:1044D0005F936F937F938F939F93AF93BF93EF936C
:1044E000FF93CF93DF93CDB7DEB76C97DEBFCDBF21
:1044F0001092E9008091E80083FFEDC168E0CE01F1
:1045000045960E94852182EF8093E8008D8987FF80
:1045100005C09091E80090FFFCCF03C09EEF909300
:10452000E800982F907609F0C6C09E892F89188DD3
:1045300091110CC0803829F4809123088093F100F8
:1045400002C01092F1001092F10048C1422F50E0D9
:10455000512B913051F4811141C14130510509F085
:104560003DC1809123088D7F0BC0933061F4811190
:1045700035C14130510509F031C180912308826075
:10458000809323082BC1953041F48091E80080FF8F
:10459000FCCF20682093E30021C1963009F05FC072
:1045A000EB8CFC8C1092E9001092270810922608E0
:1045B000123091F510922508109224080E94B6211D
:1045C00099E0BE016F5F7F4FDB01E92F1D92EA95F5
:1045D000E9F799831A8391E09E8390EA98879AEF8E
:1045E00099872091260830912708275F3F4F3C8309
:1045F0002B838D831092E9001092270810922608D1
:10460000F0922508E092240849E050E080E00E9402
:104610005E210E94B621E2C0F0922508E0922408B3
:104620000E948216DC011296ED90FC901397E11423
:10463000F10409F4C0C0D701ED91FC910480F5812B
:10464000E02DBE016B5E7F4FC7010995009719F001
:104650000CF0C4C0C7C0F701E084F184E8CF973004
:1046600009F4C0C0983021F481E08093F100B6C015
:10467000993009F0B3C0837009F0B4C0E1E5F1E00E
:1046800081E021E036E39081992361F08093E90095
:104690002093EB0091919093EC003093ED008F5FAD
:1046A000873089F78EE78093EA001092EA008F89BD
:1046B0008093980193C08B8D9C8D1092E90010928D
:1046C0002708109226089093250880932408898D46
:1046D000811156C08E899D89913A59F4813209F031
:1046E00081C047E050E062E071E080E00E945E211E
:1046F00075C0913209F076C0833289F4888D90E0DC
:10470000982F88272F89822BA0E0B0E080930A01A0
:1047100090930B01A0930C01B0930D015FC0803208
:1047200069F48091E80082FFFCCF67E082E091E0CD
:104730000E9485218BEF8093E80006C0823209F049
:104740004DC08F898093090180912208882319F038
:10475000EEEFFAE002C0E0E0F8E080910201909113
:104760000301A0910401B0910501803B9440A10593
:10477000B10509F07BC08091090180FF93C076C02C
:104780000E948216DC0112960D911C91139701155F
:10479000110541F1D801ED91FC910190F081E02DDE
:1047A000BE016B5E7F4FC8010995811117C0F801EA
:1047B00000851185ECCF113009F44EC0133091F40F
:1047C0008F89882309F445C0823081F440E860E194
:1047D00081E69EE00E942121882321F08EEF8093C4
:1047E000E80079C081E28093EB0075C0813029F444
:1047F00040E86BE085E59EE0EDCF833099F70E94BD
:104800008216DC011296ED90FC9013978E010F5FDB
:104810001F4F6801E114F10479F0D701ED91FC918B
:104820000680F781E02DB801C7010995080F111D19
:10483000F701E084F184EECFD8011C92F6010190DB
:104840000020E9F73197BF016C197D0940E0C601EE
:10485000C1CF6FE37EE002C063E47EE061157105C5
:1048600009F2FB01449150E080E840CF0FB6F89484
:10487000A89580916000886180936000109260002C
:104880000FBEA895EE3F2AE0F20739F08091FE0AAC
:104890009091FF0A91838083A1CF1092FF0A10921A
:1048A000FE0A9CCFEE3F8AE0F80731F080819181CB
:1048B0009093FF0A8093FE0A87E797E791838083AE
:1048C0009BE088E10FB6F894A895809360000FBE36
:1048D0009093600083CF6C960FB6F894DEBF0FBE46
:1048E000CDBFDF91CF91FF91EF91BF91AF919F919C
:1048F0008F917F916F915F914F913F912F911F9178
:104900000F91FF90EF90DF90CF900F900FBE0F9020
:104910001F901895CF93DF93CDB7DEB728970FB6CA
:10492000F894DEBF0FBECDBF789484B5826084BD9D
:1049300084B5816084BD85B5826085BD85B58160A3
:1049400085BD80916E00816080936E001092810021
:1049500080918100826080938100809181008160DC
:10496000809381008091800081608093800080919D
:10497000910082608093910080919100816080938A
:104980009100809190008160809390008091C1009F
:1049900084608093C1008091C10082608093C100D7
:1049A0008091C10081608093C1008091C3008160CB
:1049B0008093C3008091C00082608093C00080918A
:1049C000C20081608093C20080917A0084608093ED
:1049D0007A0080917A00826080937A0080917A00D8
:1049E000816080937A0080917A00806880937A0059
:1049F0001092980110922308109296018091D7008E
:104A000081608093D70080EA8093D80089B5806167
:104A100089BD89B5826089BD09B400FEFDCF61E022
:104A200070E080E090E00E9495098091D8008F7C32
:104A300080618093D8008091E000807F8093E000C7
:104A40008091E1008E7E8093E1008DE08093E20012
:104A5000559A209AEEEFFFE7859194918B3F9C4DFC
:104A600019F481E0809322081FB7F89480917201B5
:104A7000811127C0E2E5FDE08491E5E2FDE094913B
:104A8000E82FF0E0EE0FFF1FE856FE4FA591B4911E
:104A9000EC91E92321F461E081E10E945E0861E08C
:104AA00081E10E94C1088CB580618CBD8CB58064A9
:104AB0008CBD61E08FE00E94C10861E080E10E944E
:104AC000C108809172018F5F809372011FBF03EB59
:104AD00011E0F80184910E5F1F4F31966491882395
:104AE00019F00E94C108F5CF61E086E00E945E08DF
:104AF00061E070E080E090E00E94950960E086E06F
:104B00000E945E086AE070E080E090E00E949509F3
:104B100061E086E00E945E08EDE4FDE0E491F0E0F3
:104B2000EE0FFF1FED5CF24F8591949190936B0116
:104B300080936A01E0E2FDE0E491E0936901E5E43D
:104B4000FDE0E491F0E0EE0FFF1FED5CF24F859188
:104B500094919093680180936701E8E1FDE0E4910E
:104B6000E09366018CB58C7F8CBD8DB581608DBD69
:104B70000E94460A06EA11E0F1E0033B1F0739F004
:104B8000F80184910E94780A0F5F1F4FF5CF0E94B1
:104B9000640A809164008160809364008091640065
:104BA00082608093640080916400806880936400D8
:104BB00080916400806480936400809165008160CE
:104BC000809365000E94190A87FF18C000E014E076
:104BD00080E00E94780A01501109D1F760E070E08E
:104BE0008AE00E94FD0860E070E08BE00E94FD0812
:104BF00060E070E089E00E94FD08FFCF2EEEA22E5B
:104C0000BB24BA9418E188248A94912C812F8A19A4
:104C1000B401681B71098AE00E94FD086FEF70E023
:104C20008BE00E94FD086FEF70E089E00E94FD08B4
:104C30000E941116CC24C39490E1E92E08E528EED9
:104C400030E0A50164E170E088EB93E00E945E0C27
:104C50008CEC93E00E94360A6BE170E080E090E01B
:104C60000E94950920EFA21206C06AEF70E080E072
:104C700090E00E9495093FEFA31AB30A49E1A416F8
:104C8000B10421F66EEE72E080E090E00E9495099A
:104C90006FEF70E08AE00E94FD086FEF70E08BE03C
:104CA0000E94FD086FEF70E089E00E94FD0885E03A
:104CB0000E9499158DE00E9499151092700182E072
:104CC00090E00E94FB30882369F080916400877F28
:104CD0008093640080916500877F8093650081E008
:104CE000809371010E94460A87EA0E94780A0E9416
:104CF000640A80EB93E054E0580F5C8310928801C3
:104D00000E949B14FF24FA9411E088E3A82EB12C92
:104D10000E94AF14882359F10E94190A982F9C70A1
:104D200009F063C087FD02C084FF05C090917F0138
:104D3000912790937F0186FF0AC09091C7019F3F02
:104D400019F41093C70103C09F5F9093C70185FFBB
:104D50000BC08091C701813019F4F092C70105C0E2
:104D600081508093C70101C081110E949B140E9451
:104D70001116CC24C39406E3E02E00E825ED31E0C3
:104D800040E050E060E070E088EB93E00E945E0C51
:104D90001092CD071092CC07B092CF07A092CE0709
:104DA0006DEC71E088EB93E00E943A086EEF70E0E2
:104DB00080E090E00E94BA07DC01CB010196A11DC2
:104DC000B11D8093C70180917F01882319F06AEC9F
:104DD00071E002C066EC71E088EB93E00E943A0853
:104DE0008CEC93E00E94360A93CF81E08093C70158
:104DF0006EEF70E080E090E00E94BA07DC01CB012A
:104E00000196A11DB11D8093C701BC01CD0177277B
:104E1000882799270E94BA0700EB13E00E94ED3023
:104E20002FEF30E040E050E00E941131D8016D9347
:104E30008D01BC81B013F2CF10929B0310929A03A4
:104E400010929D0310929C0310929F0310929E0358
:104E50001092A1031092A00381E090E09093A3032D
:104E60008093A2039093A5038093A40383E896E024
:104E70009093D5018093D4018AE090E09093D7017C
:104E80008093D6011092D9011092D8011092DB01C3
:104E90001092DA011092DD011092DC011092DF0114
:104EA0001092DE010E94C713A2E02A2E312CB3E734
:104EB0008B2EB5E09B2E11E08091AB03882309F483
:104EC000AAC42FB7F8948091B5019091B601A09132
:104ED000B701B091B8012FBF8093840190938501F1
:104EE000A0938601B093870180917F01882309F404
:104EF000B5C080917001811118C0009188010830FF
:104F000060F490926F0180926E0190926D01809298
:104F10006C010E94930B109370010F5F003119F028
:104F20000093880102C0109288018091AE03909195
:104F3000AF030097D1F0E5E5F5E0F0937E01E09353
:104F40007D0190937C0180937B011092AF031092BE
:104F5000AE0330920101209200011092770110926D
:104F600078011092790110927A0120917B013091A1
:104F70007C012115310509F471C0C0908401D090E5
:104F80008501E0908601F090870140917301509176
:104F90007401609175017091760180917701909113
:104FA0007801A0917901B0917A01840F951FA61F15
:104FB000B71FC816D906EA06FB0608F44FC0809151
:104FC000000190910101AC014F5F5F4F50930101CF
:104FD00040930001F901E80FF91F84918F3F59F4C4
:104FE00010927C0110927B012FEF3FEF3093010173
:104FF0002093000133C0582F5F70F90194913196CE
:10500000E491E59FA0011124FA01E90FF11DAF0120
:10501000FF0F660B770B40937301509374016093FD
:1050200075017093760182958F7090E08150904861
:10503000880F991FE0917D01F0917E01E80FF91F23
:1050400085919491969587950E941F15C09277013E
:10505000D0927801E0927901F0927A014091840136
:105060005091850160918601709187018091800146
:1050700090918101A0918201B09183018196A11D3F
:10508000B11D84179507A607B70708F015CF409301
:1050900080015093810160938201709383010E948B
:1050A00011160E94190A9091CC0182FF06C091113D
:1050B00007C091E09093CC0103C091111092CC01F4
:1050C0009091CD0183FF06C0911107C091E09093AC
:1050D000CD0103C091111092CD019091C90187FFBC
:1050E00006C0911107C091E09093C90103C09111CE
:1050F0001092C9019091CB0184FF06C0911107C0A5
:1051000091E09093CB0103C091111092CB0190914B
:10511000C80185FF06C0911107C091E09093C801B6
:1051200003C091111092C8019091CA0186FF06C078
:10513000911107C081E08093CA0103C091111092C0
:10514000CA01E0909403F0909503C7019695982FBB
:105150008827979587959C0121583F4F7901809129
:10516000CD01811102C083E001C084E02091C8011B
:105170009091CA01211116C0911127C08091DA01C6
:105180009091DB01181619062CF401979093DB011E
:105190008093DA018091DA019091DB0197FF2AC0B8
:1051A000019624C02091DA013091DB0121503109B0
:1051B000482F50E0519541955109241735070CF0BF
:1051C000F7C55093DB014093DA01992399F02091C0
:1051D000DA013091DB012F5F3F4F90E08217930798
:1051E0002CF03093DB012093DA0104C09093DB01B3
:1051F0008093DA018091CC01882361F080ED91E009
:105200000E942518882331F08EE496E09093AF0336
:105210008093AE038091CB018823C1F18091D601A8
:105220009091D701803491058CF10091D8011091B3
:10523000D90180ED91E00E949E17A801480F511DF1
:105240004F5F5F4F6091D6017091D70180ED91E083
:105250000E9435178B30D1F40091D8011091D901FB
:1052600080ED91E00E949E17D82E80ED91E00E9483
:105270002717BC01A8014D0D511D4F5F5F4F80EDF9
:1052800091E00E9435178C3009F497C58091AB03EB
:10529000833069F40091AC031091AD0380ED91E08F
:1052A0000E949E1790E0081719070CF498C580918A
:1052B000AB03843009F0A6C50091AC031091AD0397
:1052C00080ED91E00E949E1790E0081719070CF0FE
:1052D00099C58091D8019091D90101979093D901F6
:1052E0008093D8018091AC039091AD030196909387
:1052F000AD038093AC0300EE11E045E5442E46E09B
:10530000542ED80150968C91882309F46DC0C801A1
:105310000E94601AF80160857185E616F70624F48C
:10532000C8010E94151760C0868197810E942320C2
:1053300081119BC5F801C084D184C8010E94271740
:10534000B6010E942320811190C5C8010E94A617B2
:10535000BC01D80116968D919C9117970E9423202D
:10536000811183C5C8010E94A6176C01C8010E9463
:105370002717B6010E942320811177C535C080917F
:10538000D8019091D901F801A084B184A816B9067A
:105390000CF45C0180ED91E00E94A6173C01C8016D
:1053A0000E94A617681679060CF06FC580ED91E093
:1053B0000E94A6178A159B050CF069C5EFEFCE1A5F
:1053C000DE0A80ED91E00E9427175C01C8010E946F
:1053D0002717A816B9060CF056C580ED91E00E947B
:1053E00027178C159D055CF60E5E1F4F32E00439C1
:1053F000130709F086CF8091AB03813081F480914F
:10540000D8019091D901E816F9064CF482E0809316
:10541000AB0389E190E09093AD038093AC0380915E
:10542000AB03823009F04CC10091AC031091AD0385
:105430000115110509F044C18091A2039091A303C5
:1054400001979093A3038093A2030E94AB208091C5
:10545000A2039091A303892B79F110929B031092E0
:105460009A038091A40380FD02C008E510E083E860
:1054700096E09093D5018093D4018AE090E09093D8
:10548000D7018093D6011093D9010093D8011092CF
:10549000DB011092DA011092DD011092DC01109212
:1054A000DF011092DE010E94C71368EC70E080E01B
:1054B00090E00E94950904C18091D6019091D70196
:1054C00097FD079633E0959587953A95E1F72091FA
:1054D0009E0330919F03820F931F90939F038093AD
:1054E0009E031092AB03E090CE01F090CF0100E15B
:1054F00010E021E048E050E0B801C7010E94CB0D68
:105500000F5F1F4F00371105A1F700E110E021E008
:1055100047E350E0B801C7010E94CB0D0F5F1F4F5A
:1055200000371105A1F708E010E021E0A80160E1D3
:1055300070E0C7010E94CB0D0F5F1F4F08331105AC
:10554000A1F708E010E021E0A8016FE670E0C701D4
:105550000E94CB0D0F5F1F4F08331105A1F7C090BC
:10556000CE01D090CF0121E1E22EF12C09E010E034
:1055700020E0A801B701C6010E94CB0D0F5F1F4FAD
:1055800007331105A9F74FEFE41AF40A5FE6E516B1
:10559000F10461F7A090CE01B090CF019CE0C92E3C
:1055A000D12CE12CF12C00E010E0F80183E0F5951E
:1055B000E7958A95E1F7EE0DFF1DEB53FA4F8491C5
:1055C000980127703327A0E8B0E002C0B595A795F1
:1055D0002A95E2F7E82FF0E0EA23FB23EF2B41F0D6
:1055E00021E0A601B801625E7F4FC5010E94CB0D8C
:1055F0000F5F1F4F08341105C1F6B9E0EB0EF11C27
:10560000EFEFCE1ADE0AFEE7EF16F10461F68091A5
:10561000CE019091CF01FC01EC5EFB4F0AE110E05E
:105620001183008332962DE130E0318320836FEBCC
:1056300075E00E943A088091CE019091CF01FC0163
:10564000EC5EFB4F24E130E031832083329625E28B
:1056500030E03183208368EB75E00E943A08809146
:10566000CE019091CF01FC01EC5EFB4F11830083D2
:1056700032962DE230E03183208362EB75E00E94A8
:105680003A0860919C0370919D038DE10E94D214B1
:1056900060919E0370919F0385E20E94D2146091F5
:1056A0009E0370919F0380919C0390919D03680FCE
:1056B000791F70939D0360939C038DE20E94D21426
:1056C0008091AB03813069F42091AC033091AD033C
:1056D0002115310531F0215031093093AD0320936C
:1056E000AC038350823008F03EC00091AC031091AF
:1056F000AD0380ED91E00E949E1790E00817190716
:1057000091F51092AD031092AC038091D601909167
:10571000D70197FD079623E0959587952A95E1F7A0
:1057200020919E0330919F03820F931F90939F03BC
:1057300080939E038091A4039091A503019690937A
:10574000A5038093A4032AE030E03093D70120938F
:10575000D60180FDB6C388E590E09093D90180938F
:10576000D8010E94C7138091AB0381110E94AB2026
:1057700001E010E01093CD070093CC071093CF0702
:105780000093CE0766ED76E088EB93E00E943A083E
:1057900040919C0350919D0360E070E02AE088EB0B
:1057A00093E00E94DE078EE690E09093CD07809311
:1057B000CC071093CF070093CE0763ED76E088EB1C
:1057C00093E00E943A0840919A0350919B034F5FE7
:1057D0005F4F052E000C660B770B77FF12C08DE232
:1057E0004D835E836F8378870E9420164D815E8192
:1057F0006F81788570956095509541955F4F6F4F9B
:105800007F4F2AE088EB93E00E94DE078CEC93E068
:105810000E94360A50CB10E08091AF01181728F48F
:10582000812F0E946A0B1F5FF7CF10927001E090EA
:105830009C03F0909D03E114F10409F404C202E317
:1058400010E0312CC8010E94870FD82EC8010196A4
:105850000E94870F2FEFD21202C08F3F21F0282F16
:1058600030E03D2902C020E030E02E153F0508F071
:10587000E3C180E289838A838B830E949B14F12C8D
:1058800014E1812E912CCF2C0F2C000CDD0837E079
:10589000C30ED11CA3E0CC0CDD1CAA95E1F73601A8
:1058A00046E0640E711CB8E44B2E512C0E94111678
:1058B00080E190E09093CD078093CC071092CF07C2
:1058C0001092CE076CEB76E088EB93E00E943A08EA
:1058D00080919D038F9380919C038F93A2E6B1E00A
:1058E000BF93AF93A9E9B1E0BF93AF930E94A731F3
:1058F00028E530E03093CD072093CC071092CF07F6
:105900001092CE070E942B1648E350E05093CD072B
:105910004093CC079092CF078092CE0789810E9456
:10592000201680E490E09093CD078093CC0790926E
:10593000CF078092CE078A810E9420165092CD0711
:105940004092CC079092CF078092CE078B810E9425
:1059500020160F900F900F900F900F900F90F8E37C
:10596000AF2EB12C95012A5F3F4FEE24E3940BE15B
:1059700010E04BE150E0B50188EB93E00E94FA0E95
:1059800098E0A90EB11CA0E5AA16B10459F7E12CC4
:105990000CE110E028E530E04CE150E068E370E015
:1059A00088EB93E00E94FA0EEE24E39493014CE11D
:1059B00050E0B60188EB93E00E94FA0E8CEC93E085
:1059C0000E94360A0E94AF14882309F46FCF0E9408
:1059D000190AE82E847289F0FA94F7FC0DC08091C0
:1059E0007F01882351F04AEF50E060E070E086E1EB
:1059F00094E00E941F1501C0F12CE6FE13C0F39441
:105A0000B2E0BF156CF080917F01882359F04AEF16
:105A100050E060E070E086E194E00E941F1502C053
:105A2000E2E0FE2EE4FE45C00F2D0F2C000C110B02
:105A3000E1E0F0E0EC0FFD1FE00FF11FD080D39408
:105A4000D08280917F01882341F04AEF50E060E0EE
:105A500070E08BE092E00E941F15E0E3DE1208C0C8
:105A600080E2E1E0F0E0EC0FFD1FE00FF11F80832A
:105A7000E1E0F0E0EC0FFD1FE00FF11F80818132CB
:105A800011F481E48083E1E0F0E0EC0FFD1FE00F12
:105A9000F11F80818B3511F480E38083E1E0F0E039
:105AA000EC0FFD1FE00FF11F8081803411F481E2C3
:105AB0008083E7FE45C00F2D0F2C000C110BE1E099
:105AC000F0E0EC0FFD1FE00FF11FD080DA94D082E0
:105AD00080917F01882341F04AEF50E060E070E060
